{"abi":[{"type":"constructor","inputs":[],"stateMutability":"nonpayable"},{"type":"function","name":"ADMIN_ROLE","inputs":[],"outputs":[{"name":"","type":"bytes32","internalType":"bytes32"}],"stateMutability":"view"},{"type":"function","name":"BPS_DENOM","inputs":[],"outputs":[{"name":"","type":"uint256","internalType":"uint256"}],"stateMutability":"view"},{"type":"function","name":"DEFAULT_ADMIN_ROLE","inputs":[],"outputs":[{"name":"","type":"bytes32","internalType":"bytes32"}],"stateMutability":"view"},{"type":"function","name":"MARKET_FIRST_TO_SCORE","inputs":[],"outputs":[{"name":"","type":"bytes32","internalType":"bytes32"}],"stateMutability":"view"},{"type":"function","name":"MARKET_HIGHEST_QUARTER","inputs":[],"outputs":[{"name":"","type":"bytes32","internalType":"bytes32"}],"stateMutability":"view"},{"type":"function","name":"MARKET_POINTS_EXACT","inputs":[],"outputs":[{"name":"","type":"bytes32","internalType":"bytes32"}],"stateMutability":"view"},{"type":"function","name":"MARKET_QUARTER_WINNER","inputs":[],"outputs":[{"name":"","type":"bytes32","internalType":"bytes32"}],"stateMutability":"view"},{"type":"function","name":"MARKET_SPREAD","inputs":[],"outputs":[{"name":"","type":"bytes32","internalType":"bytes32"}],"stateMutability":"view"},{"type":"function","name":"MARKET_TOTAL_POINTS","inputs":[],"outputs":[{"name":"","type":"bytes32","internalType":"bytes32"}],"stateMutability":"view"},{"type":"function","name":"MARKET_WINNER","inputs":[],"outputs":[{"name":"","type":"bytes32","internalType":"bytes32"}],"stateMutability":"view"},{"type":"function","name":"MAX_FEE_BPS","inputs":[],"outputs":[{"name":"","type":"uint16","internalType":"uint16"}],"stateMutability":"view"},{"type":"function","name":"MIN_STAKE","inputs":[],"outputs":[{"name":"","type":"uint256","internalType":"uint256"}],"stateMutability":"view"},{"type":"function","name":"PAUSER_ROLE","inputs":[],"outputs":[{"name":"","type":"bytes32","internalType":"bytes32"}],"stateMutability":"view"},{"type":"function","name":"RESOLVER_ROLE","inputs":[],"outputs":[{"name":"","type":"bytes32","internalType":"bytes32"}],"stateMutability":"view"},{"type":"function","name":"SWAP_ROUTER_ROLE","inputs":[],"outputs":[{"name":"","type":"bytes32","internalType":"bytes32"}],"stateMutability":"view"},{"type":"function","name":"UPGRADE_INTERFACE_VERSION","inputs":[],"outputs":[{"name":"","type":"string","internalType":"string"}],"stateMutability":"view"},{"type":"function","name":"addMarketAdvanced","inputs":[{"name":"marketType","type":"bytes32","internalType":"bytes32"},{"name":"line","type":"int16","internalType":"int16"},{"name":"extra","type":"uint8","internalType":"uint8"},{"name":"groupId","type":"uint16","internalType":"uint16"}],"outputs":[{"name":"marketId","type":"uint256","internalType":"uint256"}],"stateMutability":"nonpayable"},{"type":"function","name":"addMarketWithLine","inputs":[{"name":"marketType","type":"bytes32","internalType":"bytes32"},{"name":"line","type":"int16","internalType":"int16"}],"outputs":[{"name":"marketId","type":"uint256","internalType":"uint256"}],"stateMutability":"nonpayable"},{"type":"function","name":"addMarketsBatch","inputs":[{"name":"marketTypes","type":"bytes32[]","internalType":"bytes32[]"},{"name":"lines","type":"int16[]","internalType":"int16[]"}],"outputs":[],"stateMutability":"nonpayable"},{"type":"function","name":"addMarketsBatchAdvanced","inputs":[{"name":"marketTypes","type":"bytes32[]","internalType":"bytes32[]"},{"name":"lines","type":"int16[]","internalType":"int16[]"},{"name":"extras","type":"uint8[]","internalType":"uint8[]"},{"name":"groupIds","type":"uint16[]","internalType":"uint16[]"}],"outputs":[],"stateMutability":"nonpayable"},{"type":"function","name":"addPointsExactMarket","inputs":[{"name":"line","type":"int16","internalType":"int16"},{"name":"step","type":"uint8","internalType":"uint8"}],"outputs":[{"name":"marketId","type":"uint256","internalType":"uint256"}],"stateMutability":"nonpayable"},{"type":"function","name":"addQuarterMarket","inputs":[{"name":"marketType","type":"bytes32","internalType":"bytes32"},{"name":"line","type":"int16","internalType":"int16"},{"name":"quarter","type":"uint8","internalType":"uint8"}],"outputs":[{"name":"marketId","type":"uint256","internalType":"uint256"}],"stateMutability":"nonpayable"},{"type":"function","name":"cancelMarket","inputs":[{"name":"marketId","type":"uint256","internalType":"uint256"},{"name":"reason","type":"string","internalType":"string"}],"outputs":[],"stateMutability":"nonpayable"},{"type":"function","name":"claim","inputs":[{"name":"marketId","type":"uint256","internalType":"uint256"}],"outputs":[],"stateMutability":"nonpayable"},{"type":"function","name":"claimBatch","inputs":[{"name":"marketIds","type":"uint256[]","internalType":"uint256[]"}],"outputs":[],"stateMutability":"nonpayable"},{"type":"function","name":"claimRefund","inputs":[{"name":"marketId","type":"uint256","internalType":"uint256"}],"outputs":[],"stateMutability":"nonpayable"},{"type":"function","name":"claimRefundBatch","inputs":[{"name":"marketIds","type":"uint256[]","internalType":"uint256[]"}],"outputs":[],"stateMutability":"nonpayable"},{"type":"function","name":"closeMarket","inputs":[{"name":"marketId","type":"uint256","internalType":"uint256"}],"outputs":[],"stateMutability":"nonpayable"},{"type":"function","name":"closeMarketsBatch","inputs":[{"name":"marketIds","type":"uint256[]","internalType":"uint256[]"}],"outputs":[],"stateMutability":"nonpayable"},{"type":"function","name":"computeOutcome","inputs":[{"name":"marketId","type":"uint256","internalType":"uint256"},{"name":"s","type":"tuple","internalType":"struct BasketballPariMatch.BasketballScore","components":[{"name":"homeQ1","type":"uint8","internalType":"uint8"},{"name":"awayQ1","type":"uint8","internalType":"uint8"},{"name":"homeQ2","type":"uint8","internalType":"uint8"},{"name":"awayQ2","type":"uint8","internalType":"uint8"},{"name":"homeQ3","type":"uint8","internalType":"uint8"},{"name":"awayQ3","type":"uint8","internalType":"uint8"},{"name":"homeQ4","type":"uint8","internalType":"uint8"},{"name":"awayQ4","type":"uint8","internalType":"uint8"},{"name":"firstToScore","type":"uint8","internalType":"uint8"}]}],"outputs":[{"name":"outcome","type":"uint64","internalType":"uint64"},{"name":"resolvable","type":"bool","internalType":"bool"}],"stateMutability":"view"},{"type":"function","name":"emergencyPause","inputs":[],"outputs":[],"stateMutability":"nonpayable"},{"type":"function","name":"feeBps","inputs":[],"outputs":[{"name":"","type":"uint16","internalType":"uint16"}],"stateMutability":"view"},{"type":"function","name":"feeRecipient","inputs":[],"outputs":[{"name":"","type":"address","internalType":"address"}],"stateMutability":"view"},{"type":"function","name":"getImpliedProbabilityBps","inputs":[{"name":"marketId","type":"uint256","internalType":"uint256"},{"name":"outcome","type":"uint64","internalType":"uint64"}],"outputs":[{"name":"bps","type":"uint256","internalType":"uint256"}],"stateMutability":"view"},{"type":"function","name":"getMarketCore","inputs":[{"name":"marketId","type":"uint256","internalType":"uint256"}],"outputs":[{"name":"","type":"tuple","internalType":"struct PariMatchBase.MarketCore","components":[{"name":"state","type":"uint8","internalType":"enum PariMatchBase.MarketState"},{"name":"result","type":"uint64","internalType":"uint64"},{"name":"createdAt","type":"uint40","internalType":"uint40"},{"name":"resolvedAt","type":"uint40","internalType":"uint40"},{"name":"resolvedNetPool","type":"uint256","internalType":"uint256"}]}],"stateMutability":"view"},{"type":"function","name":"getMarketInfo","inputs":[{"name":"marketId","type":"uint256","internalType":"uint256"}],"outputs":[{"name":"marketType","type":"bytes32","internalType":"bytes32"},{"name":"state","type":"uint8","internalType":"enum PariMatchBase.MarketState"},{"name":"result","type":"uint64","internalType":"uint64"},{"name":"totalPool","type":"uint256","internalType":"uint256"},{"name":"outcomeCount","type":"uint256","internalType":"uint256"}],"stateMutability":"view"},{"type":"function","name":"getMarketSpec","inputs":[{"name":"marketId","type":"uint256","internalType":"uint256"}],"outputs":[{"name":"","type":"tuple","internalType":"struct PariMatchBase.MarketSpec","components":[{"name":"marketType","type":"bytes32","internalType":"bytes32"},{"name":"line","type":"int16","internalType":"int16"},{"name":"maxOutcome","type":"uint8","internalType":"uint8"},{"name":"extra","type":"uint8","internalType":"uint8"},{"name":"groupId","type":"uint16","internalType":"uint16"}]}],"stateMutability":"view"},{"type":"function","name":"getOutcomePool","inputs":[{"name":"marketId","type":"uint256","internalType":"uint256"},{"name":"outcome","type":"uint64","internalType":"uint64"}],"outputs":[{"name":"","type":"uint256","internalType":"uint256"}],"stateMutability":"view"},{"type":"function","name":"getRoleAdmin","inputs":[{"name":"role","type":"bytes32","internalType":"bytes32"}],"outputs":[{"name":"","type":"bytes32","internalType":"bytes32"}],"stateMutability":"view"},{"type":"function","name":"getTotalPool","inputs":[{"name":"marketId","type":"uint256","internalType":"uint256"}],"outputs":[{"name":"","type":"uint256","internalType":"uint256"}],"stateMutability":"view"},{"type":"function","name":"getUserStake","inputs":[{"name":"marketId","type":"uint256","internalType":"uint256"},{"name":"user","type":"address","internalType":"address"},{"name":"outcome","type":"uint64","internalType":"uint64"}],"outputs":[{"name":"","type":"uint256","internalType":"uint256"}],"stateMutability":"view"},{"type":"function","name":"getUserTotalStake","inputs":[{"name":"marketId","type":"uint256","internalType":"uint256"},{"name":"user","type":"address","internalType":"address"}],"outputs":[{"name":"","type":"uint256","internalType":"uint256"}],"stateMutability":"view"},{"type":"function","name":"grantRole","inputs":[{"name":"role","type":"bytes32","internalType":"bytes32"},{"name":"account","type":"address","internalType":"address"}],"outputs":[],"stateMutability":"nonpayable"},{"type":"function","name":"hasClaimed","inputs":[{"name":"marketId","type":"uint256","internalType":"uint256"},{"name":"user","type":"address","internalType":"address"}],"outputs":[{"name":"","type":"bool","internalType":"bool"}],"stateMutability":"view"},{"type":"function","name":"hasRole","inputs":[{"name":"role","type":"bytes32","internalType":"bytes32"},{"name":"account","type":"address","internalType":"address"}],"outputs":[{"name":"","type":"bool","internalType":"bool"}],"stateMutability":"view"},{"type":"function","name":"initialize","inputs":[{"name":"_matchName","type":"string","internalType":"string"},{"name":"_owner","type":"address","internalType":"address"}],"outputs":[],"stateMutability":"nonpayable"},{"type":"function","name":"marketCount","inputs":[],"outputs":[{"name":"","type":"uint256","internalType":"uint256"}],"stateMutability":"view"},{"type":"function","name":"matchName","inputs":[],"outputs":[{"name":"","type":"string","internalType":"string"}],"stateMutability":"view"},{"type":"function","name":"openMarket","inputs":[{"name":"marketId","type":"uint256","internalType":"uint256"}],"outputs":[],"stateMutability":"nonpayable"},{"type":"function","name":"openMarketsBatch","inputs":[{"name":"marketIds","type":"uint256[]","internalType":"uint256[]"}],"outputs":[],"stateMutability":"nonpayable"},{"type":"function","name":"owner","inputs":[],"outputs":[{"name":"","type":"address","internalType":"address"}],"stateMutability":"view"},{"type":"function","name":"paused","inputs":[],"outputs":[{"name":"","type":"bool","internalType":"bool"}],"stateMutability":"view"},{"type":"function","name":"placeBetUSDC","inputs":[{"name":"marketId","type":"uint256","internalType":"uint256"},{"name":"outcome","type":"uint64","internalType":"uint64"},{"name":"amount","type":"uint256","internalType":"uint256"}],"outputs":[],"stateMutability":"nonpayable"},{"type":"function","name":"placeBetUSDCFor","inputs":[{"name":"user","type":"address","internalType":"address"},{"name":"marketId","type":"uint256","internalType":"uint256"},{"name":"outcome","type":"uint64","internalType":"uint64"},{"name":"amount","type":"uint256","internalType":"uint256"}],"outputs":[],"stateMutability":"nonpayable"},{"type":"function","name":"proxiableUUID","inputs":[],"outputs":[{"name":"","type":"bytes32","internalType":"bytes32"}],"stateMutability":"view"},{"type":"function","name":"renounceOwnership","inputs":[],"outputs":[],"stateMutability":"nonpayable"},{"type":"function","name":"renounceRole","inputs":[{"name":"role","type":"bytes32","internalType":"bytes32"},{"name":"callerConfirmation","type":"address","internalType":"address"}],"outputs":[],"stateMutability":"nonpayable"},{"type":"function","name":"resolveBatchByScore","inputs":[{"name":"marketIds","type":"uint256[]","internalType":"uint256[]"},{"name":"s","type":"tuple","internalType":"struct BasketballPariMatch.BasketballScore","components":[{"name":"homeQ1","type":"uint8","internalType":"uint8"},{"name":"awayQ1","type":"uint8","internalType":"uint8"},{"name":"homeQ2","type":"uint8","internalType":"uint8"},{"name":"awayQ2","type":"uint8","internalType":"uint8"},{"name":"homeQ3","type":"uint8","internalType":"uint8"},{"name":"awayQ3","type":"uint8","internalType":"uint8"},{"name":"homeQ4","type":"uint8","internalType":"uint8"},{"name":"awayQ4","type":"uint8","internalType":"uint8"},{"name":"firstToScore","type":"uint8","internalType":"uint8"}]}],"outputs":[{"name":"marketsResolved","type":"uint256","internalType":"uint256"}],"stateMutability":"nonpayable"},{"type":"function","name":"resolveByScore","inputs":[{"name":"s","type":"tuple","internalType":"struct BasketballPariMatch.BasketballScore","components":[{"name":"homeQ1","type":"uint8","internalType":"uint8"},{"name":"awayQ1","type":"uint8","internalType":"uint8"},{"name":"homeQ2","type":"uint8","internalType":"uint8"},{"name":"awayQ2","type":"uint8","internalType":"uint8"},{"name":"homeQ3","type":"uint8","internalType":"uint8"},{"name":"awayQ3","type":"uint8","internalType":"uint8"},{"name":"homeQ4","type":"uint8","internalType":"uint8"},{"name":"awayQ4","type":"uint8","internalType":"uint8"},{"name":"firstToScore","type":"uint8","internalType":"uint8"}]}],"outputs":[{"name":"marketsResolved","type":"uint256","internalType":"uint256"}],"stateMutability":"nonpayable"},{"type":"function","name":"resolveMarket","inputs":[{"name":"marketId","type":"uint256","internalType":"uint256"},{"name":"result","type":"uint64","internalType":"uint64"}],"outputs":[],"stateMutability":"nonpayable"},{"type":"function","name":"resolveMarketsBatch","inputs":[{"name":"marketIds","type":"uint256[]","internalType":"uint256[]"},{"name":"results","type":"uint64[]","internalType":"uint64[]"}],"outputs":[],"stateMutability":"nonpayable"},{"type":"function","name":"revokeRole","inputs":[{"name":"role","type":"bytes32","internalType":"bytes32"},{"name":"account","type":"address","internalType":"address"}],"outputs":[],"stateMutability":"nonpayable"},{"type":"function","name":"setFeeBps","inputs":[{"name":"_feeBps","type":"uint16","internalType":"uint16"}],"outputs":[],"stateMutability":"nonpayable"},{"type":"function","name":"setFeeRecipient","inputs":[{"name":"_recipient","type":"address","internalType":"address"}],"outputs":[],"stateMutability":"nonpayable"},{"type":"function","name":"setUSDCToken","inputs":[{"name":"_usdc","type":"address","internalType":"address"}],"outputs":[],"stateMutability":"nonpayable"},{"type":"function","name":"sportType","inputs":[],"outputs":[{"name":"","type":"string","internalType":"string"}],"stateMutability":"view"},{"type":"function","name":"supportsInterface","inputs":[{"name":"interfaceId","type":"bytes4","internalType":"bytes4"}],"outputs":[{"name":"","type":"bool","internalType":"bool"}],"stateMutability":"view"},{"type":"function","name":"suspendMarket","inputs":[{"name":"marketId","type":"uint256","internalType":"uint256"}],"outputs":[],"stateMutability":"nonpayable"},{"type":"function","name":"transferOwnership","inputs":[{"name":"newOwner","type":"address","internalType":"address"}],"outputs":[],"stateMutability":"nonpayable"},{"type":"function","name":"unpause","inputs":[],"outputs":[],"stateMutability":"nonpayable"},{"type":"function","name":"upgradeToAndCall","inputs":[{"name":"newImplementation","type":"address","internalType":"address"},{"name":"data","type":"bytes","internalType":"bytes"}],"outputs":[],"stateMutability":"payable"},{"type":"function","name":"usdcToken","inputs":[],"outputs":[{"name":"","type":"address","internalType":"contract IERC20"}],"stateMutability":"view"},{"type":"event","name":"FeeBpsSet","inputs":[{"name":"oldBps","type":"uint16","indexed":false,"internalType":"uint16"},{"name":"newBps","type":"uint16","indexed":false,"internalType":"uint16"}],"anonymous":false},{"type":"event","name":"FeeRecipientSet","inputs":[{"name":"oldRecipient","type":"address","indexed":true,"internalType":"address"},{"name":"newRecipient","type":"address","indexed":true,"internalType":"address"}],"anonymous":false},{"type":"event","name":"Initialized","inputs":[{"name":"version","type":"uint64","indexed":false,"internalType":"uint64"}],"anonymous":false},{"type":"event","name":"MarketCancelled","inputs":[{"name":"marketId","type":"uint256","indexed":true,"internalType":"uint256"},{"name":"reason","type":"string","indexed":false,"internalType":"string"}],"anonymous":false},{"type":"event","name":"MarketCreated","inputs":[{"name":"marketId","type":"uint256","indexed":true,"internalType":"uint256"},{"name":"marketType","type":"bytes32","indexed":true,"internalType":"bytes32"},{"name":"line","type":"int16","indexed":false,"internalType":"int16"},{"name":"maxOutcome","type":"uint8","indexed":false,"internalType":"uint8"},{"name":"groupId","type":"uint16","indexed":false,"internalType":"uint16"}],"anonymous":false},{"type":"event","name":"MarketResolved","inputs":[{"name":"marketId","type":"uint256","indexed":true,"internalType":"uint256"},{"name":"result","type":"uint64","indexed":false,"internalType":"uint64"},{"name":"totalPool","type":"uint256","indexed":false,"internalType":"uint256"},{"name":"fee","type":"uint256","indexed":false,"internalType":"uint256"},{"name":"resolvedNetPool","type":"uint256","indexed":false,"internalType":"uint256"}],"anonymous":false},{"type":"event","name":"MarketStateChanged","inputs":[{"name":"marketId","type":"uint256","indexed":true,"internalType":"uint256"},{"name":"oldState","type":"uint8","indexed":false,"internalType":"enum PariMatchBase.MarketState"},{"name":"newState","type":"uint8","indexed":false,"internalType":"enum PariMatchBase.MarketState"}],"anonymous":false},{"type":"event","name":"MatchInitialized","inputs":[{"name":"name","type":"string","indexed":true,"internalType":"string"},{"name":"sportType","type":"string","indexed":false,"internalType":"string"},{"name":"owner","type":"address","indexed":true,"internalType":"address"}],"anonymous":false},{"type":"event","name":"MatchScoreResolved","inputs":[{"name":"homeTotal","type":"uint16","indexed":false,"internalType":"uint16"},{"name":"awayTotal","type":"uint16","indexed":false,"internalType":"uint16"},{"name":"firstToScore","type":"uint8","indexed":false,"internalType":"uint8"},{"name":"marketsResolved","type":"uint256","indexed":false,"internalType":"uint256"}],"anonymous":false},{"type":"event","name":"OwnershipTransferred","inputs":[{"name":"previousOwner","type":"address","indexed":true,"internalType":"address"},{"name":"newOwner","type":"address","indexed":true,"internalType":"address"}],"anonymous":false},{"type":"event","name":"Paused","inputs":[{"name":"account","type":"address","indexed":false,"internalType":"address"}],"anonymous":false},{"type":"event","name":"PositionClaimed","inputs":[{"name":"marketId","type":"uint256","indexed":true,"internalType":"uint256"},{"name":"user","type":"address","indexed":true,"internalType":"address"},{"name":"stake","type":"uint256","indexed":false,"internalType":"uint256"},{"name":"payout","type":"uint256","indexed":false,"internalType":"uint256"}],"anonymous":false},{"type":"event","name":"PositionTaken","inputs":[{"name":"marketId","type":"uint256","indexed":true,"internalType":"uint256"},{"name":"user","type":"address","indexed":true,"internalType":"address"},{"name":"outcome","type":"uint64","indexed":false,"internalType":"uint64"},{"name":"stake","type":"uint256","indexed":false,"internalType":"uint256"},{"name":"newOutcomePool","type":"uint256","indexed":false,"internalType":"uint256"},{"name":"newTotalPool","type":"uint256","indexed":false,"internalType":"uint256"}],"anonymous":false},{"type":"event","name":"RoleAdminChanged","inputs":[{"name":"role","type":"bytes32","indexed":true,"internalType":"bytes32"},{"name":"previousAdminRole","type":"bytes32","indexed":true,"internalType":"bytes32"},{"name":"newAdminRole","type":"bytes32","indexed":true,"internalType":"bytes32"}],"anonymous":false},{"type":"event","name":"RoleGranted","inputs":[{"name":"role","type":"bytes32","indexed":true,"internalType":"bytes32"},{"name":"account","type":"address","indexed":true,"internalType":"address"},{"name":"sender","type":"address","indexed":true,"internalType":"address"}],"anonymous":false},{"type":"event","name":"RoleRevoked","inputs":[{"name":"role","type":"bytes32","indexed":true,"internalType":"bytes32"},{"name":"account","type":"address","indexed":true,"internalType":"address"},{"name":"sender","type":"address","indexed":true,"internalType":"address"}],"anonymous":false},{"type":"event","name":"StakeRefunded","inputs":[{"name":"marketId","type":"uint256","indexed":true,"internalType":"uint256"},{"name":"user","type":"address","indexed":true,"internalType":"address"},{"name":"amount","type":"uint256","indexed":false,"internalType":"uint256"}],"anonymous":false},{"type":"event","name":"USDCTokenSet","inputs":[{"name":"token","type":"address","indexed":true,"internalType":"address"}],"anonymous":false},{"type":"event","name":"Unpaused","inputs":[{"name":"account","type":"address","indexed":false,"internalType":"address"}],"anonymous":false},{"type":"event","name":"Upgraded","inputs":[{"name":"implementation","type":"address","indexed":true,"internalType":"address"}],"anonymous":false},{"type":"error","name":"AccessControlBadConfirmation","inputs":[]},{"type":"error","name":"AccessControlUnauthorizedAccount","inputs":[{"name":"account","type":"address","internalType":"address"},{"name":"neededRole","type":"bytes32","internalType":"bytes32"}]},{"type":"error","name":"AddressEmptyCode","inputs":[{"name":"target","type":"address","internalType":"address"}]},{"type":"error","name":"AddressInsufficientBalance","inputs":[{"name":"account","type":"address","internalType":"address"}]},{"type":"error","name":"AlreadyClaimed","inputs":[{"name":"marketId","type":"uint256","internalType":"uint256"},{"name":"user","type":"address","internalType":"address"}]},{"type":"error","name":"ArrayLengthMismatch","inputs":[]},{"type":"error","name":"ERC1967InvalidImplementation","inputs":[{"name":"implementation","type":"address","internalType":"address"}]},{"type":"error","name":"ERC1967NonPayable","inputs":[]},{"type":"error","name":"EnforcedPause","inputs":[]},{"type":"error","name":"ExpectedPause","inputs":[]},{"type":"error","name":"FailedInnerCall","inputs":[]},{"type":"error","name":"FeeBpsExceedsMax","inputs":[{"name":"provided","type":"uint16","internalType":"uint16"},{"name":"max","type":"uint16","internalType":"uint16"}]},{"type":"error","name":"FeeRecipientNotConfigured","inputs":[]},{"type":"error","name":"InvalidInitialization","inputs":[]},{"type":"error","name":"InvalidLine","inputs":[{"name":"marketType","type":"bytes32","internalType":"bytes32"},{"name":"line","type":"int16","internalType":"int16"}]},{"type":"error","name":"InvalidMarketId","inputs":[{"name":"marketId","type":"uint256","internalType":"uint256"}]},{"type":"error","name":"InvalidMarketState","inputs":[{"name":"marketId","type":"uint256","internalType":"uint256"},{"name":"current","type":"uint8","internalType":"enum PariMatchBase.MarketState"},{"name":"required","type":"uint8","internalType":"enum PariMatchBase.MarketState"}]},{"type":"error","name":"InvalidMarketType","inputs":[{"name":"marketType","type":"bytes32","internalType":"bytes32"}]},{"type":"error","name":"InvalidOutcome","inputs":[{"name":"marketId","type":"uint256","internalType":"uint256"},{"name":"outcome","type":"uint64","internalType":"uint64"}]},{"type":"error","name":"InvalidOutcomeValue","inputs":[{"name":"marketId","type":"uint256","internalType":"uint256"},{"name":"outcome","type":"uint64","internalType":"uint64"},{"name":"maxAllowed","type":"uint8","internalType":"uint8"}]},{"type":"error","name":"InvalidQuarter","inputs":[{"name":"quarter","type":"uint8","internalType":"uint8"}]},{"type":"error","name":"NotInitializing","inputs":[]},{"type":"error","name":"NothingToClaim","inputs":[{"name":"marketId","type":"uint256","internalType":"uint256"},{"name":"user","type":"address","internalType":"address"}]},{"type":"error","name":"NothingToRefund","inputs":[{"name":"marketId","type":"uint256","internalType":"uint256"},{"name":"user","type":"address","internalType":"address"}]},{"type":"error","name":"OwnableInvalidOwner","inputs":[{"name":"owner","type":"address","internalType":"address"}]},{"type":"error","name":"OwnableUnauthorizedAccount","inputs":[{"name":"account","type":"address","internalType":"address"}]},{"type":"error","name":"ReentrancyGuardReentrantCall","inputs":[]},{"type":"error","name":"SafeERC20FailedOperation","inputs":[{"name":"token","type":"address","internalType":"address"}]},{"type":"error","name":"StakeBelowMinimum","inputs":[{"name":"stake","type":"uint256","internalType":"uint256"},{"name":"minimum","type":"uint256","internalType":"uint256"}]},{"type":"error","name":"USDCNotConfigured","inputs":[]},{"type":"error","name":"UUPSUnauthorizedCallContext","inputs":[]},{"type":"error","name":"UUPSUnsupportedProxiableUUID","inputs":[{"name":"slot","type":"bytes32","internalType":"bytes32"}]},{"type":"error","name":"ZeroStake","inputs":[]}],"bytecode":{"object":"0x60a08060405234620000d157306080527ff0c57e16840df040f15088dc2f81fe391c3923bec73e23a9662efc9c229c6a009081549060ff8260401c16620000c257506001600160401b036002600160401b0319828216016200007c575b6040516149a59081620000d682396080518181816119dc0152611b500152f35b6001600160401b031990911681179091556040519081527fc7f505b2f371ae2175ee4913f4499e1f2633a7b5936321eed1cdaeb6115181d290602090a15f80806200005c565b63f92ee8a960e01b8152600490fd5b5f80fdfe60806040818152600480361015610014575f80fd5b5f3560e01c92836301ffc9a714612a0957508263023b1fc9146129695782630637e5df146128a057826309908d87146128595782630e1d6463146126ec5782630eb47110146126175782630f5a9d01146125a057826311eac855146125785782631a095c6e1461252b5782631cf65cc2146124db5782632045646d146124b4578263248a9ca31461247e57826324a9d853146124595782632f2ff15d14612431578263330b82fe1461240a57826336568abe146123c6578263379607f51461233357826337c6ef851461230c578263396f01ba146122665782633a35b9bd146122215782633ec79193146121835782633eccfc961461202c5782633f4ba83a14611fb75782633fe1f00214611f8457826340b16c1e14611eb2578263456051f114611d405782634690484014611d185782634f1ef28614611b0257826351487dc014611adb57826351858e2714611a2d57826352d1902d146119c95782635b7baf641461194e5782635c975abb1461191f5782635f779fef146118a557826362abebce146117ac5782636637e38c146104c05782636e60c97d1461168f578263715018a61461163b57826371738f8c146115b357826375b238fc1461158c57826378fab260146115655782637a3c2689146113375782637ab4339d14610eed5782638723eccf14610ec6578263873f6f9e14610e755782638ac0be8714610d1a5782638d3bf36514610c0e5782638da5cb5b14610bda57826391d1485414610b8a578263931b546614610abc5782639b05743f146109f55782639cd1443c146109a7578263a04286e0146108fb578263a217fddf146108e1578263a4b8195c14610777578263ad3cb1cc1461073b578263ae4180951461070c578263af4a52ec146106e5578263b2392cab14610680578263baa267571461063c578263bdc69bd914610615578263bef2a6a014610559578263c6886db414610532578263c743bb73146104c5578263cb1c2b5c146104c0578263d203ce701461048b578263d547741f14610445578263d55be8c614610429578263e63ab1e914610402578263e74b981b1461038457508163ec97908214610367575063f2fde38b14610338575f80fd5b3461036357602036600319011261036357610361610354612aab565b61035c6141b5565b612dd1565b005b5f80fd5b34610363575f366003190112610363576020906002549051908152f35b346103635760203660031901126103635761039d612aab565b906103a6612e2f565b6001600160a01b039182169283156103f5575050600a80546001600160a01b031981168417909155167f15d80a013f22151bc7246e3bc132e12828cde19de98870475e3fa708401527215f80a3005b51635c192c5f60e01b8152fd5b5034610363575f36600319011261036357602090515f805160206147b08339815191528152f35b5034610363575f36600319011261036357602090516101f48152f35b903461036357806003193601126103635761036191356104866001610468612ac1565b93835f525f805160206148108339815191526020525f200154612eca565b613d97565b90346103635780600319360112610363576104b96020926104aa612a8b565b906104b3612e2f565b35613027565b9051908152f35b612be2565b34610363576104d336612c83565b939091946104df612e2f565b8486036105255750505f5b8481106104f357005b8061051e6105046001938887612ccd565b35610518610513848988612ccd565b612dc3565b90613027565b50016104ea565b5163512509d360e11b8152fd5b5034610363575f36600319011261036357602090515f805160206149508339815191528152f35b5034610363575f3660031901126103635780515f91600180549061057c82612bfe565b908185526020926001811690815f146105f557506001146105b8575b5050506105aa826105b4940383612b6e565b5191829182612c57565b0390f35b91945060015f52845f20915f925b8284106105e257505050826105b4946105aa9282010194610598565b80548685018801529286019281016105c6565b60ff1916868501525050151560051b83010192506105aa826105b4610598565b5034610363575f36600319011261036357602090515f805160206148308339815191528152f35b346103635760203660031901126103635780359160025483101561066b5761036183610666612e2f565b61412b565b91602492519163113b162160e31b8352820152fd5b9034610363578060031936011261036357813561069b612ac1565b926002548210156106d057505f908152600760209081528282206001600160a01b039094168252928352819020549051908152f35b915163113b162160e31b815291820152602490fd5b5034610363575f36600319011261036357602090515f805160206149108339815191528152f35b346103635760203660031901126103635780359160025483101561066b5761036183610736612e2f565b61409f565b5034610363575f3660031901126103635780516105b49161075b82612b53565b60058252640352e302e360dc1b60208301525191829182612c57565b9034610363576060366003190112610363578135610793612ad7565b90604435926107a0612ef8565b6002548210156108ca57815f52600360205260ff815f20541660068110156108b7576001810361088c57506107d3613e16565b6009546001600160a01b031694851561087e578415610870576127108086106108565750506108439461083d9161080a8585613f66565b516323b872dd60e01b6020820152336024820152306044820152606480820187905281529061083882612b24565b614563565b33613fb5565b60015f805160206148b083398151915255005b8560449351926378e030db60e01b84528301526024820152fd5b905163150a67e960e01b8152fd5b9051639554dd1160e01b8152fd5b6108ae90606493879351936327c6314f60e11b85528401526024830190612b03565b60016044820152fd5b602186634e487b7160e01b5f525260245ffd5b5163113b162160e31b815280850191909152602490fd5b5034610363575f36600319011261036357602090515f8152f35b90346103635761090a36612c83565b929094610915612e82565b838303610999575f5b83811061092757005b610932818585612ccd565b35600254111561097857610947818585612ccd565b359061095481878a612ccd565b35916001600160401b038316830361036357600192610972916139a0565b0161091e565b610986869185602495612ccd565b3590519163113b162160e31b8352820152fd5b845163512509d360e11b8152fd5b346103635761014036600319011261036357803590610120366023190112610363576002548210156106d057506109dd906133e4565b82516001600160401b03909216825215156020820152f35b90346103635760209060206003193601126103635782356001600160401b03811161036357610a279036908501612a5b565b91610a30612e2f565b5f5b838110610a3b57005b610a46818585612ccd565b356002541115610aae57610a5b818585612ccd565b355f526003855260ff825f2054166006811015610a9b57906001809214610a9657610a90610a8a828787612ccd565b3561412b565b01610a32565b610a90565b602187634e487b7160e01b5f525260245ffd5b610986906024948794612ccd565b903461036357602036600319011261036357813590600254821015610b7657610ae3612e2f565b815f526003602052805f209283549360ff8516916006831015610b635760018303610b38575060025f80516020614790833981519152949560ff1916179055610b2e82518092612b03565b60026020820152a2005b83516327c6314f60e11b8152908101859052606490610b5a6024820185612b03565b60026044820152fd5b602190634e487b7160e01b5f525260245ffd5b5163113b162160e31b815291820152602490fd5b9034610363578060031936011261036357602091610ba6612ac1565b90355f525f805160206148108339815191528352815f209060018060a01b03165f52825260ff815f20541690519015158152f35b5034610363575f366003190112610363575f805160206147308339815191525490516001600160a01b039091168152602090f35b90346103635760209160206003193601126103635780356001600160401b03811161036357610c409036908301612a5b565b91610c49612e2f565b5f5b838110610c5457005b610c5f818585612ccd565b356002541115610d0c57610c74818585612ccd565b355f52600380875260ff865f20541660068110159182610cf9578114918215610ced575b8215610cc8575b505090600191610cc357610cbd610cb7828787612ccd565b3561409f565b01610c4b565b610cbd565b909150610cda57600514600188610c9f565b602183634e487b7160e01b5f525260245ffd5b5083811491505f610c98565b602185634e487b7160e01b5f525260245ffd5b610986919360249593612ccd565b346103635761012036600319011261036357610d34612e82565b5f906002545f905b808210610e1c575050359160ff80841680940361036357604435908082168092036103635761ffff94608435918083168093036103635760c4359681881680980361036357602435948286168096036103635760643598838a16809a036103635760a4358481168091036103635760e4359285841680940361036357610104359586168096036103635760209b7f3cb90fbd5fd1cd47c25618d481b8a60fb5b5a9afbb1b884feca76adc82218e18998680958160809c8f82978391519e01160116011689520116011601168783015284820152846060820152a151908152f35b9092835f5260038060205260ff865f2054166006811015610cf95703610e6c57610e4584613792565b15610e6257600191610e588392876139a0565b01935b0190610d3c565b5092600190610e5b565b92600190610e5b565b90346103635780600319360112610363578135610e90612ac1565b926002548210156106d05750916020925f5260088352815f209060018060a01b03165f52825260ff815f20541690519015158152f35b5034610363575f36600319011261036357602090515f805160206147108339815191528152f35b346103635781600319360112610363576001600160401b03918135838111610363573660238201121561036357610f2d9036906024818601359101612bac565b90610f36612ac1565b915f805160206149308339815191529485549360ff85851c16159282861695861580611330575b60018098149081611326575b15908161131d575b5061130d576001600160401b0319811687178955846112f2575b50845192610f9884612b53565b600a845260209769109054d2d1551090531360b21b89860152610fb9614535565b610fc1614535565b610fc9614535565b610fd284612dd1565b610fda614535565b610fe2614535565b610fea614535565b610ff2614535565b875f805160206148b08339815191525561100a614535565b611012614535565b5f80516020614890833981519152805460ff1916905561103184613b89565b5061103b84613c0d565b5061104584613c94565b508251908282116112305761105a5f54612bfe565b918a601f938481116112ad575b5050808b84821160011461124e575f91611243575b505f19600383901b1c1916908a1b175f555b855192831161123057506110a28854612bfe565b8181116111ed575b5088908211600114611176575f805160206147f0833981519152928261112c9361110e935f9161116b575b505f19600383901b1c1916908a1b1789555b600a805461ffff60a01b1916601960a31b1790558751815190928392829084908e01612c36565b810103902086516001600160a01b0390941694909391829182612c57565b0390a361113557005b835460ff60401b191690935591519182527fc7f505b2f371ae2175ee4913f4499e1f2633a7b5936321eed1cdaeb6115181d291a1005b90508701518d6110d5565b908791601f19821690835f528a5f20915f5b8c8282106111d7575050925f805160206147f0833981519152959261112c95928261110e96106111bf575b5050811b0189556110e7565b8901515f1960f88460031b161c191690558d806111b3565b838a015185558c96909401939283019201611188565b885f52895f208280850160051c8201928c8610611227575b0160051c019089905b82811061121c5750506110aa565b5f815501899061120e565b92508192611205565b604190634e487b7160e01b5f525260245ffd5b90508501518d61107c565b5f8080528d81208d94509190601f198416908f5b828210611296575050831161127e575b5050811b015f5561108e565b8701515f1960f88460031b161c191690558d80611272565b838b015185558f969094019392830192018f611262565b5f805284825f209181850160051c83019385106112e9575b0160051c01908b905b8281106112de57508c9150611067565b5f8155018b906112ce565b925081926112c5565b6001600160481b0319166001600160401b0117885588610f8b565b855163f92ee8a960e01b81528890fd5b9050158a610f71565b303b159150610f69565b5084610f5d565b3461036357606036600319011261036357803591611353612a8b565b9260ff61135e612a9b565b611366612e2f565b169260018410801561155c575b611545575f805160206147108339815191528214801561152f575b8015611519575b8015611503575b80156114ed575b80156114d7575b80156114c1575b156114ac57506113c1848261431e565b925f805160206146d083398151915260606002549586936113e185613019565b6002555f8581526003602090815290889020805460ff64ffffffffff60481b0119164260481b64ffffffffff60481b1617905587519099909188908b9061142785612b24565b8985528185019360010b9586855261ffff600160ff8689019316978884528a810194855260808101965f88528d5f52600b87525f20905181550195519463ff00000062ff00008854945160101b16945160181b16948260201b9151901b1694169065ffffffffffff19161717171790558651918252888201525f86820152a351908152f35b9151630d330d2760e01b815291820152602490fd5b505f8051602061485083398151915282146113b1565b505f8051602061487083398151915282146113aa565b505f8051602061483083398151915282146113a3565b505f80516020614910833981519152821461139c565b505f805160206147708339815191528214611395565b505f805160206148f0833981519152821461138e565b825163fef0e19760e01b8152908101849052602490fd5b50808411611373565b5034610363575f36600319011261036357602090515f805160206146b08339815191528152f35b5034610363575f36600319011261036357602090515f805160206148d08339815191528152f35b5034610363575f3660031901126103635780515f915f546115d381612bfe565b8084526020916001908181169081156105f55750600114611600575050506105aa826105b4940383612b6e565b5f808052838120939650925b82841061162857505050826105b4946105aa9282010194610598565b805486850188015292860192810161160c565b34610363575f366003190112610363576116536141b5565b5f8051602061473083398151915280546001600160a01b031981169091555f906001600160a01b03165f805160206147d08339815191528280a3005b9034610363576080366003190112610363576001600160401b03918035838111610363576116c09036908301612a5b565b929091602435858111610363576116da9036908301612a5b565b949093604435878111610363576116f49036908501612a5b565b90976064359081116103635761170d9036908601612a5b565b949095611718612e2f565b8885148015906117a2575b8015611798575b6105255750505f5b83811061173b57005b611746818585612ccd565b3590611756610513828b8b612ccd565b9161176282858d612ccd565b3560ff811681036103635761177883898b612ccd565b359061ffff8216820361036357600194611791936131f2565b5001611732565b508585141561172a565b5082851415611723565b90346103635760209060206003193601126103635782356001600160401b038111610363576117de9036908501612a5b565b6117e9939193612ef8565b6117f1613e16565b5f5b81811061180d5760015f805160206148b083398151915255005b611818818387612ccd565b3560025481101561188f57805f526003845260ff80865f205416600681101561187c57908860019493920361187557815f5260088652865f20335f528652865f20541661186f576118699033613e40565b016117f3565b50611869565b5050611869565b602189634e487b7160e01b5f525260245ffd5b8660249186519163113b162160e31b8352820152fd5b90346103635760603660031901126103635781356118c1612ac1565b6118c9612aed565b9160025481101561190957602094505f5260068452825f209060018060a01b03165f528352815f209060018060401b03165f528252805f20549051908152f35b8460249185519163113b162160e31b8352820152fd5b5034610363575f3660031901126103635760209060ff5f80516020614890833981519152541690519015158152f35b346103635760203660031901126103635780359161196a612ef8565b60025483101561066b57825f52600360205260ff815f205416906006821015610cda576005820361199f576108438433612f40565b906064936119c09251936327c6314f60e11b85528401526024830190612b03565b60056044820152fd5b9034610363575f366003190112610363577f00000000000000000000000000000000000000000000000000000000000000006001600160a01b03163003611a2057602090515f805160206147508339815191528152f35b5163703e46dd60e11b8152fd5b34610363575f366003190112610363575f805160206147b0833981519152805f525f80516020614810833981519152602052825f20335f5260205260ff835f20541615611ac0577f62e78cea01bee320cd4e420270b5ea74000d11b0c9f74754ebdbfc544b05a258602084611aa0613e16565b5f80516020614890833981519152805460ff1916600117905551338152a1005b604492519163e2517d3f60e01b835233908301526024820152fd5b5034610363575f36600319011261036357602090515f805160206147708339815191528152f35b8160031936011261036357611b15612aab565b60249283356001600160401b038111610363573660238201121561036357611b4590369086818701359101612bac565b6001600160a01b03927f00000000000000000000000000000000000000000000000000000000000000008416308114908115611cfd575b50611ced575f80526020935f805160206148108339815191528552835f20335f52855260ff845f20541615611cd25781169383516352d1902d60e01b815281818881895afa5f9181611ca3575b50611be357505050505191634c9c8ce360e01b8352820152fd5b858588928a5f8051602061475083398151915291828103611c8e5750863b15611c7a575080546001600160a01b0319168317905551907fbc7cd75a20ee27fd9adebab32041f755214dbc6bffa90cc0225b39da2e5c2d3b5f80a2845115611c625750505f83819261036195519101845af4611c5c6145dd565b9161460c565b925092505034611c6e57005b63b398979f60e01b8152fd5b9450505191634c9c8ce360e01b8352820152fd5b8351632a87526960e21b815280870191909152fd5b9091508281813d8311611ccb575b611cbb8183612b6e565b8101031261036357519089611bc9565b503d611cb1565b835163e2517d3f60e01b815233818801525f81890152604490fd5b825163703e46dd60e11b81528590fd5b9050845f805160206147508339815191525416141587611b7c565b5034610363575f36600319011261036357600a5490516001600160a01b039091168152602090f35b903461036357806003193601126103635781359060249081356001600160401b0380821161036357366023830112156103635781860135908111610363573684828401011161036357600254851015611e9c57611d9b612e2f565b845f526003602052825f20805460ff811697600689101580611e8a5760018a14159081611e7d575b81611e5a575b50611e3957508487985f80516020614690833981519152989360055f805160206147908339815191529460ff1916179055611e0682518092612b03565b60056020820152a28083519485936020855282602086015201848401375f828201840152601f01601f19168101030190a2005b85516327c6314f60e11b81529081018890526064906119c08189018b612b03565b9050611e6b5760038914158a611dc9565b60218791634e487b7160e01b5f52525ffd5b505060028914155f611dc3565b87602183634e487b7160e01b5f52525ffd5b825163113b162160e31b81528087018690528490fd5b9034610363576020366003190112610363578135611ece612cf1565b50600254811015611f6f575f526003602052805f20815190611eef82612b24565b805460ff81169360068510156108b75760a0955084845260018060401b03926020850190848460081c16825264ffffffffff94859260806001868a0194868960481c1686528660608c019960701c16895201549801978852611f538551809a612b03565b5116602088015251169085015251166060830152516080820152f35b905163113b162160e31b815291820152602490fd5b90346103635780600319360112610363578135611f9f612ad7565b926002548210156106d057506020926104b991612d6d565b9034610363575f36600319011261036357611fd0612e2f565b5f805160206148908339815191529182549060ff82161561201e577f5db9ee0a495bf2e6ff9c91a7834c1ba4fdd244a5e8aa4e537bd38aeae4b073aa602084868560ff1916905551338152a1005b8251638dfc202b60e01b8152fd5b3461036357608036600319011261036357612045612aab565b90602491823590612054612aed565b9260643594612061612ef8565b60025484101561216e57835f52600360205260ff875f205416600681101561215b57600181036121395750612094613e16565b5f80516020614950833981519152805f525f80516020614810833981519152602052875f20335f5260205260ff885f2054161561211e5750851561210f57612710908187106120f45750505061084394506120ef8383613f66565b613fb5565b87516378e030db60e01b815292830187905282015260449150fd5b50855163150a67e960e01b8152fd5b6044929188519263e2517d3f60e01b84523390840152820152fd5b87516327c6314f60e11b8152928301859052606493506108ae91830190612b03565b50634e487b7160e01b5f90815260218352fd5b865163113b162160e31b815291820184905290fd5b9034610363576020366003190112610363578135600254811015611f6f575f52600b602052805f20906003602052805f209180549254918460205260ff6001825f205493015460101c16926001840180941161220e5760a0955081519485526121f26020860160ff8316612b03565b60081c6001600160401b03169084015260608301526080820152f35b601186634e487b7160e01b5f525260245ffd5b346103635760203660031901126103635780356002548110156122525790602092915f528252805f20549051908152f35b602492519163113b162160e31b8352820152fd5b9034610363576020366003190112610363578135612282612cf1565b50600254811015611f6f5760a092505f52600b6020526080815f209160ff81516122ab81612b24565b600185549586835201549282602083018560010b815282840190828760101c1682526060850194838860181c16865261ffff988991019760201c16875283519889525160010b60208901525116908601525116606084015251166080820152f35b5034610363575f36600319011261036357602090515f805160206148708339815191528152f35b346103635760203660031901126103635780359061234f612ef8565b6002548210156106d057815f52600360205260ff835f2054169260068410156123b35781840361238b5761084383612385613e16565b33613e40565b6064936123ac9151936327c6314f60e11b8552838501526024840190612b03565b6044820152fd5b602182634e487b7160e01b5f525260245ffd5b90346103635780600319360112610363576123df612ac1565b90336001600160a01b038316036123fb57506103619135613d97565b5163334bd91960e11b81529050fd5b5034610363575f36600319011261036357602090515f805160206148f08339815191528152f35b903461036357806003193601126103635761036191356124546001610468612ac1565b613d27565b5034610363575f3660031901126103635760209061ffff600a5460a01c169051908152f35b903461036357602036600319011261036357602091355f525f8051602061481083398151915282526001815f2001549051908152f35b5034610363575f36600319011261036357602090515f805160206148508339815191528152f35b903461036357806003193601126103635781356124f6612ad7565b926002548210156106d057505f908152600560209081528282206001600160401b039094168252928352819020549051908152f35b90346103635780600319360112610363578135612546612ad7565b9160025482101561256357610361838361255e612e82565b6139a0565b5163113b162160e31b81529283015250602490fd5b5034610363575f3660031901126103635760095490516001600160a01b039091168152602090f35b34610363576020366003190112610363576125b9612aab565b6125c1612e2f565b6001600160a01b031691821561260a57600980546001600160a01b03191684179055827f9317e3e59b11620f482b4bb292374da6e5cb9e7ef23cf3f121cacca9a5428f785f80a2005b51639554dd1160e01b8152fd5b9034610363576101403660031901126103635781356001600160401b038111610363576126479036908401612a5b565b9190610120366023190112610363579161265f612e82565b5f925f915b808310612675576020858551908152f35b909193612683858385612ccd565b3560025481101561188f57805f5260038060205260ff865f205416600681101561187c57036126e2576126b5816133e4565b919091156126d757916126cc6001939284936139a0565b01945b019190612664565b5050936001906126cf565b50936001906126cf565b346103635781600319360112610363578035918260010b91828403610363576024359060ff821680920361036357612722612e2f565b60018412801561284f575b612826575060ff6060939416935f805160206146d083398151915260025494859261275784613019565b6002555f8481526003602090815290879020805460ff64ffffffffff60481b0119164260481b64ffffffffff60481b16179055865190989061279881612b24565b878a5f80516020614850833981519152988984528184019386855261ffff6001858301928884528a810194855260808101965f88528d5f52600b87525f20905181550195519463ff00000062ff00008854945160101b16945160181b16948260201b9151901b1694169065ffffffffffff19161717171790558651918252888201525f86820152a351908152f35b604490845f805160206148508339815191528551926332cc7a6b60e21b84528301526024820152fd5b5060ff841361272d565b903461036357608036600319011261036357612873612a8b565b9161287c612a9b565b6064359061ffff82168203610363576020946104b99361289a612e2f565b356131f2565b90346103635760209060206003193601126103635782356001600160401b038111610363576128d29036908501612a5b565b6128dd939193612ef8565b5f5b8181106128f95760015f805160206148b083398151915255005b612904818387612ccd565b3560025481101561188f57805f526003845260ff80865f205416600681101561187c5790600560019493920361296257815f5260088652865f20335f528652865f20541661295c576129569033612f40565b016128df565b50612956565b5050612956565b903461036357602036600319011261036357813561ffff928382169081830361036357612994612e2f565b6101f48083116129ef5750507f4791562d259a08c64fef49ff6bef502e6c8f342eb8d4c8f90da367929ab1602d93600a549261ffff60a01b9060a01b1661ffff60a01b19841617600a5583519260a01c1682526020820152a1005b60449285519263673af7c160e11b84528301526024820152fd5b903461036357602036600319011261036357359063ffffffff60e01b821680920361036357602091637965db0b60e01b8114908115612a4a575b5015158152f35b6301ffc9a760e01b14905083612a43565b9181601f84011215610363578235916001600160401b038311610363576020808501948460051b01011161036357565b602435908160010b820361036357565b6044359060ff8216820361036357565b600435906001600160a01b038216820361036357565b602435906001600160a01b038216820361036357565b602435906001600160401b038216820361036357565b604435906001600160401b038216820361036357565b906006821015612b105752565b634e487b7160e01b5f52602160045260245ffd5b60a081019081106001600160401b03821117612b3f57604052565b634e487b7160e01b5f52604160045260245ffd5b604081019081106001600160401b03821117612b3f57604052565b601f909101601f19168101906001600160401b03821190821017612b3f57604052565b6001600160401b038111612b3f57601f01601f191660200190565b929192612bb882612b91565b91612bc66040519384612b6e565b829481845281830111610363578281602093845f960137010152565b34610363575f3660031901126103635760206040516127108152f35b90600182811c92168015612c2c575b6020831014612c1857565b634e487b7160e01b5f52602260045260245ffd5b91607f1691612c0d565b5f5b838110612c475750505f910152565b8181015183820152602001612c38565b60409160208252612c778151809281602086015260208686019101612c36565b601f01601f1916010190565b6040600319820112610363576001600160401b03916004358381116103635782612caf91600401612a5b565b9390939260243591821161036357612cc991600401612a5b565b9091565b9190811015612cdd5760051b0190565b634e487b7160e01b5f52603260045260245ffd5b60405190612cfe82612b24565b5f6080838281528260208201528260408201528260608201520152565b91908201809211612d2857565b634e487b7160e01b5f52601160045260245ffd5b81810292918115918404141715612d2857565b8115612d59570490565b634e487b7160e01b5f52601260045260245ffd5b5f52600460205260405f2054908115612dbd57600560205260405f209060018060401b03165f5260205260405f20549061271091828102928184041490151715612d2857612dba91612d4f565b90565b50505f90565b358060010b81036103635790565b6001600160a01b03908116908115612e17575f8051602061473083398151915280546001600160a01b031981168417909155165f805160206147d08339815191525f80a3565b604051631e4fbdf760e01b81525f6004820152602490fd5b335f9081525f805160206146f083398151915260205260409020545f805160206148d08339815191529060ff1615612e645750565b6044906040519063e2517d3f60e01b82523360048301526024820152fd5b335f9081527f756534422b3cb82a54d88d2dca71cfb1a3297222856e6ddc952d9ca5a7fc4b8860205260409020545f805160206146b08339815191529060ff1615612e645750565b805f525f8051602061481083398151915260205260405f20335f5260205260ff60405f20541615612e645750565b5f805160206148b08339815191526002815414612f155760029055565b604051633ee5aeb560e01b8152600490fd5b9081526001600160a01b03909116602082015260400190565b9190805f5260209060088252604091825f209260018060a01b039081871694855f52835260ff815f205416612fff57835f5260078352805f20855f528352805f2054918215612fe0578285969798612fd9927f181dd8e5abfdd7ea94bff7529391d477a29bf85df13abe63fb4f97017bbc8ba0975f5260088752845f208a5f528752845f20600160ff19825416179055600954166142cf565b51908152a3565b8151632decd07b60e11b815280612ffb8a8860048401612f27565b0390fd5b516302a4851560e61b815280612ffb888660048401612f27565b5f198114612d285760010190565b9190915f80516020614710833981519152811480156131dc575b80156131c6575b80156131b0575b801561319a575b8015613184575b801561316e575b1561315657613073838261431e565b5f805160206146d083398151915260606002549261309084613019565b6002555f84815260036020526040808220805460ff64ffffffffff60481b0119164260481b64ffffffffff60481b16179055805195988996906130d282612b24565b888252602082019060010b9485825260ff848401911692838252878101868152600160808301928884528c8952600b602052878920905181550193519261ffff63ff00000062ff00008754935160101b16935160181b16938160201b905160201b1694169065ffffffffffff191617171717905581519384526020840152820152a3565b60249060405190630d330d2760e01b82526004820152fd5b505f805160206148508339815191528114613064565b505f80516020614870833981519152811461305d565b505f805160206148308339815191528114613056565b505f80516020614910833981519152811461304f565b505f805160206147708339815191528114613048565b505f805160206148f08339815191528114613041565b9193925f80516020614710833981519152831480156133b8575b80156133a2575b801561338c575b8015613376575b8015613360575b801561334a575b156133315760605f805160206146d08339815191529161324f848661431e565b906002549461325d86613019565b6002555f8681526003602052604090819020805460ff64ffffffffff60481b0119164260481b64ffffffffff60481b16179055805196998a9793919290916132a485612b24565b898552602085019160010b9586835260ff85870191169384825260ff898801911681526080870191600161ffff809516988985528d5f52600b602052885f20905181550194519363ff00000062ff00008754935160101b16935160181b169361ffff60201b905160201b1694169065ffffffffffff191617171717905581519384526020840152820152a3565b604051630d330d2760e01b815260048101849052602490fd5b505f80516020614850833981519152831461322f565b505f805160206148708339815191528314613228565b505f805160206148308339815191528314613221565b505f80516020614910833981519152831461321a565b505f805160206147708339815191528314613213565b505f805160206148f0833981519152831461320c565b91909161ffff80809416911601918211612d2857565b5f52600b60205260405f2080545f805160206147108339815191528114613766575f805160206148f0833981519152811461371d575f8051602061477083398151915281146136bf575f80516020614910833981519152811461366f575f80516020614830833981519152811461363a575f8051602061487083398151915281146134f3575f805160206148508339815191521461348357505f905f90565b60ff6134c860016134aa61ffff806134996141ed565b16906134a3614283565b1690612d1b565b93015492828460181c1680155f146134ec57508260015b1690612d4f565b9160101c16808210156134e557506001600160401b031690600190565b9160019150565b83906134c1565b505060243560ff90818116809103610363576044358281168091036103635761351b916133ce565b90606435818116809103610363576084358281168091036103635761353f916133ce565b9060a4358181168091036103635760c43582811680910361036357613563916133ce565b9060e43590808216809203610363576101043590811680910361036357613589916133ce565b91835f809161ffff8097168785168181115f146136265750505050506001905f905b808616848716818111156135fd57505050505090600292805f935b169116818111156135ea575050505060035f5b6135e35790600190565b505f905f90565b036135d9576135f890613019565b6135d9565b90919295945095929514613613575b81906135c6565b9261361e8291613019565b93905061360c565b909192939450036135ab57600191506135ab565b50506101243560ff8116809103610363576001811461366757600214613660575f905f90565b6001908190565b505f90600190565b50600160ff91015460181c166001811080156136b5575b6135e35760ff6136968192614416565b911691168082116136ac5711613660575f905f90565b50505f90600190565b5060048111613686565b5061ffff90816136cd6141ed565b16916136d7614283565b1691828103925f811282851281169083861390151617612d2857600a8402938405600a1491141715612d28576001015460010b908181136136ac5712613660575f905f90565b509061372e61ffff806134996141ed565b600a810290808204600a1490151715612d2857600180930154830b905f821261375f571161375b575f9190565b8190565b50505f9190565b50506137706141ed565b61ffff8061377c614283565b169116908082116136ac5711613660575f905f90565b5f52600b60205260405f2080545f805160206147108339815191528114613966575f805160206148f08339815191528114613955575f80516020614770833981519152811461393d575f80516020614910833981519152811461390c575f8051602061483083398151915281146138e6575f805160206148708339815191528114613851575f805160206148508339815191521461383157505f905f90565b60ff6134c860016134aa61ffff80613847614238565b16906134a36141ed565b505060043560ff908181168091036103635760243582811680910361036357613879916133ce565b90604435818116809103610363576064358281168091036103635761389d916133ce565b906084358181168091036103635760a435828116809103610363576138c1916133ce565b9060c435908082168092036103635760e43590811680910361036357613589916133ce565b50506101043560ff8116809103610363576001811461366757600214613660575f905f90565b50600160ff91015460181c16600181108015613933575b6135e35760ff61369681926144a6565b5060048111613923565b5061ffff908161394b614238565b16916136d76141ed565b509061372e61ffff80613847614238565b5050613970614238565b61ffff8061377c6141ed565b90949392606092608083019660018060401b03168352602083015260408201520152565b919091805f5260209060038252604093845f209081549060ff82166006811015612b105760038103613b5c57506139d78185613f66565b835f5260048552865f20549160058652875f2060018060401b0383165f528652875f205415613af25750612710613a1761ffff600a5460a01c1684612d3c565b0494858303838111612d2857855f805160206147908339815191528a613aae948460018a60047fdd2e3713f4f6dc5f6c91ac1cea9e1f2fb91d4f4329fa81eab52629f775228ffa9c546101008460481b038c60081b16908469ffffffffff000000000160481b0319161764ffffffffff60701b4260701b16171781550155600482519160038352820152a28689519485948561397c565b0390a280613abb57509050565b600a546001600160a01b03908116908115613ae157613adf939450600954166142cf565b565b8451635c192c5f60e01b8152600490fd5b74766f69643a206e6f2077696e6e696e67206265747360581b9250606094969791509260055f80516020614690833981519152969460ff1916179055855f8051602061479083398151915282805160038152600587820152a26015815193808552840152820152a2565b87516327c6314f60e11b815260048101869052606491613b80906024830190612b03565b60036044820152fd5b6001600160a01b03165f8181527fb7db2dd08fcb62d0c9e08c51941cae53c267786a0b75803fb7960902fc8ef97d60205260409020545f805160206148108339815191529060ff16612dbd575f805260205260405f20815f5260205260405f20600160ff1982541617905533905f5f805160206146708339815191528180a4600190565b6001600160a01b03165f8181525f805160206146f083398151915260205260409020545f805160206148d083398151915291905f805160206148108339815191529060ff16613c8d57825f5260205260405f20815f5260205260405f20600160ff1982541617905533915f805160206146708339815191525f80a4600190565b5050505f90565b6001600160a01b03165f8181527f75442b0a96088b5456bc4ed01394c96a4feec0f883c9494257d76b96ab1c9b6b60205260409020545f805160206147b083398151915291905f805160206148108339815191529060ff16613c8d57825f5260205260405f20815f5260205260405f20600160ff1982541617905533915f805160206146708339815191525f80a4600190565b90815f525f805160206148108339815191528060205260405f209160018060a01b031691825f5260205260ff60405f205416155f14613c8d57825f5260205260405f20815f5260205260405f20600160ff1982541617905533915f805160206146708339815191525f80a4600190565b90815f525f805160206148108339815191528060205260405f209160018060a01b031691825f5260205260ff60405f2054165f14613c8d57825f5260205260405f20815f5260205260405f2060ff19815416905533917ff6391f5c32d9c69d2a47ea670b442974b53935d1edc7fd64eb21e047a839171b5f80a4600190565b60ff5f805160206148908339815191525416613e2e57565b60405163d93c066560e01b8152600490fd5b90805f52602060088152604090815f209360018060a01b039182821695865f52815260ff845f205416613f4857845f5260038152835f209260018060401b03845460081c169360068352855f20885f528352855f20855f528352855f2054948515613f2d5791613ef9613f22927f7513b6be2c9a0992975f71ef42f47c8ebedee4891864b052e46cf9247374f68d98979695948a5f5260058652885f20905f528552613ef46001895f205492015488612d3c565b612d4f565b938491895f5260088552875f208b5f528552875f20600160ff19825416179055600954166142cf565b8351928352820152a3565b865163b361b5fb60e01b815280612ffb878b60048401612f27565b5082516302a4851560e61b8152908190612ffb908660048401612f27565b90815f52600b60205260ff600160405f20015460101c169060018060401b0316818111613f9257505050565b60649350604051926383b689d160e01b8452600484015260248301526044820152fd5b927fcbf470e9c24fcadd6c47cc5958895187cbc7e78e537c0ee49b499b4dd65db5979192835f5261409a602060068152604090815f209760018060a01b031697885f528152815f2060018060401b03851690815f528252825f2061401a878254612d1b565b9055875f5260078252825f20895f528252825f20614039878254612d1b565b9055875f5260058252825f20815f528252825f20614058878254612d1b565b9055875f5260048252825f2061406f878254612d1b565b9055875f5260058252825f20905f5281526004825f205491885f5252815f205491519485948561397c565b0390a3565b805f52600360205260405f2080549060ff8216916006831015612b1057600183141580614120575b6140fc5760ff19166003179055604080515f80516020614790833981519152926140f2908290612b03565b60036020820152a2565b6040516327c6314f60e11b815260048101859052606490613b806024820186612b03565b5060028314156140c7565b805f52600360205260405f2080549060ff8216916006831015612b1057821515806141aa575b6141865760ff19166001179055604080515f805160206147908339815191529261417c908290612b03565b60016020820152a2565b6040516327c6314f60e11b8152600481018590526064906108ae6024820186612b03565b506002831415614151565b5f80516020614730833981519152546001600160a01b031633036141d557565b60405163118cdaa760e01b8152336004820152602490fd5b60243560ff8116809103610363576064359060ff82168092036103635761ffff9160a43560ff81168091036103635760e4359260ff8416809403610363578492839101160116011690565b60043560ff8116809103610363576044359060ff82168092036103635761ffff9160843560ff81168091036103635760c4359260ff8416809403610363578492839101160116011690565b60443560ff8116809103610363576084359060ff82168092036103635761ffff9160c43560ff811680910361036357610104359260ff8416809403610363578492839101160116011690565b60405163a9059cbb60e01b60208201526001600160a01b03909216602483015260448083019390935291815260808101916001600160401b03831182841017612b3f57613adf92604052614563565b905f80516020614710833981519152821461440f575f805160206148f0833981519152821461440f575f80516020614770833981519152821461440f575f80516020614910833981519152821461440f575f80516020614830833981519152821461440f575f805160206148708339815191528214614408575f8051602061485083398151915282146143c457604051630d330d2760e01b815260048101839052602490fd5b908160010b6001811280156143fe575b6143e057505060ff1690565b60449250604051916332cc7a6b60e21b835260048301526024820152fd5b5060ff81136143d4565b5050600390565b5050600190565b9060ff80921660018114614489576002811461446c576003146144505760e435828116810361036357610104359283168303610363579190565b60a43582811681036103635760c4359283168303610363579190565b506064358281168103610363576084359283168303610363579190565b506024358281168103610363576044359283168303610363579190565b9060ff8092166001811461451857600281146144fb576003146144df5760c43582811681036103635760e4359283168303610363579190565b60843582811681036103635760a4359283168303610363579190565b506044358281168103610363576064359283168303610363579190565b506004358281168103610363576024359283168303610363579190565b60ff5f805160206149308339815191525460401c161561455157565b604051631afcd79f60e31b8152600490fd5b5f8061458b9260018060a01b03169360208151910182865af16145846145dd565b908361460c565b80519081151591826145b9575b50506145a15750565b60249060405190635274afe760e01b82526004820152fd5b81925090602091810103126103635760200151801590811503610363575f80614598565b3d15614607573d906145ee82612b91565b916145fc6040519384612b6e565b82523d5f602084013e565b606090565b90614633575080511561462157805190602001fd5b604051630a12f52160e11b8152600490fd5b81511580614666575b614644575090565b604051639996b31560e01b81526001600160a01b039091166004820152602490fd5b50803b1561463c56fe2f8788117e7eff1d82e926ec794901d17c78024a50270940304540a733656f0d4c4561c5b0048424071c1115e9f1e325486e21c21333d968f21097b7b72d12ad92a19c77d2ea87c7f81d50c74403cb2f401780f3ad919571121efe2bdb427eb1ea7cc971ba11025eb99fff8822470c08a1a30d81df27de1d47b40c3d91238934b16e88c42fd4e48df2dd6a2eabd6bc9aec654ec170056b470819f8892cc6431c97e9cffa40fd62a888d33fedb0550a0c24b2dab7e942dd2c90f3dc402fe1d9d09016d09d72d40fdae2fd8ceac6b6234c7706214fd39c1cd1e609a0528c199300360894a13ba1a3210667c828492db98dca3e2076cc3735a920a3ca505d382bbcd88b64b65dd27d7ee406fd2a617824a69990aac83ed75494fd137e43d8007cad3fda72f0a1439a9047288d6140aad7d37a71b660b5229783c8a637ebd0631c0b65d7a28e3265b37a6474929f336521b332c1681b933f6cb9f3376673440d862a8be0079c531659141344cd1fd0a4f28419497f9722a3daafe3b4186f6b6457e0b88a0148d0785022bedeff8dc0f55ccbb709825d7109265ebe5ca3325f191b4202dd7bc7dec4dceedda775e58dd541e08a116c6c53815c0bd028192f7b626800c21332dfdbce391fb79bb93cb3bdd389a3887e8ed803e48301c3b92f7095d3f10d35f5959cdbc5e97418758c59c699ea55293d7d32474b4ee39396eb770a549d62aa64c00e0b702d538c65ffc672e53ec0721fe8dd54c3223175a2051bd2e8f4cd5ed15c6e187e77e9aee88184c21f4f2182ab5827cb3b7e07fbedcd63f033009b779b17422d0df92223018b32b4d1fa46e071723d6817e2486d003becc55f00a49807205ce4d355092ef5a8a18f56e8913cf4a201fbe287825b095693c21775c48889a7f50eeb47325f8695e80998d47bc82fe412832d723b6bf2a0773c0622a73a6ddf2a0b1203f387e9ac295532c1f565ac9e2c5919248bcb5fa7c41bb627f0c57e16840df040f15088dc2f81fe391c3923bec73e23a9662efc9c229c6a00a903a5200a3509510da557615994ebd7dbb3d8b122c2190f01477c128da2cfcba2646970667358221220ff6877597cdf8ecbcf1021c8adc1e074f2bd9af8b9eafa1b442cac995f15765864736f6c63430008180033","linkReferences":{}},"methodIdentifiers":{"ADMIN_ROLE()":"75b238fc","BPS_DENOM()":"6637e38c","DEFAULT_ADMIN_ROLE()":"a217fddf","MARKET_FIRST_TO_SCORE()":"bdc69bd9","MARKET_HIGHEST_QUARTER()":"37c6ef85","MARKET_POINTS_EXACT()":"2045646d","MARKET_QUARTER_WINNER()":"af4a52ec","MARKET_SPREAD()":"51487dc0","MARKET_TOTAL_POINTS()":"330b82fe","MARKET_WINNER()":"8723eccf","MAX_FEE_BPS()":"d55be8c6","MIN_STAKE()":"cb1c2b5c","PAUSER_ROLE()":"e63ab1e9","RESOLVER_ROLE()":"78fab260","SWAP_ROUTER_ROLE()":"c6886db4","UPGRADE_INTERFACE_VERSION()":"ad3cb1cc","addMarketAdvanced(bytes32,int16,uint8,uint16)":"09908d87","addMarketWithLine(bytes32,int16)":"d203ce70","addMarketsBatch(bytes32[],int16[])":"c743bb73","addMarketsBatchAdvanced(bytes32[],int16[],uint8[],uint16[])":"6e60c97d","addPointsExactMarket(int16,uint8)":"0e1d6463","addQuarterMarket(bytes32,int16,uint8)":"7a3c2689","cancelMarket(uint256,string)":"456051f1","claim(uint256)":"379607f5","claimBatch(uint256[])":"62abebce","claimRefund(uint256)":"5b7baf64","claimRefundBatch(uint256[])":"0637e5df","closeMarket(uint256)":"ae418095","closeMarketsBatch(uint256[])":"8d3bf365","computeOutcome(uint256,(uint8,uint8,uint8,uint8,uint8,uint8,uint8,uint8,uint8))":"9cd1443c","emergencyPause()":"51858e27","feeBps()":"24a9d853","feeRecipient()":"46904840","getImpliedProbabilityBps(uint256,uint64)":"3fe1f002","getMarketCore(uint256)":"40b16c1e","getMarketInfo(uint256)":"3ec79193","getMarketSpec(uint256)":"396f01ba","getOutcomePool(uint256,uint64)":"1cf65cc2","getRoleAdmin(bytes32)":"248a9ca3","getTotalPool(uint256)":"3a35b9bd","getUserStake(uint256,address,uint64)":"5f779fef","getUserTotalStake(uint256,address)":"b2392cab","grantRole(bytes32,address)":"2f2ff15d","hasClaimed(uint256,address)":"873f6f9e","hasRole(bytes32,address)":"91d14854","initialize(string,address)":"7ab4339d","marketCount()":"ec979082","matchName()":"71738f8c","openMarket(uint256)":"baa26757","openMarketsBatch(uint256[])":"9b05743f","owner()":"8da5cb5b","paused()":"5c975abb","placeBetUSDC(uint256,uint64,uint256)":"a4b8195c","placeBetUSDCFor(address,uint256,uint64,uint256)":"3eccfc96","proxiableUUID()":"52d1902d","renounceOwnership()":"715018a6","renounceRole(bytes32,address)":"36568abe","resolveBatchByScore(uint256[],(uint8,uint8,uint8,uint8,uint8,uint8,uint8,uint8,uint8))":"0eb47110","resolveByScore((uint8,uint8,uint8,uint8,uint8,uint8,uint8,uint8,uint8))":"8ac0be87","resolveMarket(uint256,uint64)":"1a095c6e","resolveMarketsBatch(uint256[],uint64[])":"a04286e0","revokeRole(bytes32,address)":"d547741f","setFeeBps(uint16)":"023b1fc9","setFeeRecipient(address)":"e74b981b","setUSDCToken(address)":"0f5a9d01","sportType()":"bef2a6a0","supportsInterface(bytes4)":"01ffc9a7","suspendMarket(uint256)":"931b5466","transferOwnership(address)":"f2fde38b","unpause()":"3f4ba83a","upgradeToAndCall(address,bytes)":"4f1ef286","usdcToken()":"11eac855"},"id":55}