{"abi":[{"type":"constructor","inputs":[],"stateMutability":"nonpayable"},{"type":"function","name":"ADMIN_ROLE","inputs":[],"outputs":[{"name":"","type":"bytes32","internalType":"bytes32"}],"stateMutability":"view"},{"type":"function","name":"BPS_DENOM","inputs":[],"outputs":[{"name":"","type":"uint256","internalType":"uint256"}],"stateMutability":"view"},{"type":"function","name":"DEFAULT_ADMIN_ROLE","inputs":[],"outputs":[{"name":"","type":"bytes32","internalType":"bytes32"}],"stateMutability":"view"},{"type":"function","name":"MARKET_BOTH_SCORE","inputs":[],"outputs":[{"name":"","type":"bytes32","internalType":"bytes32"}],"stateMutability":"view"},{"type":"function","name":"MARKET_CORRECT_SCORE","inputs":[],"outputs":[{"name":"","type":"bytes32","internalType":"bytes32"}],"stateMutability":"view"},{"type":"function","name":"MARKET_FIRST_SCORER","inputs":[],"outputs":[{"name":"","type":"bytes32","internalType":"bytes32"}],"stateMutability":"view"},{"type":"function","name":"MARKET_GOALS_EXACT","inputs":[],"outputs":[{"name":"","type":"bytes32","internalType":"bytes32"}],"stateMutability":"view"},{"type":"function","name":"MARKET_GOALS_TOTAL","inputs":[],"outputs":[{"name":"","type":"bytes32","internalType":"bytes32"}],"stateMutability":"view"},{"type":"function","name":"MARKET_HALFTIME","inputs":[],"outputs":[{"name":"","type":"bytes32","internalType":"bytes32"}],"stateMutability":"view"},{"type":"function","name":"MARKET_WINNER","inputs":[],"outputs":[{"name":"","type":"bytes32","internalType":"bytes32"}],"stateMutability":"view"},{"type":"function","name":"MAX_FEE_BPS","inputs":[],"outputs":[{"name":"","type":"uint16","internalType":"uint16"}],"stateMutability":"view"},{"type":"function","name":"MIN_STAKE","inputs":[],"outputs":[{"name":"","type":"uint256","internalType":"uint256"}],"stateMutability":"view"},{"type":"function","name":"PAUSER_ROLE","inputs":[],"outputs":[{"name":"","type":"bytes32","internalType":"bytes32"}],"stateMutability":"view"},{"type":"function","name":"RESOLVER_ROLE","inputs":[],"outputs":[{"name":"","type":"bytes32","internalType":"bytes32"}],"stateMutability":"view"},{"type":"function","name":"SWAP_ROUTER_ROLE","inputs":[],"outputs":[{"name":"","type":"bytes32","internalType":"bytes32"}],"stateMutability":"view"},{"type":"function","name":"UPGRADE_INTERFACE_VERSION","inputs":[],"outputs":[{"name":"","type":"string","internalType":"string"}],"stateMutability":"view"},{"type":"function","name":"addMarketAdvanced","inputs":[{"name":"marketType","type":"bytes32","internalType":"bytes32"},{"name":"line","type":"int16","internalType":"int16"},{"name":"extra","type":"uint8","internalType":"uint8"},{"name":"groupId","type":"uint16","internalType":"uint16"}],"outputs":[{"name":"marketId","type":"uint256","internalType":"uint256"}],"stateMutability":"nonpayable"},{"type":"function","name":"addMarketWithLine","inputs":[{"name":"marketType","type":"bytes32","internalType":"bytes32"},{"name":"line","type":"int16","internalType":"int16"}],"outputs":[{"name":"marketId","type":"uint256","internalType":"uint256"}],"stateMutability":"nonpayable"},{"type":"function","name":"addMarketsBatch","inputs":[{"name":"marketTypes","type":"bytes32[]","internalType":"bytes32[]"},{"name":"lines","type":"int16[]","internalType":"int16[]"}],"outputs":[],"stateMutability":"nonpayable"},{"type":"function","name":"addMarketsBatchAdvanced","inputs":[{"name":"marketTypes","type":"bytes32[]","internalType":"bytes32[]"},{"name":"lines","type":"int16[]","internalType":"int16[]"},{"name":"extras","type":"uint8[]","internalType":"uint8[]"},{"name":"groupIds","type":"uint16[]","internalType":"uint16[]"}],"outputs":[],"stateMutability":"nonpayable"},{"type":"function","name":"cancelMarket","inputs":[{"name":"marketId","type":"uint256","internalType":"uint256"},{"name":"reason","type":"string","internalType":"string"}],"outputs":[],"stateMutability":"nonpayable"},{"type":"function","name":"claim","inputs":[{"name":"marketId","type":"uint256","internalType":"uint256"}],"outputs":[],"stateMutability":"nonpayable"},{"type":"function","name":"claimBatch","inputs":[{"name":"marketIds","type":"uint256[]","internalType":"uint256[]"}],"outputs":[],"stateMutability":"nonpayable"},{"type":"function","name":"claimRefund","inputs":[{"name":"marketId","type":"uint256","internalType":"uint256"}],"outputs":[],"stateMutability":"nonpayable"},{"type":"function","name":"claimRefundBatch","inputs":[{"name":"marketIds","type":"uint256[]","internalType":"uint256[]"}],"outputs":[],"stateMutability":"nonpayable"},{"type":"function","name":"closeMarket","inputs":[{"name":"marketId","type":"uint256","internalType":"uint256"}],"outputs":[],"stateMutability":"nonpayable"},{"type":"function","name":"closeMarketsBatch","inputs":[{"name":"marketIds","type":"uint256[]","internalType":"uint256[]"}],"outputs":[],"stateMutability":"nonpayable"},{"type":"function","name":"computeOutcome","inputs":[{"name":"marketId","type":"uint256","internalType":"uint256"},{"name":"s","type":"tuple","internalType":"struct FootballPariMatch.FootballScore","components":[{"name":"homeGoals","type":"uint8","internalType":"uint8"},{"name":"awayGoals","type":"uint8","internalType":"uint8"},{"name":"htHomeGoals","type":"uint8","internalType":"uint8"},{"name":"htAwayGoals","type":"uint8","internalType":"uint8"},{"name":"firstScorerId","type":"uint8","internalType":"uint8"}]}],"outputs":[{"name":"outcome","type":"uint64","internalType":"uint64"},{"name":"resolvable","type":"bool","internalType":"bool"}],"stateMutability":"view"},{"type":"function","name":"emergencyPause","inputs":[],"outputs":[],"stateMutability":"nonpayable"},{"type":"function","name":"feeBps","inputs":[],"outputs":[{"name":"","type":"uint16","internalType":"uint16"}],"stateMutability":"view"},{"type":"function","name":"feeRecipient","inputs":[],"outputs":[{"name":"","type":"address","internalType":"address"}],"stateMutability":"view"},{"type":"function","name":"getImpliedProbabilityBps","inputs":[{"name":"marketId","type":"uint256","internalType":"uint256"},{"name":"outcome","type":"uint64","internalType":"uint64"}],"outputs":[{"name":"bps","type":"uint256","internalType":"uint256"}],"stateMutability":"view"},{"type":"function","name":"getMarketCore","inputs":[{"name":"marketId","type":"uint256","internalType":"uint256"}],"outputs":[{"name":"","type":"tuple","internalType":"struct PariMatchBase.MarketCore","components":[{"name":"state","type":"uint8","internalType":"enum PariMatchBase.MarketState"},{"name":"result","type":"uint64","internalType":"uint64"},{"name":"createdAt","type":"uint40","internalType":"uint40"},{"name":"resolvedAt","type":"uint40","internalType":"uint40"},{"name":"resolvedNetPool","type":"uint256","internalType":"uint256"}]}],"stateMutability":"view"},{"type":"function","name":"getMarketInfo","inputs":[{"name":"marketId","type":"uint256","internalType":"uint256"}],"outputs":[{"name":"marketType","type":"bytes32","internalType":"bytes32"},{"name":"state","type":"uint8","internalType":"enum PariMatchBase.MarketState"},{"name":"result","type":"uint64","internalType":"uint64"},{"name":"totalPool","type":"uint256","internalType":"uint256"},{"name":"outcomeCount","type":"uint256","internalType":"uint256"}],"stateMutability":"view"},{"type":"function","name":"getMarketSpec","inputs":[{"name":"marketId","type":"uint256","internalType":"uint256"}],"outputs":[{"name":"","type":"tuple","internalType":"struct PariMatchBase.MarketSpec","components":[{"name":"marketType","type":"bytes32","internalType":"bytes32"},{"name":"line","type":"int16","internalType":"int16"},{"name":"maxOutcome","type":"uint8","internalType":"uint8"},{"name":"extra","type":"uint8","internalType":"uint8"},{"name":"groupId","type":"uint16","internalType":"uint16"}]}],"stateMutability":"view"},{"type":"function","name":"getOutcomePool","inputs":[{"name":"marketId","type":"uint256","internalType":"uint256"},{"name":"outcome","type":"uint64","internalType":"uint64"}],"outputs":[{"name":"","type":"uint256","internalType":"uint256"}],"stateMutability":"view"},{"type":"function","name":"getRoleAdmin","inputs":[{"name":"role","type":"bytes32","internalType":"bytes32"}],"outputs":[{"name":"","type":"bytes32","internalType":"bytes32"}],"stateMutability":"view"},{"type":"function","name":"getTotalPool","inputs":[{"name":"marketId","type":"uint256","internalType":"uint256"}],"outputs":[{"name":"","type":"uint256","internalType":"uint256"}],"stateMutability":"view"},{"type":"function","name":"getUserStake","inputs":[{"name":"marketId","type":"uint256","internalType":"uint256"},{"name":"user","type":"address","internalType":"address"},{"name":"outcome","type":"uint64","internalType":"uint64"}],"outputs":[{"name":"","type":"uint256","internalType":"uint256"}],"stateMutability":"view"},{"type":"function","name":"getUserTotalStake","inputs":[{"name":"marketId","type":"uint256","internalType":"uint256"},{"name":"user","type":"address","internalType":"address"}],"outputs":[{"name":"","type":"uint256","internalType":"uint256"}],"stateMutability":"view"},{"type":"function","name":"grantRole","inputs":[{"name":"role","type":"bytes32","internalType":"bytes32"},{"name":"account","type":"address","internalType":"address"}],"outputs":[],"stateMutability":"nonpayable"},{"type":"function","name":"hasClaimed","inputs":[{"name":"marketId","type":"uint256","internalType":"uint256"},{"name":"user","type":"address","internalType":"address"}],"outputs":[{"name":"","type":"bool","internalType":"bool"}],"stateMutability":"view"},{"type":"function","name":"hasRole","inputs":[{"name":"role","type":"bytes32","internalType":"bytes32"},{"name":"account","type":"address","internalType":"address"}],"outputs":[{"name":"","type":"bool","internalType":"bool"}],"stateMutability":"view"},{"type":"function","name":"initialize","inputs":[{"name":"_matchName","type":"string","internalType":"string"},{"name":"_owner","type":"address","internalType":"address"}],"outputs":[],"stateMutability":"nonpayable"},{"type":"function","name":"leaderboardFeeBps","inputs":[],"outputs":[{"name":"","type":"uint16","internalType":"uint16"}],"stateMutability":"view"},{"type":"function","name":"leaderboardRecipient","inputs":[],"outputs":[{"name":"","type":"address","internalType":"address"}],"stateMutability":"view"},{"type":"function","name":"marketCount","inputs":[],"outputs":[{"name":"","type":"uint256","internalType":"uint256"}],"stateMutability":"view"},{"type":"function","name":"matchName","inputs":[],"outputs":[{"name":"","type":"string","internalType":"string"}],"stateMutability":"view"},{"type":"function","name":"openMarket","inputs":[{"name":"marketId","type":"uint256","internalType":"uint256"}],"outputs":[],"stateMutability":"nonpayable"},{"type":"function","name":"openMarketsBatch","inputs":[{"name":"marketIds","type":"uint256[]","internalType":"uint256[]"}],"outputs":[],"stateMutability":"nonpayable"},{"type":"function","name":"owner","inputs":[],"outputs":[{"name":"","type":"address","internalType":"address"}],"stateMutability":"view"},{"type":"function","name":"paused","inputs":[],"outputs":[{"name":"","type":"bool","internalType":"bool"}],"stateMutability":"view"},{"type":"function","name":"placeBetUSDC","inputs":[{"name":"marketId","type":"uint256","internalType":"uint256"},{"name":"outcome","type":"uint64","internalType":"uint64"},{"name":"amount","type":"uint256","internalType":"uint256"}],"outputs":[],"stateMutability":"nonpayable"},{"type":"function","name":"placeBetUSDCFor","inputs":[{"name":"user","type":"address","internalType":"address"},{"name":"marketId","type":"uint256","internalType":"uint256"},{"name":"outcome","type":"uint64","internalType":"uint64"},{"name":"amount","type":"uint256","internalType":"uint256"}],"outputs":[],"stateMutability":"nonpayable"},{"type":"function","name":"proxiableUUID","inputs":[],"outputs":[{"name":"","type":"bytes32","internalType":"bytes32"}],"stateMutability":"view"},{"type":"function","name":"renounceOwnership","inputs":[],"outputs":[],"stateMutability":"nonpayable"},{"type":"function","name":"renounceRole","inputs":[{"name":"role","type":"bytes32","internalType":"bytes32"},{"name":"callerConfirmation","type":"address","internalType":"address"}],"outputs":[],"stateMutability":"nonpayable"},{"type":"function","name":"resolveBatchByScore","inputs":[{"name":"marketIds","type":"uint256[]","internalType":"uint256[]"},{"name":"s","type":"tuple","internalType":"struct FootballPariMatch.FootballScore","components":[{"name":"homeGoals","type":"uint8","internalType":"uint8"},{"name":"awayGoals","type":"uint8","internalType":"uint8"},{"name":"htHomeGoals","type":"uint8","internalType":"uint8"},{"name":"htAwayGoals","type":"uint8","internalType":"uint8"},{"name":"firstScorerId","type":"uint8","internalType":"uint8"}]}],"outputs":[{"name":"marketsResolved","type":"uint256","internalType":"uint256"}],"stateMutability":"nonpayable"},{"type":"function","name":"resolveByScore","inputs":[{"name":"s","type":"tuple","internalType":"struct FootballPariMatch.FootballScore","components":[{"name":"homeGoals","type":"uint8","internalType":"uint8"},{"name":"awayGoals","type":"uint8","internalType":"uint8"},{"name":"htHomeGoals","type":"uint8","internalType":"uint8"},{"name":"htAwayGoals","type":"uint8","internalType":"uint8"},{"name":"firstScorerId","type":"uint8","internalType":"uint8"}]}],"outputs":[{"name":"marketsResolved","type":"uint256","internalType":"uint256"}],"stateMutability":"nonpayable"},{"type":"function","name":"resolveMarket","inputs":[{"name":"marketId","type":"uint256","internalType":"uint256"},{"name":"result","type":"uint64","internalType":"uint64"}],"outputs":[],"stateMutability":"nonpayable"},{"type":"function","name":"resolveMarketsBatch","inputs":[{"name":"marketIds","type":"uint256[]","internalType":"uint256[]"},{"name":"results","type":"uint64[]","internalType":"uint64[]"}],"outputs":[],"stateMutability":"nonpayable"},{"type":"function","name":"revokeRole","inputs":[{"name":"role","type":"bytes32","internalType":"bytes32"},{"name":"account","type":"address","internalType":"address"}],"outputs":[],"stateMutability":"nonpayable"},{"type":"function","name":"setFeeBps","inputs":[{"name":"_feeBps","type":"uint16","internalType":"uint16"}],"outputs":[],"stateMutability":"nonpayable"},{"type":"function","name":"setFeeRecipient","inputs":[{"name":"_recipient","type":"address","internalType":"address"}],"outputs":[],"stateMutability":"nonpayable"},{"type":"function","name":"setLeaderboardFeeBps","inputs":[{"name":"_bps","type":"uint16","internalType":"uint16"}],"outputs":[],"stateMutability":"nonpayable"},{"type":"function","name":"setLeaderboardRecipient","inputs":[{"name":"_recipient","type":"address","internalType":"address"}],"outputs":[],"stateMutability":"nonpayable"},{"type":"function","name":"setUSDCToken","inputs":[{"name":"_usdc","type":"address","internalType":"address"}],"outputs":[],"stateMutability":"nonpayable"},{"type":"function","name":"sportType","inputs":[],"outputs":[{"name":"","type":"string","internalType":"string"}],"stateMutability":"view"},{"type":"function","name":"supportsInterface","inputs":[{"name":"interfaceId","type":"bytes4","internalType":"bytes4"}],"outputs":[{"name":"","type":"bool","internalType":"bool"}],"stateMutability":"view"},{"type":"function","name":"suspendMarket","inputs":[{"name":"marketId","type":"uint256","internalType":"uint256"}],"outputs":[],"stateMutability":"nonpayable"},{"type":"function","name":"transferOwnership","inputs":[{"name":"newOwner","type":"address","internalType":"address"}],"outputs":[],"stateMutability":"nonpayable"},{"type":"function","name":"unpause","inputs":[],"outputs":[],"stateMutability":"nonpayable"},{"type":"function","name":"upgradeToAndCall","inputs":[{"name":"newImplementation","type":"address","internalType":"address"},{"name":"data","type":"bytes","internalType":"bytes"}],"outputs":[],"stateMutability":"payable"},{"type":"function","name":"usdcToken","inputs":[],"outputs":[{"name":"","type":"address","internalType":"contract IERC20"}],"stateMutability":"view"},{"type":"event","name":"FeeBpsSet","inputs":[{"name":"oldBps","type":"uint16","indexed":false,"internalType":"uint16"},{"name":"newBps","type":"uint16","indexed":false,"internalType":"uint16"}],"anonymous":false},{"type":"event","name":"FeeRecipientSet","inputs":[{"name":"oldRecipient","type":"address","indexed":true,"internalType":"address"},{"name":"newRecipient","type":"address","indexed":true,"internalType":"address"}],"anonymous":false},{"type":"event","name":"Initialized","inputs":[{"name":"version","type":"uint64","indexed":false,"internalType":"uint64"}],"anonymous":false},{"type":"event","name":"LeaderboardFeeBpsSet","inputs":[{"name":"oldBps","type":"uint16","indexed":false,"internalType":"uint16"},{"name":"newBps","type":"uint16","indexed":false,"internalType":"uint16"}],"anonymous":false},{"type":"event","name":"LeaderboardRecipientSet","inputs":[{"name":"oldRecipient","type":"address","indexed":true,"internalType":"address"},{"name":"newRecipient","type":"address","indexed":true,"internalType":"address"}],"anonymous":false},{"type":"event","name":"LeaderboardRecordFailed","inputs":[{"name":"leaderboard","type":"address","indexed":true,"internalType":"address"},{"name":"user","type":"address","indexed":true,"internalType":"address"},{"name":"payout","type":"uint256","indexed":false,"internalType":"uint256"}],"anonymous":false},{"type":"event","name":"MarketCancelled","inputs":[{"name":"marketId","type":"uint256","indexed":true,"internalType":"uint256"},{"name":"reason","type":"string","indexed":false,"internalType":"string"}],"anonymous":false},{"type":"event","name":"MarketCreated","inputs":[{"name":"marketId","type":"uint256","indexed":true,"internalType":"uint256"},{"name":"marketType","type":"bytes32","indexed":true,"internalType":"bytes32"},{"name":"line","type":"int16","indexed":false,"internalType":"int16"},{"name":"maxOutcome","type":"uint8","indexed":false,"internalType":"uint8"},{"name":"groupId","type":"uint16","indexed":false,"internalType":"uint16"}],"anonymous":false},{"type":"event","name":"MarketResolved","inputs":[{"name":"marketId","type":"uint256","indexed":true,"internalType":"uint256"},{"name":"result","type":"uint64","indexed":false,"internalType":"uint64"},{"name":"totalPool","type":"uint256","indexed":false,"internalType":"uint256"},{"name":"fee","type":"uint256","indexed":false,"internalType":"uint256"},{"name":"resolvedNetPool","type":"uint256","indexed":false,"internalType":"uint256"}],"anonymous":false},{"type":"event","name":"MarketStateChanged","inputs":[{"name":"marketId","type":"uint256","indexed":true,"internalType":"uint256"},{"name":"oldState","type":"uint8","indexed":false,"internalType":"enum PariMatchBase.MarketState"},{"name":"newState","type":"uint8","indexed":false,"internalType":"enum PariMatchBase.MarketState"}],"anonymous":false},{"type":"event","name":"MatchInitialized","inputs":[{"name":"name","type":"string","indexed":true,"internalType":"string"},{"name":"sportType","type":"string","indexed":false,"internalType":"string"},{"name":"owner","type":"address","indexed":true,"internalType":"address"}],"anonymous":false},{"type":"event","name":"MatchScoreResolved","inputs":[{"name":"homeGoals","type":"uint8","indexed":false,"internalType":"uint8"},{"name":"awayGoals","type":"uint8","indexed":false,"internalType":"uint8"},{"name":"htHomeGoals","type":"uint8","indexed":false,"internalType":"uint8"},{"name":"htAwayGoals","type":"uint8","indexed":false,"internalType":"uint8"},{"name":"firstScorerId","type":"uint8","indexed":false,"internalType":"uint8"},{"name":"marketsResolved","type":"uint256","indexed":false,"internalType":"uint256"}],"anonymous":false},{"type":"event","name":"OwnershipTransferred","inputs":[{"name":"previousOwner","type":"address","indexed":true,"internalType":"address"},{"name":"newOwner","type":"address","indexed":true,"internalType":"address"}],"anonymous":false},{"type":"event","name":"Paused","inputs":[{"name":"account","type":"address","indexed":false,"internalType":"address"}],"anonymous":false},{"type":"event","name":"PositionClaimed","inputs":[{"name":"marketId","type":"uint256","indexed":true,"internalType":"uint256"},{"name":"user","type":"address","indexed":true,"internalType":"address"},{"name":"stake","type":"uint256","indexed":false,"internalType":"uint256"},{"name":"payout","type":"uint256","indexed":false,"internalType":"uint256"}],"anonymous":false},{"type":"event","name":"PositionTaken","inputs":[{"name":"marketId","type":"uint256","indexed":true,"internalType":"uint256"},{"name":"user","type":"address","indexed":true,"internalType":"address"},{"name":"outcome","type":"uint64","indexed":false,"internalType":"uint64"},{"name":"stake","type":"uint256","indexed":false,"internalType":"uint256"},{"name":"newOutcomePool","type":"uint256","indexed":false,"internalType":"uint256"},{"name":"newTotalPool","type":"uint256","indexed":false,"internalType":"uint256"}],"anonymous":false},{"type":"event","name":"RoleAdminChanged","inputs":[{"name":"role","type":"bytes32","indexed":true,"internalType":"bytes32"},{"name":"previousAdminRole","type":"bytes32","indexed":true,"internalType":"bytes32"},{"name":"newAdminRole","type":"bytes32","indexed":true,"internalType":"bytes32"}],"anonymous":false},{"type":"event","name":"RoleGranted","inputs":[{"name":"role","type":"bytes32","indexed":true,"internalType":"bytes32"},{"name":"account","type":"address","indexed":true,"internalType":"address"},{"name":"sender","type":"address","indexed":true,"internalType":"address"}],"anonymous":false},{"type":"event","name":"RoleRevoked","inputs":[{"name":"role","type":"bytes32","indexed":true,"internalType":"bytes32"},{"name":"account","type":"address","indexed":true,"internalType":"address"},{"name":"sender","type":"address","indexed":true,"internalType":"address"}],"anonymous":false},{"type":"event","name":"StakeRefunded","inputs":[{"name":"marketId","type":"uint256","indexed":true,"internalType":"uint256"},{"name":"user","type":"address","indexed":true,"internalType":"address"},{"name":"amount","type":"uint256","indexed":false,"internalType":"uint256"}],"anonymous":false},{"type":"event","name":"USDCTokenSet","inputs":[{"name":"token","type":"address","indexed":true,"internalType":"address"}],"anonymous":false},{"type":"event","name":"Unpaused","inputs":[{"name":"account","type":"address","indexed":false,"internalType":"address"}],"anonymous":false},{"type":"event","name":"Upgraded","inputs":[{"name":"implementation","type":"address","indexed":true,"internalType":"address"}],"anonymous":false},{"type":"error","name":"AccessControlBadConfirmation","inputs":[]},{"type":"error","name":"AccessControlUnauthorizedAccount","inputs":[{"name":"account","type":"address","internalType":"address"},{"name":"neededRole","type":"bytes32","internalType":"bytes32"}]},{"type":"error","name":"AddressEmptyCode","inputs":[{"name":"target","type":"address","internalType":"address"}]},{"type":"error","name":"AddressInsufficientBalance","inputs":[{"name":"account","type":"address","internalType":"address"}]},{"type":"error","name":"AlreadyClaimed","inputs":[{"name":"marketId","type":"uint256","internalType":"uint256"},{"name":"user","type":"address","internalType":"address"}]},{"type":"error","name":"ArrayLengthMismatch","inputs":[]},{"type":"error","name":"ERC1967InvalidImplementation","inputs":[{"name":"implementation","type":"address","internalType":"address"}]},{"type":"error","name":"ERC1967NonPayable","inputs":[]},{"type":"error","name":"EnforcedPause","inputs":[]},{"type":"error","name":"ExpectedPause","inputs":[]},{"type":"error","name":"FailedInnerCall","inputs":[]},{"type":"error","name":"FeeBpsExceedsMax","inputs":[{"name":"provided","type":"uint16","internalType":"uint16"},{"name":"max","type":"uint16","internalType":"uint16"}]},{"type":"error","name":"FeeRecipientNotConfigured","inputs":[]},{"type":"error","name":"InvalidInitialization","inputs":[]},{"type":"error","name":"InvalidLine","inputs":[{"name":"marketType","type":"bytes32","internalType":"bytes32"},{"name":"line","type":"int16","internalType":"int16"}]},{"type":"error","name":"InvalidMarketId","inputs":[{"name":"marketId","type":"uint256","internalType":"uint256"}]},{"type":"error","name":"InvalidMarketState","inputs":[{"name":"marketId","type":"uint256","internalType":"uint256"},{"name":"current","type":"uint8","internalType":"enum PariMatchBase.MarketState"},{"name":"required","type":"uint8","internalType":"enum PariMatchBase.MarketState"}]},{"type":"error","name":"InvalidMarketType","inputs":[{"name":"marketType","type":"bytes32","internalType":"bytes32"}]},{"type":"error","name":"InvalidOutcome","inputs":[{"name":"marketId","type":"uint256","internalType":"uint256"},{"name":"outcome","type":"uint64","internalType":"uint64"}]},{"type":"error","name":"InvalidOutcomeValue","inputs":[{"name":"marketId","type":"uint256","internalType":"uint256"},{"name":"outcome","type":"uint64","internalType":"uint64"},{"name":"maxAllowed","type":"uint8","internalType":"uint8"}]},{"type":"error","name":"LeaderboardFeeExceedsTotal","inputs":[{"name":"leaderboardBps","type":"uint16","internalType":"uint16"},{"name":"totalBps","type":"uint16","internalType":"uint16"}]},{"type":"error","name":"LeaderboardRecipientNotConfigured","inputs":[]},{"type":"error","name":"NotInitializing","inputs":[]},{"type":"error","name":"NothingToClaim","inputs":[{"name":"marketId","type":"uint256","internalType":"uint256"},{"name":"user","type":"address","internalType":"address"}]},{"type":"error","name":"NothingToRefund","inputs":[{"name":"marketId","type":"uint256","internalType":"uint256"},{"name":"user","type":"address","internalType":"address"}]},{"type":"error","name":"OwnableInvalidOwner","inputs":[{"name":"owner","type":"address","internalType":"address"}]},{"type":"error","name":"OwnableUnauthorizedAccount","inputs":[{"name":"account","type":"address","internalType":"address"}]},{"type":"error","name":"ReentrancyGuardReentrantCall","inputs":[]},{"type":"error","name":"SafeERC20FailedOperation","inputs":[{"name":"token","type":"address","internalType":"address"}]},{"type":"error","name":"StakeBelowMinimum","inputs":[{"name":"stake","type":"uint256","internalType":"uint256"},{"name":"minimum","type":"uint256","internalType":"uint256"}]},{"type":"error","name":"USDCNotConfigured","inputs":[]},{"type":"error","name":"UUPSUnauthorizedCallContext","inputs":[]},{"type":"error","name":"UUPSUnsupportedProxiableUUID","inputs":[{"name":"slot","type":"bytes32","internalType":"bytes32"}]},{"type":"error","name":"ZeroStake","inputs":[]}],"bytecode":{"object":"0x60a08060405234620000d157306080527ff0c57e16840df040f15088dc2f81fe391c3923bec73e23a9662efc9c229c6a009081549060ff8260401c16620000c257506001600160401b036002600160401b0319828216016200007c575b6040516145dd9081620000d682396080518181816119e70152611b600152f35b6001600160401b031990911681179091556040519081527fc7f505b2f371ae2175ee4913f4499e1f2633a7b5936321eed1cdaeb6115181d290602090a15f80806200005c565b63f92ee8a960e01b8152600490fd5b5f80fdfe6080604081815260049182361015610015575f80fd5b5f3560e01c90816301ffc9a7146127e857508063023b1fc91461271d5780630637e5df1461265457806309908d87146126085780630f5a9d011461258f57806310900d1d1461256857806311eac855146125405780631a095c6e146124f35780631cf65cc2146124a3578063248a9ca31461246d57806324a9d853146124485780632e71b708146124215780632f2ff15d146123f957806336568abe146123b5578063379607f514612320578063396f01ba1461227a5780633a35b9bd146122335780633ec79193146121955780633eccfc961461203c5780633f4ba83a14611fc75780633fe1f00214611f9457806340b16c1e14611ec2578063456051f114611d505780634690484014611d285780634f1ef28614611b1057806351858e2714611a6057806352a079be14611a3857806352d1902d146119d45780635b7baf64146119575780635c975abb146119285780635d5df2a7146118105780635f779fef1461179657806362abebce146116c65780636637e38c1461068a5780636882870d146116185780636bcaa991146115f15780636e60c97d146114d4578063715018a61461148057806371738f8c146113f857806374306a12146113d357806375b238fc146113ac578063789c650f1461135e57806378fab260146113375780637ab4339d14610eed5780637c0078a414610ec65780638723eccf14610e9f578063873f6f9e14610e4e5780638d3bf36514610d425780638da5cb5b14610d0e57806391d1485414610cbe578063931b546614610bf05780639b05743f14610b29578063a04286e014610a7d578063a217fddf14610a63578063a4b8195c146108f9578063ad3cb1cc146108bd578063ae4180951461088c578063b2392cab14610827578063baa26757146107e1578063bef2a6a014610725578063c6886db4146106fe578063c743bb731461068f578063cb1c2b5c1461068a578063d1fc11a414610621578063d203ce70146105ec578063d547741f146105a6578063d55be8c61461058a578063dd19ed0a14610563578063e570d0841461053c578063e63ab1e914610515578063e74b981b14610495578063ec97908214610477578063f2fde38b1461044c5763f55e59131461034d575f80fd5b346104485760c03660031901126104485781356001600160401b0381116104485761037b903690840161284b565b919060a03660231901126104485791610392612c77565b5f925f915b8083106103a8576020858551908152f35b9091936103b6858385612ac2565b3560025481101561043257805f5260038060205260ff865f205416600681101561041f5703610415576103e881613de0565b9190911561040a57916103ff6001939284936131dd565b01945b019190610397565b505093600190610402565b5093600190610402565b602189634e487b7160e01b5f525260245ffd5b8660249186519163113b162160e31b8352820152fd5b5f80fd5b346104485760203660031901126104485761047561046861288b565b610470613ff8565b612bc6565b005b5034610448575f366003190112610448576020906002549051908152f35b509034610448576020366003190112610448576104b061288b565b906104b9612c24565b6001600160a01b03918216928315610508575050600a80546001600160a01b031981168417909155167f15d80a013f22151bc7246e3bc132e12828cde19de98870475e3fa708401527215f80a3005b51635c192c5f60e01b8152fd5b5034610448575f36600319011261044857602090515f805160206144688339815191528152f35b5034610448575f36600319011261044857602090515f805160206144e88339815191528152f35b5034610448575f36600319011261044857602090515f805160206143a88339815191528152f35b5034610448575f36600319011261044857602090516101f48152f35b503461044857806003193601126104485761047591356105e760016105c96128a1565b93835f525f805160206144c88339815191526020525f200154612cbf565b613669565b503461044857806003193601126104485761061a60209261060b61287b565b90610614612c24565b35612e0a565b9051908152f35b346104485760203660031901126104485761063a61288b565b610642612c24565b600c80546001600160a01b039283166001600160a01b0319821681179092559091167ff216326564f8016c618c771c75c8f773e70ad1dfaef04aefd69270e506dfaece5f80a3005b6129c2565b5090346104485761069f36612a63565b939091946106ab612c24565b8486036106f15750505f5b8481106106bf57005b806106ea6106d06001938887612ac2565b356106e46106df848988612ac2565b612bb8565b90612e0a565b50016106b6565b5163512509d360e11b8152fd5b5034610448575f36600319011261044857602090515f805160206145888339815191528152f35b5034610448575f3660031901126104485780515f916001805490610748826129de565b908185526020926001811690815f146107c15750600114610784575b5050506107768261078094038361294e565b5191829182612a37565b0390f35b91945060015f52845f20915f925b8284106107ae5750505082610780946107769282010194610764565b8054868501880152928601928101610792565b60ff1916868501525050151560051b830101925061077682610780610764565b50903461044857602036600319011261044857803591600254831015610812576104758361080d612c24565b613ab3565b91602492519163113b162160e31b8352820152fd5b503461044857806003193601126104485781356108426128a1565b9260025482101561087757505f908152600760209081528282206001600160a01b039094168252928352819020549051908152f35b915163113b162160e31b815291820152602490fd5b5090346104485760203660031901126104485780359160025483101561081257610475836108b8612c24565b613a27565b5034610448575f366003190112610448578051610780916108dd82612933565b60058252640352e302e360dc1b60208301525191829182612a37565b50346104485760603660031901126104485781356109156128b7565b9060443592610922612ced565b600254821015610a4c57815f52600360205260ff815f2054166006811015610a395760018103610a0e57506109556136e8565b6009546001600160a01b0316948515610a005784156109f2576127108086106109d85750506109c5946109bf9161098c85856138ee565b516323b872dd60e01b602082015233602482015230604482015260648082018790528152906109ba82612904565b61419b565b3361393d565b60015f8051602061452883398151915255005b8560449351926378e030db60e01b84528301526024820152fd5b905163150a67e960e01b8152fd5b9051639554dd1160e01b8152fd5b610a3090606493879351936327c6314f60e11b855284015260248301906128e3565b60016044820152fd5b602186634e487b7160e01b5f525260245ffd5b5163113b162160e31b815280850191909152602490fd5b5034610448575f36600319011261044857602090515f8152f35b503461044857610a8c36612a63565b929094610a97612c77565b838303610b1b575f5b838110610aa957005b610ab4818585612ac2565b356002541115610afa57610ac9818585612ac2565b3590610ad681878a612ac2565b35916001600160401b038316830361044857600192610af4916131dd565b01610aa0565b610b08869185602495612ac2565b3590519163113b162160e31b8352820152fd5b845163512509d360e11b8152fd5b50346104485760209060206003193601126104485782356001600160401b03811161044857610b5b903690850161284b565b91610b64612c24565b5f5b838110610b6f57005b610b7a818585612ac2565b356002541115610be257610b8f818585612ac2565b355f526003855260ff825f2054166006811015610bcf57906001809214610bca57610bc4610bbe828787612ac2565b35613ab3565b01610b66565b610bc4565b602187634e487b7160e01b5f525260245ffd5b610b08906024948794612ac2565b503461044857602036600319011261044857813590600254821015610caa57610c17612c24565b815f526003602052805f209283549360ff8516916006831015610c975760018303610c6c575060025f80516020614448833981519152949560ff1916179055610c62825180926128e3565b60026020820152a2005b83516327c6314f60e11b8152908101859052606490610c8e60248201856128e3565b60026044820152fd5b602190634e487b7160e01b5f525260245ffd5b5163113b162160e31b815291820152602490fd5b5034610448578060031936011261044857602091610cda6128a1565b90355f525f805160206144c88339815191528352815f209060018060a01b03165f52825260ff815f20541690519015158152f35b5034610448575f366003190112610448575f805160206143688339815191525490516001600160a01b039091168152602090f35b50346104485760209160206003193601126104485780356001600160401b03811161044857610d74903690830161284b565b91610d7d612c24565b5f5b838110610d8857005b610d93818585612ac2565b356002541115610e4057610da8818585612ac2565b355f52600380875260ff865f20541660068110159182610e2d578114918215610e21575b8215610dfc575b505090600191610df757610df1610deb828787612ac2565b35613a27565b01610d7f565b610df1565b909150610e0e5760051460015f610dd3565b602183634e487b7160e01b5f525260245ffd5b5083811491505f610dcc565b602185634e487b7160e01b5f525260245ffd5b610b08919360249593612ac2565b50346104485780600319360112610448578135610e696128a1565b926002548210156108775750916020925f5260088352815f209060018060a01b03165f52825260ff815f20541690519015158152f35b5034610448575f36600319011261044857602090515f805160206143488339815191528152f35b5034610448575f36600319011261044857602090515f805160206144288339815191528152f35b5090346104485781600319360112610448576001600160401b03918135838111610448573660238201121561044857610f2f903690602481860135910161298c565b90610f386128a1565b915f805160206145688339815191529485549360ff85851c16159282861695861580611330575b60018098149081611326575b15908161131d575b5061130d576001600160401b0319811687178955846112f2575b50845192610f9a84612933565b60088452602097671193d3d51090531360c21b89860152610fb961416d565b610fc161416d565b610fc961416d565b610fd284612bc6565b610fda61416d565b610fe261416d565b610fea61416d565b610ff261416d565b875f805160206145288339815191525561100a61416d565b61101261416d565b5f80516020614508833981519152805460ff191690556110318461345b565b5061103b846134df565b5061104584613566565b508251908282116112305761105a5f546129de565b918a601f938481116112ad575b5050808b84821160011461124e575f91611243575b505f19600383901b1c1916908a1b175f555b855192831161123057506110a288546129de565b8181116111ed575b5088908211600114611176575f805160206144a8833981519152928261112c9361110e935f9161116b575b505f19600383901b1c1916908a1b1789555b600a805461ffff60a01b1916601960a31b1790558751815190928392829084908e01612a16565b810103902086516001600160a01b0390941694909391829182612a37565b0390a361113557005b835460ff60401b191690935591519182527fc7f505b2f371ae2175ee4913f4499e1f2633a7b5936321eed1cdaeb6115181d291a1005b90508701515f6110d5565b908791601f19821690835f528a5f20915f5b8c8282106111d7575050925f805160206144a8833981519152959261112c95928261110e96106111bf575b5050811b0189556110e7565b8901515f1960f88460031b161c191690555f806111b3565b838a015185558c96909401939283019201611188565b885f52895f208280850160051c8201928c8610611227575b0160051c019089905b82811061121c5750506110aa565b5f815501899061120e565b92508192611205565b604190634e487b7160e01b5f525260245ffd5b90508501515f61107c565b5f8080528d81208d94509190601f198416908f5b828210611296575050831161127e575b5050811b015f5561108e565b8701515f1960f88460031b161c191690555f80611272565b838b015185558f969094019392830192018f611262565b5f805284825f209181850160051c83019385106112e9575b0160051c01908b905b8281106112de57508c9150611067565b5f8155018b906112ce565b925081926112c5565b6001600160481b0319166001600160401b011788555f610f8d565b855163f92ee8a960e01b81528890fd5b9050155f610f73565b303b159150610f6b565b5084610f5f565b5034610448575f36600319011261044857602090515f805160206142e88339815191528152f35b5090346104485760c03660031901126104485780359060a036602319011261044857600254821015610877575061139490613de0565b82516001600160401b03909216825215156020820152f35b5034610448575f36600319011261044857602090515f805160206145488339815191528152f35b5034610448575f3660031901126104485760209061ffff600c5460a01c169051908152f35b5034610448575f3660031901126104485780515f915f54611418816129de565b8084526020916001908181169081156107c15750600114611445575050506107768261078094038361294e565b5f808052838120939650925b82841061146d5750505082610780946107769282010194610764565b8054868501880152928601928101611451565b34610448575f36600319011261044857611498613ff8565b5f8051602061436883398151915280546001600160a01b031981169091555f906001600160a01b03165f805160206144888339815191528280a3005b5034610448576080366003190112610448576001600160401b0391803583811161044857611505903690830161284b565b9290916024358581116104485761151f903690830161284b565b94909360443587811161044857611539903690850161284b565b909760643590811161044857611552903690860161284b565b94909561155d612c24565b8885148015906115e7575b80156115dd575b6106f15750505f5b83811061158057005b61158b818585612ac2565b359061159b6106df828b8b612ac2565b916115a782858d612ac2565b3560ff81168103610448576115bd83898b612ac2565b359061ffff82168203610448576001946115d693612fd9565b5001611577565b508585141561156f565b5082851415611568565b5034610448575f36600319011261044857602090515f805160206143888339815191528152f35b5090346104485760203660031901126104485761163361283a565b9161163c612c24565b61ffff9182600a5460a01c1680848616116116a75750506116a27fe3d341bbb0d63ef0d66c251183c4924a2e7f162ad25c49a951d8fa32ee9df47c93600c549261ffff60a01b8260a01b1661ffff60a01b19851617600c555193849360a01c1683612aad565b0390a1005b6116c290859351938493633c3b47bd60e11b85528401612aad565b0390fd5b50346104485760209060206003193601126104485782356001600160401b038111610448576116f8903690850161284b565b611703939193612ced565b61170b6136e8565b5f5b8181106117275760015f8051602061452883398151915255005b611732818387612ac2565b3560025481101561043257805f526003845260ff80865f205416600681101561041f57908860019493920361178f57815f5260088652865f20335f528652865f20541661178957611783903361372d565b0161170d565b50611783565b5050611783565b50346104485760603660031901126104485781356117b26128a1565b6117ba6128cd565b916002548110156117fa57602094505f5260068452825f209060018060a01b03165f528352815f209060018060401b03165f528252805f20549051908152f35b8460249185519163113b162160e31b8352820152fd5b5090346104485760a03660031901126104485761182b612c77565b5f906002545f905b8082106118cf575050359160ff83168093036104485760243560ff8116809103610448576044359060ff8216809203610448576064359460ff86168096036104485760843560ff8116809103610448576020967f40f502bf281d266eec07f3593bb341bc5fcb47d2833d17f4c2ca2f7988a057b89460c09487519485528985015286840152606083015260808201528460a0820152a151908152f35b9092835f5260038060205260ff865f2054166006811015610e2d570361191f576118f884613b3d565b156119155760019161190b8392876131dd565b01935b0190611833565b509260019061190e565b9260019061190e565b5034610448575f3660031901126104485760209060ff5f80516020614508833981519152541690519015158152f35b50903461044857602036600319011261044857803591611975612ced565b60025483101561081257825f52600360205260ff815f205416906006821015610e0e57600582036119aa576109c58433612d35565b906064936119cb9251936327c6314f60e11b855284015260248301906128e3565b60056044820152fd5b5034610448575f366003190112610448577f00000000000000000000000000000000000000000000000000000000000000006001600160a01b03163003611a2b57602090515f805160206143e88339815191528152f35b5163703e46dd60e11b8152fd5b5034610448575f36600319011261044857600c5490516001600160a01b039091168152602090f35b509034610448575f366003190112610448575f80516020614468833981519152805f525f805160206144c8833981519152602052825f20335f5260205260ff835f20541615611af5577f62e78cea01bee320cd4e420270b5ea74000d11b0c9f74754ebdbfc544b05a258602084611ad56136e8565b5f80516020614508833981519152805460ff1916600117905551338152a1005b604492519163e2517d3f60e01b835233908301526024820152fd5b50908160031936011261044857611b2561288b565b60249283356001600160401b038111610448573660238201121561044857611b559036908681870135910161298c565b6001600160a01b03927f00000000000000000000000000000000000000000000000000000000000000008416308114908115611d0d575b50611cfd575f80526020935f805160206144c88339815191528552835f20335f52855260ff845f20541615611ce25781169383516352d1902d60e01b815281818881895afa5f9181611cb3575b50611bf357505050505191634c9c8ce360e01b8352820152fd5b858588928a5f805160206143e883398151915291828103611c9e5750863b15611c8a575080546001600160a01b0319168317905551907fbc7cd75a20ee27fd9adebab32041f755214dbc6bffa90cc0225b39da2e5c2d3b5f80a2845115611c725750505f83819261047595519101845af4611c6c614215565b91614244565b925092505034611c7e57005b63b398979f60e01b8152fd5b9450505191634c9c8ce360e01b8352820152fd5b8351632a87526960e21b815280870191909152fd5b9091508281813d8311611cdb575b611ccb818361294e565b810103126104485751905f611bd9565b503d611cc1565b835163e2517d3f60e01b815233818801525f81890152604490fd5b825163703e46dd60e11b81528590fd5b9050845f805160206143e8833981519152541614155f611b8c565b5034610448575f36600319011261044857600a5490516001600160a01b039091168152602090f35b503461044857806003193601126104485781359060249081356001600160401b0380821161044857366023830112156104485781860135908111610448573684828401011161044857600254851015611eac57611dab612c24565b845f526003602052825f20805460ff811697600689101580611e9a5760018a14159081611e8d575b81611e6a575b50611e4957508487985f805160206142c8833981519152989360055f805160206144488339815191529460ff1916179055611e16825180926128e3565b60056020820152a28083519485936020855282602086015201848401375f828201840152601f01601f19168101030190a2005b85516327c6314f60e11b81529081018890526064906119cb8189018b6128e3565b9050611e7b5760038914155f611dd9565b60218791634e487b7160e01b5f52525ffd5b505060028914155f611dd3565b87602183634e487b7160e01b5f52525ffd5b825163113b162160e31b81528087018690528490fd5b5034610448576020366003190112610448578135611ede612ae6565b50600254811015611f7f575f526003602052805f20815190611eff82612904565b805460ff8116936006851015610a395760a0955084845260018060401b03926020850190848460081c16825264ffffffffff94859260806001868a0194868960481c1686528660608c019960701c16895201549801978852611f638551809a6128e3565b5116602088015251169085015251166060830152516080820152f35b905163113b162160e31b815291820152602490fd5b50346104485780600319360112610448578135611faf6128b7565b92600254821015610877575060209261061a91612b62565b5034610448575f36600319011261044857611fe0612c24565b5f805160206145088339815191529182549060ff82161561202e577f5db9ee0a495bf2e6ff9c91a7834c1ba4fdd244a5e8aa4e537bd38aeae4b073aa602084868560ff1916905551338152a1005b8251638dfc202b60e01b8152fd5b5090346104485760803660031901126104485761205761288b565b906024918235906120666128cd565b9260643594612073612ced565b60025484101561218057835f52600360205260ff875f205416600681101561216d576001810361214b57506120a66136e8565b5f80516020614588833981519152805f525f805160206144c8833981519152602052875f20335f5260205260ff885f20541615612130575085156121215761271090818710612106575050506109c5945061210183836138ee565b61393d565b87516378e030db60e01b815292830187905282015260449150fd5b50855163150a67e960e01b8152fd5b6044929188519263e2517d3f60e01b84523390840152820152fd5b87516327c6314f60e11b815292830185905260649350610a30918301906128e3565b50634e487b7160e01b5f90815260218352fd5b865163113b162160e31b815291820184905290fd5b5034610448576020366003190112610448578135600254811015611f7f575f52600b602052805f20906003602052805f209180549254918460205260ff6001825f205493015460101c1692600184018094116122205760a0955081519485526122046020860160ff83166128e3565b60081c6001600160401b03169084015260608301526080820152f35b601186634e487b7160e01b5f525260245ffd5b5090346104485760203660031901126104485780356002548110156122665790602092915f528252805f20549051908152f35b602492519163113b162160e31b8352820152fd5b5034610448576020366003190112610448578135612296612ae6565b50600254811015611f7f5760a092505f52600b6020526080815f209160ff81516122bf81612904565b600185549586835201549282602083018560010b815282840190828760101c1682526060850194838860181c16865261ffff988991019760201c16875283519889525160010b60208901525116908601525116606084015251166080820152f35b5090346104485760203660031901126104485780359061233e612ced565b60025482101561087757815f52600360205260ff835f2054169260068410156123a25781840361237a576109c5836123746136e8565b3361372d565b60649361239b9151936327c6314f60e11b85528385015260248401906128e3565b6044820152fd5b602182634e487b7160e01b5f525260245ffd5b50346104485780600319360112610448576123ce6128a1565b90336001600160a01b038316036123ea57506104759135613669565b5163334bd91960e11b81529050fd5b5034610448578060031936011261044857610475913561241c60016105c96128a1565b6135f9565b5034610448575f36600319011261044857602090515f805160206143c88339815191528152f35b5034610448575f3660031901126104485760209061ffff600a5460a01c169051908152f35b503461044857602036600319011261044857602091355f525f805160206144c883398151915282526001815f2001549051908152f35b503461044857806003193601126104485781356124be6128b7565b9260025482101561087757505f908152600560209081528282206001600160401b039094168252928352819020549051908152f35b5034610448578060031936011261044857813561250e6128b7565b9160025482101561252b576104758383612526612c77565b6131dd565b5163113b162160e31b81529283015250602490fd5b5034610448575f3660031901126104485760095490516001600160a01b039091168152602090f35b5034610448575f36600319011261044857602090515f805160206144088339815191528152f35b509034610448576020366003190112610448576125aa61288b565b6125b2612c24565b6001600160a01b03169182156125fb57600980546001600160a01b03191684179055827f9317e3e59b11620f482b4bb292374da6e5cb9e7ef23cf3f121cacca9a5428f785f80a2005b51639554dd1160e01b8152fd5b50346104485760803660031901126104485761262261287b565b9160443560ff81168103610448576064359061ffff821682036104485760209461061a9361264e612c24565b35612fd9565b50346104485760209060206003193601126104485782356001600160401b03811161044857612686903690850161284b565b612691939193612ced565b5f5b8181106126ad5760015f8051602061452883398151915255005b6126b8818387612ac2565b3560025481101561043257805f526003845260ff80865f205416600681101561041f5790600560019493920361271657815f5260088652865f20335f528652865f2054166127105761270a9033612d35565b01612693565b5061270a565b505061270a565b5090346104485760203660031901126104485761273861283a565b91612741612c24565b61ffff91828416906101f48083116127ce575083600c5460a01c169182116127b45750506116a27f4791562d259a08c64fef49ff6bef502e6c8f342eb8d4c8f90da367929ab1602d93600a549261ffff60a01b8260a01b1661ffff60a01b19851617600a555193849360a01c1683612aad565b6116c2858451938493633c3b47bd60e11b85528401612aad565b60449284519263673af7c160e11b84528301526024820152fd5b833461044857602036600319011261044857359063ffffffff60e01b821680920361044857602091637965db0b60e01b8114908115612829575b5015158152f35b6301ffc9a760e01b14905083612822565b6004359061ffff8216820361044857565b9181601f84011215610448578235916001600160401b038311610448576020808501948460051b01011161044857565b602435908160010b820361044857565b600435906001600160a01b038216820361044857565b602435906001600160a01b038216820361044857565b602435906001600160401b038216820361044857565b604435906001600160401b038216820361044857565b9060068210156128f05752565b634e487b7160e01b5f52602160045260245ffd5b60a081019081106001600160401b0382111761291f57604052565b634e487b7160e01b5f52604160045260245ffd5b604081019081106001600160401b0382111761291f57604052565b601f909101601f19168101906001600160401b0382119082101761291f57604052565b6001600160401b03811161291f57601f01601f191660200190565b92919261299882612971565b916129a6604051938461294e565b829481845281830111610448578281602093845f960137010152565b34610448575f3660031901126104485760206040516127108152f35b90600182811c92168015612a0c575b60208310146129f857565b634e487b7160e01b5f52602260045260245ffd5b91607f16916129ed565b5f5b838110612a275750505f910152565b8181015183820152602001612a18565b60409160208252612a578151809281602086015260208686019101612a16565b601f01601f1916010190565b6040600319820112610448576001600160401b03916004358381116104485782612a8f9160040161284b565b9390939260243591821161044857612aa99160040161284b565b9091565b61ffff91821681529116602082015260400190565b9190811015612ad25760051b0190565b634e487b7160e01b5f52603260045260245ffd5b60405190612af382612904565b5f6080838281528260208201528260408201528260608201520152565b91908201809211612b1d57565b634e487b7160e01b5f52601160045260245ffd5b81810292918115918404141715612b1d57565b8115612b4e570490565b634e487b7160e01b5f52601260045260245ffd5b5f52600460205260405f2054908115612bb257600560205260405f209060018060401b03165f5260205260405f20549061271091828102928184041490151715612b1d57612baf91612b44565b90565b50505f90565b358060010b81036104485790565b6001600160a01b03908116908115612c0c575f8051602061436883398151915280546001600160a01b031981168417909155165f805160206144888339815191525f80a3565b604051631e4fbdf760e01b81525f6004820152602490fd5b335f9081525f8051602061432883398151915260205260409020545f805160206145488339815191529060ff1615612c595750565b6044906040519063e2517d3f60e01b82523360048301526024820152fd5b335f9081527f756534422b3cb82a54d88d2dca71cfb1a3297222856e6ddc952d9ca5a7fc4b8860205260409020545f805160206142e88339815191529060ff1615612c595750565b805f525f805160206144c883398151915260205260405f20335f5260205260ff60405f20541615612c595750565b5f805160206145288339815191526002815414612d0a5760029055565b604051633ee5aeb560e01b8152600490fd5b9081526001600160a01b03909116602082015260400190565b9190805f5260209060088252604091825f209260018060a01b039081871694855f52835260ff815f205416612df057835f5260078352805f20855f528352805f2054918215612dd5578285969798612dce927f181dd8e5abfdd7ea94bff7529391d477a29bf85df13abe63fb4f97017bbc8ba0975f5260088752845f208a5f528752845f20600160ff1982541617905560095416614030565b51908152a3565b8151632decd07b60e11b8152806116c28a8860048401612d1c565b516302a4851560e61b8152806116c2888660048401612d1c565b9190915f8051602061434883398151915281148015612fc3575b8015612fad575b8015612f97575b8015612f81575b8015612f6b575b8015612f55575b15612f3d57612e568382614067565b600254905f198214612b1d5760605f8051602061430883398151915291600184016002555f84978582526003602052604090818320805464ffffffffff60481b4260481b169060ff64ffffffffff60481b011916179055815190612eb982612904565b888252602082019060010b9485825260ff848401911692838252878101868152600160808301928884528c8952600b602052878920905181550193519261ffff63ff00000062ff00008754935160101b16935160181b16938160201b905160201b1694169065ffffffffffff191617171717905581519384526020840152820152a3565b60249060405190630d330d2760e01b82526004820152fd5b505f805160206144088339815191528114612e47565b505f805160206143c88339815191528114612e40565b505f805160206143888339815191528114612e39565b505f805160206144288339815191528114612e32565b505f805160206143a88339815191528114612e2b565b505f805160206144e88339815191528114612e24565b9193925f80516020614348833981519152831480156131a3575b801561318d575b8015613177575b8015613161575b801561314b575b8015613135575b1561311c576130258284614067565b60025492905f198414612b1d57600184016002555f8481526003602052604090819020805460ff64ffffffffff60481b0119164260481b64ffffffffff60481b161790558051949788955f8051602061430883398151915295606095919392919061308f85612904565b898552602085019160010b9586835260ff85870191169384825260ff898801911681526080870191600161ffff809516988985528d5f52600b602052885f20905181550194519363ff00000062ff00008754935160101b16935160181b169361ffff60201b905160201b1694169065ffffffffffff191617171717905581519384526020840152820152a3565b604051630d330d2760e01b815260048101849052602490fd5b505f805160206144088339815191528314613016565b505f805160206143c8833981519152831461300f565b505f805160206143888339815191528314613008565b505f805160206144288339815191528314613001565b505f805160206143a88339815191528314612ffa565b505f805160206144e88339815191528314612ff3565b90949392606092608083019660018060401b03168352602083015260408201520152565b919091805f52602060038152604090815f2092835460ff811660068110156128f0576003810361342e575061321287836138ee565b815f52600496878452845f20549160058552855f2060018060401b0383165f528552855f2054156133c3575061ffff9586600c5460a01c1696612710908161325a8a87612b31565b049881600a5460a01c16038181116133b057613277911685612b31565b04946132838689612b10565b90818503928584116133b05780544260701b64ffffffffff60701b16600169ffffffffff000000000160481b0319909116600887901b610100600160481b031617178c1781556001018390558751600381529081018b90527fdd2e3713f4f6dc5f6c91ac1cea9e1f2fb91d4f4329fa81eab52629f775228ffa94939261332492909187905f80516020614448833981519152908b90a28851948594856131b9565b0390a280613376575b508161333a575b50509050565b600c546001600160a01b03908116918215613367575061335f93945060095416614030565b805f80613334565b516313a974d360e01b81528590fd5b600a546001600160a01b039081169081156133a0579061339a929160095416614030565b5f61332d565b8351635c192c5f60e01b81528790fd5b60118c634e487b7160e01b5f525260245ffd5b74766f69643a206e6f2077696e6e696e67206265747360581b9397985060609592505f805160206142c883398151915296915060059060ff1916179055855f8051602061444883398151915282805160038152600587820152a26015815193808552840152820152a2565b84516327c6314f60e11b8152600481018490526064916134529060248301906128e3565b60036044820152fd5b6001600160a01b03165f8181527fb7db2dd08fcb62d0c9e08c51941cae53c267786a0b75803fb7960902fc8ef97d60205260409020545f805160206144c88339815191529060ff16612bb2575f805260205260405f20815f5260205260405f20600160ff1982541617905533905f5f805160206142a88339815191528180a4600190565b6001600160a01b03165f8181525f8051602061432883398151915260205260409020545f8051602061454883398151915291905f805160206144c88339815191529060ff1661355f57825f5260205260405f20815f5260205260405f20600160ff1982541617905533915f805160206142a88339815191525f80a4600190565b5050505f90565b6001600160a01b03165f8181527f75442b0a96088b5456bc4ed01394c96a4feec0f883c9494257d76b96ab1c9b6b60205260409020545f8051602061446883398151915291905f805160206144c88339815191529060ff1661355f57825f5260205260405f20815f5260205260405f20600160ff1982541617905533915f805160206142a88339815191525f80a4600190565b90815f525f805160206144c88339815191528060205260405f209160018060a01b031691825f5260205260ff60405f205416155f1461355f57825f5260205260405f20815f5260205260405f20600160ff1982541617905533915f805160206142a88339815191525f80a4600190565b90815f525f805160206144c88339815191528060205260405f209160018060a01b031691825f5260205260ff60405f2054165f1461355f57825f5260205260405f20815f5260205260405f2060ff19815416905533917ff6391f5c32d9c69d2a47ea670b442974b53935d1edc7fd64eb21e047a839171b5f80a4600190565b60ff5f80516020614508833981519152541661370057565b60405163d93c066560e01b8152600490fd5b6001600160a01b039091168152602081019190915260400190565b815f52602060088152604090815f209360018060a01b039081851695865f52835260ff845f2054166138d057805f5260038352835f209160018060401b039182845460081c169360068652865f20895f528652865f20855f528652865f20549485156138b557876137e284937f7513b6be2c9a0992975f71ef42f47c8ebedee4891864b052e46cf9247374f68d938d965f5260058b52835f20905f528a526137dd6001845f20549201548a612b31565b612b44565b96835f5260088952815f20855f528952815f20600160ff1982541617905561380f888c8860095416614030565b81519081528789820152a3600c5416948561382e575b50505050505050565b853b15610448575f836138559287519384928392634b163dfd60e11b845260048401613712565b0381838a5af191826138a6575b505061389c577fc2fc5903a57992388fcd26321fd0783c1988ccb0541598ebcf73cb5364fd83bf9251908152a35b5f808080808080613825565b5050505050613890565b811161291f5784525f80613862565b875163b361b5fb60e01b8152806116c28b8660048401612d1c565b83516302a4851560e61b81529081906116c290879060048401612d1c565b90815f52600b60205260ff600160405f20015460101c169060018060401b031681811161391a57505050565b60649350604051926383b689d160e01b8452600484015260248301526044820152fd5b927fcbf470e9c24fcadd6c47cc5958895187cbc7e78e537c0ee49b499b4dd65db5979192835f52613a22602060068152604090815f209760018060a01b031697885f528152815f2060018060401b03851690815f528252825f206139a2878254612b10565b9055875f5260078252825f20895f528252825f206139c1878254612b10565b9055875f5260058252825f20815f528252825f206139e0878254612b10565b9055875f5260048252825f206139f7878254612b10565b9055875f5260058252825f20905f5281526004825f205491885f5252815f20549151948594856131b9565b0390a3565b805f52600360205260405f2080549060ff82169160068310156128f057600183141580613aa8575b613a845760ff19166003179055604080515f8051602061444883398151915292613a7a9082906128e3565b60036020820152a2565b6040516327c6314f60e11b81526004810185905260649061345260248201866128e3565b506002831415613a4f565b805f52600360205260405f2080549060ff82169160068310156128f05782151580613b32575b613b0e5760ff19166001179055604080515f8051602061444883398151915292613b049082906128e3565b60016020820152a2565b6040516327c6314f60e11b815260048101859052606490610a3060248201866128e3565b506002831415613ad9565b5f52600b60205260405f2080545f805160206143488339815191528114613dad575f805160206144e88339815191528114613d4e575f805160206143a88339815191528114613d0c575f805160206144288339815191528114613cc9575f805160206143888339815191528114613c4f575f805160206143c88339815191528114613c2c575f8051602061440883398151915214613bdc57505f905f90565b60043560ff81168091036104485760243560ff811680910361044857613c0660019160ff93612b10565b92015460101c1680821015613c2557506001600160401b031690600190565b9160019150565b505060843560ff8116809103610448578015613c485790600190565b505f905f90565b505060043560ff81168082036104485760091015613cc1575060ff60095b1660243560ff81168082036104485760091015613cbb57506009905b600a810290808204600a1490151715612b1d576001600160401b0391613cb49160ff90911690612b10565b1690600190565b90613c89565b60ff90613c6d565b505060443560ff8116809103610448576064359060ff821680920361044857818111613d035714613cfc57600290600190565b6001908190565b50505f90600190565b505060043560ff811680910361044857151580613d38575b15613d325760015b90600190565b5f613d2c565b5060243560ff8116809103610448571515613d24565b509060043560ff81168091036104485760243560ff811680910361044857613d7591612b10565b600a810290808204600a1490151715612b1d57600180930154830b905f8212613da65711613da2575f9190565b8190565b50505f9190565b505060043560ff8116809103610448576024359060ff821680920361044857818111613d035714613cfc57600290600190565b5f52600b60205260405f2080545f805160206143488339815191528114613fc5575f805160206144e88339815191528114613f9e575f805160206143a88339815191528114613f64575f805160206144288339815191528114613f31575f805160206143888339815191528114613ec5575f805160206143c88339815191528114613ea9575f8051602061440883398151915214613e7f57505f905f90565b60243560ff81168091036104485760443560ff811680910361044857613c0660019160ff93612b10565b505060a43560ff8116809103610448578015613c485790600190565b505060243560ff81168082036104485760091015613f29575060ff60095b1660443560ff81168082036104485760091015613cbb5750600990600a810290808204600a1490151715612b1d576001600160401b0391613cb49160ff90911690612b10565b60ff90613ee3565b505060643560ff8116809103610448576084359060ff821680920361044857818111613d035714613cfc57600290600190565b505060243560ff811680910361044857151580613f885715613d3257600190600190565b5060443560ff8116809103610448571515613d24565b509060243560ff81168091036104485760443560ff811680910361044857613d7591612b10565b505060243560ff8116809103610448576044359060ff821680920361044857818111613d035714613cfc57600290600190565b5f80516020614368833981519152546001600160a01b0316330361401857565b60405163118cdaa760e01b8152336004820152602490fd5b6109ba614065939261405760405194859263a9059cbb60e01b602085015260248401613712565b03601f19810184528361294e565b565b905f80516020614348833981519152821461415f575f805160206144e88339815191528214614166575f805160206143a88339815191528214614166575f80516020614428833981519152821461415f575f805160206143888339815191528214614158575f805160206143c88339815191528214614151575f80516020614408833981519152821461410d57604051630d330d2760e01b815260048101839052602490fd5b908160010b600181128015614147575b61412957505060ff1690565b60449250604051916332cc7a6b60e21b835260048301526024820152fd5b5060ff811361411d565b505060ff90565b5050606390565b5050600290565b5050600190565b60ff5f805160206145688339815191525460401c161561418957565b604051631afcd79f60e31b8152600490fd5b5f806141c39260018060a01b03169360208151910182865af16141bc614215565b9083614244565b80519081151591826141f1575b50506141d95750565b60249060405190635274afe760e01b82526004820152fd5b81925090602091810103126104485760200151801590811503610448575f806141d0565b3d1561423f573d9061422682612971565b91614234604051938461294e565b82523d5f602084013e565b606090565b9061426b575080511561425957805190602001fd5b604051630a12f52160e11b8152600490fd5b8151158061429e575b61427c575090565b604051639996b31560e01b81526001600160a01b039091166004820152602490fd5b50803b1561427456fe2f8788117e7eff1d82e926ec794901d17c78024a50270940304540a733656f0d4c4561c5b0048424071c1115e9f1e325486e21c21333d968f21097b7b72d12ad92a19c77d2ea87c7f81d50c74403cb2f401780f3ad919571121efe2bdb427eb1ea7cc971ba11025eb99fff8822470c08a1a30d81df27de1d47b40c3d91238934b16e88c42fd4e48df2dd6a2eabd6bc9aec654ec170056b470819f8892cc6431c97e9cffa40fd62a888d33fedb0550a0c24b2dab7e942dd2c90f3dc402fe1d9d09016d09d72d40fdae2fd8ceac6b6234c7706214fd39c1cd1e609a0528c1993005a07719d8a8f4c48bdefa2dac63aa1381b7ddfabbbcde55ac2fce423272e4ade538ae17682fc5f9b07ae2625134d6d3c26763eb7064ea668cc95acc79d2f66934386abfac67735e8200942a182a9289c4525de8436be890c45f3baa48cfc744a360894a13ba1a3210667c828492db98dca3e2076cc3735a920a3ca505d382bbc5f2d9c6c5d154e8ecfe88cf92a25c5d5bd0d2409279118c7aeb6d5450928b3abdd5dc5e3118ac9f6534abbb8fc3fdcbf37cbac4179d8c4f61f8246428bdc20513fda72f0a1439a9047288d6140aad7d37a71b660b5229783c8a637ebd0631c0b65d7a28e3265b37a6474929f336521b332c1681b933f6cb9f3376673440d862a8be0079c531659141344cd1fd0a4f28419497f9722a3daafe3b4186f6b6457e0b88a0148d0785022bedeff8dc0f55ccbb709825d7109265ebe5ca3325f191b4202dd7bc7dec4dceedda775e58dd541e08a116c6c53815c0bd028192f7b62680002cbb70a5b530cc7252a3b919b89cec2559cd41fd531c11606411ffbac8f3ffccd5ed15c6e187e77e9aee88184c21f4f2182ab5827cb3b7e07fbedcd63f033009b779b17422d0df92223018b32b4d1fa46e071723d6817e2486d003becc55f00a49807205ce4d355092ef5a8a18f56e8913cf4a201fbe287825b095693c21775f0c57e16840df040f15088dc2f81fe391c3923bec73e23a9662efc9c229c6a00a903a5200a3509510da557615994ebd7dbb3d8b122c2190f01477c128da2cfcba2646970667358221220d3c40442e0c70c607288e26b743bec1d9eb635ec8bfea60c7e374e0474134bad64736f6c63430008180033","linkReferences":{}},"methodIdentifiers":{"ADMIN_ROLE()":"75b238fc","BPS_DENOM()":"6637e38c","DEFAULT_ADMIN_ROLE()":"a217fddf","MARKET_BOTH_SCORE()":"dd19ed0a","MARKET_CORRECT_SCORE()":"6bcaa991","MARKET_FIRST_SCORER()":"2e71b708","MARKET_GOALS_EXACT()":"10900d1d","MARKET_GOALS_TOTAL()":"e570d084","MARKET_HALFTIME()":"7c0078a4","MARKET_WINNER()":"8723eccf","MAX_FEE_BPS()":"d55be8c6","MIN_STAKE()":"cb1c2b5c","PAUSER_ROLE()":"e63ab1e9","RESOLVER_ROLE()":"78fab260","SWAP_ROUTER_ROLE()":"c6886db4","UPGRADE_INTERFACE_VERSION()":"ad3cb1cc","addMarketAdvanced(bytes32,int16,uint8,uint16)":"09908d87","addMarketWithLine(bytes32,int16)":"d203ce70","addMarketsBatch(bytes32[],int16[])":"c743bb73","addMarketsBatchAdvanced(bytes32[],int16[],uint8[],uint16[])":"6e60c97d","cancelMarket(uint256,string)":"456051f1","claim(uint256)":"379607f5","claimBatch(uint256[])":"62abebce","claimRefund(uint256)":"5b7baf64","claimRefundBatch(uint256[])":"0637e5df","closeMarket(uint256)":"ae418095","closeMarketsBatch(uint256[])":"8d3bf365","computeOutcome(uint256,(uint8,uint8,uint8,uint8,uint8))":"789c650f","emergencyPause()":"51858e27","feeBps()":"24a9d853","feeRecipient()":"46904840","getImpliedProbabilityBps(uint256,uint64)":"3fe1f002","getMarketCore(uint256)":"40b16c1e","getMarketInfo(uint256)":"3ec79193","getMarketSpec(uint256)":"396f01ba","getOutcomePool(uint256,uint64)":"1cf65cc2","getRoleAdmin(bytes32)":"248a9ca3","getTotalPool(uint256)":"3a35b9bd","getUserStake(uint256,address,uint64)":"5f779fef","getUserTotalStake(uint256,address)":"b2392cab","grantRole(bytes32,address)":"2f2ff15d","hasClaimed(uint256,address)":"873f6f9e","hasRole(bytes32,address)":"91d14854","initialize(string,address)":"7ab4339d","leaderboardFeeBps()":"74306a12","leaderboardRecipient()":"52a079be","marketCount()":"ec979082","matchName()":"71738f8c","openMarket(uint256)":"baa26757","openMarketsBatch(uint256[])":"9b05743f","owner()":"8da5cb5b","paused()":"5c975abb","placeBetUSDC(uint256,uint64,uint256)":"a4b8195c","placeBetUSDCFor(address,uint256,uint64,uint256)":"3eccfc96","proxiableUUID()":"52d1902d","renounceOwnership()":"715018a6","renounceRole(bytes32,address)":"36568abe","resolveBatchByScore(uint256[],(uint8,uint8,uint8,uint8,uint8))":"f55e5913","resolveByScore((uint8,uint8,uint8,uint8,uint8))":"5d5df2a7","resolveMarket(uint256,uint64)":"1a095c6e","resolveMarketsBatch(uint256[],uint64[])":"a04286e0","revokeRole(bytes32,address)":"d547741f","setFeeBps(uint16)":"023b1fc9","setFeeRecipient(address)":"e74b981b","setLeaderboardFeeBps(uint16)":"6882870d","setLeaderboardRecipient(address)":"d1fc11a4","setUSDCToken(address)":"0f5a9d01","sportType()":"bef2a6a0","supportsInterface(bytes4)":"01ffc9a7","suspendMarket(uint256)":"931b5466","transferOwnership(address)":"f2fde38b","unpause()":"3f4ba83a","upgradeToAndCall(address,bytes)":"4f1ef286","usdcToken()":"11eac855"},"id":59}