{"abi":[{"type":"constructor","inputs":[],"stateMutability":"nonpayable"},{"type":"function","name":"ADMIN_ROLE","inputs":[],"outputs":[{"name":"","type":"bytes32","internalType":"bytes32"}],"stateMutability":"view"},{"type":"function","name":"BPS_DENOM","inputs":[],"outputs":[{"name":"","type":"uint256","internalType":"uint256"}],"stateMutability":"view"},{"type":"function","name":"DEFAULT_ADMIN_ROLE","inputs":[],"outputs":[{"name":"","type":"bytes32","internalType":"bytes32"}],"stateMutability":"view"},{"type":"function","name":"MARKET_BOTH_SCORE","inputs":[],"outputs":[{"name":"","type":"bytes32","internalType":"bytes32"}],"stateMutability":"view"},{"type":"function","name":"MARKET_CORRECT_SCORE","inputs":[],"outputs":[{"name":"","type":"bytes32","internalType":"bytes32"}],"stateMutability":"view"},{"type":"function","name":"MARKET_FIRST_SCORER","inputs":[],"outputs":[{"name":"","type":"bytes32","internalType":"bytes32"}],"stateMutability":"view"},{"type":"function","name":"MARKET_GOALS_EXACT","inputs":[],"outputs":[{"name":"","type":"bytes32","internalType":"bytes32"}],"stateMutability":"view"},{"type":"function","name":"MARKET_GOALS_TOTAL","inputs":[],"outputs":[{"name":"","type":"bytes32","internalType":"bytes32"}],"stateMutability":"view"},{"type":"function","name":"MARKET_HALFTIME","inputs":[],"outputs":[{"name":"","type":"bytes32","internalType":"bytes32"}],"stateMutability":"view"},{"type":"function","name":"MARKET_WINNER","inputs":[],"outputs":[{"name":"","type":"bytes32","internalType":"bytes32"}],"stateMutability":"view"},{"type":"function","name":"MAX_FEE_BPS","inputs":[],"outputs":[{"name":"","type":"uint16","internalType":"uint16"}],"stateMutability":"view"},{"type":"function","name":"MIN_STAKE","inputs":[],"outputs":[{"name":"","type":"uint256","internalType":"uint256"}],"stateMutability":"view"},{"type":"function","name":"PAUSER_ROLE","inputs":[],"outputs":[{"name":"","type":"bytes32","internalType":"bytes32"}],"stateMutability":"view"},{"type":"function","name":"RESOLVER_ROLE","inputs":[],"outputs":[{"name":"","type":"bytes32","internalType":"bytes32"}],"stateMutability":"view"},{"type":"function","name":"SWAP_ROUTER_ROLE","inputs":[],"outputs":[{"name":"","type":"bytes32","internalType":"bytes32"}],"stateMutability":"view"},{"type":"function","name":"UPGRADE_INTERFACE_VERSION","inputs":[],"outputs":[{"name":"","type":"string","internalType":"string"}],"stateMutability":"view"},{"type":"function","name":"addMarketAdvanced","inputs":[{"name":"marketType","type":"bytes32","internalType":"bytes32"},{"name":"line","type":"int16","internalType":"int16"},{"name":"extra","type":"uint8","internalType":"uint8"},{"name":"groupId","type":"uint16","internalType":"uint16"}],"outputs":[{"name":"marketId","type":"uint256","internalType":"uint256"}],"stateMutability":"nonpayable"},{"type":"function","name":"addMarketWithLine","inputs":[{"name":"marketType","type":"bytes32","internalType":"bytes32"},{"name":"line","type":"int16","internalType":"int16"}],"outputs":[{"name":"marketId","type":"uint256","internalType":"uint256"}],"stateMutability":"nonpayable"},{"type":"function","name":"addMarketsBatch","inputs":[{"name":"marketTypes","type":"bytes32[]","internalType":"bytes32[]"},{"name":"lines","type":"int16[]","internalType":"int16[]"}],"outputs":[],"stateMutability":"nonpayable"},{"type":"function","name":"addMarketsBatchAdvanced","inputs":[{"name":"marketTypes","type":"bytes32[]","internalType":"bytes32[]"},{"name":"lines","type":"int16[]","internalType":"int16[]"},{"name":"extras","type":"uint8[]","internalType":"uint8[]"},{"name":"groupIds","type":"uint16[]","internalType":"uint16[]"}],"outputs":[],"stateMutability":"nonpayable"},{"type":"function","name":"cancelMarket","inputs":[{"name":"marketId","type":"uint256","internalType":"uint256"},{"name":"reason","type":"string","internalType":"string"}],"outputs":[],"stateMutability":"nonpayable"},{"type":"function","name":"claim","inputs":[{"name":"marketId","type":"uint256","internalType":"uint256"}],"outputs":[],"stateMutability":"nonpayable"},{"type":"function","name":"claimBatch","inputs":[{"name":"marketIds","type":"uint256[]","internalType":"uint256[]"}],"outputs":[],"stateMutability":"nonpayable"},{"type":"function","name":"claimRefund","inputs":[{"name":"marketId","type":"uint256","internalType":"uint256"}],"outputs":[],"stateMutability":"nonpayable"},{"type":"function","name":"claimRefundBatch","inputs":[{"name":"marketIds","type":"uint256[]","internalType":"uint256[]"}],"outputs":[],"stateMutability":"nonpayable"},{"type":"function","name":"closeMarket","inputs":[{"name":"marketId","type":"uint256","internalType":"uint256"}],"outputs":[],"stateMutability":"nonpayable"},{"type":"function","name":"closeMarketsBatch","inputs":[{"name":"marketIds","type":"uint256[]","internalType":"uint256[]"}],"outputs":[],"stateMutability":"nonpayable"},{"type":"function","name":"computeOutcome","inputs":[{"name":"marketId","type":"uint256","internalType":"uint256"},{"name":"s","type":"tuple","internalType":"struct FootballPariMatch.FootballScore","components":[{"name":"homeGoals","type":"uint8","internalType":"uint8"},{"name":"awayGoals","type":"uint8","internalType":"uint8"},{"name":"htHomeGoals","type":"uint8","internalType":"uint8"},{"name":"htAwayGoals","type":"uint8","internalType":"uint8"},{"name":"firstScorerId","type":"uint8","internalType":"uint8"}]}],"outputs":[{"name":"outcome","type":"uint64","internalType":"uint64"},{"name":"resolvable","type":"bool","internalType":"bool"}],"stateMutability":"view"},{"type":"function","name":"emergencyPause","inputs":[],"outputs":[],"stateMutability":"nonpayable"},{"type":"function","name":"feeBps","inputs":[],"outputs":[{"name":"","type":"uint16","internalType":"uint16"}],"stateMutability":"view"},{"type":"function","name":"feeRecipient","inputs":[],"outputs":[{"name":"","type":"address","internalType":"address"}],"stateMutability":"view"},{"type":"function","name":"getImpliedProbabilityBps","inputs":[{"name":"marketId","type":"uint256","internalType":"uint256"},{"name":"outcome","type":"uint64","internalType":"uint64"}],"outputs":[{"name":"bps","type":"uint256","internalType":"uint256"}],"stateMutability":"view"},{"type":"function","name":"getMarketCore","inputs":[{"name":"marketId","type":"uint256","internalType":"uint256"}],"outputs":[{"name":"","type":"tuple","internalType":"struct PariMatchBase.MarketCore","components":[{"name":"state","type":"uint8","internalType":"enum PariMatchBase.MarketState"},{"name":"result","type":"uint64","internalType":"uint64"},{"name":"createdAt","type":"uint40","internalType":"uint40"},{"name":"resolvedAt","type":"uint40","internalType":"uint40"},{"name":"resolvedNetPool","type":"uint256","internalType":"uint256"}]}],"stateMutability":"view"},{"type":"function","name":"getMarketInfo","inputs":[{"name":"marketId","type":"uint256","internalType":"uint256"}],"outputs":[{"name":"marketType","type":"bytes32","internalType":"bytes32"},{"name":"state","type":"uint8","internalType":"enum PariMatchBase.MarketState"},{"name":"result","type":"uint64","internalType":"uint64"},{"name":"totalPool","type":"uint256","internalType":"uint256"},{"name":"outcomeCount","type":"uint256","internalType":"uint256"}],"stateMutability":"view"},{"type":"function","name":"getMarketSpec","inputs":[{"name":"marketId","type":"uint256","internalType":"uint256"}],"outputs":[{"name":"","type":"tuple","internalType":"struct PariMatchBase.MarketSpec","components":[{"name":"marketType","type":"bytes32","internalType":"bytes32"},{"name":"line","type":"int16","internalType":"int16"},{"name":"maxOutcome","type":"uint8","internalType":"uint8"},{"name":"extra","type":"uint8","internalType":"uint8"},{"name":"groupId","type":"uint16","internalType":"uint16"}]}],"stateMutability":"view"},{"type":"function","name":"getOutcomePool","inputs":[{"name":"marketId","type":"uint256","internalType":"uint256"},{"name":"outcome","type":"uint64","internalType":"uint64"}],"outputs":[{"name":"","type":"uint256","internalType":"uint256"}],"stateMutability":"view"},{"type":"function","name":"getRoleAdmin","inputs":[{"name":"role","type":"bytes32","internalType":"bytes32"}],"outputs":[{"name":"","type":"bytes32","internalType":"bytes32"}],"stateMutability":"view"},{"type":"function","name":"getTotalPool","inputs":[{"name":"marketId","type":"uint256","internalType":"uint256"}],"outputs":[{"name":"","type":"uint256","internalType":"uint256"}],"stateMutability":"view"},{"type":"function","name":"getUserStake","inputs":[{"name":"marketId","type":"uint256","internalType":"uint256"},{"name":"user","type":"address","internalType":"address"},{"name":"outcome","type":"uint64","internalType":"uint64"}],"outputs":[{"name":"","type":"uint256","internalType":"uint256"}],"stateMutability":"view"},{"type":"function","name":"getUserTotalStake","inputs":[{"name":"marketId","type":"uint256","internalType":"uint256"},{"name":"user","type":"address","internalType":"address"}],"outputs":[{"name":"","type":"uint256","internalType":"uint256"}],"stateMutability":"view"},{"type":"function","name":"grantRole","inputs":[{"name":"role","type":"bytes32","internalType":"bytes32"},{"name":"account","type":"address","internalType":"address"}],"outputs":[],"stateMutability":"nonpayable"},{"type":"function","name":"hasClaimed","inputs":[{"name":"marketId","type":"uint256","internalType":"uint256"},{"name":"user","type":"address","internalType":"address"}],"outputs":[{"name":"","type":"bool","internalType":"bool"}],"stateMutability":"view"},{"type":"function","name":"hasRole","inputs":[{"name":"role","type":"bytes32","internalType":"bytes32"},{"name":"account","type":"address","internalType":"address"}],"outputs":[{"name":"","type":"bool","internalType":"bool"}],"stateMutability":"view"},{"type":"function","name":"initialize","inputs":[{"name":"_matchName","type":"string","internalType":"string"},{"name":"_owner","type":"address","internalType":"address"}],"outputs":[],"stateMutability":"nonpayable"},{"type":"function","name":"marketCount","inputs":[],"outputs":[{"name":"","type":"uint256","internalType":"uint256"}],"stateMutability":"view"},{"type":"function","name":"matchName","inputs":[],"outputs":[{"name":"","type":"string","internalType":"string"}],"stateMutability":"view"},{"type":"function","name":"openMarket","inputs":[{"name":"marketId","type":"uint256","internalType":"uint256"}],"outputs":[],"stateMutability":"nonpayable"},{"type":"function","name":"openMarketsBatch","inputs":[{"name":"marketIds","type":"uint256[]","internalType":"uint256[]"}],"outputs":[],"stateMutability":"nonpayable"},{"type":"function","name":"owner","inputs":[],"outputs":[{"name":"","type":"address","internalType":"address"}],"stateMutability":"view"},{"type":"function","name":"paused","inputs":[],"outputs":[{"name":"","type":"bool","internalType":"bool"}],"stateMutability":"view"},{"type":"function","name":"placeBetUSDC","inputs":[{"name":"marketId","type":"uint256","internalType":"uint256"},{"name":"outcome","type":"uint64","internalType":"uint64"},{"name":"amount","type":"uint256","internalType":"uint256"}],"outputs":[],"stateMutability":"nonpayable"},{"type":"function","name":"placeBetUSDCFor","inputs":[{"name":"user","type":"address","internalType":"address"},{"name":"marketId","type":"uint256","internalType":"uint256"},{"name":"outcome","type":"uint64","internalType":"uint64"},{"name":"amount","type":"uint256","internalType":"uint256"}],"outputs":[],"stateMutability":"nonpayable"},{"type":"function","name":"proxiableUUID","inputs":[],"outputs":[{"name":"","type":"bytes32","internalType":"bytes32"}],"stateMutability":"view"},{"type":"function","name":"renounceOwnership","inputs":[],"outputs":[],"stateMutability":"nonpayable"},{"type":"function","name":"renounceRole","inputs":[{"name":"role","type":"bytes32","internalType":"bytes32"},{"name":"callerConfirmation","type":"address","internalType":"address"}],"outputs":[],"stateMutability":"nonpayable"},{"type":"function","name":"resolveBatchByScore","inputs":[{"name":"marketIds","type":"uint256[]","internalType":"uint256[]"},{"name":"s","type":"tuple","internalType":"struct FootballPariMatch.FootballScore","components":[{"name":"homeGoals","type":"uint8","internalType":"uint8"},{"name":"awayGoals","type":"uint8","internalType":"uint8"},{"name":"htHomeGoals","type":"uint8","internalType":"uint8"},{"name":"htAwayGoals","type":"uint8","internalType":"uint8"},{"name":"firstScorerId","type":"uint8","internalType":"uint8"}]}],"outputs":[{"name":"marketsResolved","type":"uint256","internalType":"uint256"}],"stateMutability":"nonpayable"},{"type":"function","name":"resolveByScore","inputs":[{"name":"s","type":"tuple","internalType":"struct FootballPariMatch.FootballScore","components":[{"name":"homeGoals","type":"uint8","internalType":"uint8"},{"name":"awayGoals","type":"uint8","internalType":"uint8"},{"name":"htHomeGoals","type":"uint8","internalType":"uint8"},{"name":"htAwayGoals","type":"uint8","internalType":"uint8"},{"name":"firstScorerId","type":"uint8","internalType":"uint8"}]}],"outputs":[{"name":"marketsResolved","type":"uint256","internalType":"uint256"}],"stateMutability":"nonpayable"},{"type":"function","name":"resolveMarket","inputs":[{"name":"marketId","type":"uint256","internalType":"uint256"},{"name":"result","type":"uint64","internalType":"uint64"}],"outputs":[],"stateMutability":"nonpayable"},{"type":"function","name":"resolveMarketsBatch","inputs":[{"name":"marketIds","type":"uint256[]","internalType":"uint256[]"},{"name":"results","type":"uint64[]","internalType":"uint64[]"}],"outputs":[],"stateMutability":"nonpayable"},{"type":"function","name":"revokeRole","inputs":[{"name":"role","type":"bytes32","internalType":"bytes32"},{"name":"account","type":"address","internalType":"address"}],"outputs":[],"stateMutability":"nonpayable"},{"type":"function","name":"setFeeBps","inputs":[{"name":"_feeBps","type":"uint16","internalType":"uint16"}],"outputs":[],"stateMutability":"nonpayable"},{"type":"function","name":"setFeeRecipient","inputs":[{"name":"_recipient","type":"address","internalType":"address"}],"outputs":[],"stateMutability":"nonpayable"},{"type":"function","name":"setUSDCToken","inputs":[{"name":"_usdc","type":"address","internalType":"address"}],"outputs":[],"stateMutability":"nonpayable"},{"type":"function","name":"sportType","inputs":[],"outputs":[{"name":"","type":"string","internalType":"string"}],"stateMutability":"view"},{"type":"function","name":"supportsInterface","inputs":[{"name":"interfaceId","type":"bytes4","internalType":"bytes4"}],"outputs":[{"name":"","type":"bool","internalType":"bool"}],"stateMutability":"view"},{"type":"function","name":"suspendMarket","inputs":[{"name":"marketId","type":"uint256","internalType":"uint256"}],"outputs":[],"stateMutability":"nonpayable"},{"type":"function","name":"transferOwnership","inputs":[{"name":"newOwner","type":"address","internalType":"address"}],"outputs":[],"stateMutability":"nonpayable"},{"type":"function","name":"unpause","inputs":[],"outputs":[],"stateMutability":"nonpayable"},{"type":"function","name":"upgradeToAndCall","inputs":[{"name":"newImplementation","type":"address","internalType":"address"},{"name":"data","type":"bytes","internalType":"bytes"}],"outputs":[],"stateMutability":"payable"},{"type":"function","name":"usdcToken","inputs":[],"outputs":[{"name":"","type":"address","internalType":"contract IERC20"}],"stateMutability":"view"},{"type":"event","name":"FeeBpsSet","inputs":[{"name":"oldBps","type":"uint16","indexed":false,"internalType":"uint16"},{"name":"newBps","type":"uint16","indexed":false,"internalType":"uint16"}],"anonymous":false},{"type":"event","name":"FeeRecipientSet","inputs":[{"name":"oldRecipient","type":"address","indexed":true,"internalType":"address"},{"name":"newRecipient","type":"address","indexed":true,"internalType":"address"}],"anonymous":false},{"type":"event","name":"Initialized","inputs":[{"name":"version","type":"uint64","indexed":false,"internalType":"uint64"}],"anonymous":false},{"type":"event","name":"MarketCancelled","inputs":[{"name":"marketId","type":"uint256","indexed":true,"internalType":"uint256"},{"name":"reason","type":"string","indexed":false,"internalType":"string"}],"anonymous":false},{"type":"event","name":"MarketCreated","inputs":[{"name":"marketId","type":"uint256","indexed":true,"internalType":"uint256"},{"name":"marketType","type":"bytes32","indexed":true,"internalType":"bytes32"},{"name":"line","type":"int16","indexed":false,"internalType":"int16"},{"name":"maxOutcome","type":"uint8","indexed":false,"internalType":"uint8"},{"name":"groupId","type":"uint16","indexed":false,"internalType":"uint16"}],"anonymous":false},{"type":"event","name":"MarketResolved","inputs":[{"name":"marketId","type":"uint256","indexed":true,"internalType":"uint256"},{"name":"result","type":"uint64","indexed":false,"internalType":"uint64"},{"name":"totalPool","type":"uint256","indexed":false,"internalType":"uint256"},{"name":"fee","type":"uint256","indexed":false,"internalType":"uint256"},{"name":"resolvedNetPool","type":"uint256","indexed":false,"internalType":"uint256"}],"anonymous":false},{"type":"event","name":"MarketStateChanged","inputs":[{"name":"marketId","type":"uint256","indexed":true,"internalType":"uint256"},{"name":"oldState","type":"uint8","indexed":false,"internalType":"enum PariMatchBase.MarketState"},{"name":"newState","type":"uint8","indexed":false,"internalType":"enum PariMatchBase.MarketState"}],"anonymous":false},{"type":"event","name":"MatchInitialized","inputs":[{"name":"name","type":"string","indexed":true,"internalType":"string"},{"name":"sportType","type":"string","indexed":false,"internalType":"string"},{"name":"owner","type":"address","indexed":true,"internalType":"address"}],"anonymous":false},{"type":"event","name":"MatchScoreResolved","inputs":[{"name":"homeGoals","type":"uint8","indexed":false,"internalType":"uint8"},{"name":"awayGoals","type":"uint8","indexed":false,"internalType":"uint8"},{"name":"htHomeGoals","type":"uint8","indexed":false,"internalType":"uint8"},{"name":"htAwayGoals","type":"uint8","indexed":false,"internalType":"uint8"},{"name":"firstScorerId","type":"uint8","indexed":false,"internalType":"uint8"},{"name":"marketsResolved","type":"uint256","indexed":false,"internalType":"uint256"}],"anonymous":false},{"type":"event","name":"OwnershipTransferred","inputs":[{"name":"previousOwner","type":"address","indexed":true,"internalType":"address"},{"name":"newOwner","type":"address","indexed":true,"internalType":"address"}],"anonymous":false},{"type":"event","name":"Paused","inputs":[{"name":"account","type":"address","indexed":false,"internalType":"address"}],"anonymous":false},{"type":"event","name":"PositionClaimed","inputs":[{"name":"marketId","type":"uint256","indexed":true,"internalType":"uint256"},{"name":"user","type":"address","indexed":true,"internalType":"address"},{"name":"stake","type":"uint256","indexed":false,"internalType":"uint256"},{"name":"payout","type":"uint256","indexed":false,"internalType":"uint256"}],"anonymous":false},{"type":"event","name":"PositionTaken","inputs":[{"name":"marketId","type":"uint256","indexed":true,"internalType":"uint256"},{"name":"user","type":"address","indexed":true,"internalType":"address"},{"name":"outcome","type":"uint64","indexed":false,"internalType":"uint64"},{"name":"stake","type":"uint256","indexed":false,"internalType":"uint256"},{"name":"newOutcomePool","type":"uint256","indexed":false,"internalType":"uint256"},{"name":"newTotalPool","type":"uint256","indexed":false,"internalType":"uint256"}],"anonymous":false},{"type":"event","name":"RoleAdminChanged","inputs":[{"name":"role","type":"bytes32","indexed":true,"internalType":"bytes32"},{"name":"previousAdminRole","type":"bytes32","indexed":true,"internalType":"bytes32"},{"name":"newAdminRole","type":"bytes32","indexed":true,"internalType":"bytes32"}],"anonymous":false},{"type":"event","name":"RoleGranted","inputs":[{"name":"role","type":"bytes32","indexed":true,"internalType":"bytes32"},{"name":"account","type":"address","indexed":true,"internalType":"address"},{"name":"sender","type":"address","indexed":true,"internalType":"address"}],"anonymous":false},{"type":"event","name":"RoleRevoked","inputs":[{"name":"role","type":"bytes32","indexed":true,"internalType":"bytes32"},{"name":"account","type":"address","indexed":true,"internalType":"address"},{"name":"sender","type":"address","indexed":true,"internalType":"address"}],"anonymous":false},{"type":"event","name":"StakeRefunded","inputs":[{"name":"marketId","type":"uint256","indexed":true,"internalType":"uint256"},{"name":"user","type":"address","indexed":true,"internalType":"address"},{"name":"amount","type":"uint256","indexed":false,"internalType":"uint256"}],"anonymous":false},{"type":"event","name":"USDCTokenSet","inputs":[{"name":"token","type":"address","indexed":true,"internalType":"address"}],"anonymous":false},{"type":"event","name":"Unpaused","inputs":[{"name":"account","type":"address","indexed":false,"internalType":"address"}],"anonymous":false},{"type":"event","name":"Upgraded","inputs":[{"name":"implementation","type":"address","indexed":true,"internalType":"address"}],"anonymous":false},{"type":"error","name":"AccessControlBadConfirmation","inputs":[]},{"type":"error","name":"AccessControlUnauthorizedAccount","inputs":[{"name":"account","type":"address","internalType":"address"},{"name":"neededRole","type":"bytes32","internalType":"bytes32"}]},{"type":"error","name":"AddressEmptyCode","inputs":[{"name":"target","type":"address","internalType":"address"}]},{"type":"error","name":"AddressInsufficientBalance","inputs":[{"name":"account","type":"address","internalType":"address"}]},{"type":"error","name":"AlreadyClaimed","inputs":[{"name":"marketId","type":"uint256","internalType":"uint256"},{"name":"user","type":"address","internalType":"address"}]},{"type":"error","name":"ArrayLengthMismatch","inputs":[]},{"type":"error","name":"ERC1967InvalidImplementation","inputs":[{"name":"implementation","type":"address","internalType":"address"}]},{"type":"error","name":"ERC1967NonPayable","inputs":[]},{"type":"error","name":"EnforcedPause","inputs":[]},{"type":"error","name":"ExpectedPause","inputs":[]},{"type":"error","name":"FailedInnerCall","inputs":[]},{"type":"error","name":"FeeBpsExceedsMax","inputs":[{"name":"provided","type":"uint16","internalType":"uint16"},{"name":"max","type":"uint16","internalType":"uint16"}]},{"type":"error","name":"FeeRecipientNotConfigured","inputs":[]},{"type":"error","name":"InvalidInitialization","inputs":[]},{"type":"error","name":"InvalidLine","inputs":[{"name":"marketType","type":"bytes32","internalType":"bytes32"},{"name":"line","type":"int16","internalType":"int16"}]},{"type":"error","name":"InvalidMarketId","inputs":[{"name":"marketId","type":"uint256","internalType":"uint256"}]},{"type":"error","name":"InvalidMarketState","inputs":[{"name":"marketId","type":"uint256","internalType":"uint256"},{"name":"current","type":"uint8","internalType":"enum PariMatchBase.MarketState"},{"name":"required","type":"uint8","internalType":"enum PariMatchBase.MarketState"}]},{"type":"error","name":"InvalidMarketType","inputs":[{"name":"marketType","type":"bytes32","internalType":"bytes32"}]},{"type":"error","name":"InvalidOutcome","inputs":[{"name":"marketId","type":"uint256","internalType":"uint256"},{"name":"outcome","type":"uint64","internalType":"uint64"}]},{"type":"error","name":"InvalidOutcomeValue","inputs":[{"name":"marketId","type":"uint256","internalType":"uint256"},{"name":"outcome","type":"uint64","internalType":"uint64"},{"name":"maxAllowed","type":"uint8","internalType":"uint8"}]},{"type":"error","name":"NotInitializing","inputs":[]},{"type":"error","name":"NothingToClaim","inputs":[{"name":"marketId","type":"uint256","internalType":"uint256"},{"name":"user","type":"address","internalType":"address"}]},{"type":"error","name":"NothingToRefund","inputs":[{"name":"marketId","type":"uint256","internalType":"uint256"},{"name":"user","type":"address","internalType":"address"}]},{"type":"error","name":"OwnableInvalidOwner","inputs":[{"name":"owner","type":"address","internalType":"address"}]},{"type":"error","name":"OwnableUnauthorizedAccount","inputs":[{"name":"account","type":"address","internalType":"address"}]},{"type":"error","name":"ReentrancyGuardReentrantCall","inputs":[]},{"type":"error","name":"SafeERC20FailedOperation","inputs":[{"name":"token","type":"address","internalType":"address"}]},{"type":"error","name":"StakeBelowMinimum","inputs":[{"name":"stake","type":"uint256","internalType":"uint256"},{"name":"minimum","type":"uint256","internalType":"uint256"}]},{"type":"error","name":"USDCNotConfigured","inputs":[]},{"type":"error","name":"UUPSUnauthorizedCallContext","inputs":[]},{"type":"error","name":"UUPSUnsupportedProxiableUUID","inputs":[{"name":"slot","type":"bytes32","internalType":"bytes32"}]},{"type":"error","name":"ZeroStake","inputs":[]}],"bytecode":{"object":"0x60a08060405234620000d157306080527ff0c57e16840df040f15088dc2f81fe391c3923bec73e23a9662efc9c229c6a009081549060ff8260401c16620000c257506001600160401b036002600160401b0319828216016200007c575b6040516142cd9081620000d6823960805181818161187f01526119d00152f35b6001600160401b031990911681179091556040519081527fc7f505b2f371ae2175ee4913f4499e1f2633a7b5936321eed1cdaeb6115181d290602090a15f80806200005c565b63f92ee8a960e01b8152600490fd5b5f80fdfe6080604081815260049182361015610015575f80fd5b5f3560e01c90816301ffc9a71461262d57508063023b1fc91461258d5780630637e5df146124c457806309908d87146124785780630f5a9d01146123ff57806310900d1d146123d857806311eac855146123b05780631a095c6e146123635780631cf65cc214612313578063248a9ca3146122dd57806324a9d853146122b85780632e71b708146122915780632f2ff15d1461226957806336568abe14612225578063379607f514612190578063396f01ba146120ea5780633a35b9bd146120a35780633ec79193146120055780633eccfc9614611eac5780633f4ba83a14611e375780633fe1f00214611e0457806340b16c1e14611d32578063456051f114611bc05780634690484014611b985780634f1ef2861461198057806351858e27146118d057806352d1902d1461186c5780635b7baf64146117ef5780635c975abb146117c05780635d5df2a7146116a85780635f779fef1461162e57806362abebce1461155e5780636637e38c146105f55780636bcaa991146115375780636e60c97d1461141a578063715018a6146113c657806371738f8c1461133e57806375b238fc14611317578063789c650f146112c957806378fab260146112a25780637ab4339d14610e585780637c0078a414610e315780638723eccf14610e0a578063873f6f9e14610db95780638d3bf36514610cad5780638da5cb5b14610c7957806391d1485414610c29578063931b546614610b5b5780639b05743f14610a94578063a04286e0146109e8578063a217fddf146109ce578063a4b8195c14610864578063ad3cb1cc14610828578063ae418095146107f7578063b2392cab14610792578063baa267571461074c578063bef2a6a014610690578063c6886db414610669578063c743bb73146105fa578063cb1c2b5c146105f5578063d203ce70146105c0578063d547741f1461057a578063d55be8c61461055e578063dd19ed0a14610537578063e570d08414610510578063e63ab1e9146104e9578063e74b981b14610469578063ec9790821461044b578063f2fde38b146104205763f55e591314610321575f80fd5b3461041c5760c036600319011261041c5781356001600160401b03811161041c5761034f903690840161267f565b919060a036602319011261041c5791610366612a96565b5f925f915b80831061037c576020858551908152f35b90919361038a8583856128e1565b3560025481101561040657805f5260038060205260ff865f20541660068110156103f357036103e9576103bc81613ab8565b919091156103de57916103d3600193928493613000565b01945b01919061036b565b5050936001906103d6565b50936001906103d6565b602189634e487b7160e01b5f525260245ffd5b8660249186519163113b162160e31b8352820152fd5b5f80fd5b3461041c57602036600319011261041c5761044961043c6126bf565b610444613cd0565b6129e5565b005b503461041c575f36600319011261041c576020906002549051908152f35b50903461041c57602036600319011261041c576104846126bf565b9061048d612a43565b6001600160a01b039182169283156104dc575050600a80546001600160a01b031981168417909155167f15d80a013f22151bc7246e3bc132e12828cde19de98870475e3fa708401527215f80a3005b51635c192c5f60e01b8152fd5b503461041c575f36600319011261041c57602090515f805160206141588339815191528152f35b503461041c575f36600319011261041c57602090515f805160206141d88339815191528152f35b503461041c575f36600319011261041c57602090515f805160206140988339815191528152f35b503461041c575f36600319011261041c57602090516101f48152f35b503461041c578060031936011261041c5761044991356105bb600161059d6126d5565b93835f525f805160206141b88339815191526020525f200154612ade565b6133f7565b503461041c578060031936011261041c576105ee6020926105df6126af565b906105e8612a43565b35612c2d565b9051908152f35b6127f6565b50903461041c5761060a36612897565b93909194610616612a43565b84860361065c5750505f5b84811061062a57005b8061065561063b60019388876128e1565b3561064f61064a8489886128e1565b6129d7565b90612c2d565b5001610621565b5163512509d360e11b8152fd5b503461041c575f36600319011261041c57602090515f805160206142788339815191528152f35b503461041c575f36600319011261041c5780515f9160018054906106b382612812565b908185526020926001811690815f1461072c57506001146106ef575b5050506106e1826106eb940383612782565b519182918261286b565b0390f35b91945060015f52845f20915f925b82841061071957505050826106eb946106e192820101946106cf565b80548685018801529286019281016106fd565b60ff1916868501525050151560051b83010192506106e1826106eb6106cf565b50903461041c57602036600319011261041c5780359160025483101561077d5761044983610778612a43565b61378b565b91602492519163113b162160e31b8352820152fd5b503461041c578060031936011261041c5781356107ad6126d5565b926002548210156107e257505f908152600760209081528282206001600160a01b039094168252928352819020549051908152f35b915163113b162160e31b815291820152602490fd5b50903461041c57602036600319011261041c5780359160025483101561077d5761044983610823612a43565b6136ff565b503461041c575f36600319011261041c5780516106eb9161084882612767565b60058252640352e302e360dc1b6020830152519182918261286b565b503461041c57606036600319011261041c5781356108806126eb565b906044359261088d612b0c565b6002548210156109b757815f52600360205260ff815f20541660068110156109a4576001810361097957506108c0613476565b6009546001600160a01b031694851561096b57841561095d576127108086106109435750506109309461092a916108f785856135c6565b516323b872dd60e01b6020820152336024820152306044820152606480820187905281529061092582612738565b613e8b565b33613615565b60015f8051602061421883398151915255005b8560449351926378e030db60e01b84528301526024820152fd5b905163150a67e960e01b8152fd5b9051639554dd1160e01b8152fd5b61099b90606493879351936327c6314f60e11b85528401526024830190612717565b60016044820152fd5b602186634e487b7160e01b5f525260245ffd5b5163113b162160e31b815280850191909152602490fd5b503461041c575f36600319011261041c57602090515f8152f35b503461041c576109f736612897565b929094610a02612a96565b838303610a86575f5b838110610a1457005b610a1f8185856128e1565b356002541115610a6557610a348185856128e1565b3590610a4181878a6128e1565b35916001600160401b038316830361041c57600192610a5f91613000565b01610a0b565b610a738691856024956128e1565b3590519163113b162160e31b8352820152fd5b845163512509d360e11b8152fd5b503461041c57602090602060031936011261041c5782356001600160401b03811161041c57610ac6903690850161267f565b91610acf612a43565b5f5b838110610ada57005b610ae58185856128e1565b356002541115610b4d57610afa8185856128e1565b355f526003855260ff825f2054166006811015610b3a57906001809214610b3557610b2f610b298287876128e1565b3561378b565b01610ad1565b610b2f565b602187634e487b7160e01b5f525260245ffd5b610a739060249487946128e1565b503461041c57602036600319011261041c57813590600254821015610c1557610b82612a43565b815f526003602052805f209283549360ff8516916006831015610c025760018303610bd7575060025f80516020614138833981519152949560ff1916179055610bcd82518092612717565b60026020820152a2005b83516327c6314f60e11b8152908101859052606490610bf96024820185612717565b60026044820152fd5b602190634e487b7160e01b5f525260245ffd5b5163113b162160e31b815291820152602490fd5b503461041c578060031936011261041c57602091610c456126d5565b90355f525f805160206141b88339815191528352815f209060018060a01b03165f52825260ff815f20541690519015158152f35b503461041c575f36600319011261041c575f805160206140588339815191525490516001600160a01b039091168152602090f35b503461041c57602091602060031936011261041c5780356001600160401b03811161041c57610cdf903690830161267f565b91610ce8612a43565b5f5b838110610cf357005b610cfe8185856128e1565b356002541115610dab57610d138185856128e1565b355f52600380875260ff865f20541660068110159182610d98578114918215610d8c575b8215610d67575b505090600191610d6257610d5c610d568287876128e1565b356136ff565b01610cea565b610d5c565b909150610d795760051460015f610d3e565b602183634e487b7160e01b5f525260245ffd5b5083811491505f610d37565b602185634e487b7160e01b5f525260245ffd5b610a739193602495936128e1565b503461041c578060031936011261041c578135610dd46126d5565b926002548210156107e25750916020925f5260088352815f209060018060a01b03165f52825260ff815f20541690519015158152f35b503461041c575f36600319011261041c57602090515f805160206140388339815191528152f35b503461041c575f36600319011261041c57602090515f805160206141188339815191528152f35b50903461041c578160031936011261041c576001600160401b0391813583811161041c573660238201121561041c57610e9a90369060248186013591016127c0565b90610ea36126d5565b915f805160206142588339815191529485549360ff85851c1615928286169586158061129b575b60018098149081611291575b159081611288575b50611278576001600160401b03198116871789558461125d575b50845192610f0584612767565b60088452602097671193d3d51090531360c21b89860152610f24613e5d565b610f2c613e5d565b610f34613e5d565b610f3d846129e5565b610f45613e5d565b610f4d613e5d565b610f55613e5d565b610f5d613e5d565b875f8051602061421883398151915255610f75613e5d565b610f7d613e5d565b5f805160206141f8833981519152805460ff19169055610f9c846131e9565b50610fa68461326d565b50610fb0846132f4565b5082519082821161119b57610fc55f54612812565b918a601f93848111611218575b5050808b8482116001146111b9575f916111ae575b505f19600383901b1c1916908a1b175f555b855192831161119b575061100d8854612812565b818111611158575b50889082116001146110e1575f80516020614198833981519152928261109793611079935f916110d6575b505f19600383901b1c1916908a1b1789555b600a805461ffff60a01b1916601960a31b1790558751815190928392829084908e0161284a565b810103902086516001600160a01b039094169490939182918261286b565b0390a36110a057005b835460ff60401b191690935591519182527fc7f505b2f371ae2175ee4913f4499e1f2633a7b5936321eed1cdaeb6115181d291a1005b90508701515f611040565b908791601f19821690835f528a5f20915f5b8c828210611142575050925f805160206141988339815191529592611097959282611079961061112a575b5050811b018955611052565b8901515f1960f88460031b161c191690555f8061111e565b838a015185558c969094019392830192016110f3565b885f52895f208280850160051c8201928c8610611192575b0160051c019089905b828110611187575050611015565b5f8155018990611179565b92508192611170565b604190634e487b7160e01b5f525260245ffd5b90508501515f610fe7565b5f8080528d81208d94509190601f198416908f5b82821061120157505083116111e9575b5050811b015f55610ff9565b8701515f1960f88460031b161c191690555f806111dd565b838b015185558f969094019392830192018f6111cd565b5f805284825f209181850160051c8301938510611254575b0160051c01908b905b82811061124957508c9150610fd2565b5f8155018b90611239565b92508192611230565b6001600160481b0319166001600160401b011788555f610ef8565b855163f92ee8a960e01b81528890fd5b9050155f610ede565b303b159150610ed6565b5084610eca565b503461041c575f36600319011261041c57602090515f80516020613fd88339815191528152f35b50903461041c5760c036600319011261041c5780359060a036602319011261041c576002548210156107e257506112ff90613ab8565b82516001600160401b03909216825215156020820152f35b503461041c575f36600319011261041c57602090515f805160206142388339815191528152f35b503461041c575f36600319011261041c5780515f915f5461135e81612812565b80845260209160019081811690811561072c575060011461138b575050506106e1826106eb940383612782565b5f808052838120939650925b8284106113b357505050826106eb946106e192820101946106cf565b8054868501880152928601928101611397565b3461041c575f36600319011261041c576113de613cd0565b5f8051602061405883398151915280546001600160a01b031981169091555f906001600160a01b03165f805160206141788339815191528280a3005b503461041c57608036600319011261041c576001600160401b0391803583811161041c5761144b903690830161267f565b92909160243585811161041c57611465903690830161267f565b94909360443587811161041c5761147f903690850161267f565b909760643590811161041c57611498903690860161267f565b9490956114a3612a43565b88851480159061152d575b8015611523575b61065c5750505f5b8381106114c657005b6114d18185856128e1565b35906114e161064a828b8b6128e1565b916114ed82858d6128e1565b3560ff8116810361041c5761150383898b6128e1565b359061ffff8216820361041c5760019461151c93612dfc565b50016114bd565b50858514156114b5565b50828514156114ae565b503461041c575f36600319011261041c57602090515f805160206140788339815191528152f35b503461041c57602090602060031936011261041c5782356001600160401b03811161041c57611590903690850161267f565b61159b939193612b0c565b6115a3613476565b5f5b8181106115bf5760015f8051602061421883398151915255005b6115ca8183876128e1565b3560025481101561040657805f526003845260ff80865f20541660068110156103f357908860019493920361162757815f5260088652865f20335f528652865f2054166116215761161b90336134a0565b016115a5565b5061161b565b505061161b565b503461041c57606036600319011261041c57813561164a6126d5565b611652612701565b9160025481101561169257602094505f5260068452825f209060018060a01b03165f528352815f209060018060401b03165f528252805f20549051908152f35b8460249185519163113b162160e31b8352820152fd5b50903461041c5760a036600319011261041c576116c3612a96565b5f906002545f905b808210611767575050359160ff831680930361041c5760243560ff811680910361041c576044359060ff821680920361041c576064359460ff861680960361041c5760843560ff811680910361041c576020967f40f502bf281d266eec07f3593bb341bc5fcb47d2833d17f4c2ca2f7988a057b89460c09487519485528985015286840152606083015260808201528460a0820152a151908152f35b9092835f5260038060205260ff865f2054166006811015610d9857036117b75761179084613815565b156117ad576001916117a3839287613000565b01935b01906116cb565b50926001906117a6565b926001906117a6565b503461041c575f36600319011261041c5760209060ff5f805160206141f8833981519152541690519015158152f35b50903461041c57602036600319011261041c5780359161180d612b0c565b60025483101561077d57825f52600360205260ff815f205416906006821015610d795760058203611842576109308433612b54565b906064936118639251936327c6314f60e11b85528401526024830190612717565b60056044820152fd5b503461041c575f36600319011261041c577f00000000000000000000000000000000000000000000000000000000000000006001600160a01b031630036118c357602090515f805160206140d88339815191528152f35b5163703e46dd60e11b8152fd5b50903461041c575f36600319011261041c575f80516020614158833981519152805f525f805160206141b8833981519152602052825f20335f5260205260ff835f20541615611965577f62e78cea01bee320cd4e420270b5ea74000d11b0c9f74754ebdbfc544b05a258602084611945613476565b5f805160206141f8833981519152805460ff1916600117905551338152a1005b604492519163e2517d3f60e01b835233908301526024820152fd5b50908160031936011261041c576119956126bf565b60249283356001600160401b03811161041c573660238201121561041c576119c5903690868187013591016127c0565b6001600160a01b03927f00000000000000000000000000000000000000000000000000000000000000008416308114908115611b7d575b50611b6d575f80526020935f805160206141b88339815191528552835f20335f52855260ff845f20541615611b525781169383516352d1902d60e01b815281818881895afa5f9181611b23575b50611a6357505050505191634c9c8ce360e01b8352820152fd5b858588928a5f805160206140d883398151915291828103611b0e5750863b15611afa575080546001600160a01b0319168317905551907fbc7cd75a20ee27fd9adebab32041f755214dbc6bffa90cc0225b39da2e5c2d3b5f80a2845115611ae25750505f83819261044995519101845af4611adc613f05565b91613f34565b925092505034611aee57005b63b398979f60e01b8152fd5b9450505191634c9c8ce360e01b8352820152fd5b8351632a87526960e21b815280870191909152fd5b9091508281813d8311611b4b575b611b3b8183612782565b8101031261041c5751905f611a49565b503d611b31565b835163e2517d3f60e01b815233818801525f81890152604490fd5b825163703e46dd60e11b81528590fd5b9050845f805160206140d8833981519152541614155f6119fc565b503461041c575f36600319011261041c57600a5490516001600160a01b039091168152602090f35b503461041c578060031936011261041c5781359060249081356001600160401b0380821161041c573660238301121561041c578186013590811161041c573684828401011161041c57600254851015611d1c57611c1b612a43565b845f526003602052825f20805460ff811697600689101580611d0a5760018a14159081611cfd575b81611cda575b50611cb957508487985f80516020613fb8833981519152989360055f805160206141388339815191529460ff1916179055611c8682518092612717565b60056020820152a28083519485936020855282602086015201848401375f828201840152601f01601f19168101030190a2005b85516327c6314f60e11b81529081018890526064906118638189018b612717565b9050611ceb5760038914155f611c49565b60218791634e487b7160e01b5f52525ffd5b505060028914155f611c43565b87602183634e487b7160e01b5f52525ffd5b825163113b162160e31b81528087018690528490fd5b503461041c57602036600319011261041c578135611d4e612905565b50600254811015611def575f526003602052805f20815190611d6f82612738565b805460ff81169360068510156109a45760a0955084845260018060401b03926020850190848460081c16825264ffffffffff94859260806001868a0194868960481c1686528660608c019960701c16895201549801978852611dd38551809a612717565b5116602088015251169085015251166060830152516080820152f35b905163113b162160e31b815291820152602490fd5b503461041c578060031936011261041c578135611e1f6126eb565b926002548210156107e257506020926105ee91612981565b503461041c575f36600319011261041c57611e50612a43565b5f805160206141f88339815191529182549060ff821615611e9e577f5db9ee0a495bf2e6ff9c91a7834c1ba4fdd244a5e8aa4e537bd38aeae4b073aa602084868560ff1916905551338152a1005b8251638dfc202b60e01b8152fd5b50903461041c57608036600319011261041c57611ec76126bf565b90602491823590611ed6612701565b9260643594611ee3612b0c565b600254841015611ff057835f52600360205260ff875f2054166006811015611fdd5760018103611fbb5750611f16613476565b5f80516020614278833981519152805f525f805160206141b8833981519152602052875f20335f5260205260ff885f20541615611fa057508515611f915761271090818710611f76575050506109309450611f7183836135c6565b613615565b87516378e030db60e01b815292830187905282015260449150fd5b50855163150a67e960e01b8152fd5b6044929188519263e2517d3f60e01b84523390840152820152fd5b87516327c6314f60e11b81529283018590526064935061099b91830190612717565b50634e487b7160e01b5f90815260218352fd5b865163113b162160e31b815291820184905290fd5b503461041c57602036600319011261041c578135600254811015611def575f52600b602052805f20906003602052805f209180549254918460205260ff6001825f205493015460101c1692600184018094116120905760a0955081519485526120746020860160ff8316612717565b60081c6001600160401b03169084015260608301526080820152f35b601186634e487b7160e01b5f525260245ffd5b50903461041c57602036600319011261041c5780356002548110156120d65790602092915f528252805f20549051908152f35b602492519163113b162160e31b8352820152fd5b503461041c57602036600319011261041c578135612106612905565b50600254811015611def5760a092505f52600b6020526080815f209160ff815161212f81612738565b600185549586835201549282602083018560010b815282840190828760101c1682526060850194838860181c16865261ffff988991019760201c16875283519889525160010b60208901525116908601525116606084015251166080820152f35b50903461041c57602036600319011261041c578035906121ae612b0c565b6002548210156107e257815f52600360205260ff835f205416926006841015612212578184036121ea57610930836121e4613476565b336134a0565b60649361220b9151936327c6314f60e11b8552838501526024840190612717565b6044820152fd5b602182634e487b7160e01b5f525260245ffd5b503461041c578060031936011261041c5761223e6126d5565b90336001600160a01b0383160361225a575061044991356133f7565b5163334bd91960e11b81529050fd5b503461041c578060031936011261041c57610449913561228c600161059d6126d5565b613387565b503461041c575f36600319011261041c57602090515f805160206140b88339815191528152f35b503461041c575f36600319011261041c5760209061ffff600a5460a01c169051908152f35b503461041c57602036600319011261041c57602091355f525f805160206141b883398151915282526001815f2001549051908152f35b503461041c578060031936011261041c57813561232e6126eb565b926002548210156107e257505f908152600560209081528282206001600160401b039094168252928352819020549051908152f35b503461041c578060031936011261041c57813561237e6126eb565b9160025482101561239b576104498383612396612a96565b613000565b5163113b162160e31b81529283015250602490fd5b503461041c575f36600319011261041c5760095490516001600160a01b039091168152602090f35b503461041c575f36600319011261041c57602090515f805160206140f88339815191528152f35b50903461041c57602036600319011261041c5761241a6126bf565b612422612a43565b6001600160a01b031691821561246b57600980546001600160a01b03191684179055827f9317e3e59b11620f482b4bb292374da6e5cb9e7ef23cf3f121cacca9a5428f785f80a2005b51639554dd1160e01b8152fd5b503461041c57608036600319011261041c576124926126af565b9160443560ff8116810361041c576064359061ffff8216820361041c576020946105ee936124be612a43565b35612dfc565b503461041c57602090602060031936011261041c5782356001600160401b03811161041c576124f6903690850161267f565b612501939193612b0c565b5f5b81811061251d5760015f8051602061421883398151915255005b6125288183876128e1565b3560025481101561040657805f526003845260ff80865f20541660068110156103f35790600560019493920361258657815f5260088652865f20335f528652865f2054166125805761257a9033612b54565b01612503565b5061257a565b505061257a565b503461041c57602036600319011261041c57813561ffff928382169081830361041c576125b8612a43565b6101f48083116126135750507f4791562d259a08c64fef49ff6bef502e6c8f342eb8d4c8f90da367929ab1602d93600a549261ffff60a01b9060a01b1661ffff60a01b19841617600a5583519260a01c1682526020820152a1005b60449285519263673af7c160e11b84528301526024820152fd5b833461041c57602036600319011261041c57359063ffffffff60e01b821680920361041c57602091637965db0b60e01b811490811561266e575b5015158152f35b6301ffc9a760e01b14905083612667565b9181601f8401121561041c578235916001600160401b03831161041c576020808501948460051b01011161041c57565b602435908160010b820361041c57565b600435906001600160a01b038216820361041c57565b602435906001600160a01b038216820361041c57565b602435906001600160401b038216820361041c57565b604435906001600160401b038216820361041c57565b9060068210156127245752565b634e487b7160e01b5f52602160045260245ffd5b60a081019081106001600160401b0382111761275357604052565b634e487b7160e01b5f52604160045260245ffd5b604081019081106001600160401b0382111761275357604052565b601f909101601f19168101906001600160401b0382119082101761275357604052565b6001600160401b03811161275357601f01601f191660200190565b9291926127cc826127a5565b916127da6040519384612782565b82948184528183011161041c578281602093845f960137010152565b3461041c575f36600319011261041c5760206040516127108152f35b90600182811c92168015612840575b602083101461282c57565b634e487b7160e01b5f52602260045260245ffd5b91607f1691612821565b5f5b83811061285b5750505f910152565b818101518382015260200161284c565b6040916020825261288b815180928160208601526020868601910161284a565b601f01601f1916010190565b604060031982011261041c576001600160401b039160043583811161041c57826128c39160040161267f565b9390939260243591821161041c576128dd9160040161267f565b9091565b91908110156128f15760051b0190565b634e487b7160e01b5f52603260045260245ffd5b6040519061291282612738565b5f6080838281528260208201528260408201528260608201520152565b9190820180921161293c57565b634e487b7160e01b5f52601160045260245ffd5b8181029291811591840414171561293c57565b811561296d570490565b634e487b7160e01b5f52601260045260245ffd5b5f52600460205260405f20549081156129d157600560205260405f209060018060401b03165f5260205260405f2054906127109182810292818404149015171561293c576129ce91612963565b90565b50505f90565b358060010b810361041c5790565b6001600160a01b03908116908115612a2b575f8051602061405883398151915280546001600160a01b031981168417909155165f805160206141788339815191525f80a3565b604051631e4fbdf760e01b81525f6004820152602490fd5b335f9081525f8051602061401883398151915260205260409020545f805160206142388339815191529060ff1615612a785750565b6044906040519063e2517d3f60e01b82523360048301526024820152fd5b335f9081527f756534422b3cb82a54d88d2dca71cfb1a3297222856e6ddc952d9ca5a7fc4b8860205260409020545f80516020613fd88339815191529060ff1615612a785750565b805f525f805160206141b883398151915260205260405f20335f5260205260ff60405f20541615612a785750565b5f805160206142188339815191526002815414612b295760029055565b604051633ee5aeb560e01b8152600490fd5b9081526001600160a01b03909116602082015260400190565b9190805f5260209060088252604091825f209260018060a01b039081871694855f52835260ff815f205416612c1357835f5260078352805f20855f528352805f2054918215612bf4578285969798612bed927f181dd8e5abfdd7ea94bff7529391d477a29bf85df13abe63fb4f97017bbc8ba0975f5260088752845f208a5f528752845f20600160ff1982541617905560095416613d08565b51908152a3565b8151632decd07b60e11b815280612c0f8a8860048401612b3b565b0390fd5b516302a4851560e61b815280612c0f888660048401612b3b565b9190915f8051602061403883398151915281148015612de6575b8015612dd0575b8015612dba575b8015612da4575b8015612d8e575b8015612d78575b15612d6057612c798382613d57565b600254905f19821461293c5760605f80516020613ff883398151915291600184016002555f84978582526003602052604090818320805464ffffffffff60481b4260481b169060ff64ffffffffff60481b011916179055815190612cdc82612738565b888252602082019060010b9485825260ff848401911692838252878101868152600160808301928884528c8952600b602052878920905181550193519261ffff63ff00000062ff00008754935160101b16935160181b16938160201b905160201b1694169065ffffffffffff191617171717905581519384526020840152820152a3565b60249060405190630d330d2760e01b82526004820152fd5b505f805160206140f88339815191528114612c6a565b505f805160206140b88339815191528114612c63565b505f805160206140788339815191528114612c5c565b505f805160206141188339815191528114612c55565b505f805160206140988339815191528114612c4e565b505f805160206141d88339815191528114612c47565b9193925f8051602061403883398151915283148015612fc6575b8015612fb0575b8015612f9a575b8015612f84575b8015612f6e575b8015612f58575b15612f3f57612e488284613d57565b60025492905f19841461293c57600184016002555f8481526003602052604090819020805460ff64ffffffffff60481b0119164260481b64ffffffffff60481b161790558051949788955f80516020613ff8833981519152956060959193929190612eb285612738565b898552602085019160010b9586835260ff85870191169384825260ff898801911681526080870191600161ffff809516988985528d5f52600b602052885f20905181550194519363ff00000062ff00008754935160101b16935160181b169361ffff60201b905160201b1694169065ffffffffffff191617171717905581519384526020840152820152a3565b604051630d330d2760e01b815260048101849052602490fd5b505f805160206140f88339815191528314612e39565b505f805160206140b88339815191528314612e32565b505f805160206140788339815191528314612e2b565b505f805160206141188339815191528314612e24565b505f805160206140988339815191528314612e1d565b505f805160206141d88339815191528314612e16565b90949392606092608083019660018060401b03168352602083015260408201520152565b919091805f5260209060038252604093845f209081549060ff8216600681101561272457600381036131bc575061303781856135c6565b835f5260048552865f20549160058652875f2060018060401b0383165f528652875f205415613152575061271061307761ffff600a5460a01c1684612950565b049485830383811161293c57855f805160206141388339815191528a61310e948460018a60047fdd2e3713f4f6dc5f6c91ac1cea9e1f2fb91d4f4329fa81eab52629f775228ffa9c546101008460481b038c60081b16908469ffffffffff000000000160481b0319161764ffffffffff60701b4260701b16171781550155600482519160038352820152a286895194859485612fdc565b0390a28061311b57509050565b600a546001600160a01b039081169081156131415761313f93945060095416613d08565b565b8451635c192c5f60e01b8152600490fd5b74766f69643a206e6f2077696e6e696e67206265747360581b9250606094969791509260055f80516020613fb8833981519152969460ff1916179055855f8051602061413883398151915282805160038152600587820152a26015815193808552840152820152a2565b87516327c6314f60e11b8152600481018690526064916131e0906024830190612717565b60036044820152fd5b6001600160a01b03165f8181527fb7db2dd08fcb62d0c9e08c51941cae53c267786a0b75803fb7960902fc8ef97d60205260409020545f805160206141b88339815191529060ff166129d1575f805260205260405f20815f5260205260405f20600160ff1982541617905533905f5f80516020613f988339815191528180a4600190565b6001600160a01b03165f8181525f8051602061401883398151915260205260409020545f8051602061423883398151915291905f805160206141b88339815191529060ff166132ed57825f5260205260405f20815f5260205260405f20600160ff1982541617905533915f80516020613f988339815191525f80a4600190565b5050505f90565b6001600160a01b03165f8181527f75442b0a96088b5456bc4ed01394c96a4feec0f883c9494257d76b96ab1c9b6b60205260409020545f8051602061415883398151915291905f805160206141b88339815191529060ff166132ed57825f5260205260405f20815f5260205260405f20600160ff1982541617905533915f80516020613f988339815191525f80a4600190565b90815f525f805160206141b88339815191528060205260405f209160018060a01b031691825f5260205260ff60405f205416155f146132ed57825f5260205260405f20815f5260205260405f20600160ff1982541617905533915f80516020613f988339815191525f80a4600190565b90815f525f805160206141b88339815191528060205260405f209160018060a01b031691825f5260205260ff60405f2054165f146132ed57825f5260205260405f20815f5260205260405f2060ff19815416905533917ff6391f5c32d9c69d2a47ea670b442974b53935d1edc7fd64eb21e047a839171b5f80a4600190565b60ff5f805160206141f8833981519152541661348e57565b60405163d93c066560e01b8152600490fd5b90805f52602060088152604090815f209360018060a01b039182821695865f52815260ff845f2054166135a857845f5260038152835f209260018060401b03845460081c169360068352855f20885f528352855f20855f528352855f205494851561358d5791613559613582927f7513b6be2c9a0992975f71ef42f47c8ebedee4891864b052e46cf9247374f68d98979695948a5f5260058652885f20905f5285526135546001895f205492015488612950565b612963565b938491895f5260088552875f208b5f528552875f20600160ff1982541617905560095416613d08565b8351928352820152a3565b865163b361b5fb60e01b815280612c0f878b60048401612b3b565b5082516302a4851560e61b8152908190612c0f908660048401612b3b565b90815f52600b60205260ff600160405f20015460101c169060018060401b03168181116135f257505050565b60649350604051926383b689d160e01b8452600484015260248301526044820152fd5b927fcbf470e9c24fcadd6c47cc5958895187cbc7e78e537c0ee49b499b4dd65db5979192835f526136fa602060068152604090815f209760018060a01b031697885f528152815f2060018060401b03851690815f528252825f2061367a87825461292f565b9055875f5260078252825f20895f528252825f2061369987825461292f565b9055875f5260058252825f20815f528252825f206136b887825461292f565b9055875f5260048252825f206136cf87825461292f565b9055875f5260058252825f20905f5281526004825f205491885f5252815f2054915194859485612fdc565b0390a3565b805f52600360205260405f2080549060ff821691600683101561272457600183141580613780575b61375c5760ff19166003179055604080515f8051602061413883398151915292613752908290612717565b60036020820152a2565b6040516327c6314f60e11b8152600481018590526064906131e06024820186612717565b506002831415613727565b805f52600360205260405f2080549060ff8216916006831015612724578215158061380a575b6137e65760ff19166001179055604080515f80516020614138833981519152926137dc908290612717565b60016020820152a2565b6040516327c6314f60e11b81526004810185905260649061099b6024820186612717565b5060028314156137b1565b5f52600b60205260405f2080545f805160206140388339815191528114613a85575f805160206141d88339815191528114613a26575f8051602061409883398151915281146139e4575f8051602061411883398151915281146139a1575f805160206140788339815191528114613927575f805160206140b88339815191528114613904575f805160206140f8833981519152146138b457505f905f90565b60043560ff811680910361041c5760243560ff811680910361041c576138de60019160ff9361292f565b92015460101c16808210156138fd57506001600160401b031690600190565b9160019150565b505060843560ff811680910361041c5780156139205790600190565b505f905f90565b505060043560ff811680820361041c5760091015613999575060ff60095b1660243560ff811680820361041c576009101561399357506009905b600a810290808204600a149015171561293c576001600160401b039161398c9160ff9091169061292f565b1690600190565b90613961565b60ff90613945565b505060443560ff811680910361041c576064359060ff821680920361041c578181116139db57146139d457600290600190565b6001908190565b50505f90600190565b505060043560ff811680910361041c57151580613a10575b15613a0a5760015b90600190565b5f613a04565b5060243560ff811680910361041c5715156139fc565b509060043560ff811680910361041c5760243560ff811680910361041c57613a4d9161292f565b600a810290808204600a149015171561293c57600180930154830b905f8212613a7e5711613a7a575f9190565b8190565b50505f9190565b505060043560ff811680910361041c576024359060ff821680920361041c578181116139db57146139d457600290600190565b5f52600b60205260405f2080545f805160206140388339815191528114613c9d575f805160206141d88339815191528114613c76575f805160206140988339815191528114613c3c575f805160206141188339815191528114613c09575f805160206140788339815191528114613b9d575f805160206140b88339815191528114613b81575f805160206140f883398151915214613b5757505f905f90565b60243560ff811680910361041c5760443560ff811680910361041c576138de60019160ff9361292f565b505060a43560ff811680910361041c5780156139205790600190565b505060243560ff811680820361041c5760091015613c01575060ff60095b1660443560ff811680820361041c57600910156139935750600990600a810290808204600a149015171561293c576001600160401b039161398c9160ff9091169061292f565b60ff90613bbb565b505060643560ff811680910361041c576084359060ff821680920361041c578181116139db57146139d457600290600190565b505060243560ff811680910361041c57151580613c605715613a0a57600190600190565b5060443560ff811680910361041c5715156139fc565b509060243560ff811680910361041c5760443560ff811680910361041c57613a4d9161292f565b505060243560ff811680910361041c576044359060ff821680920361041c578181116139db57146139d457600290600190565b5f80516020614058833981519152546001600160a01b03163303613cf057565b60405163118cdaa760e01b8152336004820152602490fd5b60405163a9059cbb60e01b60208201526001600160a01b03909216602483015260448083019390935291815260808101916001600160401b038311828410176127535761313f92604052613e8b565b905f805160206140388339815191528214613e4f575f805160206141d88339815191528214613e56575f805160206140988339815191528214613e56575f805160206141188339815191528214613e4f575f805160206140788339815191528214613e48575f805160206140b88339815191528214613e41575f805160206140f88339815191528214613dfd57604051630d330d2760e01b815260048101839052602490fd5b908160010b600181128015613e37575b613e1957505060ff1690565b60449250604051916332cc7a6b60e21b835260048301526024820152fd5b5060ff8113613e0d565b505060ff90565b5050606390565b5050600290565b5050600190565b60ff5f805160206142588339815191525460401c1615613e7957565b604051631afcd79f60e31b8152600490fd5b5f80613eb39260018060a01b03169360208151910182865af1613eac613f05565b9083613f34565b8051908115159182613ee1575b5050613ec95750565b60249060405190635274afe760e01b82526004820152fd5b819250906020918101031261041c576020015180159081150361041c575f80613ec0565b3d15613f2f573d90613f16826127a5565b91613f246040519384612782565b82523d5f602084013e565b606090565b90613f5b5750805115613f4957805190602001fd5b604051630a12f52160e11b8152600490fd5b81511580613f8e575b613f6c575090565b604051639996b31560e01b81526001600160a01b039091166004820152602490fd5b50803b15613f6456fe2f8788117e7eff1d82e926ec794901d17c78024a50270940304540a733656f0d4c4561c5b0048424071c1115e9f1e325486e21c21333d968f21097b7b72d12ad92a19c77d2ea87c7f81d50c74403cb2f401780f3ad919571121efe2bdb427eb1ea7cc971ba11025eb99fff8822470c08a1a30d81df27de1d47b40c3d91238934b16e88c42fd4e48df2dd6a2eabd6bc9aec654ec170056b470819f8892cc6431c97e9cffa40fd62a888d33fedb0550a0c24b2dab7e942dd2c90f3dc402fe1d9d09016d09d72d40fdae2fd8ceac6b6234c7706214fd39c1cd1e609a0528c1993005a07719d8a8f4c48bdefa2dac63aa1381b7ddfabbbcde55ac2fce423272e4ade538ae17682fc5f9b07ae2625134d6d3c26763eb7064ea668cc95acc79d2f66934386abfac67735e8200942a182a9289c4525de8436be890c45f3baa48cfc744a360894a13ba1a3210667c828492db98dca3e2076cc3735a920a3ca505d382bbc5f2d9c6c5d154e8ecfe88cf92a25c5d5bd0d2409279118c7aeb6d5450928b3abdd5dc5e3118ac9f6534abbb8fc3fdcbf37cbac4179d8c4f61f8246428bdc20513fda72f0a1439a9047288d6140aad7d37a71b660b5229783c8a637ebd0631c0b65d7a28e3265b37a6474929f336521b332c1681b933f6cb9f3376673440d862a8be0079c531659141344cd1fd0a4f28419497f9722a3daafe3b4186f6b6457e0b88a0148d0785022bedeff8dc0f55ccbb709825d7109265ebe5ca3325f191b4202dd7bc7dec4dceedda775e58dd541e08a116c6c53815c0bd028192f7b62680002cbb70a5b530cc7252a3b919b89cec2559cd41fd531c11606411ffbac8f3ffccd5ed15c6e187e77e9aee88184c21f4f2182ab5827cb3b7e07fbedcd63f033009b779b17422d0df92223018b32b4d1fa46e071723d6817e2486d003becc55f00a49807205ce4d355092ef5a8a18f56e8913cf4a201fbe287825b095693c21775f0c57e16840df040f15088dc2f81fe391c3923bec73e23a9662efc9c229c6a00a903a5200a3509510da557615994ebd7dbb3d8b122c2190f01477c128da2cfcba264697066735822122057d1a30204e769933c29edb5652a413fffb1e303fb1c02fad167200f7097d7c464736f6c63430008180033","linkReferences":{}},"methodIdentifiers":{"ADMIN_ROLE()":"75b238fc","BPS_DENOM()":"6637e38c","DEFAULT_ADMIN_ROLE()":"a217fddf","MARKET_BOTH_SCORE()":"dd19ed0a","MARKET_CORRECT_SCORE()":"6bcaa991","MARKET_FIRST_SCORER()":"2e71b708","MARKET_GOALS_EXACT()":"10900d1d","MARKET_GOALS_TOTAL()":"e570d084","MARKET_HALFTIME()":"7c0078a4","MARKET_WINNER()":"8723eccf","MAX_FEE_BPS()":"d55be8c6","MIN_STAKE()":"cb1c2b5c","PAUSER_ROLE()":"e63ab1e9","RESOLVER_ROLE()":"78fab260","SWAP_ROUTER_ROLE()":"c6886db4","UPGRADE_INTERFACE_VERSION()":"ad3cb1cc","addMarketAdvanced(bytes32,int16,uint8,uint16)":"09908d87","addMarketWithLine(bytes32,int16)":"d203ce70","addMarketsBatch(bytes32[],int16[])":"c743bb73","addMarketsBatchAdvanced(bytes32[],int16[],uint8[],uint16[])":"6e60c97d","cancelMarket(uint256,string)":"456051f1","claim(uint256)":"379607f5","claimBatch(uint256[])":"62abebce","claimRefund(uint256)":"5b7baf64","claimRefundBatch(uint256[])":"0637e5df","closeMarket(uint256)":"ae418095","closeMarketsBatch(uint256[])":"8d3bf365","computeOutcome(uint256,(uint8,uint8,uint8,uint8,uint8))":"789c650f","emergencyPause()":"51858e27","feeBps()":"24a9d853","feeRecipient()":"46904840","getImpliedProbabilityBps(uint256,uint64)":"3fe1f002","getMarketCore(uint256)":"40b16c1e","getMarketInfo(uint256)":"3ec79193","getMarketSpec(uint256)":"396f01ba","getOutcomePool(uint256,uint64)":"1cf65cc2","getRoleAdmin(bytes32)":"248a9ca3","getTotalPool(uint256)":"3a35b9bd","getUserStake(uint256,address,uint64)":"5f779fef","getUserTotalStake(uint256,address)":"b2392cab","grantRole(bytes32,address)":"2f2ff15d","hasClaimed(uint256,address)":"873f6f9e","hasRole(bytes32,address)":"91d14854","initialize(string,address)":"7ab4339d","marketCount()":"ec979082","matchName()":"71738f8c","openMarket(uint256)":"baa26757","openMarketsBatch(uint256[])":"9b05743f","owner()":"8da5cb5b","paused()":"5c975abb","placeBetUSDC(uint256,uint64,uint256)":"a4b8195c","placeBetUSDCFor(address,uint256,uint64,uint256)":"3eccfc96","proxiableUUID()":"52d1902d","renounceOwnership()":"715018a6","renounceRole(bytes32,address)":"36568abe","resolveBatchByScore(uint256[],(uint8,uint8,uint8,uint8,uint8))":"f55e5913","resolveByScore((uint8,uint8,uint8,uint8,uint8))":"5d5df2a7","resolveMarket(uint256,uint64)":"1a095c6e","resolveMarketsBatch(uint256[],uint64[])":"a04286e0","revokeRole(bytes32,address)":"d547741f","setFeeBps(uint16)":"023b1fc9","setFeeRecipient(address)":"e74b981b","setUSDCToken(address)":"0f5a9d01","sportType()":"bef2a6a0","supportsInterface(bytes4)":"01ffc9a7","suspendMarket(uint256)":"931b5466","transferOwnership(address)":"f2fde38b","unpause()":"3f4ba83a","upgradeToAndCall(address,bytes)":"4f1ef286","usdcToken()":"11eac855"},"id":56}