{"abi":[{"type":"constructor","inputs":[],"stateMutability":"nonpayable"},{"type":"function","name":"BASKETBALL","inputs":[],"outputs":[{"name":"","type":"uint8","internalType":"uint8"}],"stateMutability":"view"},{"type":"function","name":"FOOTBALL","inputs":[],"outputs":[{"name":"","type":"uint8","internalType":"uint8"}],"stateMutability":"view"},{"type":"function","name":"allMatches","inputs":[{"name":"","type":"uint256","internalType":"uint256"}],"outputs":[{"name":"","type":"address","internalType":"address"}],"stateMutability":"view"},{"type":"function","name":"basketballImplementation","inputs":[],"outputs":[{"name":"","type":"address","internalType":"address"}],"stateMutability":"view"},{"type":"function","name":"createBasketballMatch","inputs":[{"name":"_matchName","type":"string","internalType":"string"},{"name":"_owner","type":"address","internalType":"address"},{"name":"_oracle","type":"address","internalType":"address"}],"outputs":[{"name":"proxy","type":"address","internalType":"address"}],"stateMutability":"nonpayable"},{"type":"function","name":"createFootballMatch","inputs":[{"name":"_matchName","type":"string","internalType":"string"},{"name":"_owner","type":"address","internalType":"address"},{"name":"_oracle","type":"address","internalType":"address"}],"outputs":[{"name":"proxy","type":"address","internalType":"address"}],"stateMutability":"nonpayable"},{"type":"function","name":"feeRecipient","inputs":[],"outputs":[{"name":"","type":"address","internalType":"address"}],"stateMutability":"view"},{"type":"function","name":"footballImplementation","inputs":[],"outputs":[{"name":"","type":"address","internalType":"address"}],"stateMutability":"view"},{"type":"function","name":"getAllMatches","inputs":[],"outputs":[{"name":"","type":"address[]","internalType":"address[]"}],"stateMutability":"view"},{"type":"function","name":"getSportType","inputs":[{"name":"matchAddress","type":"address","internalType":"address"}],"outputs":[{"name":"","type":"uint8","internalType":"enum PariMatchFactory.SportType"}],"stateMutability":"view"},{"type":"function","name":"implementations","inputs":[{"name":"sport","type":"uint8","internalType":"uint8"}],"outputs":[{"name":"","type":"address","internalType":"address"}],"stateMutability":"view"},{"type":"function","name":"isMatch","inputs":[{"name":"","type":"address","internalType":"address"}],"outputs":[{"name":"","type":"bool","internalType":"bool"}],"stateMutability":"view"},{"type":"function","name":"matchSportType","inputs":[{"name":"","type":"address","internalType":"address"}],"outputs":[{"name":"","type":"uint8","internalType":"enum PariMatchFactory.SportType"}],"stateMutability":"view"},{"type":"function","name":"owner","inputs":[],"outputs":[{"name":"","type":"address","internalType":"address"}],"stateMutability":"view"},{"type":"function","name":"renounceOwnership","inputs":[],"outputs":[],"stateMutability":"nonpayable"},{"type":"function","name":"setBasketballImplementation","inputs":[{"name":"newImpl","type":"address","internalType":"address"}],"outputs":[],"stateMutability":"nonpayable"},{"type":"function","name":"setFootballImplementation","inputs":[{"name":"newImpl","type":"address","internalType":"address"}],"outputs":[],"stateMutability":"nonpayable"},{"type":"function","name":"setWiring","inputs":[{"name":"_usdcToken","type":"address","internalType":"address"},{"name":"_feeRecipient","type":"address","internalType":"address"},{"name":"_swapRouter","type":"address","internalType":"address"}],"outputs":[],"stateMutability":"nonpayable"},{"type":"function","name":"swapRouter","inputs":[],"outputs":[{"name":"","type":"address","internalType":"address"}],"stateMutability":"view"},{"type":"function","name":"transferOwnership","inputs":[{"name":"newOwner","type":"address","internalType":"address"}],"outputs":[],"stateMutability":"nonpayable"},{"type":"function","name":"usdcToken","inputs":[],"outputs":[{"name":"","type":"address","internalType":"address"}],"stateMutability":"view"},{"type":"event","name":"BasketballImplementationUpdated","inputs":[{"name":"oldImpl","type":"address","indexed":true,"internalType":"address"},{"name":"newImpl","type":"address","indexed":true,"internalType":"address"}],"anonymous":false},{"type":"event","name":"FootballImplementationUpdated","inputs":[{"name":"oldImpl","type":"address","indexed":true,"internalType":"address"},{"name":"newImpl","type":"address","indexed":true,"internalType":"address"}],"anonymous":false},{"type":"event","name":"MatchCreated","inputs":[{"name":"proxy","type":"address","indexed":true,"internalType":"address"},{"name":"sportType","type":"uint8","indexed":false,"internalType":"enum PariMatchFactory.SportType"},{"name":"owner","type":"address","indexed":true,"internalType":"address"}],"anonymous":false},{"type":"event","name":"OwnershipTransferred","inputs":[{"name":"previousOwner","type":"address","indexed":true,"internalType":"address"},{"name":"newOwner","type":"address","indexed":true,"internalType":"address"}],"anonymous":false},{"type":"event","name":"WiringSet","inputs":[{"name":"usdcToken","type":"address","indexed":true,"internalType":"address"},{"name":"feeRecipient","type":"address","indexed":true,"internalType":"address"},{"name":"swapRouter","type":"address","indexed":true,"internalType":"address"}],"anonymous":false},{"type":"error","name":"InvalidAddress","inputs":[]},{"type":"error","name":"MatchNotFound","inputs":[{"name":"matchAddress","type":"address","internalType":"address"}]},{"type":"error","name":"OwnableInvalidOwner","inputs":[{"name":"owner","type":"address","internalType":"address"}]},{"type":"error","name":"OwnableUnauthorizedAccount","inputs":[{"name":"account","type":"address","internalType":"address"}]},{"type":"error","name":"WiringNotConfigured","inputs":[]}],"bytecode":{"object":"0x6080604090808252346101105733156100fb57505f80546001600160a01b0319808216339081178455845191936001600160a01b03938416907f8be0079c531659141344cd1fd0a4f28419497f9722a3daafe3b4186f6b6457e09080a36001600160401b03906143a3818101838111838210176100dd57829162006209833903905ff080156100f1578216836004541617600455835190614a7b9081830190838210908211176100dd5782916200178e833903905ff080156100d35716906005541617600555516116799081620001158239f35b83513d5f823e3d90fd5b634e487b7160e01b5f52604160045260245ffd5b84513d5f823e3d90fd5b631e4fbdf760e01b81525f6004820152602490fd5b5f80fdfe60806040908082526004908136101562000017575f80fd5b5f3560e01c90816311eac855146200095a575080631f47ac39146200083d5780633989b9e614620008205780633a82bc3914620007f65780634690484014620007cc5780635429caa0146200078d5780635839eb4e14620007175780635d64453914620006d1578063715018a61462000688578063856756f3146200052a5780638da5cb5b14620005015780638eb855c514620004e557806393ecc4b7146200046f578063a5e317e314620003f6578063afa71d1114620003a9578063bd09e8fa1462000369578063c17c5a4514620002c2578063c31c9c071462000298578063deee748214620001c3578063e13da35f14620001995763f2fde38b146200011d575f80fd5b346200019557602036600319011262000195576200013a6200097f565b906200014562000bba565b6001600160a01b039182169283156200017f5750505f548260018060a01b03198216175f55165f80516020620015e48339815191525f80a3005b905f6024925191631e4fbdf760e01b8352820152fd5b5f80fd5b50903462000195575f3660031901126200019557905490516001600160a01b039091168152602090f35b5034620001955760603660031901126200019557620001e16200097f565b916024356001600160a01b03818116939184900362000195576044359481861680960362000195576200021362000bba565b1691821580156200028f575b801562000286575b620002795750508260018060a01b0319828160065416176006558381600754161760075560085416176008557fe108f976e86db9692d819e24f1879a8b07011df2c6652a992bb25877a19e01915f80a4005b5163e6c4247b60e01b8152fd5b50841562000227565b5083156200021f565b823462000195575f366003190112620001955760085490516001600160a01b039091168152602090f35b823462000195575f366003190112620001955780519081600190600154938482526020809201809560015f52835f20905f5b8181106200034c57505050816200030d91038262000a92565b8351938285019183865251809252840194915f5b8281106200032f5785870386f35b83516001600160a01b031687529581019592810192840162000321565b82546001600160a01b0316845292850192918601918601620002f4565b82346200019557602036600319011262000195576020906001600160a01b03620003926200097f565b165f526003825260ff815f20541690519015158152f35b50346200019557602036600319011262000195573590600154821015620001955760015f525f80516020620016248339815191529091015490516001600160a01b03919091168152602090f35b5034620001955760203660031901126200019557620004146200097f565b906200041f62000bba565b6001600160a01b0391821692831562000279575050600580546001600160a01b031981168417909155167ffd0875c02d32d5231ee3b187069c16ec4d5676b5f346e86bb075ba10dd5155835f80a3005b5090346200019557602036600319011262000195576001600160a01b03620004966200097f565b16805f52600360205260ff825f20541615620004d057620004cc92505f52600260205260ff815f20541690519182918262000a0a565b0390f35b9051637bf8388f60e11b815291820152602490fd5b823462000195575f3660031901126200019557602090515f8152f35b823462000195575f36600319011262000195575f5490516001600160a01b039091168152602090f35b503462000195576200053c3662000996565b949290936200054a62000bba565b6200055462000be6565b6001600160a01b0385811693909290841580156200067d575b6200066d578551637ab4339d60e01b602082015291620005a99183916200059a9130916024850162000a32565b03601f19810183528262000a92565b600554855192908416906102c8808501916001600160401b038311868410176200065a575091849391620005e3936200131c863962000ab6565b03905ff0801562000650579462000632916020961694620006048662000b10565b855f5260038752845f2060ff1990600182825416179055600288526001865f20918254161790558562000c55565b825f805160206200160483398151915285845160018152a351908152f35b83513d5f823e3d90fd5b604190634e487b7160e01b5f525260245ffd5b855163e6c4247b60e01b81528390fd5b50838816156200056d565b3462000195575f3660031901126200019557620006a462000bba565b5f80546001600160a01b0319811682556001600160a01b03165f80516020620015e48339815191528280a3005b8234620001955760203660031901126200019557620004cc906001600160a01b03620006fc6200097f565b165f52600260205260ff815f20541690519182918262000a0a565b5034620001955760203660031901126200019557620007356200097f565b906200074062000bba565b6001600160a01b0391821692831562000279575080546001600160a01b031981168417909155167feb7245792eed00c9526f97ac1db9e4723b24501e4d5b7cfb20288cd8085778775f80a3005b5034620001955760203660031901126200019557359060ff821682036200019557620007bb60209262000b77565b90516001600160a01b039091168152f35b823462000195575f366003190112620001955760075490516001600160a01b039091168152602090f35b823462000195575f366003190112620001955760055490516001600160a01b039091168152602090f35b823462000195575f36600319011262000195576020905160018152f35b503462000195576200084f3662000996565b949290936200085d62000bba565b6200086762000be6565b6001600160a01b0385811693909290841580156200094f575b6200066d578551637ab4339d60e01b602082015291620008ad9183916200059a9130916024850162000a32565b8154855192908416906102c8808501916001600160401b038311868410176200065a575091849391620008e6936200131c863962000ab6565b03905ff0801562000650579462000932916020961694620009078662000b10565b855f5260038752845f2060ff199060018282541617905560028852855f209081541690558562000c55565b825f80516020620016048339815191528584515f8152a351908152f35b508388161562000880565b3462000195575f36600319011262000195576006546001600160a01b03168152602090f35b600435906001600160a01b03821682036200019557565b90606060031983011262000195576001600160401b039160043590838211620001955780602383011215620001955781600401359384116200019557602484830101116200019557602490810192916001600160a01b03913582811681036200019557916044359081168103620001955790565b91906020830192600282101562000a1e5752565b634e487b7160e01b5f52602160045260245ffd5b918060609160209396959660408652816040870152838601375f828286010152601f80199101168301019360018060a01b0316910152565b6001600160401b03811162000a7e57604052565b634e487b7160e01b5f52604160045260245ffd5b601f909101601f19168101906001600160401b0382119082101762000a7e57604052565b6001600160a01b03909116815260406020808301829052835191830182905293925f5b82811062000afb57505060609293505f838284010152601f8019910116010190565b81810186015184820160600152850162000ad9565b600154600160401b81101562000a7e57600181018060015581101562000b635760015f525f80516020620016248339815191520180546001600160a01b0319166001600160a01b03909216919091179055565b634e487b7160e01b5f52603260045260245ffd5b60ff16801562000baa5760011462000b9b5760405163e6c4247b60e01b8152600490fd5b6005546001600160a01b031690565b506004546001600160a01b031690565b5f546001600160a01b0316330362000bce57565b60405163118cdaa760e01b8152336004820152602490fd5b6006546001600160a01b039081161590811562000c2e575b811562000c20575b5062000c0e57565b604051631218f72d60e31b8152600490fd5b905060085416155f62000c06565b600754811615915062000bfe565b9081526001600160a01b03909116602082015260400190565b6006545f9390916001600160a01b039081169190823b1562000195576040948551630f5a9d0160e01b81528260049616868201525f8160248183895af180156200131157620012fb575b508160075416843b15620010945786519063e74b981b60e01b825286820152878160248183895af180156200108a57908891620012e3575b505085516331a21b6d60e21b815260209384828881895afa918215620010e3578992620012ae575b508360085416863b156200113a578962000d2e918a5180938192632f2ff15d60e01b978884528d840162000c3c565b0381838b5af180156200120e57908a9162001296575b505087516303c7d59360e51b8152858189818a5afa9081156200120e578a9162001263575b50863b156200113a5762000d8c918a918a5193849283928784528c840162000c3c565b0381838a5af18015620010e3579089916200124b575b5050865163a217fddf60e01b8082529290858189818a5afa9081156200120e578a9162001218575b50863b156200113a57898262000ded928b5193849283928884528d840162000c3c565b0381838b5af180156200120e57908a91620011f2575b50508751631d6c8e3f60e21b808252949086818a818b5afa90811562001156578b91620011bf575b50873b15620011bb578a83918a62000e4e8d5194859384938a8552840162000c3c565b0381838c5af180156200115657908b91620011a3575b5050885163e63ab1e960e01b8082529387828b818c5afa91821562001199578c9262001164575b50883b156200116057898c9162000ead868e5195869485948552840162000c3c565b0381838c5af180156200115657908b916200113e575b5050863b156200113a57885163f2fde38b60e01b81529116878201528881602481838a5af18015620010e35790899162001122575b5050865192835283838781885afa9283156200108a578893620010ed575b50843b156200109457865188818062000f3f631b2b455f60e11b9788835230908c840162000c3c565b0381838a5af18015620010e357908991620010cb575b5050865190815283818781885afa9081156200108a57889162001098575b50843b1562001094578762000f969188518093819287835230908b840162000c3c565b038183895af180156200108a579088916200106e575b5050855190815282818681875afa928315620010645787936200102e575b5050823b156200102a579184939186809462000ff497519788958694859384523091840162000c3c565b03925af19081156200102157506200100a575050565b62001016829162000a6a565b6200101e5750565b80fd5b513d84823e3d90fd5b8580fd5b9080929350813d83116200105c575b62001049818362000a92565b81010312620001955751905f8062000fca565b503d6200103d565b86513d89823e3d90fd5b620010799062000a6a565b6200108657865f62000fac565b8680fd5b87513d8a823e3d90fd5b8780fd5b90508381813d8311620010c3575b620010b2818362000a92565b810103126200019557515f62000f73565b503d620010a6565b620010d69062000a6a565b6200109457875f62000f55565b88513d8b823e3d90fd5b9092508381813d83116200111a575b62001108818362000a92565b81010312620001955751915f62000f16565b503d620010fc565b6200112d9062000a6a565b6200109457875f62000ef8565b8980fd5b620011499062000a6a565b6200113a57895f62000ec3565b8a513d8d823e3d90fd5b8b80fd5b9091508781813d831162001191575b6200117f818362000a92565b81010312620001955751905f62000e8b565b503d62001173565b8b513d8e823e3d90fd5b620011ae9062000a6a565b6200113a57895f62000e64565b8a80fd5b90508681813d8311620011ea575b620011d9818362000a92565b810103126200019557515f62000e2b565b503d620011cd565b620011fd9062000a6a565b6200120a57885f62000e03565b8880fd5b89513d8c823e3d90fd5b90508581813d831162001243575b62001232818362000a92565b810103126200019557515f62000dca565b503d62001226565b620012569062000a6a565b6200109457875f62000da2565b90508581813d83116200128e575b6200127d818362000a92565b810103126200019557515f62000d69565b503d62001271565b620012a19062000a6a565b6200120a57885f62000d44565b9091508481813d8311620012db575b620012c9818362000a92565b81010312620001955751905f62000cff565b503d620012bd565b620012ee9062000a6a565b6200108657865f62000cd7565b6200130891975062000a6a565b5f955f62000c9f565b87513d5f823e3d90fdfe60806040526102c8803803806100148161018e565b92833981019060408183031261018a5780516001600160a01b03811680820361018a5760208381015190936001600160401b03821161018a570184601f8201121561018a5780519061006d610068836101c7565b61018e565b9582875285838301011161018a5784905f5b8381106101765750505f9186010152813b1561015e577f360894a13ba1a3210667c828492db98dca3e2076cc3735a920a3ca505d382bbc80546001600160a01b03191682179055604051907fbc7cd75a20ee27fd9adebab32041f755214dbc6bffa90cc0225b39da2e5c2d3b5f80a283511561014057505f80848461012796519101845af4903d15610137573d610118610068826101c7565b9081525f81943d92013e6101e2565b505b604051608290816102468239f35b606092506101e2565b925050503461014f5750610129565b63b398979f60e01b8152600490fd5b60249060405190634c9c8ce360e01b82526004820152fd5b81810183015188820184015286920161007f565b5f80fd5b6040519190601f01601f191682016001600160401b038111838210176101b357604052565b634e487b7160e01b5f52604160045260245ffd5b6001600160401b0381116101b357601f01601f191660200190565b9061020957508051156101f757805190602001fd5b604051630a12f52160e11b8152600490fd5b8151158061023c575b61021a575090565b604051639996b31560e01b81526001600160a01b039091166004820152602490fd5b50803b1561021256fe60806040527f360894a13ba1a3210667c828492db98dca3e2076cc3735a920a3ca505d382bbc545f9081906001600160a01b0316368280378136915af43d5f803e156048573d5ff35b3d5ffdfea2646970667358221220a22b1a14257349641cb5baa7c806a4a4262760a1932e274e16232611476f482864736f6c634300081800338be0079c531659141344cd1fd0a4f28419497f9722a3daafe3b4186f6b6457e05969a2068f5fa459c1b0f8d90549ffd48273691f337cf3200090f8c4ded08d16b10e2d527612073b26eecdfd717e6a320cf44b4afac2b0732d9fcbe2b7fa0cf6a2646970667358221220091250fb0443daa4b11c2a3aab8b6b1f2b78377dec12a88eef3eff456059b50664736f6c6343000818003360a08060405234620000d157306080527ff0c57e16840df040f15088dc2f81fe391c3923bec73e23a9662efc9c229c6a009081549060ff8260401c16620000c257506001600160401b036002600160401b0319828216016200007c575b6040516149a59081620000d682396080518181816119dc0152611b500152f35b6001600160401b031990911681179091556040519081527fc7f505b2f371ae2175ee4913f4499e1f2633a7b5936321eed1cdaeb6115181d290602090a15f80806200005c565b63f92ee8a960e01b8152600490fd5b5f80fdfe60806040818152600480361015610014575f80fd5b5f3560e01c92836301ffc9a714612a0957508263023b1fc9146129695782630637e5df146128a057826309908d87146128595782630e1d6463146126ec5782630eb47110146126175782630f5a9d01146125a057826311eac855146125785782631a095c6e1461252b5782631cf65cc2146124db5782632045646d146124b4578263248a9ca31461247e57826324a9d853146124595782632f2ff15d14612431578263330b82fe1461240a57826336568abe146123c6578263379607f51461233357826337c6ef851461230c578263396f01ba146122665782633a35b9bd146122215782633ec79193146121835782633eccfc961461202c5782633f4ba83a14611fb75782633fe1f00214611f8457826340b16c1e14611eb2578263456051f114611d405782634690484014611d185782634f1ef28614611b0257826351487dc014611adb57826351858e2714611a2d57826352d1902d146119c95782635b7baf641461194e5782635c975abb1461191f5782635f779fef146118a557826362abebce146117ac5782636637e38c146104c05782636e60c97d1461168f578263715018a61461163b57826371738f8c146115b357826375b238fc1461158c57826378fab260146115655782637a3c2689146113375782637ab4339d14610eed5782638723eccf14610ec6578263873f6f9e14610e755782638ac0be8714610d1a5782638d3bf36514610c0e5782638da5cb5b14610bda57826391d1485414610b8a578263931b546614610abc5782639b05743f146109f55782639cd1443c146109a7578263a04286e0146108fb578263a217fddf146108e1578263a4b8195c14610777578263ad3cb1cc1461073b578263ae4180951461070c578263af4a52ec146106e5578263b2392cab14610680578263baa267571461063c578263bdc69bd914610615578263bef2a6a014610559578263c6886db414610532578263c743bb73146104c5578263cb1c2b5c146104c0578263d203ce701461048b578263d547741f14610445578263d55be8c614610429578263e63ab1e914610402578263e74b981b1461038457508163ec97908214610367575063f2fde38b14610338575f80fd5b3461036357602036600319011261036357610361610354612aab565b61035c6141b5565b612dd1565b005b5f80fd5b34610363575f366003190112610363576020906002549051908152f35b346103635760203660031901126103635761039d612aab565b906103a6612e2f565b6001600160a01b039182169283156103f5575050600a80546001600160a01b031981168417909155167f15d80a013f22151bc7246e3bc132e12828cde19de98870475e3fa708401527215f80a3005b51635c192c5f60e01b8152fd5b5034610363575f36600319011261036357602090515f805160206147b08339815191528152f35b5034610363575f36600319011261036357602090516101f48152f35b903461036357806003193601126103635761036191356104866001610468612ac1565b93835f525f805160206148108339815191526020525f200154612eca565b613d97565b90346103635780600319360112610363576104b96020926104aa612a8b565b906104b3612e2f565b35613027565b9051908152f35b612be2565b34610363576104d336612c83565b939091946104df612e2f565b8486036105255750505f5b8481106104f357005b8061051e6105046001938887612ccd565b35610518610513848988612ccd565b612dc3565b90613027565b50016104ea565b5163512509d360e11b8152fd5b5034610363575f36600319011261036357602090515f805160206149508339815191528152f35b5034610363575f3660031901126103635780515f91600180549061057c82612bfe565b908185526020926001811690815f146105f557506001146105b8575b5050506105aa826105b4940383612b6e565b5191829182612c57565b0390f35b91945060015f52845f20915f925b8284106105e257505050826105b4946105aa9282010194610598565b80548685018801529286019281016105c6565b60ff1916868501525050151560051b83010192506105aa826105b4610598565b5034610363575f36600319011261036357602090515f805160206148308339815191528152f35b346103635760203660031901126103635780359160025483101561066b5761036183610666612e2f565b61412b565b91602492519163113b162160e31b8352820152fd5b9034610363578060031936011261036357813561069b612ac1565b926002548210156106d057505f908152600760209081528282206001600160a01b039094168252928352819020549051908152f35b915163113b162160e31b815291820152602490fd5b5034610363575f36600319011261036357602090515f805160206149108339815191528152f35b346103635760203660031901126103635780359160025483101561066b5761036183610736612e2f565b61409f565b5034610363575f3660031901126103635780516105b49161075b82612b53565b60058252640352e302e360dc1b60208301525191829182612c57565b9034610363576060366003190112610363578135610793612ad7565b90604435926107a0612ef8565b6002548210156108ca57815f52600360205260ff815f20541660068110156108b7576001810361088c57506107d3613e16565b6009546001600160a01b031694851561087e578415610870576127108086106108565750506108439461083d9161080a8585613f66565b516323b872dd60e01b6020820152336024820152306044820152606480820187905281529061083882612b24565b614563565b33613fb5565b60015f805160206148b083398151915255005b8560449351926378e030db60e01b84528301526024820152fd5b905163150a67e960e01b8152fd5b9051639554dd1160e01b8152fd5b6108ae90606493879351936327c6314f60e11b85528401526024830190612b03565b60016044820152fd5b602186634e487b7160e01b5f525260245ffd5b5163113b162160e31b815280850191909152602490fd5b5034610363575f36600319011261036357602090515f8152f35b90346103635761090a36612c83565b929094610915612e82565b838303610999575f5b83811061092757005b610932818585612ccd565b35600254111561097857610947818585612ccd565b359061095481878a612ccd565b35916001600160401b038316830361036357600192610972916139a0565b0161091e565b610986869185602495612ccd565b3590519163113b162160e31b8352820152fd5b845163512509d360e11b8152fd5b346103635761014036600319011261036357803590610120366023190112610363576002548210156106d057506109dd906133e4565b82516001600160401b03909216825215156020820152f35b90346103635760209060206003193601126103635782356001600160401b03811161036357610a279036908501612a5b565b91610a30612e2f565b5f5b838110610a3b57005b610a46818585612ccd565b356002541115610aae57610a5b818585612ccd565b355f526003855260ff825f2054166006811015610a9b57906001809214610a9657610a90610a8a828787612ccd565b3561412b565b01610a32565b610a90565b602187634e487b7160e01b5f525260245ffd5b610986906024948794612ccd565b903461036357602036600319011261036357813590600254821015610b7657610ae3612e2f565b815f526003602052805f209283549360ff8516916006831015610b635760018303610b38575060025f80516020614790833981519152949560ff1916179055610b2e82518092612b03565b60026020820152a2005b83516327c6314f60e11b8152908101859052606490610b5a6024820185612b03565b60026044820152fd5b602190634e487b7160e01b5f525260245ffd5b5163113b162160e31b815291820152602490fd5b9034610363578060031936011261036357602091610ba6612ac1565b90355f525f805160206148108339815191528352815f209060018060a01b03165f52825260ff815f20541690519015158152f35b5034610363575f366003190112610363575f805160206147308339815191525490516001600160a01b039091168152602090f35b90346103635760209160206003193601126103635780356001600160401b03811161036357610c409036908301612a5b565b91610c49612e2f565b5f5b838110610c5457005b610c5f818585612ccd565b356002541115610d0c57610c74818585612ccd565b355f52600380875260ff865f20541660068110159182610cf9578114918215610ced575b8215610cc8575b505090600191610cc357610cbd610cb7828787612ccd565b3561409f565b01610c4b565b610cbd565b909150610cda57600514600188610c9f565b602183634e487b7160e01b5f525260245ffd5b5083811491505f610c98565b602185634e487b7160e01b5f525260245ffd5b610986919360249593612ccd565b346103635761012036600319011261036357610d34612e82565b5f906002545f905b808210610e1c575050359160ff80841680940361036357604435908082168092036103635761ffff94608435918083168093036103635760c4359681881680980361036357602435948286168096036103635760643598838a16809a036103635760a4358481168091036103635760e4359285841680940361036357610104359586168096036103635760209b7f3cb90fbd5fd1cd47c25618d481b8a60fb5b5a9afbb1b884feca76adc82218e18998680958160809c8f82978391519e01160116011689520116011601168783015284820152846060820152a151908152f35b9092835f5260038060205260ff865f2054166006811015610cf95703610e6c57610e4584613792565b15610e6257600191610e588392876139a0565b01935b0190610d3c565b5092600190610e5b565b92600190610e5b565b90346103635780600319360112610363578135610e90612ac1565b926002548210156106d05750916020925f5260088352815f209060018060a01b03165f52825260ff815f20541690519015158152f35b5034610363575f36600319011261036357602090515f805160206147108339815191528152f35b346103635781600319360112610363576001600160401b03918135838111610363573660238201121561036357610f2d9036906024818601359101612bac565b90610f36612ac1565b915f805160206149308339815191529485549360ff85851c16159282861695861580611330575b60018098149081611326575b15908161131d575b5061130d576001600160401b0319811687178955846112f2575b50845192610f9884612b53565b600a845260209769109054d2d1551090531360b21b89860152610fb9614535565b610fc1614535565b610fc9614535565b610fd284612dd1565b610fda614535565b610fe2614535565b610fea614535565b610ff2614535565b875f805160206148b08339815191525561100a614535565b611012614535565b5f80516020614890833981519152805460ff1916905561103184613b89565b5061103b84613c0d565b5061104584613c94565b508251908282116112305761105a5f54612bfe565b918a601f938481116112ad575b5050808b84821160011461124e575f91611243575b505f19600383901b1c1916908a1b175f555b855192831161123057506110a28854612bfe565b8181116111ed575b5088908211600114611176575f805160206147f0833981519152928261112c9361110e935f9161116b575b505f19600383901b1c1916908a1b1789555b600a805461ffff60a01b1916601960a31b1790558751815190928392829084908e01612c36565b810103902086516001600160a01b0390941694909391829182612c57565b0390a361113557005b835460ff60401b191690935591519182527fc7f505b2f371ae2175ee4913f4499e1f2633a7b5936321eed1cdaeb6115181d291a1005b90508701518d6110d5565b908791601f19821690835f528a5f20915f5b8c8282106111d7575050925f805160206147f0833981519152959261112c95928261110e96106111bf575b5050811b0189556110e7565b8901515f1960f88460031b161c191690558d806111b3565b838a015185558c96909401939283019201611188565b885f52895f208280850160051c8201928c8610611227575b0160051c019089905b82811061121c5750506110aa565b5f815501899061120e565b92508192611205565b604190634e487b7160e01b5f525260245ffd5b90508501518d61107c565b5f8080528d81208d94509190601f198416908f5b828210611296575050831161127e575b5050811b015f5561108e565b8701515f1960f88460031b161c191690558d80611272565b838b015185558f969094019392830192018f611262565b5f805284825f209181850160051c83019385106112e9575b0160051c01908b905b8281106112de57508c9150611067565b5f8155018b906112ce565b925081926112c5565b6001600160481b0319166001600160401b0117885588610f8b565b855163f92ee8a960e01b81528890fd5b9050158a610f71565b303b159150610f69565b5084610f5d565b3461036357606036600319011261036357803591611353612a8b565b9260ff61135e612a9b565b611366612e2f565b169260018410801561155c575b611545575f805160206147108339815191528214801561152f575b8015611519575b8015611503575b80156114ed575b80156114d7575b80156114c1575b156114ac57506113c1848261431e565b925f805160206146d083398151915260606002549586936113e185613019565b6002555f8581526003602090815290889020805460ff64ffffffffff60481b0119164260481b64ffffffffff60481b1617905587519099909188908b9061142785612b24565b8985528185019360010b9586855261ffff600160ff8689019316978884528a810194855260808101965f88528d5f52600b87525f20905181550195519463ff00000062ff00008854945160101b16945160181b16948260201b9151901b1694169065ffffffffffff19161717171790558651918252888201525f86820152a351908152f35b9151630d330d2760e01b815291820152602490fd5b505f8051602061485083398151915282146113b1565b505f8051602061487083398151915282146113aa565b505f8051602061483083398151915282146113a3565b505f80516020614910833981519152821461139c565b505f805160206147708339815191528214611395565b505f805160206148f0833981519152821461138e565b825163fef0e19760e01b8152908101849052602490fd5b50808411611373565b5034610363575f36600319011261036357602090515f805160206146b08339815191528152f35b5034610363575f36600319011261036357602090515f805160206148d08339815191528152f35b5034610363575f3660031901126103635780515f915f546115d381612bfe565b8084526020916001908181169081156105f55750600114611600575050506105aa826105b4940383612b6e565b5f808052838120939650925b82841061162857505050826105b4946105aa9282010194610598565b805486850188015292860192810161160c565b34610363575f366003190112610363576116536141b5565b5f8051602061473083398151915280546001600160a01b031981169091555f906001600160a01b03165f805160206147d08339815191528280a3005b9034610363576080366003190112610363576001600160401b03918035838111610363576116c09036908301612a5b565b929091602435858111610363576116da9036908301612a5b565b949093604435878111610363576116f49036908501612a5b565b90976064359081116103635761170d9036908601612a5b565b949095611718612e2f565b8885148015906117a2575b8015611798575b6105255750505f5b83811061173b57005b611746818585612ccd565b3590611756610513828b8b612ccd565b9161176282858d612ccd565b3560ff811681036103635761177883898b612ccd565b359061ffff8216820361036357600194611791936131f2565b5001611732565b508585141561172a565b5082851415611723565b90346103635760209060206003193601126103635782356001600160401b038111610363576117de9036908501612a5b565b6117e9939193612ef8565b6117f1613e16565b5f5b81811061180d5760015f805160206148b083398151915255005b611818818387612ccd565b3560025481101561188f57805f526003845260ff80865f205416600681101561187c57908860019493920361187557815f5260088652865f20335f528652865f20541661186f576118699033613e40565b016117f3565b50611869565b5050611869565b602189634e487b7160e01b5f525260245ffd5b8660249186519163113b162160e31b8352820152fd5b90346103635760603660031901126103635781356118c1612ac1565b6118c9612aed565b9160025481101561190957602094505f5260068452825f209060018060a01b03165f528352815f209060018060401b03165f528252805f20549051908152f35b8460249185519163113b162160e31b8352820152fd5b5034610363575f3660031901126103635760209060ff5f80516020614890833981519152541690519015158152f35b346103635760203660031901126103635780359161196a612ef8565b60025483101561066b57825f52600360205260ff815f205416906006821015610cda576005820361199f576108438433612f40565b906064936119c09251936327c6314f60e11b85528401526024830190612b03565b60056044820152fd5b9034610363575f366003190112610363577f00000000000000000000000000000000000000000000000000000000000000006001600160a01b03163003611a2057602090515f805160206147508339815191528152f35b5163703e46dd60e11b8152fd5b34610363575f366003190112610363575f805160206147b0833981519152805f525f80516020614810833981519152602052825f20335f5260205260ff835f20541615611ac0577f62e78cea01bee320cd4e420270b5ea74000d11b0c9f74754ebdbfc544b05a258602084611aa0613e16565b5f80516020614890833981519152805460ff1916600117905551338152a1005b604492519163e2517d3f60e01b835233908301526024820152fd5b5034610363575f36600319011261036357602090515f805160206147708339815191528152f35b8160031936011261036357611b15612aab565b60249283356001600160401b038111610363573660238201121561036357611b4590369086818701359101612bac565b6001600160a01b03927f00000000000000000000000000000000000000000000000000000000000000008416308114908115611cfd575b50611ced575f80526020935f805160206148108339815191528552835f20335f52855260ff845f20541615611cd25781169383516352d1902d60e01b815281818881895afa5f9181611ca3575b50611be357505050505191634c9c8ce360e01b8352820152fd5b858588928a5f8051602061475083398151915291828103611c8e5750863b15611c7a575080546001600160a01b0319168317905551907fbc7cd75a20ee27fd9adebab32041f755214dbc6bffa90cc0225b39da2e5c2d3b5f80a2845115611c625750505f83819261036195519101845af4611c5c6145dd565b9161460c565b925092505034611c6e57005b63b398979f60e01b8152fd5b9450505191634c9c8ce360e01b8352820152fd5b8351632a87526960e21b815280870191909152fd5b9091508281813d8311611ccb575b611cbb8183612b6e565b8101031261036357519089611bc9565b503d611cb1565b835163e2517d3f60e01b815233818801525f81890152604490fd5b825163703e46dd60e11b81528590fd5b9050845f805160206147508339815191525416141587611b7c565b5034610363575f36600319011261036357600a5490516001600160a01b039091168152602090f35b903461036357806003193601126103635781359060249081356001600160401b0380821161036357366023830112156103635781860135908111610363573684828401011161036357600254851015611e9c57611d9b612e2f565b845f526003602052825f20805460ff811697600689101580611e8a5760018a14159081611e7d575b81611e5a575b50611e3957508487985f80516020614690833981519152989360055f805160206147908339815191529460ff1916179055611e0682518092612b03565b60056020820152a28083519485936020855282602086015201848401375f828201840152601f01601f19168101030190a2005b85516327c6314f60e11b81529081018890526064906119c08189018b612b03565b9050611e6b5760038914158a611dc9565b60218791634e487b7160e01b5f52525ffd5b505060028914155f611dc3565b87602183634e487b7160e01b5f52525ffd5b825163113b162160e31b81528087018690528490fd5b9034610363576020366003190112610363578135611ece612cf1565b50600254811015611f6f575f526003602052805f20815190611eef82612b24565b805460ff81169360068510156108b75760a0955084845260018060401b03926020850190848460081c16825264ffffffffff94859260806001868a0194868960481c1686528660608c019960701c16895201549801978852611f538551809a612b03565b5116602088015251169085015251166060830152516080820152f35b905163113b162160e31b815291820152602490fd5b90346103635780600319360112610363578135611f9f612ad7565b926002548210156106d057506020926104b991612d6d565b9034610363575f36600319011261036357611fd0612e2f565b5f805160206148908339815191529182549060ff82161561201e577f5db9ee0a495bf2e6ff9c91a7834c1ba4fdd244a5e8aa4e537bd38aeae4b073aa602084868560ff1916905551338152a1005b8251638dfc202b60e01b8152fd5b3461036357608036600319011261036357612045612aab565b90602491823590612054612aed565b9260643594612061612ef8565b60025484101561216e57835f52600360205260ff875f205416600681101561215b57600181036121395750612094613e16565b5f80516020614950833981519152805f525f80516020614810833981519152602052875f20335f5260205260ff885f2054161561211e5750851561210f57612710908187106120f45750505061084394506120ef8383613f66565b613fb5565b87516378e030db60e01b815292830187905282015260449150fd5b50855163150a67e960e01b8152fd5b6044929188519263e2517d3f60e01b84523390840152820152fd5b87516327c6314f60e11b8152928301859052606493506108ae91830190612b03565b50634e487b7160e01b5f90815260218352fd5b865163113b162160e31b815291820184905290fd5b9034610363576020366003190112610363578135600254811015611f6f575f52600b602052805f20906003602052805f209180549254918460205260ff6001825f205493015460101c16926001840180941161220e5760a0955081519485526121f26020860160ff8316612b03565b60081c6001600160401b03169084015260608301526080820152f35b601186634e487b7160e01b5f525260245ffd5b346103635760203660031901126103635780356002548110156122525790602092915f528252805f20549051908152f35b602492519163113b162160e31b8352820152fd5b9034610363576020366003190112610363578135612282612cf1565b50600254811015611f6f5760a092505f52600b6020526080815f209160ff81516122ab81612b24565b600185549586835201549282602083018560010b815282840190828760101c1682526060850194838860181c16865261ffff988991019760201c16875283519889525160010b60208901525116908601525116606084015251166080820152f35b5034610363575f36600319011261036357602090515f805160206148708339815191528152f35b346103635760203660031901126103635780359061234f612ef8565b6002548210156106d057815f52600360205260ff835f2054169260068410156123b35781840361238b5761084383612385613e16565b33613e40565b6064936123ac9151936327c6314f60e11b8552838501526024840190612b03565b6044820152fd5b602182634e487b7160e01b5f525260245ffd5b90346103635780600319360112610363576123df612ac1565b90336001600160a01b038316036123fb57506103619135613d97565b5163334bd91960e11b81529050fd5b5034610363575f36600319011261036357602090515f805160206148f08339815191528152f35b903461036357806003193601126103635761036191356124546001610468612ac1565b613d27565b5034610363575f3660031901126103635760209061ffff600a5460a01c169051908152f35b903461036357602036600319011261036357602091355f525f8051602061481083398151915282526001815f2001549051908152f35b5034610363575f36600319011261036357602090515f805160206148508339815191528152f35b903461036357806003193601126103635781356124f6612ad7565b926002548210156106d057505f908152600560209081528282206001600160401b039094168252928352819020549051908152f35b90346103635780600319360112610363578135612546612ad7565b9160025482101561256357610361838361255e612e82565b6139a0565b5163113b162160e31b81529283015250602490fd5b5034610363575f3660031901126103635760095490516001600160a01b039091168152602090f35b34610363576020366003190112610363576125b9612aab565b6125c1612e2f565b6001600160a01b031691821561260a57600980546001600160a01b03191684179055827f9317e3e59b11620f482b4bb292374da6e5cb9e7ef23cf3f121cacca9a5428f785f80a2005b51639554dd1160e01b8152fd5b9034610363576101403660031901126103635781356001600160401b038111610363576126479036908401612a5b565b9190610120366023190112610363579161265f612e82565b5f925f915b808310612675576020858551908152f35b909193612683858385612ccd565b3560025481101561188f57805f5260038060205260ff865f205416600681101561187c57036126e2576126b5816133e4565b919091156126d757916126cc6001939284936139a0565b01945b019190612664565b5050936001906126cf565b50936001906126cf565b346103635781600319360112610363578035918260010b91828403610363576024359060ff821680920361036357612722612e2f565b60018412801561284f575b612826575060ff6060939416935f805160206146d083398151915260025494859261275784613019565b6002555f8481526003602090815290879020805460ff64ffffffffff60481b0119164260481b64ffffffffff60481b16179055865190989061279881612b24565b878a5f80516020614850833981519152988984528184019386855261ffff6001858301928884528a810194855260808101965f88528d5f52600b87525f20905181550195519463ff00000062ff00008854945160101b16945160181b16948260201b9151901b1694169065ffffffffffff19161717171790558651918252888201525f86820152a351908152f35b604490845f805160206148508339815191528551926332cc7a6b60e21b84528301526024820152fd5b5060ff841361272d565b903461036357608036600319011261036357612873612a8b565b9161287c612a9b565b6064359061ffff82168203610363576020946104b99361289a612e2f565b356131f2565b90346103635760209060206003193601126103635782356001600160401b038111610363576128d29036908501612a5b565b6128dd939193612ef8565b5f5b8181106128f95760015f805160206148b083398151915255005b612904818387612ccd565b3560025481101561188f57805f526003845260ff80865f205416600681101561187c5790600560019493920361296257815f5260088652865f20335f528652865f20541661295c576129569033612f40565b016128df565b50612956565b5050612956565b903461036357602036600319011261036357813561ffff928382169081830361036357612994612e2f565b6101f48083116129ef5750507f4791562d259a08c64fef49ff6bef502e6c8f342eb8d4c8f90da367929ab1602d93600a549261ffff60a01b9060a01b1661ffff60a01b19841617600a5583519260a01c1682526020820152a1005b60449285519263673af7c160e11b84528301526024820152fd5b903461036357602036600319011261036357359063ffffffff60e01b821680920361036357602091637965db0b60e01b8114908115612a4a575b5015158152f35b6301ffc9a760e01b14905083612a43565b9181601f84011215610363578235916001600160401b038311610363576020808501948460051b01011161036357565b602435908160010b820361036357565b6044359060ff8216820361036357565b600435906001600160a01b038216820361036357565b602435906001600160a01b038216820361036357565b602435906001600160401b038216820361036357565b604435906001600160401b038216820361036357565b906006821015612b105752565b634e487b7160e01b5f52602160045260245ffd5b60a081019081106001600160401b03821117612b3f57604052565b634e487b7160e01b5f52604160045260245ffd5b604081019081106001600160401b03821117612b3f57604052565b601f909101601f19168101906001600160401b03821190821017612b3f57604052565b6001600160401b038111612b3f57601f01601f191660200190565b929192612bb882612b91565b91612bc66040519384612b6e565b829481845281830111610363578281602093845f960137010152565b34610363575f3660031901126103635760206040516127108152f35b90600182811c92168015612c2c575b6020831014612c1857565b634e487b7160e01b5f52602260045260245ffd5b91607f1691612c0d565b5f5b838110612c475750505f910152565b8181015183820152602001612c38565b60409160208252612c778151809281602086015260208686019101612c36565b601f01601f1916010190565b6040600319820112610363576001600160401b03916004358381116103635782612caf91600401612a5b565b9390939260243591821161036357612cc991600401612a5b565b9091565b9190811015612cdd5760051b0190565b634e487b7160e01b5f52603260045260245ffd5b60405190612cfe82612b24565b5f6080838281528260208201528260408201528260608201520152565b91908201809211612d2857565b634e487b7160e01b5f52601160045260245ffd5b81810292918115918404141715612d2857565b8115612d59570490565b634e487b7160e01b5f52601260045260245ffd5b5f52600460205260405f2054908115612dbd57600560205260405f209060018060401b03165f5260205260405f20549061271091828102928184041490151715612d2857612dba91612d4f565b90565b50505f90565b358060010b81036103635790565b6001600160a01b03908116908115612e17575f8051602061473083398151915280546001600160a01b031981168417909155165f805160206147d08339815191525f80a3565b604051631e4fbdf760e01b81525f6004820152602490fd5b335f9081525f805160206146f083398151915260205260409020545f805160206148d08339815191529060ff1615612e645750565b6044906040519063e2517d3f60e01b82523360048301526024820152fd5b335f9081527f756534422b3cb82a54d88d2dca71cfb1a3297222856e6ddc952d9ca5a7fc4b8860205260409020545f805160206146b08339815191529060ff1615612e645750565b805f525f8051602061481083398151915260205260405f20335f5260205260ff60405f20541615612e645750565b5f805160206148b08339815191526002815414612f155760029055565b604051633ee5aeb560e01b8152600490fd5b9081526001600160a01b03909116602082015260400190565b9190805f5260209060088252604091825f209260018060a01b039081871694855f52835260ff815f205416612fff57835f5260078352805f20855f528352805f2054918215612fe0578285969798612fd9927f181dd8e5abfdd7ea94bff7529391d477a29bf85df13abe63fb4f97017bbc8ba0975f5260088752845f208a5f528752845f20600160ff19825416179055600954166142cf565b51908152a3565b8151632decd07b60e11b815280612ffb8a8860048401612f27565b0390fd5b516302a4851560e61b815280612ffb888660048401612f27565b5f198114612d285760010190565b9190915f80516020614710833981519152811480156131dc575b80156131c6575b80156131b0575b801561319a575b8015613184575b801561316e575b1561315657613073838261431e565b5f805160206146d083398151915260606002549261309084613019565b6002555f84815260036020526040808220805460ff64ffffffffff60481b0119164260481b64ffffffffff60481b16179055805195988996906130d282612b24565b888252602082019060010b9485825260ff848401911692838252878101868152600160808301928884528c8952600b602052878920905181550193519261ffff63ff00000062ff00008754935160101b16935160181b16938160201b905160201b1694169065ffffffffffff191617171717905581519384526020840152820152a3565b60249060405190630d330d2760e01b82526004820152fd5b505f805160206148508339815191528114613064565b505f80516020614870833981519152811461305d565b505f805160206148308339815191528114613056565b505f80516020614910833981519152811461304f565b505f805160206147708339815191528114613048565b505f805160206148f08339815191528114613041565b9193925f80516020614710833981519152831480156133b8575b80156133a2575b801561338c575b8015613376575b8015613360575b801561334a575b156133315760605f805160206146d08339815191529161324f848661431e565b906002549461325d86613019565b6002555f8681526003602052604090819020805460ff64ffffffffff60481b0119164260481b64ffffffffff60481b16179055805196998a9793919290916132a485612b24565b898552602085019160010b9586835260ff85870191169384825260ff898801911681526080870191600161ffff809516988985528d5f52600b602052885f20905181550194519363ff00000062ff00008754935160101b16935160181b169361ffff60201b905160201b1694169065ffffffffffff191617171717905581519384526020840152820152a3565b604051630d330d2760e01b815260048101849052602490fd5b505f80516020614850833981519152831461322f565b505f805160206148708339815191528314613228565b505f805160206148308339815191528314613221565b505f80516020614910833981519152831461321a565b505f805160206147708339815191528314613213565b505f805160206148f0833981519152831461320c565b91909161ffff80809416911601918211612d2857565b5f52600b60205260405f2080545f805160206147108339815191528114613766575f805160206148f0833981519152811461371d575f8051602061477083398151915281146136bf575f80516020614910833981519152811461366f575f80516020614830833981519152811461363a575f8051602061487083398151915281146134f3575f805160206148508339815191521461348357505f905f90565b60ff6134c860016134aa61ffff806134996141ed565b16906134a3614283565b1690612d1b565b93015492828460181c1680155f146134ec57508260015b1690612d4f565b9160101c16808210156134e557506001600160401b031690600190565b9160019150565b83906134c1565b505060243560ff90818116809103610363576044358281168091036103635761351b916133ce565b90606435818116809103610363576084358281168091036103635761353f916133ce565b9060a4358181168091036103635760c43582811680910361036357613563916133ce565b9060e43590808216809203610363576101043590811680910361036357613589916133ce565b91835f809161ffff8097168785168181115f146136265750505050506001905f905b808616848716818111156135fd57505050505090600292805f935b169116818111156135ea575050505060035f5b6135e35790600190565b505f905f90565b036135d9576135f890613019565b6135d9565b90919295945095929514613613575b81906135c6565b9261361e8291613019565b93905061360c565b909192939450036135ab57600191506135ab565b50506101243560ff8116809103610363576001811461366757600214613660575f905f90565b6001908190565b505f90600190565b50600160ff91015460181c166001811080156136b5575b6135e35760ff6136968192614416565b911691168082116136ac5711613660575f905f90565b50505f90600190565b5060048111613686565b5061ffff90816136cd6141ed565b16916136d7614283565b1691828103925f811282851281169083861390151617612d2857600a8402938405600a1491141715612d28576001015460010b908181136136ac5712613660575f905f90565b509061372e61ffff806134996141ed565b600a810290808204600a1490151715612d2857600180930154830b905f821261375f571161375b575f9190565b8190565b50505f9190565b50506137706141ed565b61ffff8061377c614283565b169116908082116136ac5711613660575f905f90565b5f52600b60205260405f2080545f805160206147108339815191528114613966575f805160206148f08339815191528114613955575f80516020614770833981519152811461393d575f80516020614910833981519152811461390c575f8051602061483083398151915281146138e6575f805160206148708339815191528114613851575f805160206148508339815191521461383157505f905f90565b60ff6134c860016134aa61ffff80613847614238565b16906134a36141ed565b505060043560ff908181168091036103635760243582811680910361036357613879916133ce565b90604435818116809103610363576064358281168091036103635761389d916133ce565b906084358181168091036103635760a435828116809103610363576138c1916133ce565b9060c435908082168092036103635760e43590811680910361036357613589916133ce565b50506101043560ff8116809103610363576001811461366757600214613660575f905f90565b50600160ff91015460181c16600181108015613933575b6135e35760ff61369681926144a6565b5060048111613923565b5061ffff908161394b614238565b16916136d76141ed565b509061372e61ffff80613847614238565b5050613970614238565b61ffff8061377c6141ed565b90949392606092608083019660018060401b03168352602083015260408201520152565b919091805f5260209060038252604093845f209081549060ff82166006811015612b105760038103613b5c57506139d78185613f66565b835f5260048552865f20549160058652875f2060018060401b0383165f528652875f205415613af25750612710613a1761ffff600a5460a01c1684612d3c565b0494858303838111612d2857855f805160206147908339815191528a613aae948460018a60047fdd2e3713f4f6dc5f6c91ac1cea9e1f2fb91d4f4329fa81eab52629f775228ffa9c546101008460481b038c60081b16908469ffffffffff000000000160481b0319161764ffffffffff60701b4260701b16171781550155600482519160038352820152a28689519485948561397c565b0390a280613abb57509050565b600a546001600160a01b03908116908115613ae157613adf939450600954166142cf565b565b8451635c192c5f60e01b8152600490fd5b74766f69643a206e6f2077696e6e696e67206265747360581b9250606094969791509260055f80516020614690833981519152969460ff1916179055855f8051602061479083398151915282805160038152600587820152a26015815193808552840152820152a2565b87516327c6314f60e11b815260048101869052606491613b80906024830190612b03565b60036044820152fd5b6001600160a01b03165f8181527fb7db2dd08fcb62d0c9e08c51941cae53c267786a0b75803fb7960902fc8ef97d60205260409020545f805160206148108339815191529060ff16612dbd575f805260205260405f20815f5260205260405f20600160ff1982541617905533905f5f805160206146708339815191528180a4600190565b6001600160a01b03165f8181525f805160206146f083398151915260205260409020545f805160206148d083398151915291905f805160206148108339815191529060ff16613c8d57825f5260205260405f20815f5260205260405f20600160ff1982541617905533915f805160206146708339815191525f80a4600190565b5050505f90565b6001600160a01b03165f8181527f75442b0a96088b5456bc4ed01394c96a4feec0f883c9494257d76b96ab1c9b6b60205260409020545f805160206147b083398151915291905f805160206148108339815191529060ff16613c8d57825f5260205260405f20815f5260205260405f20600160ff1982541617905533915f805160206146708339815191525f80a4600190565b90815f525f805160206148108339815191528060205260405f209160018060a01b031691825f5260205260ff60405f205416155f14613c8d57825f5260205260405f20815f5260205260405f20600160ff1982541617905533915f805160206146708339815191525f80a4600190565b90815f525f805160206148108339815191528060205260405f209160018060a01b031691825f5260205260ff60405f2054165f14613c8d57825f5260205260405f20815f5260205260405f2060ff19815416905533917ff6391f5c32d9c69d2a47ea670b442974b53935d1edc7fd64eb21e047a839171b5f80a4600190565b60ff5f805160206148908339815191525416613e2e57565b60405163d93c066560e01b8152600490fd5b90805f52602060088152604090815f209360018060a01b039182821695865f52815260ff845f205416613f4857845f5260038152835f209260018060401b03845460081c169360068352855f20885f528352855f20855f528352855f2054948515613f2d5791613ef9613f22927f7513b6be2c9a0992975f71ef42f47c8ebedee4891864b052e46cf9247374f68d98979695948a5f5260058652885f20905f528552613ef46001895f205492015488612d3c565b612d4f565b938491895f5260088552875f208b5f528552875f20600160ff19825416179055600954166142cf565b8351928352820152a3565b865163b361b5fb60e01b815280612ffb878b60048401612f27565b5082516302a4851560e61b8152908190612ffb908660048401612f27565b90815f52600b60205260ff600160405f20015460101c169060018060401b0316818111613f9257505050565b60649350604051926383b689d160e01b8452600484015260248301526044820152fd5b927fcbf470e9c24fcadd6c47cc5958895187cbc7e78e537c0ee49b499b4dd65db5979192835f5261409a602060068152604090815f209760018060a01b031697885f528152815f2060018060401b03851690815f528252825f2061401a878254612d1b565b9055875f5260078252825f20895f528252825f20614039878254612d1b565b9055875f5260058252825f20815f528252825f20614058878254612d1b565b9055875f5260048252825f2061406f878254612d1b565b9055875f5260058252825f20905f5281526004825f205491885f5252815f205491519485948561397c565b0390a3565b805f52600360205260405f2080549060ff8216916006831015612b1057600183141580614120575b6140fc5760ff19166003179055604080515f80516020614790833981519152926140f2908290612b03565b60036020820152a2565b6040516327c6314f60e11b815260048101859052606490613b806024820186612b03565b5060028314156140c7565b805f52600360205260405f2080549060ff8216916006831015612b1057821515806141aa575b6141865760ff19166001179055604080515f805160206147908339815191529261417c908290612b03565b60016020820152a2565b6040516327c6314f60e11b8152600481018590526064906108ae6024820186612b03565b506002831415614151565b5f80516020614730833981519152546001600160a01b031633036141d557565b60405163118cdaa760e01b8152336004820152602490fd5b60243560ff8116809103610363576064359060ff82168092036103635761ffff9160a43560ff81168091036103635760e4359260ff8416809403610363578492839101160116011690565b60043560ff8116809103610363576044359060ff82168092036103635761ffff9160843560ff81168091036103635760c4359260ff8416809403610363578492839101160116011690565b60443560ff8116809103610363576084359060ff82168092036103635761ffff9160c43560ff811680910361036357610104359260ff8416809403610363578492839101160116011690565b60405163a9059cbb60e01b60208201526001600160a01b03909216602483015260448083019390935291815260808101916001600160401b03831182841017612b3f57613adf92604052614563565b905f80516020614710833981519152821461440f575f805160206148f0833981519152821461440f575f80516020614770833981519152821461440f575f80516020614910833981519152821461440f575f80516020614830833981519152821461440f575f805160206148708339815191528214614408575f8051602061485083398151915282146143c457604051630d330d2760e01b815260048101839052602490fd5b908160010b6001811280156143fe575b6143e057505060ff1690565b60449250604051916332cc7a6b60e21b835260048301526024820152fd5b5060ff81136143d4565b5050600390565b5050600190565b9060ff80921660018114614489576002811461446c576003146144505760e435828116810361036357610104359283168303610363579190565b60a43582811681036103635760c4359283168303610363579190565b506064358281168103610363576084359283168303610363579190565b506024358281168103610363576044359283168303610363579190565b9060ff8092166001811461451857600281146144fb576003146144df5760c43582811681036103635760e4359283168303610363579190565b60843582811681036103635760a4359283168303610363579190565b506044358281168103610363576064359283168303610363579190565b506004358281168103610363576024359283168303610363579190565b60ff5f805160206149308339815191525460401c161561455157565b604051631afcd79f60e31b8152600490fd5b5f8061458b9260018060a01b03169360208151910182865af16145846145dd565b908361460c565b80519081151591826145b9575b50506145a15750565b60249060405190635274afe760e01b82526004820152fd5b81925090602091810103126103635760200151801590811503610363575f80614598565b3d15614607573d906145ee82612b91565b916145fc6040519384612b6e565b82523d5f602084013e565b606090565b90614633575080511561462157805190602001fd5b604051630a12f52160e11b8152600490fd5b81511580614666575b614644575090565b604051639996b31560e01b81526001600160a01b039091166004820152602490fd5b50803b1561463c56fe2f8788117e7eff1d82e926ec794901d17c78024a50270940304540a733656f0d4c4561c5b0048424071c1115e9f1e325486e21c21333d968f21097b7b72d12ad92a19c77d2ea87c7f81d50c74403cb2f401780f3ad919571121efe2bdb427eb1ea7cc971ba11025eb99fff8822470c08a1a30d81df27de1d47b40c3d91238934b16e88c42fd4e48df2dd6a2eabd6bc9aec654ec170056b470819f8892cc6431c97e9cffa40fd62a888d33fedb0550a0c24b2dab7e942dd2c90f3dc402fe1d9d09016d09d72d40fdae2fd8ceac6b6234c7706214fd39c1cd1e609a0528c199300360894a13ba1a3210667c828492db98dca3e2076cc3735a920a3ca505d382bbcd88b64b65dd27d7ee406fd2a617824a69990aac83ed75494fd137e43d8007cad3fda72f0a1439a9047288d6140aad7d37a71b660b5229783c8a637ebd0631c0b65d7a28e3265b37a6474929f336521b332c1681b933f6cb9f3376673440d862a8be0079c531659141344cd1fd0a4f28419497f9722a3daafe3b4186f6b6457e0b88a0148d0785022bedeff8dc0f55ccbb709825d7109265ebe5ca3325f191b4202dd7bc7dec4dceedda775e58dd541e08a116c6c53815c0bd028192f7b626800c21332dfdbce391fb79bb93cb3bdd389a3887e8ed803e48301c3b92f7095d3f10d35f5959cdbc5e97418758c59c699ea55293d7d32474b4ee39396eb770a549d62aa64c00e0b702d538c65ffc672e53ec0721fe8dd54c3223175a2051bd2e8f4cd5ed15c6e187e77e9aee88184c21f4f2182ab5827cb3b7e07fbedcd63f033009b779b17422d0df92223018b32b4d1fa46e071723d6817e2486d003becc55f00a49807205ce4d355092ef5a8a18f56e8913cf4a201fbe287825b095693c21775c48889a7f50eeb47325f8695e80998d47bc82fe412832d723b6bf2a0773c0622a73a6ddf2a0b1203f387e9ac295532c1f565ac9e2c5919248bcb5fa7c41bb627f0c57e16840df040f15088dc2f81fe391c3923bec73e23a9662efc9c229c6a00a903a5200a3509510da557615994ebd7dbb3d8b122c2190f01477c128da2cfcba2646970667358221220ff6877597cdf8ecbcf1021c8adc1e074f2bd9af8b9eafa1b442cac995f15765864736f6c6343000818003360a08060405234620000d157306080527ff0c57e16840df040f15088dc2f81fe391c3923bec73e23a9662efc9c229c6a009081549060ff8260401c16620000c257506001600160401b036002600160401b0319828216016200007c575b6040516142cd9081620000d6823960805181818161187f01526119d00152f35b6001600160401b031990911681179091556040519081527fc7f505b2f371ae2175ee4913f4499e1f2633a7b5936321eed1cdaeb6115181d290602090a15f80806200005c565b63f92ee8a960e01b8152600490fd5b5f80fdfe6080604081815260049182361015610015575f80fd5b5f3560e01c90816301ffc9a71461262d57508063023b1fc91461258d5780630637e5df146124c457806309908d87146124785780630f5a9d01146123ff57806310900d1d146123d857806311eac855146123b05780631a095c6e146123635780631cf65cc214612313578063248a9ca3146122dd57806324a9d853146122b85780632e71b708146122915780632f2ff15d1461226957806336568abe14612225578063379607f514612190578063396f01ba146120ea5780633a35b9bd146120a35780633ec79193146120055780633eccfc9614611eac5780633f4ba83a14611e375780633fe1f00214611e0457806340b16c1e14611d32578063456051f114611bc05780634690484014611b985780634f1ef2861461198057806351858e27146118d057806352d1902d1461186c5780635b7baf64146117ef5780635c975abb146117c05780635d5df2a7146116a85780635f779fef1461162e57806362abebce1461155e5780636637e38c146105f55780636bcaa991146115375780636e60c97d1461141a578063715018a6146113c657806371738f8c1461133e57806375b238fc14611317578063789c650f146112c957806378fab260146112a25780637ab4339d14610e585780637c0078a414610e315780638723eccf14610e0a578063873f6f9e14610db95780638d3bf36514610cad5780638da5cb5b14610c7957806391d1485414610c29578063931b546614610b5b5780639b05743f14610a94578063a04286e0146109e8578063a217fddf146109ce578063a4b8195c14610864578063ad3cb1cc14610828578063ae418095146107f7578063b2392cab14610792578063baa267571461074c578063bef2a6a014610690578063c6886db414610669578063c743bb73146105fa578063cb1c2b5c146105f5578063d203ce70146105c0578063d547741f1461057a578063d55be8c61461055e578063dd19ed0a14610537578063e570d08414610510578063e63ab1e9146104e9578063e74b981b14610469578063ec9790821461044b578063f2fde38b146104205763f55e591314610321575f80fd5b3461041c5760c036600319011261041c5781356001600160401b03811161041c5761034f903690840161267f565b919060a036602319011261041c5791610366612a96565b5f925f915b80831061037c576020858551908152f35b90919361038a8583856128e1565b3560025481101561040657805f5260038060205260ff865f20541660068110156103f357036103e9576103bc81613ab8565b919091156103de57916103d3600193928493613000565b01945b01919061036b565b5050936001906103d6565b50936001906103d6565b602189634e487b7160e01b5f525260245ffd5b8660249186519163113b162160e31b8352820152fd5b5f80fd5b3461041c57602036600319011261041c5761044961043c6126bf565b610444613cd0565b6129e5565b005b503461041c575f36600319011261041c576020906002549051908152f35b50903461041c57602036600319011261041c576104846126bf565b9061048d612a43565b6001600160a01b039182169283156104dc575050600a80546001600160a01b031981168417909155167f15d80a013f22151bc7246e3bc132e12828cde19de98870475e3fa708401527215f80a3005b51635c192c5f60e01b8152fd5b503461041c575f36600319011261041c57602090515f805160206141588339815191528152f35b503461041c575f36600319011261041c57602090515f805160206141d88339815191528152f35b503461041c575f36600319011261041c57602090515f805160206140988339815191528152f35b503461041c575f36600319011261041c57602090516101f48152f35b503461041c578060031936011261041c5761044991356105bb600161059d6126d5565b93835f525f805160206141b88339815191526020525f200154612ade565b6133f7565b503461041c578060031936011261041c576105ee6020926105df6126af565b906105e8612a43565b35612c2d565b9051908152f35b6127f6565b50903461041c5761060a36612897565b93909194610616612a43565b84860361065c5750505f5b84811061062a57005b8061065561063b60019388876128e1565b3561064f61064a8489886128e1565b6129d7565b90612c2d565b5001610621565b5163512509d360e11b8152fd5b503461041c575f36600319011261041c57602090515f805160206142788339815191528152f35b503461041c575f36600319011261041c5780515f9160018054906106b382612812565b908185526020926001811690815f1461072c57506001146106ef575b5050506106e1826106eb940383612782565b519182918261286b565b0390f35b91945060015f52845f20915f925b82841061071957505050826106eb946106e192820101946106cf565b80548685018801529286019281016106fd565b60ff1916868501525050151560051b83010192506106e1826106eb6106cf565b50903461041c57602036600319011261041c5780359160025483101561077d5761044983610778612a43565b61378b565b91602492519163113b162160e31b8352820152fd5b503461041c578060031936011261041c5781356107ad6126d5565b926002548210156107e257505f908152600760209081528282206001600160a01b039094168252928352819020549051908152f35b915163113b162160e31b815291820152602490fd5b50903461041c57602036600319011261041c5780359160025483101561077d5761044983610823612a43565b6136ff565b503461041c575f36600319011261041c5780516106eb9161084882612767565b60058252640352e302e360dc1b6020830152519182918261286b565b503461041c57606036600319011261041c5781356108806126eb565b906044359261088d612b0c565b6002548210156109b757815f52600360205260ff815f20541660068110156109a4576001810361097957506108c0613476565b6009546001600160a01b031694851561096b57841561095d576127108086106109435750506109309461092a916108f785856135c6565b516323b872dd60e01b6020820152336024820152306044820152606480820187905281529061092582612738565b613e8b565b33613615565b60015f8051602061421883398151915255005b8560449351926378e030db60e01b84528301526024820152fd5b905163150a67e960e01b8152fd5b9051639554dd1160e01b8152fd5b61099b90606493879351936327c6314f60e11b85528401526024830190612717565b60016044820152fd5b602186634e487b7160e01b5f525260245ffd5b5163113b162160e31b815280850191909152602490fd5b503461041c575f36600319011261041c57602090515f8152f35b503461041c576109f736612897565b929094610a02612a96565b838303610a86575f5b838110610a1457005b610a1f8185856128e1565b356002541115610a6557610a348185856128e1565b3590610a4181878a6128e1565b35916001600160401b038316830361041c57600192610a5f91613000565b01610a0b565b610a738691856024956128e1565b3590519163113b162160e31b8352820152fd5b845163512509d360e11b8152fd5b503461041c57602090602060031936011261041c5782356001600160401b03811161041c57610ac6903690850161267f565b91610acf612a43565b5f5b838110610ada57005b610ae58185856128e1565b356002541115610b4d57610afa8185856128e1565b355f526003855260ff825f2054166006811015610b3a57906001809214610b3557610b2f610b298287876128e1565b3561378b565b01610ad1565b610b2f565b602187634e487b7160e01b5f525260245ffd5b610a739060249487946128e1565b503461041c57602036600319011261041c57813590600254821015610c1557610b82612a43565b815f526003602052805f209283549360ff8516916006831015610c025760018303610bd7575060025f80516020614138833981519152949560ff1916179055610bcd82518092612717565b60026020820152a2005b83516327c6314f60e11b8152908101859052606490610bf96024820185612717565b60026044820152fd5b602190634e487b7160e01b5f525260245ffd5b5163113b162160e31b815291820152602490fd5b503461041c578060031936011261041c57602091610c456126d5565b90355f525f805160206141b88339815191528352815f209060018060a01b03165f52825260ff815f20541690519015158152f35b503461041c575f36600319011261041c575f805160206140588339815191525490516001600160a01b039091168152602090f35b503461041c57602091602060031936011261041c5780356001600160401b03811161041c57610cdf903690830161267f565b91610ce8612a43565b5f5b838110610cf357005b610cfe8185856128e1565b356002541115610dab57610d138185856128e1565b355f52600380875260ff865f20541660068110159182610d98578114918215610d8c575b8215610d67575b505090600191610d6257610d5c610d568287876128e1565b356136ff565b01610cea565b610d5c565b909150610d795760051460015f610d3e565b602183634e487b7160e01b5f525260245ffd5b5083811491505f610d37565b602185634e487b7160e01b5f525260245ffd5b610a739193602495936128e1565b503461041c578060031936011261041c578135610dd46126d5565b926002548210156107e25750916020925f5260088352815f209060018060a01b03165f52825260ff815f20541690519015158152f35b503461041c575f36600319011261041c57602090515f805160206140388339815191528152f35b503461041c575f36600319011261041c57602090515f805160206141188339815191528152f35b50903461041c578160031936011261041c576001600160401b0391813583811161041c573660238201121561041c57610e9a90369060248186013591016127c0565b90610ea36126d5565b915f805160206142588339815191529485549360ff85851c1615928286169586158061129b575b60018098149081611291575b159081611288575b50611278576001600160401b03198116871789558461125d575b50845192610f0584612767565b60088452602097671193d3d51090531360c21b89860152610f24613e5d565b610f2c613e5d565b610f34613e5d565b610f3d846129e5565b610f45613e5d565b610f4d613e5d565b610f55613e5d565b610f5d613e5d565b875f8051602061421883398151915255610f75613e5d565b610f7d613e5d565b5f805160206141f8833981519152805460ff19169055610f9c846131e9565b50610fa68461326d565b50610fb0846132f4565b5082519082821161119b57610fc55f54612812565b918a601f93848111611218575b5050808b8482116001146111b9575f916111ae575b505f19600383901b1c1916908a1b175f555b855192831161119b575061100d8854612812565b818111611158575b50889082116001146110e1575f80516020614198833981519152928261109793611079935f916110d6575b505f19600383901b1c1916908a1b1789555b600a805461ffff60a01b1916601960a31b1790558751815190928392829084908e0161284a565b810103902086516001600160a01b039094169490939182918261286b565b0390a36110a057005b835460ff60401b191690935591519182527fc7f505b2f371ae2175ee4913f4499e1f2633a7b5936321eed1cdaeb6115181d291a1005b90508701515f611040565b908791601f19821690835f528a5f20915f5b8c828210611142575050925f805160206141988339815191529592611097959282611079961061112a575b5050811b018955611052565b8901515f1960f88460031b161c191690555f8061111e565b838a015185558c969094019392830192016110f3565b885f52895f208280850160051c8201928c8610611192575b0160051c019089905b828110611187575050611015565b5f8155018990611179565b92508192611170565b604190634e487b7160e01b5f525260245ffd5b90508501515f610fe7565b5f8080528d81208d94509190601f198416908f5b82821061120157505083116111e9575b5050811b015f55610ff9565b8701515f1960f88460031b161c191690555f806111dd565b838b015185558f969094019392830192018f6111cd565b5f805284825f209181850160051c8301938510611254575b0160051c01908b905b82811061124957508c9150610fd2565b5f8155018b90611239565b92508192611230565b6001600160481b0319166001600160401b011788555f610ef8565b855163f92ee8a960e01b81528890fd5b9050155f610ede565b303b159150610ed6565b5084610eca565b503461041c575f36600319011261041c57602090515f80516020613fd88339815191528152f35b50903461041c5760c036600319011261041c5780359060a036602319011261041c576002548210156107e257506112ff90613ab8565b82516001600160401b03909216825215156020820152f35b503461041c575f36600319011261041c57602090515f805160206142388339815191528152f35b503461041c575f36600319011261041c5780515f915f5461135e81612812565b80845260209160019081811690811561072c575060011461138b575050506106e1826106eb940383612782565b5f808052838120939650925b8284106113b357505050826106eb946106e192820101946106cf565b8054868501880152928601928101611397565b3461041c575f36600319011261041c576113de613cd0565b5f8051602061405883398151915280546001600160a01b031981169091555f906001600160a01b03165f805160206141788339815191528280a3005b503461041c57608036600319011261041c576001600160401b0391803583811161041c5761144b903690830161267f565b92909160243585811161041c57611465903690830161267f565b94909360443587811161041c5761147f903690850161267f565b909760643590811161041c57611498903690860161267f565b9490956114a3612a43565b88851480159061152d575b8015611523575b61065c5750505f5b8381106114c657005b6114d18185856128e1565b35906114e161064a828b8b6128e1565b916114ed82858d6128e1565b3560ff8116810361041c5761150383898b6128e1565b359061ffff8216820361041c5760019461151c93612dfc565b50016114bd565b50858514156114b5565b50828514156114ae565b503461041c575f36600319011261041c57602090515f805160206140788339815191528152f35b503461041c57602090602060031936011261041c5782356001600160401b03811161041c57611590903690850161267f565b61159b939193612b0c565b6115a3613476565b5f5b8181106115bf5760015f8051602061421883398151915255005b6115ca8183876128e1565b3560025481101561040657805f526003845260ff80865f20541660068110156103f357908860019493920361162757815f5260088652865f20335f528652865f2054166116215761161b90336134a0565b016115a5565b5061161b565b505061161b565b503461041c57606036600319011261041c57813561164a6126d5565b611652612701565b9160025481101561169257602094505f5260068452825f209060018060a01b03165f528352815f209060018060401b03165f528252805f20549051908152f35b8460249185519163113b162160e31b8352820152fd5b50903461041c5760a036600319011261041c576116c3612a96565b5f906002545f905b808210611767575050359160ff831680930361041c5760243560ff811680910361041c576044359060ff821680920361041c576064359460ff861680960361041c5760843560ff811680910361041c576020967f40f502bf281d266eec07f3593bb341bc5fcb47d2833d17f4c2ca2f7988a057b89460c09487519485528985015286840152606083015260808201528460a0820152a151908152f35b9092835f5260038060205260ff865f2054166006811015610d9857036117b75761179084613815565b156117ad576001916117a3839287613000565b01935b01906116cb565b50926001906117a6565b926001906117a6565b503461041c575f36600319011261041c5760209060ff5f805160206141f8833981519152541690519015158152f35b50903461041c57602036600319011261041c5780359161180d612b0c565b60025483101561077d57825f52600360205260ff815f205416906006821015610d795760058203611842576109308433612b54565b906064936118639251936327c6314f60e11b85528401526024830190612717565b60056044820152fd5b503461041c575f36600319011261041c577f00000000000000000000000000000000000000000000000000000000000000006001600160a01b031630036118c357602090515f805160206140d88339815191528152f35b5163703e46dd60e11b8152fd5b50903461041c575f36600319011261041c575f80516020614158833981519152805f525f805160206141b8833981519152602052825f20335f5260205260ff835f20541615611965577f62e78cea01bee320cd4e420270b5ea74000d11b0c9f74754ebdbfc544b05a258602084611945613476565b5f805160206141f8833981519152805460ff1916600117905551338152a1005b604492519163e2517d3f60e01b835233908301526024820152fd5b50908160031936011261041c576119956126bf565b60249283356001600160401b03811161041c573660238201121561041c576119c5903690868187013591016127c0565b6001600160a01b03927f00000000000000000000000000000000000000000000000000000000000000008416308114908115611b7d575b50611b6d575f80526020935f805160206141b88339815191528552835f20335f52855260ff845f20541615611b525781169383516352d1902d60e01b815281818881895afa5f9181611b23575b50611a6357505050505191634c9c8ce360e01b8352820152fd5b858588928a5f805160206140d883398151915291828103611b0e5750863b15611afa575080546001600160a01b0319168317905551907fbc7cd75a20ee27fd9adebab32041f755214dbc6bffa90cc0225b39da2e5c2d3b5f80a2845115611ae25750505f83819261044995519101845af4611adc613f05565b91613f34565b925092505034611aee57005b63b398979f60e01b8152fd5b9450505191634c9c8ce360e01b8352820152fd5b8351632a87526960e21b815280870191909152fd5b9091508281813d8311611b4b575b611b3b8183612782565b8101031261041c5751905f611a49565b503d611b31565b835163e2517d3f60e01b815233818801525f81890152604490fd5b825163703e46dd60e11b81528590fd5b9050845f805160206140d8833981519152541614155f6119fc565b503461041c575f36600319011261041c57600a5490516001600160a01b039091168152602090f35b503461041c578060031936011261041c5781359060249081356001600160401b0380821161041c573660238301121561041c578186013590811161041c573684828401011161041c57600254851015611d1c57611c1b612a43565b845f526003602052825f20805460ff811697600689101580611d0a5760018a14159081611cfd575b81611cda575b50611cb957508487985f80516020613fb8833981519152989360055f805160206141388339815191529460ff1916179055611c8682518092612717565b60056020820152a28083519485936020855282602086015201848401375f828201840152601f01601f19168101030190a2005b85516327c6314f60e11b81529081018890526064906118638189018b612717565b9050611ceb5760038914155f611c49565b60218791634e487b7160e01b5f52525ffd5b505060028914155f611c43565b87602183634e487b7160e01b5f52525ffd5b825163113b162160e31b81528087018690528490fd5b503461041c57602036600319011261041c578135611d4e612905565b50600254811015611def575f526003602052805f20815190611d6f82612738565b805460ff81169360068510156109a45760a0955084845260018060401b03926020850190848460081c16825264ffffffffff94859260806001868a0194868960481c1686528660608c019960701c16895201549801978852611dd38551809a612717565b5116602088015251169085015251166060830152516080820152f35b905163113b162160e31b815291820152602490fd5b503461041c578060031936011261041c578135611e1f6126eb565b926002548210156107e257506020926105ee91612981565b503461041c575f36600319011261041c57611e50612a43565b5f805160206141f88339815191529182549060ff821615611e9e577f5db9ee0a495bf2e6ff9c91a7834c1ba4fdd244a5e8aa4e537bd38aeae4b073aa602084868560ff1916905551338152a1005b8251638dfc202b60e01b8152fd5b50903461041c57608036600319011261041c57611ec76126bf565b90602491823590611ed6612701565b9260643594611ee3612b0c565b600254841015611ff057835f52600360205260ff875f2054166006811015611fdd5760018103611fbb5750611f16613476565b5f80516020614278833981519152805f525f805160206141b8833981519152602052875f20335f5260205260ff885f20541615611fa057508515611f915761271090818710611f76575050506109309450611f7183836135c6565b613615565b87516378e030db60e01b815292830187905282015260449150fd5b50855163150a67e960e01b8152fd5b6044929188519263e2517d3f60e01b84523390840152820152fd5b87516327c6314f60e11b81529283018590526064935061099b91830190612717565b50634e487b7160e01b5f90815260218352fd5b865163113b162160e31b815291820184905290fd5b503461041c57602036600319011261041c578135600254811015611def575f52600b602052805f20906003602052805f209180549254918460205260ff6001825f205493015460101c1692600184018094116120905760a0955081519485526120746020860160ff8316612717565b60081c6001600160401b03169084015260608301526080820152f35b601186634e487b7160e01b5f525260245ffd5b50903461041c57602036600319011261041c5780356002548110156120d65790602092915f528252805f20549051908152f35b602492519163113b162160e31b8352820152fd5b503461041c57602036600319011261041c578135612106612905565b50600254811015611def5760a092505f52600b6020526080815f209160ff815161212f81612738565b600185549586835201549282602083018560010b815282840190828760101c1682526060850194838860181c16865261ffff988991019760201c16875283519889525160010b60208901525116908601525116606084015251166080820152f35b50903461041c57602036600319011261041c578035906121ae612b0c565b6002548210156107e257815f52600360205260ff835f205416926006841015612212578184036121ea57610930836121e4613476565b336134a0565b60649361220b9151936327c6314f60e11b8552838501526024840190612717565b6044820152fd5b602182634e487b7160e01b5f525260245ffd5b503461041c578060031936011261041c5761223e6126d5565b90336001600160a01b0383160361225a575061044991356133f7565b5163334bd91960e11b81529050fd5b503461041c578060031936011261041c57610449913561228c600161059d6126d5565b613387565b503461041c575f36600319011261041c57602090515f805160206140b88339815191528152f35b503461041c575f36600319011261041c5760209061ffff600a5460a01c169051908152f35b503461041c57602036600319011261041c57602091355f525f805160206141b883398151915282526001815f2001549051908152f35b503461041c578060031936011261041c57813561232e6126eb565b926002548210156107e257505f908152600560209081528282206001600160401b039094168252928352819020549051908152f35b503461041c578060031936011261041c57813561237e6126eb565b9160025482101561239b576104498383612396612a96565b613000565b5163113b162160e31b81529283015250602490fd5b503461041c575f36600319011261041c5760095490516001600160a01b039091168152602090f35b503461041c575f36600319011261041c57602090515f805160206140f88339815191528152f35b50903461041c57602036600319011261041c5761241a6126bf565b612422612a43565b6001600160a01b031691821561246b57600980546001600160a01b03191684179055827f9317e3e59b11620f482b4bb292374da6e5cb9e7ef23cf3f121cacca9a5428f785f80a2005b51639554dd1160e01b8152fd5b503461041c57608036600319011261041c576124926126af565b9160443560ff8116810361041c576064359061ffff8216820361041c576020946105ee936124be612a43565b35612dfc565b503461041c57602090602060031936011261041c5782356001600160401b03811161041c576124f6903690850161267f565b612501939193612b0c565b5f5b81811061251d5760015f8051602061421883398151915255005b6125288183876128e1565b3560025481101561040657805f526003845260ff80865f20541660068110156103f35790600560019493920361258657815f5260088652865f20335f528652865f2054166125805761257a9033612b54565b01612503565b5061257a565b505061257a565b503461041c57602036600319011261041c57813561ffff928382169081830361041c576125b8612a43565b6101f48083116126135750507f4791562d259a08c64fef49ff6bef502e6c8f342eb8d4c8f90da367929ab1602d93600a549261ffff60a01b9060a01b1661ffff60a01b19841617600a5583519260a01c1682526020820152a1005b60449285519263673af7c160e11b84528301526024820152fd5b833461041c57602036600319011261041c57359063ffffffff60e01b821680920361041c57602091637965db0b60e01b811490811561266e575b5015158152f35b6301ffc9a760e01b14905083612667565b9181601f8401121561041c578235916001600160401b03831161041c576020808501948460051b01011161041c57565b602435908160010b820361041c57565b600435906001600160a01b038216820361041c57565b602435906001600160a01b038216820361041c57565b602435906001600160401b038216820361041c57565b604435906001600160401b038216820361041c57565b9060068210156127245752565b634e487b7160e01b5f52602160045260245ffd5b60a081019081106001600160401b0382111761275357604052565b634e487b7160e01b5f52604160045260245ffd5b604081019081106001600160401b0382111761275357604052565b601f909101601f19168101906001600160401b0382119082101761275357604052565b6001600160401b03811161275357601f01601f191660200190565b9291926127cc826127a5565b916127da6040519384612782565b82948184528183011161041c578281602093845f960137010152565b3461041c575f36600319011261041c5760206040516127108152f35b90600182811c92168015612840575b602083101461282c57565b634e487b7160e01b5f52602260045260245ffd5b91607f1691612821565b5f5b83811061285b5750505f910152565b818101518382015260200161284c565b6040916020825261288b815180928160208601526020868601910161284a565b601f01601f1916010190565b604060031982011261041c576001600160401b039160043583811161041c57826128c39160040161267f565b9390939260243591821161041c576128dd9160040161267f565b9091565b91908110156128f15760051b0190565b634e487b7160e01b5f52603260045260245ffd5b6040519061291282612738565b5f6080838281528260208201528260408201528260608201520152565b9190820180921161293c57565b634e487b7160e01b5f52601160045260245ffd5b8181029291811591840414171561293c57565b811561296d570490565b634e487b7160e01b5f52601260045260245ffd5b5f52600460205260405f20549081156129d157600560205260405f209060018060401b03165f5260205260405f2054906127109182810292818404149015171561293c576129ce91612963565b90565b50505f90565b358060010b810361041c5790565b6001600160a01b03908116908115612a2b575f8051602061405883398151915280546001600160a01b031981168417909155165f805160206141788339815191525f80a3565b604051631e4fbdf760e01b81525f6004820152602490fd5b335f9081525f8051602061401883398151915260205260409020545f805160206142388339815191529060ff1615612a785750565b6044906040519063e2517d3f60e01b82523360048301526024820152fd5b335f9081527f756534422b3cb82a54d88d2dca71cfb1a3297222856e6ddc952d9ca5a7fc4b8860205260409020545f80516020613fd88339815191529060ff1615612a785750565b805f525f805160206141b883398151915260205260405f20335f5260205260ff60405f20541615612a785750565b5f805160206142188339815191526002815414612b295760029055565b604051633ee5aeb560e01b8152600490fd5b9081526001600160a01b03909116602082015260400190565b9190805f5260209060088252604091825f209260018060a01b039081871694855f52835260ff815f205416612c1357835f5260078352805f20855f528352805f2054918215612bf4578285969798612bed927f181dd8e5abfdd7ea94bff7529391d477a29bf85df13abe63fb4f97017bbc8ba0975f5260088752845f208a5f528752845f20600160ff1982541617905560095416613d08565b51908152a3565b8151632decd07b60e11b815280612c0f8a8860048401612b3b565b0390fd5b516302a4851560e61b815280612c0f888660048401612b3b565b9190915f8051602061403883398151915281148015612de6575b8015612dd0575b8015612dba575b8015612da4575b8015612d8e575b8015612d78575b15612d6057612c798382613d57565b600254905f19821461293c5760605f80516020613ff883398151915291600184016002555f84978582526003602052604090818320805464ffffffffff60481b4260481b169060ff64ffffffffff60481b011916179055815190612cdc82612738565b888252602082019060010b9485825260ff848401911692838252878101868152600160808301928884528c8952600b602052878920905181550193519261ffff63ff00000062ff00008754935160101b16935160181b16938160201b905160201b1694169065ffffffffffff191617171717905581519384526020840152820152a3565b60249060405190630d330d2760e01b82526004820152fd5b505f805160206140f88339815191528114612c6a565b505f805160206140b88339815191528114612c63565b505f805160206140788339815191528114612c5c565b505f805160206141188339815191528114612c55565b505f805160206140988339815191528114612c4e565b505f805160206141d88339815191528114612c47565b9193925f8051602061403883398151915283148015612fc6575b8015612fb0575b8015612f9a575b8015612f84575b8015612f6e575b8015612f58575b15612f3f57612e488284613d57565b60025492905f19841461293c57600184016002555f8481526003602052604090819020805460ff64ffffffffff60481b0119164260481b64ffffffffff60481b161790558051949788955f80516020613ff8833981519152956060959193929190612eb285612738565b898552602085019160010b9586835260ff85870191169384825260ff898801911681526080870191600161ffff809516988985528d5f52600b602052885f20905181550194519363ff00000062ff00008754935160101b16935160181b169361ffff60201b905160201b1694169065ffffffffffff191617171717905581519384526020840152820152a3565b604051630d330d2760e01b815260048101849052602490fd5b505f805160206140f88339815191528314612e39565b505f805160206140b88339815191528314612e32565b505f805160206140788339815191528314612e2b565b505f805160206141188339815191528314612e24565b505f805160206140988339815191528314612e1d565b505f805160206141d88339815191528314612e16565b90949392606092608083019660018060401b03168352602083015260408201520152565b919091805f5260209060038252604093845f209081549060ff8216600681101561272457600381036131bc575061303781856135c6565b835f5260048552865f20549160058652875f2060018060401b0383165f528652875f205415613152575061271061307761ffff600a5460a01c1684612950565b049485830383811161293c57855f805160206141388339815191528a61310e948460018a60047fdd2e3713f4f6dc5f6c91ac1cea9e1f2fb91d4f4329fa81eab52629f775228ffa9c546101008460481b038c60081b16908469ffffffffff000000000160481b0319161764ffffffffff60701b4260701b16171781550155600482519160038352820152a286895194859485612fdc565b0390a28061311b57509050565b600a546001600160a01b039081169081156131415761313f93945060095416613d08565b565b8451635c192c5f60e01b8152600490fd5b74766f69643a206e6f2077696e6e696e67206265747360581b9250606094969791509260055f80516020613fb8833981519152969460ff1916179055855f8051602061413883398151915282805160038152600587820152a26015815193808552840152820152a2565b87516327c6314f60e11b8152600481018690526064916131e0906024830190612717565b60036044820152fd5b6001600160a01b03165f8181527fb7db2dd08fcb62d0c9e08c51941cae53c267786a0b75803fb7960902fc8ef97d60205260409020545f805160206141b88339815191529060ff166129d1575f805260205260405f20815f5260205260405f20600160ff1982541617905533905f5f80516020613f988339815191528180a4600190565b6001600160a01b03165f8181525f8051602061401883398151915260205260409020545f8051602061423883398151915291905f805160206141b88339815191529060ff166132ed57825f5260205260405f20815f5260205260405f20600160ff1982541617905533915f80516020613f988339815191525f80a4600190565b5050505f90565b6001600160a01b03165f8181527f75442b0a96088b5456bc4ed01394c96a4feec0f883c9494257d76b96ab1c9b6b60205260409020545f8051602061415883398151915291905f805160206141b88339815191529060ff166132ed57825f5260205260405f20815f5260205260405f20600160ff1982541617905533915f80516020613f988339815191525f80a4600190565b90815f525f805160206141b88339815191528060205260405f209160018060a01b031691825f5260205260ff60405f205416155f146132ed57825f5260205260405f20815f5260205260405f20600160ff1982541617905533915f80516020613f988339815191525f80a4600190565b90815f525f805160206141b88339815191528060205260405f209160018060a01b031691825f5260205260ff60405f2054165f146132ed57825f5260205260405f20815f5260205260405f2060ff19815416905533917ff6391f5c32d9c69d2a47ea670b442974b53935d1edc7fd64eb21e047a839171b5f80a4600190565b60ff5f805160206141f8833981519152541661348e57565b60405163d93c066560e01b8152600490fd5b90805f52602060088152604090815f209360018060a01b039182821695865f52815260ff845f2054166135a857845f5260038152835f209260018060401b03845460081c169360068352855f20885f528352855f20855f528352855f205494851561358d5791613559613582927f7513b6be2c9a0992975f71ef42f47c8ebedee4891864b052e46cf9247374f68d98979695948a5f5260058652885f20905f5285526135546001895f205492015488612950565b612963565b938491895f5260088552875f208b5f528552875f20600160ff1982541617905560095416613d08565b8351928352820152a3565b865163b361b5fb60e01b815280612c0f878b60048401612b3b565b5082516302a4851560e61b8152908190612c0f908660048401612b3b565b90815f52600b60205260ff600160405f20015460101c169060018060401b03168181116135f257505050565b60649350604051926383b689d160e01b8452600484015260248301526044820152fd5b927fcbf470e9c24fcadd6c47cc5958895187cbc7e78e537c0ee49b499b4dd65db5979192835f526136fa602060068152604090815f209760018060a01b031697885f528152815f2060018060401b03851690815f528252825f2061367a87825461292f565b9055875f5260078252825f20895f528252825f2061369987825461292f565b9055875f5260058252825f20815f528252825f206136b887825461292f565b9055875f5260048252825f206136cf87825461292f565b9055875f5260058252825f20905f5281526004825f205491885f5252815f2054915194859485612fdc565b0390a3565b805f52600360205260405f2080549060ff821691600683101561272457600183141580613780575b61375c5760ff19166003179055604080515f8051602061413883398151915292613752908290612717565b60036020820152a2565b6040516327c6314f60e11b8152600481018590526064906131e06024820186612717565b506002831415613727565b805f52600360205260405f2080549060ff8216916006831015612724578215158061380a575b6137e65760ff19166001179055604080515f80516020614138833981519152926137dc908290612717565b60016020820152a2565b6040516327c6314f60e11b81526004810185905260649061099b6024820186612717565b5060028314156137b1565b5f52600b60205260405f2080545f805160206140388339815191528114613a85575f805160206141d88339815191528114613a26575f8051602061409883398151915281146139e4575f8051602061411883398151915281146139a1575f805160206140788339815191528114613927575f805160206140b88339815191528114613904575f805160206140f8833981519152146138b457505f905f90565b60043560ff811680910361041c5760243560ff811680910361041c576138de60019160ff9361292f565b92015460101c16808210156138fd57506001600160401b031690600190565b9160019150565b505060843560ff811680910361041c5780156139205790600190565b505f905f90565b505060043560ff811680820361041c5760091015613999575060ff60095b1660243560ff811680820361041c576009101561399357506009905b600a810290808204600a149015171561293c576001600160401b039161398c9160ff9091169061292f565b1690600190565b90613961565b60ff90613945565b505060443560ff811680910361041c576064359060ff821680920361041c578181116139db57146139d457600290600190565b6001908190565b50505f90600190565b505060043560ff811680910361041c57151580613a10575b15613a0a5760015b90600190565b5f613a04565b5060243560ff811680910361041c5715156139fc565b509060043560ff811680910361041c5760243560ff811680910361041c57613a4d9161292f565b600a810290808204600a149015171561293c57600180930154830b905f8212613a7e5711613a7a575f9190565b8190565b50505f9190565b505060043560ff811680910361041c576024359060ff821680920361041c578181116139db57146139d457600290600190565b5f52600b60205260405f2080545f805160206140388339815191528114613c9d575f805160206141d88339815191528114613c76575f805160206140988339815191528114613c3c575f805160206141188339815191528114613c09575f805160206140788339815191528114613b9d575f805160206140b88339815191528114613b81575f805160206140f883398151915214613b5757505f905f90565b60243560ff811680910361041c5760443560ff811680910361041c576138de60019160ff9361292f565b505060a43560ff811680910361041c5780156139205790600190565b505060243560ff811680820361041c5760091015613c01575060ff60095b1660443560ff811680820361041c57600910156139935750600990600a810290808204600a149015171561293c576001600160401b039161398c9160ff9091169061292f565b60ff90613bbb565b505060643560ff811680910361041c576084359060ff821680920361041c578181116139db57146139d457600290600190565b505060243560ff811680910361041c57151580613c605715613a0a57600190600190565b5060443560ff811680910361041c5715156139fc565b509060243560ff811680910361041c5760443560ff811680910361041c57613a4d9161292f565b505060243560ff811680910361041c576044359060ff821680920361041c578181116139db57146139d457600290600190565b5f80516020614058833981519152546001600160a01b03163303613cf057565b60405163118cdaa760e01b8152336004820152602490fd5b60405163a9059cbb60e01b60208201526001600160a01b03909216602483015260448083019390935291815260808101916001600160401b038311828410176127535761313f92604052613e8b565b905f805160206140388339815191528214613e4f575f805160206141d88339815191528214613e56575f805160206140988339815191528214613e56575f805160206141188339815191528214613e4f575f805160206140788339815191528214613e48575f805160206140b88339815191528214613e41575f805160206140f88339815191528214613dfd57604051630d330d2760e01b815260048101839052602490fd5b908160010b600181128015613e37575b613e1957505060ff1690565b60449250604051916332cc7a6b60e21b835260048301526024820152fd5b5060ff8113613e0d565b505060ff90565b5050606390565b5050600290565b5050600190565b60ff5f805160206142588339815191525460401c1615613e7957565b604051631afcd79f60e31b8152600490fd5b5f80613eb39260018060a01b03169360208151910182865af1613eac613f05565b9083613f34565b8051908115159182613ee1575b5050613ec95750565b60249060405190635274afe760e01b82526004820152fd5b819250906020918101031261041c576020015180159081150361041c575f80613ec0565b3d15613f2f573d90613f16826127a5565b91613f246040519384612782565b82523d5f602084013e565b606090565b90613f5b5750805115613f4957805190602001fd5b604051630a12f52160e11b8152600490fd5b81511580613f8e575b613f6c575090565b604051639996b31560e01b81526001600160a01b039091166004820152602490fd5b50803b15613f6456fe2f8788117e7eff1d82e926ec794901d17c78024a50270940304540a733656f0d4c4561c5b0048424071c1115e9f1e325486e21c21333d968f21097b7b72d12ad92a19c77d2ea87c7f81d50c74403cb2f401780f3ad919571121efe2bdb427eb1ea7cc971ba11025eb99fff8822470c08a1a30d81df27de1d47b40c3d91238934b16e88c42fd4e48df2dd6a2eabd6bc9aec654ec170056b470819f8892cc6431c97e9cffa40fd62a888d33fedb0550a0c24b2dab7e942dd2c90f3dc402fe1d9d09016d09d72d40fdae2fd8ceac6b6234c7706214fd39c1cd1e609a0528c1993005a07719d8a8f4c48bdefa2dac63aa1381b7ddfabbbcde55ac2fce423272e4ade538ae17682fc5f9b07ae2625134d6d3c26763eb7064ea668cc95acc79d2f66934386abfac67735e8200942a182a9289c4525de8436be890c45f3baa48cfc744a360894a13ba1a3210667c828492db98dca3e2076cc3735a920a3ca505d382bbc5f2d9c6c5d154e8ecfe88cf92a25c5d5bd0d2409279118c7aeb6d5450928b3abdd5dc5e3118ac9f6534abbb8fc3fdcbf37cbac4179d8c4f61f8246428bdc20513fda72f0a1439a9047288d6140aad7d37a71b660b5229783c8a637ebd0631c0b65d7a28e3265b37a6474929f336521b332c1681b933f6cb9f3376673440d862a8be0079c531659141344cd1fd0a4f28419497f9722a3daafe3b4186f6b6457e0b88a0148d0785022bedeff8dc0f55ccbb709825d7109265ebe5ca3325f191b4202dd7bc7dec4dceedda775e58dd541e08a116c6c53815c0bd028192f7b62680002cbb70a5b530cc7252a3b919b89cec2559cd41fd531c11606411ffbac8f3ffccd5ed15c6e187e77e9aee88184c21f4f2182ab5827cb3b7e07fbedcd63f033009b779b17422d0df92223018b32b4d1fa46e071723d6817e2486d003becc55f00a49807205ce4d355092ef5a8a18f56e8913cf4a201fbe287825b095693c21775f0c57e16840df040f15088dc2f81fe391c3923bec73e23a9662efc9c229c6a00a903a5200a3509510da557615994ebd7dbb3d8b122c2190f01477c128da2cfcba264697066735822122057d1a30204e769933c29edb5652a413fffb1e303fb1c02fad167200f7097d7c464736f6c63430008180033","linkReferences":{}},"methodIdentifiers":{"BASKETBALL()":"3989b9e6","FOOTBALL()":"8eb855c5","allMatches(uint256)":"afa71d11","basketballImplementation()":"3a82bc39","createBasketballMatch(string,address,address)":"856756f3","createFootballMatch(string,address,address)":"1f47ac39","feeRecipient()":"46904840","footballImplementation()":"e13da35f","getAllMatches()":"c17c5a45","getSportType(address)":"93ecc4b7","implementations(uint8)":"5429caa0","isMatch(address)":"bd09e8fa","matchSportType(address)":"5d644539","owner()":"8da5cb5b","renounceOwnership()":"715018a6","setBasketballImplementation(address)":"a5e317e3","setFootballImplementation(address)":"5839eb4e","setWiring(address,address,address)":"deee7482","swapRouter()":"c31c9c07","transferOwnership(address)":"f2fde38b","usdcToken()":"11eac855"},"id":58}