{"abi":[{"type":"constructor","inputs":[{"name":"initialOwner","type":"address","internalType":"address"},{"name":"treasury_","type":"address","internalType":"address"},{"name":"defaultPlatformFeeBps_","type":"uint16","internalType":"uint16"},{"name":"kayenRouter_","type":"address","internalType":"address"},{"name":"usdc_","type":"address","internalType":"address"}],"stateMutability":"nonpayable"},{"type":"function","name":"defaultPlatformFeeBps","inputs":[],"outputs":[{"name":"","type":"uint16","internalType":"uint16"}],"stateMutability":"view"},{"type":"function","name":"deployWalletFor","inputs":[{"name":"streamer","type":"address","internalType":"address"}],"outputs":[{"name":"wallet","type":"address","internalType":"address"}],"stateMutability":"nonpayable"},{"type":"function","name":"donateToStream","inputs":[{"name":"streamer","type":"address","internalType":"address"},{"name":"message","type":"string","internalType":"string"},{"name":"amount","type":"uint256","internalType":"uint256"},{"name":"amountOutMin","type":"uint256","internalType":"uint256"},{"name":"deadline","type":"uint256","internalType":"uint256"},{"name":"token","type":"address","internalType":"address"}],"outputs":[{"name":"wallet","type":"address","internalType":"address"}],"stateMutability":"nonpayable"},{"type":"function","name":"getOrCreateWallet","inputs":[{"name":"streamer","type":"address","internalType":"address"}],"outputs":[{"name":"wallet","type":"address","internalType":"address"}],"stateMutability":"nonpayable"},{"type":"function","name":"getWallet","inputs":[{"name":"streamer","type":"address","internalType":"address"}],"outputs":[{"name":"","type":"address","internalType":"address"}],"stateMutability":"view"},{"type":"function","name":"hasWallet","inputs":[{"name":"streamer","type":"address","internalType":"address"}],"outputs":[{"name":"","type":"bool","internalType":"bool"}],"stateMutability":"view"},{"type":"function","name":"implementation","inputs":[],"outputs":[{"name":"","type":"address","internalType":"address"}],"stateMutability":"view"},{"type":"function","name":"kayenRouter","inputs":[],"outputs":[{"name":"","type":"address","internalType":"address"}],"stateMutability":"view"},{"type":"function","name":"owner","inputs":[],"outputs":[{"name":"","type":"address","internalType":"address"}],"stateMutability":"view"},{"type":"function","name":"renounceOwnership","inputs":[],"outputs":[],"stateMutability":"nonpayable"},{"type":"function","name":"setImplementation","inputs":[{"name":"newImplementation","type":"address","internalType":"address"}],"outputs":[],"stateMutability":"nonpayable"},{"type":"function","name":"setKayenRouter","inputs":[{"name":"newRouter","type":"address","internalType":"address"}],"outputs":[],"stateMutability":"nonpayable"},{"type":"function","name":"setPlatformFee","inputs":[{"name":"newFeeBps","type":"uint16","internalType":"uint16"}],"outputs":[],"stateMutability":"nonpayable"},{"type":"function","name":"setSwapRouter","inputs":[{"name":"_swapRouter","type":"address","internalType":"address"}],"outputs":[],"stateMutability":"nonpayable"},{"type":"function","name":"setTreasury","inputs":[{"name":"newTreasury","type":"address","internalType":"address"}],"outputs":[],"stateMutability":"nonpayable"},{"type":"function","name":"setUsdc","inputs":[{"name":"newUsdc","type":"address","internalType":"address"}],"outputs":[],"stateMutability":"nonpayable"},{"type":"function","name":"streamWalletImplementation","inputs":[],"outputs":[{"name":"","type":"address","internalType":"address"}],"stateMutability":"view"},{"type":"function","name":"streamerWallets","inputs":[{"name":"","type":"address","internalType":"address"}],"outputs":[{"name":"","type":"address","internalType":"address"}],"stateMutability":"view"},{"type":"function","name":"subscribeToStream","inputs":[{"name":"streamer","type":"address","internalType":"address"},{"name":"duration","type":"uint256","internalType":"uint256"},{"name":"amount","type":"uint256","internalType":"uint256"},{"name":"amountOutMin","type":"uint256","internalType":"uint256"},{"name":"deadline","type":"uint256","internalType":"uint256"},{"name":"token","type":"address","internalType":"address"}],"outputs":[{"name":"wallet","type":"address","internalType":"address"}],"stateMutability":"nonpayable"},{"type":"function","name":"swapRouter","inputs":[],"outputs":[{"name":"","type":"address","internalType":"address"}],"stateMutability":"view"},{"type":"function","name":"transferOwnership","inputs":[{"name":"newOwner","type":"address","internalType":"address"}],"outputs":[],"stateMutability":"nonpayable"},{"type":"function","name":"treasury","inputs":[],"outputs":[{"name":"","type":"address","internalType":"address"}],"stateMutability":"view"},{"type":"function","name":"upgradeWallet","inputs":[{"name":"streamer","type":"address","internalType":"address"},{"name":"newImplementation","type":"address","internalType":"address"}],"outputs":[],"stateMutability":"nonpayable"},{"type":"function","name":"usdc","inputs":[],"outputs":[{"name":"","type":"address","internalType":"address"}],"stateMutability":"view"},{"type":"event","name":"DonationProcessed","inputs":[{"name":"streamer","type":"address","indexed":true,"internalType":"address"},{"name":"donor","type":"address","indexed":true,"internalType":"address"},{"name":"amount","type":"uint256","indexed":false,"internalType":"uint256"},{"name":"message","type":"string","indexed":false,"internalType":"string"}],"anonymous":false},{"type":"event","name":"ImplementationUpdated","inputs":[{"name":"oldImplementation","type":"address","indexed":true,"internalType":"address"},{"name":"newImplementation","type":"address","indexed":true,"internalType":"address"}],"anonymous":false},{"type":"event","name":"KayenRouterUpdated","inputs":[{"name":"oldRouter","type":"address","indexed":true,"internalType":"address"},{"name":"newRouter","type":"address","indexed":true,"internalType":"address"}],"anonymous":false},{"type":"event","name":"OwnershipTransferred","inputs":[{"name":"previousOwner","type":"address","indexed":true,"internalType":"address"},{"name":"newOwner","type":"address","indexed":true,"internalType":"address"}],"anonymous":false},{"type":"event","name":"PlatformFeeUpdated","inputs":[{"name":"oldFeeBps","type":"uint16","indexed":false,"internalType":"uint16"},{"name":"newFeeBps","type":"uint16","indexed":false,"internalType":"uint16"}],"anonymous":false},{"type":"event","name":"StreamWalletCreated","inputs":[{"name":"streamer","type":"address","indexed":true,"internalType":"address"},{"name":"wallet","type":"address","indexed":true,"internalType":"address"}],"anonymous":false},{"type":"event","name":"SubscriptionProcessed","inputs":[{"name":"streamer","type":"address","indexed":true,"internalType":"address"},{"name":"subscriber","type":"address","indexed":true,"internalType":"address"},{"name":"amount","type":"uint256","indexed":false,"internalType":"uint256"}],"anonymous":false},{"type":"event","name":"SwapRouterUpdated","inputs":[{"name":"oldRouter","type":"address","indexed":true,"internalType":"address"},{"name":"newRouter","type":"address","indexed":true,"internalType":"address"}],"anonymous":false},{"type":"event","name":"TreasuryUpdated","inputs":[{"name":"oldTreasury","type":"address","indexed":true,"internalType":"address"},{"name":"newTreasury","type":"address","indexed":true,"internalType":"address"}],"anonymous":false},{"type":"event","name":"UsdcUpdated","inputs":[{"name":"oldUsdc","type":"address","indexed":true,"internalType":"address"},{"name":"newUsdc","type":"address","indexed":true,"internalType":"address"}],"anonymous":false},{"type":"event","name":"WalletUpgraded","inputs":[{"name":"streamer","type":"address","indexed":true,"internalType":"address"},{"name":"wallet","type":"address","indexed":true,"internalType":"address"},{"name":"newImplementation","type":"address","indexed":true,"internalType":"address"}],"anonymous":false},{"type":"error","name":"AddressEmptyCode","inputs":[{"name":"target","type":"address","internalType":"address"}]},{"type":"error","name":"AddressInsufficientBalance","inputs":[{"name":"account","type":"address","internalType":"address"}]},{"type":"error","name":"FailedInnerCall","inputs":[]},{"type":"error","name":"InvalidAddress","inputs":[]},{"type":"error","name":"InvalidAmount","inputs":[]},{"type":"error","name":"InvalidDuration","inputs":[]},{"type":"error","name":"InvalidFeeBps","inputs":[]},{"type":"error","name":"OwnableInvalidOwner","inputs":[{"name":"owner","type":"address","internalType":"address"}]},{"type":"error","name":"OwnableUnauthorizedAccount","inputs":[{"name":"account","type":"address","internalType":"address"}]},{"type":"error","name":"ReentrancyGuardReentrantCall","inputs":[]},{"type":"error","name":"SafeERC20FailedOperation","inputs":[{"name":"token","type":"address","internalType":"address"}]},{"type":"error","name":"Unauthorized","inputs":[]},{"type":"error","name":"WalletAlreadyExists","inputs":[]}],"bytecode":{"object":"0x608034620001c857601f6200344c38819003918201601f1916830192916001600160401b0391828511848610176200017d578160a09285926040978852833981010312620001c8576200005282620001cc565b906200006160208401620001cc565b848401519361ffff851694858103620001c8576200009060806200008860608501620001cc565b9301620001cc565b60015f556001600160a01b03958616969094908715620001b157866001549560018060a01b031999808b891617600155828c5198167f8be0079c531659141344cd1fd0a4f28419497f9722a3daafe3b4186f6b6457e05f80a316948515620001a25750612710106200019157875190611cfa90818301908111838210176200017d57829162001752833903905ff09283156200017357858094168760025416176002556004549161ffff60a01b9060a01b169160018060b01b03191617176004551683600554161760055516906006541617600655516115709081620001e28239f35b87513d5f823e3d90fd5b634e487b7160e01b5f52604160045260245ffd5b8751638bff87cf60e01b8152600490fd5b63e6c4247b60e01b8152600490fd5b8851631e4fbdf760e01b81525f6004820152602490fd5b5f80fd5b51906001600160a01b0382168203620001c85756fe6080604081815260048036101562000015575f80fd5b5f925f3560e01c90816304d0a6471462000cb7575080630755b4fe1462000bec578063318275261462000b735780633e413bee1462000b49578063412736571462000ad05780635c60da1b146200074f5780635cbc742c1462000a3957806361d027b31462000a0f5780636688ad21146200086c578063715018a6146200081f5780637f7dd14f14620007e257806380dc8b0614620007a35780638da5cb5b14620007795780639243a6f6146200074f57806397efc7a914620006b45780639a5c049b146200068a578063bbbb06e21462000485578063c31c9c07146200045b578063cb14687914620003e2578063d4bfea4814620002ea578063d784d4261462000270578063ed3b7e9f1462000246578063f0f4426014620001c25763f2fde38b1462000141575f80fd5b34620001be576020366003190112620001be576200015e62000cf2565b906200016962000f4c565b6001600160a01b03918216928315620001a8575050600180546001600160a01b031981168417909155165f805160206200151b8339815191525f80a380f35b51631e4fbdf760e01b8152908101849052602490fd5b8280fd5b5034620001be576020366003190112620001be57620001e062000cf2565b90620001eb62000f4c565b6001600160a01b0391821692831562000239575080546001600160a01b031981168417909155167f4ab5be82436d353e61ca18726e984e561f5c1cc7c6d38b29d2553c790434705a8380a380f35b5163e6c4247b60e01b8152fd5b5091346200026d57806003193601126200026d575061ffff6020925460a01c169051908152f35b80fd5b5034620001be576020366003190112620001be576200028e62000cf2565b906200029962000f4c565b6001600160a01b0391821692831562000239575050600280546001600160a01b031981168417909155167faa3f731066a578e5f39b4215468d826cdd15373cbc0dfc9cb9bdc649718ef7da8380a380f35b509034620003cf5780600319360112620003cf576200030862000cf2565b6001600160a01b0360243581811694919290859003620003cf576200032c62000f4c565b8415620003d357821691825f526003602052835f2054169283156200023957833b15620003cf578481519263278f794360e11b84528301528060248301525f60448301525f8260648183885af1908115620003c65750620003b0575b507ff3738823da0fc2d0731250bede80e83b2ce8738e77e28f2b6af7fc70a2a202a98480a480f35b620003bd91945062000d20565b5f925f62000388565b513d5f823e3d90fd5b5f80fd5b50825163e6c4247b60e01b8152fd5b5034620003cf576020366003190112620003cf576200040062000cf2565b906200040b62000f4c565b6001600160a01b0391821692831562000239575050600680546001600160a01b031981168417909155167f88f3565164466b732797d579f72c7f3243455d0421f6f71c4d1f191677b2c8635f80a3005b8234620003cf575f366003190112620003cf5760075490516001600160a01b039091168152602090f35b5034620003cf5760c0366003190112620003cf57620004a362000cf2565b60243592906001600160401b0390818511620003cf5736602386011215620003cf5784840135918211620003cf5760248501946024833692010111620003cf57604435620004f062000d09565b91620004fb62000f79565b81156200067a576001600160a01b038181169384156200066a57908087921692620005298530338762000f9b565b855f52600360205281835f20541690811562000639575b506200054e85828662000ff8565b1696815180938192636947b1bd60e11b8352339083015285602483015260c060448301526200058260c48301898d62000d9f565b906064356064840152608435608484015260a483015203815f8a5af180156200062f5791602097917f74febba09115f780e89cf26f71e994b715949fa78ec453b302dffe27a0a79e2793620005fc575b50620005ef86519283928352878a84015233968884019162000d9f565b0390a360015f5551908152f35b6200062090873d891162000627575b62000617818362000d64565b81019062000d88565b50620005d2565b503d6200060b565b85513d5f823e3d90fd5b62000645915062000dbf565b5f868152600360205283902080546001600160a01b0319168284161790558a62000540565b865163e6c4247b60e01b81528890fd5b845163162908e360e11b81528690fd5b8234620003cf575f366003190112620003cf5760055490516001600160a01b039091168152602090f35b5034620003cf576020366003190112620003cf57620006d262000cf2565b91620006dd62000f4c565b6001600160a01b038381169283156200074157835f52600360205281835f2054166200073357506200071160209462000dbf565b925f5260038452815f209216918260018060a01b031982541617905551908152f35b8251630f721df160e31b8152fd5b825163e6c4247b60e01b8152fd5b8234620003cf575f366003190112620003cf5760025490516001600160a01b039091168152602090f35b8234620003cf575f366003190112620003cf5760015490516001600160a01b039091168152602090f35b8234620003cf576020366003190112620003cf576020906001600160a01b0380620007cd62000cf2565b165f5260038352815f20541615159051908152f35b8234620003cf576020366003190112620003cf576020906001600160a01b03806200080c62000cf2565b165f5260038352815f2054169051908152f35b34620003cf575f366003190112620003cf576200083b62000f4c565b600180546001600160a01b031981169091555f906001600160a01b03165f805160206200151b8339815191528280a3005b509034620003cf5760c0366003190112620003cf576200088b62000cf2565b9060243591604435906200089e62000d09565b90620008a962000f79565b8215620009ff578415620009ef576001600160a01b03818116928315620009df57811691620008db8530338662000f9b565b835f52600360205281865f205416908115620009ae575b506200090085828562000ff8565b1694845196637e93a31960e01b8852339088015283602488015260448701526064356064870152608435608487015260a4860152828560c4815f885af1948515620009a45760209562000983575b5082519182527fd7d5d2bba6a68fa7b02cce573bd8591ab4098307ff7086b9029c4efd51acc917853393a360015f5551908152f35b6200099d90843d8611620006275762000617818362000d64565b506200094e565b83513d5f823e3d90fd5b620009ba915062000dbf565b5f848152600360205286902080546001600160a01b03191682841617905588620008f2565b855163e6c4247b60e01b81528890fd5b8351637616640160e01b81528690fd5b835163162908e360e11b81528690fd5b509034620003cf575f366003190112620003cf57905490516001600160a01b039091168152602090f35b509034620003cf576020366003190112620003cf57813561ffff80821690818303620003cf5762000a6962000f4c565b612710821162000ac057847f84e4fe32bf74c4011a7e1fde79c63acdffaf92a0112cde153e7b0abee665bc6b95549361ffff60a01b9060a01b1661ffff60a01b19851617905583519260a01c1682526020820152a1005b50505051638bff87cf60e01b8152fd5b5034620003cf576020366003190112620003cf5762000aee62000cf2565b9062000af962000f4c565b6001600160a01b0391821692831562000239575050600780546001600160a01b031981168417909155167fca394f95d8dbf1e8b2e76b9a8da90cacce1da85181a65508dab13212dc1df53b5f80a3005b8234620003cf575f366003190112620003cf5760065490516001600160a01b039091168152602090f35b5034620003cf576020366003190112620003cf5762000b9162000cf2565b9062000b9c62000f4c565b6001600160a01b0391821692831562000239575050600580546001600160a01b031981168417909155167fa276657a9cc608e5670086e3751ba8819f9d7872c23a077fa21abd13b21dc3875f80a3005b509034620003cf576020366003190112620003cf5762000c0b62000cf2565b60015490916001600160a01b039182163314158062000ca8575b62000c9a57818316801562000c8a5760209450805f526003855282825f20541693841562000c57575b50505191168152f35b62000c6491945062000dbf565b5f938452600385529281902080546001600160a01b031916838516179055848062000c4e565b815163e6c4247b60e01b81528590fd5b516282b42960e81b81528390fd5b50816007541633141562000c25565b839034620003cf576020366003190112620003cf576020916001600160a01b03908162000ce362000cf2565b165f52600384525f2054168152f35b600435906001600160a01b0382168203620003cf57565b60a435906001600160a01b0382168203620003cf57565b6001600160401b03811162000d3457604052565b634e487b7160e01b5f52604160045260245ffd5b608081019081106001600160401b0382111762000d3457604052565b601f909101601f19168101906001600160401b0382119082101762000d3457604052565b9190826040910312620003cf576020825192015190565b908060209392818452848401375f828201840152601f01601f1916010190565b600454600554600654604080516314b8da2160e31b6020808301919091526001600160a01b0396871660248301819052878716604484015260a09690961c61ffff166064830152938616608482015291851660a48084019190915282529492915f9160e08101916001600160401b03908184118385101762000d345783895287600254166102c8928385019360e08501918783109083111762000d34576200123387395288610100830152825190816101208401525f5b82811062000f3657505090815f6101406060959484010152601f8019910116010301905ff080156200062f57841693600754168062000ecb575b50839450805f80516020620014fb83398151915291949394a3565b843b15620003cf57855190634127365760e01b825260048201525f8160248183895af1801562000f2c5785965094939462000f0a575b93929362000eb0565b62000f16915062000d20565b5f5f80516020620014fb83398151915262000f01565b86513d5f823e3d90fd5b8481018201518482016101400152810162000e76565b6001546001600160a01b0316330362000f6157565b60405163118cdaa760e01b8152336004820152602490fd5b60025f541462000f895760025f55565b604051633ee5aeb560e01b8152600490fd5b6040516323b872dd60e01b60208201526001600160a01b03928316602482015292909116604483015260648083019390935291815260a08101918183106001600160401b0384111762000d345762000ff6926040526200110e565b565b60405163095ea7b360e01b602082018181526001600160a01b0394851660248401819052604480850197909752958352909491935f9081906200103b8762000d48565b85169286519082855af1906200105062001188565b82620010bd575b5081620010b1575b50156200106d575b50505050565b620010a793620010a19160405191602083015260248201525f6044820152604481526200109a8162000d48565b826200110e565b6200110e565b5f80808062001067565b90503b15155f6200105f565b80519192508115918215620010d7575b5050905f62001057565b620010ec9250602080918301019101620010f4565b5f80620010cd565b90816020910312620003cf57518015158103620003cf5790565b5f806200113a9260018060a01b03169360208151910182865af16200113262001188565b9083620011ca565b80519081151591826200116a575b5050620011525750565b60249060405190635274afe760e01b82526004820152fd5b6200117f9250602080918301019101620010f4565b155f8062001148565b3d15620011c5573d906001600160401b03821162000d345760405191620011ba601f8201601f19166020018462000d64565b82523d5f602084013e565b606090565b90620011f35750805115620011e157805190602001fd5b604051630a12f52160e11b8152600490fd5b8151158062001228575b62001206575090565b604051639996b31560e01b81526001600160a01b039091166004820152602490fd5b50803b15620011fd56fe60806040526102c8803803806100148161018e565b92833981019060408183031261018a5780516001600160a01b03811680820361018a5760208381015190936001600160401b03821161018a570184601f8201121561018a5780519061006d610068836101c7565b61018e565b9582875285838301011161018a5784905f5b8381106101765750505f9186010152813b1561015e577f360894a13ba1a3210667c828492db98dca3e2076cc3735a920a3ca505d382bbc80546001600160a01b03191682179055604051907fbc7cd75a20ee27fd9adebab32041f755214dbc6bffa90cc0225b39da2e5c2d3b5f80a283511561014057505f80848461012796519101845af4903d15610137573d610118610068826101c7565b9081525f81943d92013e6101e2565b505b604051608290816102468239f35b606092506101e2565b925050503461014f5750610129565b63b398979f60e01b8152600490fd5b60249060405190634c9c8ce360e01b82526004820152fd5b81810183015188820184015286920161007f565b5f80fd5b6040519190601f01601f191682016001600160401b038111838210176101b357604052565b634e487b7160e01b5f52604160045260245ffd5b6001600160401b0381116101b357601f01601f191660200190565b9061020957508051156101f757805190602001fd5b604051630a12f52160e11b8152600490fd5b8151158061023c575b61021a575090565b604051639996b31560e01b81526001600160a01b039091166004820152602490fd5b50803b1561021256fe60806040527f360894a13ba1a3210667c828492db98dca3e2076cc3735a920a3ca505d382bbc545f9081906001600160a01b0316368280378136915af43d5f803e156048573d5ff35b3d5ffdfea2646970667358221220a22b1a14257349641cb5baa7c806a4a4262760a1932e274e16232611476f482864736f6c63430008180033a487e062b8be48106b51ef380186a7bd75825e95a8a96d152da56e17a662df208be0079c531659141344cd1fd0a4f28419497f9722a3daafe3b4186f6b6457e0a2646970667358221220581a46c2601307e45fa5761f4c251fd4648de134f683659cfc3ffde5dc71480f64736f6c6343000818003360a080604052346100cc57306080527ff0c57e16840df040f15088dc2f81fe391c3923bec73e23a9662efc9c229c6a009081549060ff8260401c166100bd57506001600160401b036002600160401b031982821601610078575b604051611c2990816100d18239608051818181610cda0152610da30152f35b6001600160401b031990911681179091556040519081527fc7f505b2f371ae2175ee4913f4499e1f2633a7b5936321eed1cdaeb6115181d290602090a15f8080610059565b63f92ee8a960e01b8152600490fd5b5f80fdfe6080604081815260049081361015610015575f80fd5b5f3560e01c9283630cbebc2414611119575082630ceff204146110475782631479197f1461079e57826315e2475f1461102a57826322dcd13e146110065782633e413bee14610fe05782634127365714610f4e5782634b31971314610f315782634f1ef28614610d2b57826352d1902d14610cc857826361d027b314610ca15782636be90fca14610b72578263715018a614610b1e5782637e93a319146107d4578263886c250e1461079e5782638da5cb5b1461076b5782639a5c049b14610744578263a5c6d10814610568578263ab2f0e5114610546578263ad3cb1cc146104aa578263b92ae87c1461042f578263bf2d9e0b14610412578263c31c9c07146103eb578263c45a0155146103c4578263cecf13f51461039e578263d28f637a14610338578263e478f695146102c6578263f046395a14610269578263f04b74ab1461019a57505063f2fde38b1461016b575f80fd5b34610196576020366003190112610196576101946101876111ba565b61018f611643565b6114f9565b005b5f80fd5b346101965760a0366003190112610196576101b36111ba565b602435906084356001600160401b038111610196576101d59036908601611284565b9190946101e0611603565b6101e8611557565b831561025b57505f80516020611b1483398151915293946102459160018060a01b031695865f526007602052805f206102228682546112b1565b9055610230856008546112b1565b600855519384936064359260443592866114be565b0390a260015f80516020611b9483398151915255005b845163162908e360e11b8152fd5b34610196576020366003190112610196576080906001600160a01b0361028d6111ba565b165f526006602052805f209081549160018101549160ff6003600284015493015416928151948552602085015283015215156060820152f35b90346101965760a036600319011261019657602435906001600160401b038211610196576102fa61031b9236908301611284565b916103036111e6565b9261030c611557565b606435926044359235336117b1565b60015f80516020611b948339815191525582519182526020820152f35b90346101965760c0366003190112610196576103526111ba565b6044356001600160401b0381116101965761031b9261037391369101611284565b9161037c6111d0565b926103856115dd565b61038d611557565b6084359260643592602435906117b1565b34610196575f366003190112610196575f5490516001600160a01b039091168152602090f35b34610196575f3660031901126101965760025490516001600160a01b039091168152602090f35b34610196575f3660031901126101965760055490516001600160a01b039091168152602090f35b34610196575f366003190112610196576020906008549051908152f35b34610196576020366003190112610196576020906060906001600160a01b036104566111ba565b165f5260068352805f20815161046b816111fc565b8154815260018201548582015260ff6003600284015493848685015201541615159384910152826104a0575b50519015158152f35b4210915083610497565b34610196575f36600319011261019657805191828201906001600160401b0382118483101761053357508152600582526020640352e302e360dc1b60208401528151928391602083528151918260208501525f5b83811061051d5750505f83830185015250601f01601f19168101030190f35b81810183015187820187015286945082016104fe565b604190634e487b7160e01b5f525260245ffd5b34610196575f3660031901126101965760209061056161144b565b9051908152f35b90346101965760a0366003190112610196576105826111ba565b906001600160a01b036024358181169290839003610196576044359361ffff85169283860361019657606435818116809103610196576105c06111e6565b905f80516020611bb48339815191529788549760ff898c1c16159760018060401b038a16998a158061073d575b6001809c149081610733575b15908161072a575b5061071a576001600160401b031981168b178c5561271091908a6106ff575b50610629611a33565b610631611a33565b61063a886114f9565b610642611a33565b61064a611a33565b610652611a33565b8a5f80516020611b9483398151915255116106ef578460018060a01b03199616865f5416175f5588549161ffff60a01b9060a01b169160018060b01b031916171787553384600254161760025583600354161760035516908254161790556106b657005b815460ff60401b191690915590519081527fc7f505b2f371ae2175ee4913f4499e1f2633a7b5936321eed1cdaeb6115181d290602090a1005b8a51638bff87cf60e01b81528790fd5b6001600160481b0319166001600160401b01178c558d610620565b8c5163f92ee8a960e01b81528990fd5b9050158e610601565b303b1591506105f9565b50896105ed565b34610196575f3660031901126101965760035490516001600160a01b039091168152602090f35b34610196575f366003190112610196575f80516020611b348339815191525490516001600160a01b039091168152602090f35b34610196576020366003190112610196576020906001600160a01b036107c26111ba565b165f5260078252805f20549051908152f35b346101965760c0366003190112610196576107ed6111ba565b6084356024356044356064356108016111d0565b9461080a6115dd565b610812611557565b8315610b0e578215610afe57844211610aee579596949587956001600160a01b03958689169287906108468830338861167b565b1695865f526006602052885f2098899860038a019560ff875416968b8a89809a610ae1575b15610ad057600261087d9201546112b1565b975b15610abd575b805460ff811615610ab65760018d0154905b8960019e8f93848201556002015560ff19161790558a5460a01c61ffff166108bf90856112f6565b61271090049c846108d18f8097611309565b9d81600854906108e0916112b1565b600855818154906108f0916112b1565b90556108fb916116d3565b8251906109078261122b565b600282528336602084013761091b82611316565b528186541661092982611337565b5283610a2d575b5f8094508c61095c8460035416948354169551978896879586946338ed173960e01b86528c8601611412565b03925af1908115610a23575f91610a01575b5080515f198101919082116109ee579061098791611347565b519280151590816109e4575b506109d65750906109b85f80516020611af483398151915293928951938493846112e0565b0390a25f80516020611b948339815191525582519182526020820152f35b8851630d6368f760e01b8152fd5b905083108a610993565b601183634e487b7160e01b5f525260245ffd5b610a1d91503d805f833e610a158183611246565b81019061135b565b8a61096e565b8a513d5f823e3d90fd5b5f818c84806003541691541696838a610a5a8b8a519b8c97889687956338ed173960e01b87528601611412565b03925af18015610aac575f80516020611bd483398151915260208f928e5f988792610a92575b505416928651908152a28c9350610930565b610aa5903d808c833e610a158183611246565b505f610a80565b83513d5f823e3d90fd5b4290610897565b610ac8600a546112d2565b600a55610885565b610adb9150426112b1565b9761087f565b504260028301541161086b565b865163387b2e5560e11b81528890fd5b8651637616640160e01b81528890fd5b865163162908e360e11b81528890fd5b34610196575f36600319011261019657610b36611643565b5f80516020611b3483398151915280546001600160a01b031981169091555f906001600160a01b03165f80516020611b748339815191528280a3005b3461019657606036600319011261019657610b8b6111ba565b9160243560443591610b9b611603565b610ba3611557565b8115610c93578215610c8557506102455f80516020611af4833981519152939460018060a01b031694855f526006602052805f209060038201600160ff82541693848095610c78575b15610c6857610bff8860028301546112b1565b945b15610c55575b610c128782546112b1565b815584600284549260ff84165f14610c4f57848101545b85820155015560ff1916179055610c42846008546112b1565b60085551938493846112e0565b42610c29565b610c60600a546112d2565b600a55610c07565b610c7288426112b1565b94610c01565b5060028101544210610bec565b8351637616640160e01b8152fd5b835163162908e360e11b8152fd5b34610196575f3660031901126101965760015490516001600160a01b039091168152602090f35b34610196575f366003190112610196577f00000000000000000000000000000000000000000000000000000000000000006001600160a01b03163003610d1e57602090515f80516020611b548339815191528152f35b5163703e46dd60e11b8152fd5b908160031936011261019657610d3f6111ba565b60249283356001600160401b0381116101965736602382011215610196578084013592610d6b84611269565b610d7784519182611246565b848152602094858201933689838301011161019657815f928a8993018737830101526001600160a01b037f00000000000000000000000000000000000000000000000000000000000000008116308114908115610f16575b50610f0657610ddc6115dd565b84516352d1902d60e01b815290831695808289818a5afa9182915f93610ed6575b5050610e1857505050505191634c9c8ce360e01b8352820152fd5b858588928a5f80516020611b5483398151915291828103610ec15750863b15610ead575080546001600160a01b0319168317905551907fbc7cd75a20ee27fd9adebab32041f755214dbc6bffa90cc0225b39da2e5c2d3b5f80a2825115610e955750505f6101949381925190845af4610e8f611a61565b91611a90565b925092505034610ea157005b63b398979f60e01b8152fd5b9450505191634c9c8ce360e01b8352820152fd5b8351632a87526960e21b815280870191909152fd5b9080929350813d8311610eff575b610eee8183611246565b810103126101965751908980610dfd565b503d610ee4565b845163703e46dd60e11b81528790fd5b9050815f80516020611b548339815191525416141589610dcf565b34610196575f366003190112610196576020906009549051908152f35b903461019657602036600319011261019657610f686111ba565b6002546001600160a01b0392919083163303610fd1578216928315610fc4575050600580546001600160a01b031981168417909155167fca394f95d8dbf1e8b2e76b9a8da90cacce1da85181a65508dab13212dc1df53b5f80a3005b5163e6c4247b60e01b8152fd5b508251637d7b71b560e01b8152fd5b34610196575f36600319011261019657905490516001600160a01b039091168152602090f35b34610196575f3660031901126101965760209061ffff60015460a01c169051908152f35b34610196575f36600319011261019657602090600a549051908152f35b34610196576020366003190112610196575f548235906001600160a01b03908116330361110a57611076611557565b81156110fb5761108461144b565b82116110ec5781816110d082602094886110c17f86a5cc8fe9af9ae68fb50f62885307a7755a30cbd290131644377f0bd94a7181986009546112b1565b6009555416835f5416906115a1565b5f54169351908152a260015f80516020611b9483398151915255005b505051631e9acf1760e31b8152fd5b50505163162908e360e11b8152fd5b5050516390742f2b60e01b8152fd5b9034610196576020366003190112610196576080915f60606111396111ba565b92611143816111fc565b8281528260208201528285820152015260018060a01b03165f526006602052805f2090805190611172826111fc565b825492838352600181015460208401908152606060ff600360028501549486880195865201541694019315158452825194855251602085015251908301525115156060820152f35b600435906001600160a01b038216820361019657565b60a435906001600160a01b038216820361019657565b608435906001600160a01b038216820361019657565b608081019081106001600160401b0382111761121757604052565b634e487b7160e01b5f52604160045260245ffd5b606081019081106001600160401b0382111761121757604052565b601f909101601f19168101906001600160401b0382119082101761121757604052565b6001600160401b03811161121757601f01601f191660200190565b9181601f84011215610196578235916001600160401b038311610196576020838186019501011161019657565b919082018092116112be57565b634e487b7160e01b5f52601160045260245ffd5b5f1981146112be5760010190565b6040919493926060820195825260208201520152565b818102929181159184041417156112be57565b919082039182116112be57565b8051156113235760200190565b634e487b7160e01b5f52603260045260245ffd5b8051600110156113235760400190565b80518210156113235760209160051b010190565b9060209081838203126101965782516001600160401b0393848211610196570181601f82011215610196578051938411611217578360051b90604051946113a485840187611246565b85528380860192820101928311610196578301905b8282106113c7575050505090565b815181529083019083016113b9565b9081518082526020808093019301915f5b8281106113f5575050505090565b83516001600160a01b0316855293810193928101926001016113e7565b90608092611437919695949683525f602084015260a0604084015260a08301906113d6565b6001600160a01b0390951660608201520152565b6024602060018060a01b0360045416604051928380926370a0823160e01b82523060048301525afa9081156114b3575f91611484575090565b90506020813d6020116114ab575b8161149f60209383611246565b81010312610196575190565b3d9150611492565b6040513d5f823e3d90fd5b91928060609460a09398979698855260806020860152816080860152838501375f828285010152601f80199101168201019460408201520152565b6001600160a01b0390811690811561153f575f80516020611b3483398151915280546001600160a01b031981168417909155165f80516020611b748339815191525f80a3565b604051631e4fbdf760e01b81525f6004820152602490fd5b5f80516020611b9483398151915260028154146115745760029055565b604051633ee5aeb560e01b8152600490fd5b6001600160a01b039091168152602081019190915260400190565b6115d66115db93926115c860405194859263a9059cbb60e01b602085015260248401611586565b03601f198101845283611246565b6119c2565b565b6002546001600160a01b031633036115f157565b604051630636a15760e11b8152600490fd5b600254336001600160a01b0391821614159081611634575b5061162257565b604051637d7b71b560e01b8152600490fd5b9050600554163314155f61161b565b5f80516020611b34833981519152546001600160a01b0316330361166357565b60405163118cdaa760e01b8152336004820152602490fd5b6040516323b872dd60e01b60208201526001600160a01b03928316602482015292909116604483015260648083019390935291815260a08101918183106001600160401b03841117611217576115db926040526119c2565b60018060a01b03809116906003541690604051915f80602085016117188661170a63095ea7b360e01b998a85528760248401611586565b03601f198101885287611246565b85519082865af1611727611a61565b81611782575b5080611778575b15611740575b50505050565b61176f936115d69160405191602083015260248201525f604482015260448152611769816111fc565b826119c2565b5f80808061173a565b50813b1515611734565b8051801592508215611797575b50505f61172d565b6117aa92506020809183010191016119aa565b5f8061178f565b939592969481156119985780421161198657611852935f9160018060a01b03986117ea858b8516946117e58230338961167b565b6116d3565b836040958651946117fa8661122b565b600286528736602088013761180e86611316565b528b6004541661181d86611337565b528b60035416938751998a96879586946338ed173960e01b86526004860152602485015260a0604485015260a48401906113d6565b90306064840152608483015203925af192831561197c575f93611960575b5082515f1981019081116112be5761189961190d915f80516020611b1483398151915295611347565b51946127106118b161ffff60015460a01c16886112f6565b048099896118e76118c2848b611309565b9b8c9516998a5f526007602052875f206118dd8282546112b1565b90556008546112b1565b6008558261192c575b8380611912575b6119029150836112b1565b9451958695866114be565b0390a2565b816119259260045416905f5416906115a1565b5f836118f7565b6119408382600454168360015416906115a1565b80600154165f80516020611bd483398151915260208851868152a26118f0565b6119759193503d805f833e610a158183611246565b915f611870565b50513d5f823e3d90fd5b60405163387b2e5560e11b8152600490fd5b60405163162908e360e11b8152600490fd5b90816020910312610196575180151581036101965790565b5f806119ea9260018060a01b03169360208151910182865af16119e3611a61565b9083611a90565b8051908115159182611a18575b5050611a005750565b60249060405190635274afe760e01b82526004820152fd5b611a2b92506020809183010191016119aa565b155f806119f7565b60ff5f80516020611bb48339815191525460401c1615611a4f57565b604051631afcd79f60e31b8152600490fd5b3d15611a8b573d90611a7282611269565b91611a806040519384611246565b82523d5f602084013e565b606090565b90611ab75750805115611aa557805190602001fd5b604051630a12f52160e11b8152600490fd5b81511580611aea575b611ac8575090565b604051639996b31560e01b81526001600160a01b039091166004820152602490fd5b50803b15611ac056fe7a13ebf2522940b2ac4f647cb0bf897ecdedcddf001cba0c28c40db4cbaf7abee6e76c147879ef2b39c47840a91c2aab43eb81a9ebb620f720d0671999eec4fc9016d09d72d40fdae2fd8ceac6b6234c7706214fd39c1cd1e609a0528c199300360894a13ba1a3210667c828492db98dca3e2076cc3735a920a3ca505d382bbc8be0079c531659141344cd1fd0a4f28419497f9722a3daafe3b4186f6b6457e09b779b17422d0df92223018b32b4d1fa46e071723d6817e2486d003becc55f00f0c57e16840df040f15088dc2f81fe391c3923bec73e23a9662efc9c229c6a00cf1bd34e586f4e12ef1c4c84c337b05dd3f7fc5409e16c5fea9063524eb77022a26469706673582212207e11557cdb9a6c66c0a83876acef948edfd197d1d082b673ff8c80d98f74d4f364736f6c63430008180033","linkReferences":{}},"methodIdentifiers":{"defaultPlatformFeeBps()":"ed3b7e9f","deployWalletFor(address)":"97efc7a9","donateToStream(address,string,uint256,uint256,uint256,address)":"bbbb06e2","getOrCreateWallet(address)":"0755b4fe","getWallet(address)":"04d0a647","hasWallet(address)":"80dc8b06","implementation()":"5c60da1b","kayenRouter()":"9a5c049b","owner()":"8da5cb5b","renounceOwnership()":"715018a6","setImplementation(address)":"d784d426","setKayenRouter(address)":"31827526","setPlatformFee(uint16)":"5cbc742c","setSwapRouter(address)":"41273657","setTreasury(address)":"f0f44260","setUsdc(address)":"cb146879","streamWalletImplementation()":"9243a6f6","streamerWallets(address)":"7f7dd14f","subscribeToStream(address,uint256,uint256,uint256,uint256,address)":"6688ad21","swapRouter()":"c31c9c07","transferOwnership(address)":"f2fde38b","treasury()":"61d027b3","upgradeWallet(address,address)":"d4bfea48","usdc()":"3e413bee"},"id":63}