{"abi":[{"type":"constructor","inputs":[],"stateMutability":"nonpayable"},{"type":"function","name":"ADMIN_ROLE","inputs":[],"outputs":[{"name":"","type":"bytes32","internalType":"bytes32"}],"stateMutability":"view"},{"type":"function","name":"BPS_DENOM","inputs":[],"outputs":[{"name":"","type":"uint256","internalType":"uint256"}],"stateMutability":"view"},{"type":"function","name":"DEFAULT_ADMIN_ROLE","inputs":[],"outputs":[{"name":"","type":"bytes32","internalType":"bytes32"}],"stateMutability":"view"},{"type":"function","name":"MARKET_FIRST_TO_SCORE","inputs":[],"outputs":[{"name":"","type":"bytes32","internalType":"bytes32"}],"stateMutability":"view"},{"type":"function","name":"MARKET_HIGHEST_QUARTER","inputs":[],"outputs":[{"name":"","type":"bytes32","internalType":"bytes32"}],"stateMutability":"view"},{"type":"function","name":"MARKET_POINTS_EXACT","inputs":[],"outputs":[{"name":"","type":"bytes32","internalType":"bytes32"}],"stateMutability":"view"},{"type":"function","name":"MARKET_QUARTER_WINNER","inputs":[],"outputs":[{"name":"","type":"bytes32","internalType":"bytes32"}],"stateMutability":"view"},{"type":"function","name":"MARKET_SPREAD","inputs":[],"outputs":[{"name":"","type":"bytes32","internalType":"bytes32"}],"stateMutability":"view"},{"type":"function","name":"MARKET_TOTAL_POINTS","inputs":[],"outputs":[{"name":"","type":"bytes32","internalType":"bytes32"}],"stateMutability":"view"},{"type":"function","name":"MARKET_WINNER","inputs":[],"outputs":[{"name":"","type":"bytes32","internalType":"bytes32"}],"stateMutability":"view"},{"type":"function","name":"MAX_FEE_BPS","inputs":[],"outputs":[{"name":"","type":"uint16","internalType":"uint16"}],"stateMutability":"view"},{"type":"function","name":"MIN_STAKE","inputs":[],"outputs":[{"name":"","type":"uint256","internalType":"uint256"}],"stateMutability":"view"},{"type":"function","name":"PAUSER_ROLE","inputs":[],"outputs":[{"name":"","type":"bytes32","internalType":"bytes32"}],"stateMutability":"view"},{"type":"function","name":"RESOLVER_ROLE","inputs":[],"outputs":[{"name":"","type":"bytes32","internalType":"bytes32"}],"stateMutability":"view"},{"type":"function","name":"SWAP_ROUTER_ROLE","inputs":[],"outputs":[{"name":"","type":"bytes32","internalType":"bytes32"}],"stateMutability":"view"},{"type":"function","name":"UPGRADE_INTERFACE_VERSION","inputs":[],"outputs":[{"name":"","type":"string","internalType":"string"}],"stateMutability":"view"},{"type":"function","name":"addMarketAdvanced","inputs":[{"name":"marketType","type":"bytes32","internalType":"bytes32"},{"name":"line","type":"int16","internalType":"int16"},{"name":"extra","type":"uint8","internalType":"uint8"},{"name":"groupId","type":"uint16","internalType":"uint16"}],"outputs":[{"name":"marketId","type":"uint256","internalType":"uint256"}],"stateMutability":"nonpayable"},{"type":"function","name":"addMarketWithLine","inputs":[{"name":"marketType","type":"bytes32","internalType":"bytes32"},{"name":"line","type":"int16","internalType":"int16"}],"outputs":[{"name":"marketId","type":"uint256","internalType":"uint256"}],"stateMutability":"nonpayable"},{"type":"function","name":"addMarketsBatch","inputs":[{"name":"marketTypes","type":"bytes32[]","internalType":"bytes32[]"},{"name":"lines","type":"int16[]","internalType":"int16[]"}],"outputs":[],"stateMutability":"nonpayable"},{"type":"function","name":"addMarketsBatchAdvanced","inputs":[{"name":"marketTypes","type":"bytes32[]","internalType":"bytes32[]"},{"name":"lines","type":"int16[]","internalType":"int16[]"},{"name":"extras","type":"uint8[]","internalType":"uint8[]"},{"name":"groupIds","type":"uint16[]","internalType":"uint16[]"}],"outputs":[],"stateMutability":"nonpayable"},{"type":"function","name":"addPointsExactMarket","inputs":[{"name":"line","type":"int16","internalType":"int16"},{"name":"step","type":"uint8","internalType":"uint8"}],"outputs":[{"name":"marketId","type":"uint256","internalType":"uint256"}],"stateMutability":"nonpayable"},{"type":"function","name":"addQuarterMarket","inputs":[{"name":"marketType","type":"bytes32","internalType":"bytes32"},{"name":"line","type":"int16","internalType":"int16"},{"name":"quarter","type":"uint8","internalType":"uint8"}],"outputs":[{"name":"marketId","type":"uint256","internalType":"uint256"}],"stateMutability":"nonpayable"},{"type":"function","name":"cancelMarket","inputs":[{"name":"marketId","type":"uint256","internalType":"uint256"},{"name":"reason","type":"string","internalType":"string"}],"outputs":[],"stateMutability":"nonpayable"},{"type":"function","name":"claim","inputs":[{"name":"marketId","type":"uint256","internalType":"uint256"}],"outputs":[],"stateMutability":"nonpayable"},{"type":"function","name":"claimBatch","inputs":[{"name":"marketIds","type":"uint256[]","internalType":"uint256[]"}],"outputs":[],"stateMutability":"nonpayable"},{"type":"function","name":"claimRefund","inputs":[{"name":"marketId","type":"uint256","internalType":"uint256"}],"outputs":[],"stateMutability":"nonpayable"},{"type":"function","name":"claimRefundBatch","inputs":[{"name":"marketIds","type":"uint256[]","internalType":"uint256[]"}],"outputs":[],"stateMutability":"nonpayable"},{"type":"function","name":"closeMarket","inputs":[{"name":"marketId","type":"uint256","internalType":"uint256"}],"outputs":[],"stateMutability":"nonpayable"},{"type":"function","name":"closeMarketsBatch","inputs":[{"name":"marketIds","type":"uint256[]","internalType":"uint256[]"}],"outputs":[],"stateMutability":"nonpayable"},{"type":"function","name":"computeOutcome","inputs":[{"name":"marketId","type":"uint256","internalType":"uint256"},{"name":"s","type":"tuple","internalType":"struct BasketballPariMatch.BasketballScore","components":[{"name":"homeQ1","type":"uint8","internalType":"uint8"},{"name":"awayQ1","type":"uint8","internalType":"uint8"},{"name":"homeQ2","type":"uint8","internalType":"uint8"},{"name":"awayQ2","type":"uint8","internalType":"uint8"},{"name":"homeQ3","type":"uint8","internalType":"uint8"},{"name":"awayQ3","type":"uint8","internalType":"uint8"},{"name":"homeQ4","type":"uint8","internalType":"uint8"},{"name":"awayQ4","type":"uint8","internalType":"uint8"},{"name":"firstToScore","type":"uint8","internalType":"uint8"}]}],"outputs":[{"name":"outcome","type":"uint64","internalType":"uint64"},{"name":"resolvable","type":"bool","internalType":"bool"}],"stateMutability":"view"},{"type":"function","name":"emergencyPause","inputs":[],"outputs":[],"stateMutability":"nonpayable"},{"type":"function","name":"feeBps","inputs":[],"outputs":[{"name":"","type":"uint16","internalType":"uint16"}],"stateMutability":"view"},{"type":"function","name":"feeRecipient","inputs":[],"outputs":[{"name":"","type":"address","internalType":"address"}],"stateMutability":"view"},{"type":"function","name":"getImpliedProbabilityBps","inputs":[{"name":"marketId","type":"uint256","internalType":"uint256"},{"name":"outcome","type":"uint64","internalType":"uint64"}],"outputs":[{"name":"bps","type":"uint256","internalType":"uint256"}],"stateMutability":"view"},{"type":"function","name":"getMarketCore","inputs":[{"name":"marketId","type":"uint256","internalType":"uint256"}],"outputs":[{"name":"","type":"tuple","internalType":"struct PariMatchBase.MarketCore","components":[{"name":"state","type":"uint8","internalType":"enum PariMatchBase.MarketState"},{"name":"result","type":"uint64","internalType":"uint64"},{"name":"createdAt","type":"uint40","internalType":"uint40"},{"name":"resolvedAt","type":"uint40","internalType":"uint40"},{"name":"resolvedNetPool","type":"uint256","internalType":"uint256"}]}],"stateMutability":"view"},{"type":"function","name":"getMarketInfo","inputs":[{"name":"marketId","type":"uint256","internalType":"uint256"}],"outputs":[{"name":"marketType","type":"bytes32","internalType":"bytes32"},{"name":"state","type":"uint8","internalType":"enum PariMatchBase.MarketState"},{"name":"result","type":"uint64","internalType":"uint64"},{"name":"totalPool","type":"uint256","internalType":"uint256"},{"name":"outcomeCount","type":"uint256","internalType":"uint256"}],"stateMutability":"view"},{"type":"function","name":"getMarketSpec","inputs":[{"name":"marketId","type":"uint256","internalType":"uint256"}],"outputs":[{"name":"","type":"tuple","internalType":"struct PariMatchBase.MarketSpec","components":[{"name":"marketType","type":"bytes32","internalType":"bytes32"},{"name":"line","type":"int16","internalType":"int16"},{"name":"maxOutcome","type":"uint8","internalType":"uint8"},{"name":"extra","type":"uint8","internalType":"uint8"},{"name":"groupId","type":"uint16","internalType":"uint16"}]}],"stateMutability":"view"},{"type":"function","name":"getOutcomePool","inputs":[{"name":"marketId","type":"uint256","internalType":"uint256"},{"name":"outcome","type":"uint64","internalType":"uint64"}],"outputs":[{"name":"","type":"uint256","internalType":"uint256"}],"stateMutability":"view"},{"type":"function","name":"getRoleAdmin","inputs":[{"name":"role","type":"bytes32","internalType":"bytes32"}],"outputs":[{"name":"","type":"bytes32","internalType":"bytes32"}],"stateMutability":"view"},{"type":"function","name":"getTotalPool","inputs":[{"name":"marketId","type":"uint256","internalType":"uint256"}],"outputs":[{"name":"","type":"uint256","internalType":"uint256"}],"stateMutability":"view"},{"type":"function","name":"getUserStake","inputs":[{"name":"marketId","type":"uint256","internalType":"uint256"},{"name":"user","type":"address","internalType":"address"},{"name":"outcome","type":"uint64","internalType":"uint64"}],"outputs":[{"name":"","type":"uint256","internalType":"uint256"}],"stateMutability":"view"},{"type":"function","name":"getUserTotalStake","inputs":[{"name":"marketId","type":"uint256","internalType":"uint256"},{"name":"user","type":"address","internalType":"address"}],"outputs":[{"name":"","type":"uint256","internalType":"uint256"}],"stateMutability":"view"},{"type":"function","name":"grantRole","inputs":[{"name":"role","type":"bytes32","internalType":"bytes32"},{"name":"account","type":"address","internalType":"address"}],"outputs":[],"stateMutability":"nonpayable"},{"type":"function","name":"hasClaimed","inputs":[{"name":"marketId","type":"uint256","internalType":"uint256"},{"name":"user","type":"address","internalType":"address"}],"outputs":[{"name":"","type":"bool","internalType":"bool"}],"stateMutability":"view"},{"type":"function","name":"hasRole","inputs":[{"name":"role","type":"bytes32","internalType":"bytes32"},{"name":"account","type":"address","internalType":"address"}],"outputs":[{"name":"","type":"bool","internalType":"bool"}],"stateMutability":"view"},{"type":"function","name":"initialize","inputs":[{"name":"_matchName","type":"string","internalType":"string"},{"name":"_owner","type":"address","internalType":"address"}],"outputs":[],"stateMutability":"nonpayable"},{"type":"function","name":"leaderboardFeeBps","inputs":[],"outputs":[{"name":"","type":"uint16","internalType":"uint16"}],"stateMutability":"view"},{"type":"function","name":"leaderboardRecipient","inputs":[],"outputs":[{"name":"","type":"address","internalType":"address"}],"stateMutability":"view"},{"type":"function","name":"marketCount","inputs":[],"outputs":[{"name":"","type":"uint256","internalType":"uint256"}],"stateMutability":"view"},{"type":"function","name":"matchName","inputs":[],"outputs":[{"name":"","type":"string","internalType":"string"}],"stateMutability":"view"},{"type":"function","name":"openMarket","inputs":[{"name":"marketId","type":"uint256","internalType":"uint256"}],"outputs":[],"stateMutability":"nonpayable"},{"type":"function","name":"openMarketsBatch","inputs":[{"name":"marketIds","type":"uint256[]","internalType":"uint256[]"}],"outputs":[],"stateMutability":"nonpayable"},{"type":"function","name":"owner","inputs":[],"outputs":[{"name":"","type":"address","internalType":"address"}],"stateMutability":"view"},{"type":"function","name":"paused","inputs":[],"outputs":[{"name":"","type":"bool","internalType":"bool"}],"stateMutability":"view"},{"type":"function","name":"placeBetUSDC","inputs":[{"name":"marketId","type":"uint256","internalType":"uint256"},{"name":"outcome","type":"uint64","internalType":"uint64"},{"name":"amount","type":"uint256","internalType":"uint256"}],"outputs":[],"stateMutability":"nonpayable"},{"type":"function","name":"placeBetUSDCFor","inputs":[{"name":"user","type":"address","internalType":"address"},{"name":"marketId","type":"uint256","internalType":"uint256"},{"name":"outcome","type":"uint64","internalType":"uint64"},{"name":"amount","type":"uint256","internalType":"uint256"}],"outputs":[],"stateMutability":"nonpayable"},{"type":"function","name":"proxiableUUID","inputs":[],"outputs":[{"name":"","type":"bytes32","internalType":"bytes32"}],"stateMutability":"view"},{"type":"function","name":"renounceOwnership","inputs":[],"outputs":[],"stateMutability":"nonpayable"},{"type":"function","name":"renounceRole","inputs":[{"name":"role","type":"bytes32","internalType":"bytes32"},{"name":"callerConfirmation","type":"address","internalType":"address"}],"outputs":[],"stateMutability":"nonpayable"},{"type":"function","name":"resolveBatchByScore","inputs":[{"name":"marketIds","type":"uint256[]","internalType":"uint256[]"},{"name":"s","type":"tuple","internalType":"struct BasketballPariMatch.BasketballScore","components":[{"name":"homeQ1","type":"uint8","internalType":"uint8"},{"name":"awayQ1","type":"uint8","internalType":"uint8"},{"name":"homeQ2","type":"uint8","internalType":"uint8"},{"name":"awayQ2","type":"uint8","internalType":"uint8"},{"name":"homeQ3","type":"uint8","internalType":"uint8"},{"name":"awayQ3","type":"uint8","internalType":"uint8"},{"name":"homeQ4","type":"uint8","internalType":"uint8"},{"name":"awayQ4","type":"uint8","internalType":"uint8"},{"name":"firstToScore","type":"uint8","internalType":"uint8"}]}],"outputs":[{"name":"marketsResolved","type":"uint256","internalType":"uint256"}],"stateMutability":"nonpayable"},{"type":"function","name":"resolveByScore","inputs":[{"name":"s","type":"tuple","internalType":"struct BasketballPariMatch.BasketballScore","components":[{"name":"homeQ1","type":"uint8","internalType":"uint8"},{"name":"awayQ1","type":"uint8","internalType":"uint8"},{"name":"homeQ2","type":"uint8","internalType":"uint8"},{"name":"awayQ2","type":"uint8","internalType":"uint8"},{"name":"homeQ3","type":"uint8","internalType":"uint8"},{"name":"awayQ3","type":"uint8","internalType":"uint8"},{"name":"homeQ4","type":"uint8","internalType":"uint8"},{"name":"awayQ4","type":"uint8","internalType":"uint8"},{"name":"firstToScore","type":"uint8","internalType":"uint8"}]}],"outputs":[{"name":"marketsResolved","type":"uint256","internalType":"uint256"}],"stateMutability":"nonpayable"},{"type":"function","name":"resolveMarket","inputs":[{"name":"marketId","type":"uint256","internalType":"uint256"},{"name":"result","type":"uint64","internalType":"uint64"}],"outputs":[],"stateMutability":"nonpayable"},{"type":"function","name":"resolveMarketsBatch","inputs":[{"name":"marketIds","type":"uint256[]","internalType":"uint256[]"},{"name":"results","type":"uint64[]","internalType":"uint64[]"}],"outputs":[],"stateMutability":"nonpayable"},{"type":"function","name":"revokeRole","inputs":[{"name":"role","type":"bytes32","internalType":"bytes32"},{"name":"account","type":"address","internalType":"address"}],"outputs":[],"stateMutability":"nonpayable"},{"type":"function","name":"setFeeBps","inputs":[{"name":"_feeBps","type":"uint16","internalType":"uint16"}],"outputs":[],"stateMutability":"nonpayable"},{"type":"function","name":"setFeeRecipient","inputs":[{"name":"_recipient","type":"address","internalType":"address"}],"outputs":[],"stateMutability":"nonpayable"},{"type":"function","name":"setLeaderboardFeeBps","inputs":[{"name":"_bps","type":"uint16","internalType":"uint16"}],"outputs":[],"stateMutability":"nonpayable"},{"type":"function","name":"setLeaderboardRecipient","inputs":[{"name":"_recipient","type":"address","internalType":"address"}],"outputs":[],"stateMutability":"nonpayable"},{"type":"function","name":"setUSDCToken","inputs":[{"name":"_usdc","type":"address","internalType":"address"}],"outputs":[],"stateMutability":"nonpayable"},{"type":"function","name":"sportType","inputs":[],"outputs":[{"name":"","type":"string","internalType":"string"}],"stateMutability":"view"},{"type":"function","name":"supportsInterface","inputs":[{"name":"interfaceId","type":"bytes4","internalType":"bytes4"}],"outputs":[{"name":"","type":"bool","internalType":"bool"}],"stateMutability":"view"},{"type":"function","name":"suspendMarket","inputs":[{"name":"marketId","type":"uint256","internalType":"uint256"}],"outputs":[],"stateMutability":"nonpayable"},{"type":"function","name":"transferOwnership","inputs":[{"name":"newOwner","type":"address","internalType":"address"}],"outputs":[],"stateMutability":"nonpayable"},{"type":"function","name":"unpause","inputs":[],"outputs":[],"stateMutability":"nonpayable"},{"type":"function","name":"upgradeToAndCall","inputs":[{"name":"newImplementation","type":"address","internalType":"address"},{"name":"data","type":"bytes","internalType":"bytes"}],"outputs":[],"stateMutability":"payable"},{"type":"function","name":"usdcToken","inputs":[],"outputs":[{"name":"","type":"address","internalType":"contract IERC20"}],"stateMutability":"view"},{"type":"event","name":"FeeBpsSet","inputs":[{"name":"oldBps","type":"uint16","indexed":false,"internalType":"uint16"},{"name":"newBps","type":"uint16","indexed":false,"internalType":"uint16"}],"anonymous":false},{"type":"event","name":"FeeRecipientSet","inputs":[{"name":"oldRecipient","type":"address","indexed":true,"internalType":"address"},{"name":"newRecipient","type":"address","indexed":true,"internalType":"address"}],"anonymous":false},{"type":"event","name":"Initialized","inputs":[{"name":"version","type":"uint64","indexed":false,"internalType":"uint64"}],"anonymous":false},{"type":"event","name":"LeaderboardFeeBpsSet","inputs":[{"name":"oldBps","type":"uint16","indexed":false,"internalType":"uint16"},{"name":"newBps","type":"uint16","indexed":false,"internalType":"uint16"}],"anonymous":false},{"type":"event","name":"LeaderboardRecipientSet","inputs":[{"name":"oldRecipient","type":"address","indexed":true,"internalType":"address"},{"name":"newRecipient","type":"address","indexed":true,"internalType":"address"}],"anonymous":false},{"type":"event","name":"LeaderboardRecordFailed","inputs":[{"name":"leaderboard","type":"address","indexed":true,"internalType":"address"},{"name":"user","type":"address","indexed":true,"internalType":"address"},{"name":"payout","type":"uint256","indexed":false,"internalType":"uint256"}],"anonymous":false},{"type":"event","name":"MarketCancelled","inputs":[{"name":"marketId","type":"uint256","indexed":true,"internalType":"uint256"},{"name":"reason","type":"string","indexed":false,"internalType":"string"}],"anonymous":false},{"type":"event","name":"MarketCreated","inputs":[{"name":"marketId","type":"uint256","indexed":true,"internalType":"uint256"},{"name":"marketType","type":"bytes32","indexed":true,"internalType":"bytes32"},{"name":"line","type":"int16","indexed":false,"internalType":"int16"},{"name":"maxOutcome","type":"uint8","indexed":false,"internalType":"uint8"},{"name":"groupId","type":"uint16","indexed":false,"internalType":"uint16"}],"anonymous":false},{"type":"event","name":"MarketResolved","inputs":[{"name":"marketId","type":"uint256","indexed":true,"internalType":"uint256"},{"name":"result","type":"uint64","indexed":false,"internalType":"uint64"},{"name":"totalPool","type":"uint256","indexed":false,"internalType":"uint256"},{"name":"fee","type":"uint256","indexed":false,"internalType":"uint256"},{"name":"resolvedNetPool","type":"uint256","indexed":false,"internalType":"uint256"}],"anonymous":false},{"type":"event","name":"MarketStateChanged","inputs":[{"name":"marketId","type":"uint256","indexed":true,"internalType":"uint256"},{"name":"oldState","type":"uint8","indexed":false,"internalType":"enum PariMatchBase.MarketState"},{"name":"newState","type":"uint8","indexed":false,"internalType":"enum PariMatchBase.MarketState"}],"anonymous":false},{"type":"event","name":"MatchInitialized","inputs":[{"name":"name","type":"string","indexed":true,"internalType":"string"},{"name":"sportType","type":"string","indexed":false,"internalType":"string"},{"name":"owner","type":"address","indexed":true,"internalType":"address"}],"anonymous":false},{"type":"event","name":"MatchScoreResolved","inputs":[{"name":"homeTotal","type":"uint16","indexed":false,"internalType":"uint16"},{"name":"awayTotal","type":"uint16","indexed":false,"internalType":"uint16"},{"name":"firstToScore","type":"uint8","indexed":false,"internalType":"uint8"},{"name":"marketsResolved","type":"uint256","indexed":false,"internalType":"uint256"}],"anonymous":false},{"type":"event","name":"OwnershipTransferred","inputs":[{"name":"previousOwner","type":"address","indexed":true,"internalType":"address"},{"name":"newOwner","type":"address","indexed":true,"internalType":"address"}],"anonymous":false},{"type":"event","name":"Paused","inputs":[{"name":"account","type":"address","indexed":false,"internalType":"address"}],"anonymous":false},{"type":"event","name":"PositionClaimed","inputs":[{"name":"marketId","type":"uint256","indexed":true,"internalType":"uint256"},{"name":"user","type":"address","indexed":true,"internalType":"address"},{"name":"stake","type":"uint256","indexed":false,"internalType":"uint256"},{"name":"payout","type":"uint256","indexed":false,"internalType":"uint256"}],"anonymous":false},{"type":"event","name":"PositionTaken","inputs":[{"name":"marketId","type":"uint256","indexed":true,"internalType":"uint256"},{"name":"user","type":"address","indexed":true,"internalType":"address"},{"name":"outcome","type":"uint64","indexed":false,"internalType":"uint64"},{"name":"stake","type":"uint256","indexed":false,"internalType":"uint256"},{"name":"newOutcomePool","type":"uint256","indexed":false,"internalType":"uint256"},{"name":"newTotalPool","type":"uint256","indexed":false,"internalType":"uint256"}],"anonymous":false},{"type":"event","name":"RoleAdminChanged","inputs":[{"name":"role","type":"bytes32","indexed":true,"internalType":"bytes32"},{"name":"previousAdminRole","type":"bytes32","indexed":true,"internalType":"bytes32"},{"name":"newAdminRole","type":"bytes32","indexed":true,"internalType":"bytes32"}],"anonymous":false},{"type":"event","name":"RoleGranted","inputs":[{"name":"role","type":"bytes32","indexed":true,"internalType":"bytes32"},{"name":"account","type":"address","indexed":true,"internalType":"address"},{"name":"sender","type":"address","indexed":true,"internalType":"address"}],"anonymous":false},{"type":"event","name":"RoleRevoked","inputs":[{"name":"role","type":"bytes32","indexed":true,"internalType":"bytes32"},{"name":"account","type":"address","indexed":true,"internalType":"address"},{"name":"sender","type":"address","indexed":true,"internalType":"address"}],"anonymous":false},{"type":"event","name":"StakeRefunded","inputs":[{"name":"marketId","type":"uint256","indexed":true,"internalType":"uint256"},{"name":"user","type":"address","indexed":true,"internalType":"address"},{"name":"amount","type":"uint256","indexed":false,"internalType":"uint256"}],"anonymous":false},{"type":"event","name":"USDCTokenSet","inputs":[{"name":"token","type":"address","indexed":true,"internalType":"address"}],"anonymous":false},{"type":"event","name":"Unpaused","inputs":[{"name":"account","type":"address","indexed":false,"internalType":"address"}],"anonymous":false},{"type":"event","name":"Upgraded","inputs":[{"name":"implementation","type":"address","indexed":true,"internalType":"address"}],"anonymous":false},{"type":"error","name":"AccessControlBadConfirmation","inputs":[]},{"type":"error","name":"AccessControlUnauthorizedAccount","inputs":[{"name":"account","type":"address","internalType":"address"},{"name":"neededRole","type":"bytes32","internalType":"bytes32"}]},{"type":"error","name":"AddressEmptyCode","inputs":[{"name":"target","type":"address","internalType":"address"}]},{"type":"error","name":"AddressInsufficientBalance","inputs":[{"name":"account","type":"address","internalType":"address"}]},{"type":"error","name":"AlreadyClaimed","inputs":[{"name":"marketId","type":"uint256","internalType":"uint256"},{"name":"user","type":"address","internalType":"address"}]},{"type":"error","name":"ArrayLengthMismatch","inputs":[]},{"type":"error","name":"ERC1967InvalidImplementation","inputs":[{"name":"implementation","type":"address","internalType":"address"}]},{"type":"error","name":"ERC1967NonPayable","inputs":[]},{"type":"error","name":"EnforcedPause","inputs":[]},{"type":"error","name":"ExpectedPause","inputs":[]},{"type":"error","name":"FailedInnerCall","inputs":[]},{"type":"error","name":"FeeBpsExceedsMax","inputs":[{"name":"provided","type":"uint16","internalType":"uint16"},{"name":"max","type":"uint16","internalType":"uint16"}]},{"type":"error","name":"FeeRecipientNotConfigured","inputs":[]},{"type":"error","name":"InvalidInitialization","inputs":[]},{"type":"error","name":"InvalidLine","inputs":[{"name":"marketType","type":"bytes32","internalType":"bytes32"},{"name":"line","type":"int16","internalType":"int16"}]},{"type":"error","name":"InvalidMarketId","inputs":[{"name":"marketId","type":"uint256","internalType":"uint256"}]},{"type":"error","name":"InvalidMarketState","inputs":[{"name":"marketId","type":"uint256","internalType":"uint256"},{"name":"current","type":"uint8","internalType":"enum PariMatchBase.MarketState"},{"name":"required","type":"uint8","internalType":"enum PariMatchBase.MarketState"}]},{"type":"error","name":"InvalidMarketType","inputs":[{"name":"marketType","type":"bytes32","internalType":"bytes32"}]},{"type":"error","name":"InvalidOutcome","inputs":[{"name":"marketId","type":"uint256","internalType":"uint256"},{"name":"outcome","type":"uint64","internalType":"uint64"}]},{"type":"error","name":"InvalidOutcomeValue","inputs":[{"name":"marketId","type":"uint256","internalType":"uint256"},{"name":"outcome","type":"uint64","internalType":"uint64"},{"name":"maxAllowed","type":"uint8","internalType":"uint8"}]},{"type":"error","name":"InvalidQuarter","inputs":[{"name":"quarter","type":"uint8","internalType":"uint8"}]},{"type":"error","name":"LeaderboardFeeExceedsTotal","inputs":[{"name":"leaderboardBps","type":"uint16","internalType":"uint16"},{"name":"totalBps","type":"uint16","internalType":"uint16"}]},{"type":"error","name":"LeaderboardRecipientNotConfigured","inputs":[]},{"type":"error","name":"NotInitializing","inputs":[]},{"type":"error","name":"NothingToClaim","inputs":[{"name":"marketId","type":"uint256","internalType":"uint256"},{"name":"user","type":"address","internalType":"address"}]},{"type":"error","name":"NothingToRefund","inputs":[{"name":"marketId","type":"uint256","internalType":"uint256"},{"name":"user","type":"address","internalType":"address"}]},{"type":"error","name":"OwnableInvalidOwner","inputs":[{"name":"owner","type":"address","internalType":"address"}]},{"type":"error","name":"OwnableUnauthorizedAccount","inputs":[{"name":"account","type":"address","internalType":"address"}]},{"type":"error","name":"ReentrancyGuardReentrantCall","inputs":[]},{"type":"error","name":"SafeERC20FailedOperation","inputs":[{"name":"token","type":"address","internalType":"address"}]},{"type":"error","name":"StakeBelowMinimum","inputs":[{"name":"stake","type":"uint256","internalType":"uint256"},{"name":"minimum","type":"uint256","internalType":"uint256"}]},{"type":"error","name":"USDCNotConfigured","inputs":[]},{"type":"error","name":"UUPSUnauthorizedCallContext","inputs":[]},{"type":"error","name":"UUPSUnsupportedProxiableUUID","inputs":[{"name":"slot","type":"bytes32","internalType":"bytes32"}]},{"type":"error","name":"ZeroStake","inputs":[]}],"bytecode":{"object":"0x60a08060405234620000d157306080527ff0c57e16840df040f15088dc2f81fe391c3923bec73e23a9662efc9c229c6a009081549060ff8260401c16620000c257506001600160401b036002600160401b0319828216016200007c575b604051614cb19081620000d68239608051818181611b420152611cde0152f35b6001600160401b031990911681179091556040519081527fc7f505b2f371ae2175ee4913f4499e1f2633a7b5936321eed1cdaeb6115181d290602090a15f80806200005c565b63f92ee8a960e01b8152600490fd5b5f80fdfe60806040818152600480361015610014575f80fd5b5f3560e01c92836301ffc9a714612bc057508263023b1fc914612af75782630637e5df14612a2e57826309908d87146129e75782630e1d64631461287a5782630eb47110146127a55782630f5a9d011461272e57826311eac855146127065782631a095c6e146126b95782631cf65cc2146126695782632045646d14612642578263248a9ca31461260c57826324a9d853146125e75782632f2ff15d146125bf578263330b82fe1461259857826336568abe14612554578263379607f5146124c157826337c6ef851461249a578263396f01ba146123f45782633a35b9bd146123af5782633ec79193146123115782633eccfc96146121ba5782633f4ba83a146121455782633fe1f0021461211257826340b16c1e14612040578263456051f114611ece5782634690484014611ea65782634f1ef28614611c9057826351487dc014611c6957826351858e2714611bbb57826352a079be14611b9357826352d1902d14611b2f5782635b7baf6414611ab45782635c975abb14611a855782635f779fef14611a0b57826362abebce146119125782636637e38c146105555782636882870d146118665782636e60c97d14611749578263715018a6146116f557826371738f8c1461166d57826374306a121461164857826375b238fc1461162157826378fab260146115fa5782637a3c2689146113cc5782637ab4339d14610f825782638723eccf14610f5b578263873f6f9e14610f0a5782638ac0be8714610daf5782638d3bf36514610ca35782638da5cb5b14610c6f57826391d1485414610c1f578263931b546614610b515782639b05743f14610a8a5782639cd1443c14610a3c578263a04286e014610990578263a217fddf14610976578263a4b8195c1461080c578263ad3cb1cc146107d0578263ae418095146107a1578263af4a52ec1461077a578263b2392cab14610715578263baa26757146106d1578263bdc69bd9146106aa578263bef2a6a0146105ee578263c6886db4146105c7578263c743bb731461055a578263cb1c2b5c14610555578263d1fc11a4146104ec578263d203ce70146104b7578263d547741f14610471578263d55be8c614610455578263e63ab1e91461042e578263e74b981b146103b057508163ec97908214610393575063f2fde38b14610364575f80fd5b3461038f57602036600319011261038f5761038d610380612c73565b6103886144d9565b612fae565b005b5f80fd5b3461038f575f36600319011261038f576020906002549051908152f35b3461038f57602036600319011261038f576103c9612c73565b906103d261300c565b6001600160a01b03918216928315610421575050600a80546001600160a01b031981168417909155167f15d80a013f22151bc7246e3bc132e12828cde19de98870475e3fa708401527215f80a3005b51635c192c5f60e01b8152fd5b503461038f575f36600319011261038f57602090515f80516020614abc8339815191528152f35b503461038f575f36600319011261038f57602090516101f48152f35b903461038f578060031936011261038f5761038d91356104b26001610494612c89565b93835f525f80516020614b1c8339815191526020525f2001546130a7565b614005565b903461038f578060031936011261038f576104e56020926104d6612c53565b906104df61300c565b35613200565b9051908152f35b3461038f57602036600319011261038f57610505612c73565b61050d61300c565b600c80546001600160a01b039283166001600160a01b0319821681179092559091167ff216326564f8016c618c771c75c8f773e70ad1dfaef04aefd69270e506dfaece5f80a3005b612daa565b3461038f5761056836612e4b565b9390919461057461300c565b8486036105ba5750505f5b84811061058857005b806105b36105996001938887612eaa565b356105ad6105a8848988612eaa565b612fa0565b90613200565b500161057f565b5163512509d360e11b8152fd5b503461038f575f36600319011261038f57602090515f80516020614c5c8339815191528152f35b503461038f575f36600319011261038f5780515f91600180549061061182612dc6565b908185526020926001811690815f1461068a575060011461064d575b50505061063f82610649940383612d36565b5191829182612e1f565b0390f35b91945060015f52845f20915f925b82841061067757505050826106499461063f928201019461062d565b805486850188015292860192810161065b565b60ff1916868501525050151560051b830101925061063f8261064961062d565b503461038f575f36600319011261038f57602090515f80516020614b3c8339815191528152f35b3461038f57602036600319011261038f578035916002548310156107005761038d836106fb61300c565b61444f565b91602492519163113b162160e31b8352820152fd5b903461038f578060031936011261038f578135610730612c89565b9260025482101561076557505f908152600760209081528282206001600160a01b039094168252928352819020549051908152f35b915163113b162160e31b815291820152602490fd5b503461038f575f36600319011261038f57602090515f80516020614c1c8339815191528152f35b3461038f57602036600319011261038f578035916002548310156107005761038d836107cb61300c565b6143c3565b503461038f575f36600319011261038f578051610649916107f082612d1b565b60058252640352e302e360dc1b60208301525191829182612e1f565b903461038f57606036600319011261038f578135610828612c9f565b90604435926108356130d5565b60025482101561095f57815f52600360205260ff815f205416600681101561094c57600181036109215750610868614084565b6009546001600160a01b0316948515610913578415610905576127108086106108eb5750506108d8946108d29161089f858561428a565b516323b872dd60e01b602082015233602482015230604482015260648082018790528152906108cd82612cec565b61486f565b336142d9565b60015f80516020614bbc83398151915255005b8560449351926378e030db60e01b84528301526024820152fd5b905163150a67e960e01b8152fd5b9051639554dd1160e01b8152fd5b61094390606493879351936327c6314f60e11b85528401526024830190612ccb565b60016044820152fd5b602186634e487b7160e01b5f525260245ffd5b5163113b162160e31b815280850191909152602490fd5b503461038f575f36600319011261038f57602090515f8152f35b903461038f5761099f36612e4b565b9290946109aa61305f565b838303610a2e575f5b8381106109bc57005b6109c7818585612eaa565b356002541115610a0d576109dc818585612eaa565b35906109e981878a612eaa565b35916001600160401b038316830361038f57600192610a0791613b79565b016109b3565b610a1b869185602495612eaa565b3590519163113b162160e31b8352820152fd5b845163512509d360e11b8152fd5b3461038f5761014036600319011261038f5780359061012036602319011261038f576002548210156107655750610a72906135bd565b82516001600160401b03909216825215156020820152f35b903461038f57602090602060031936011261038f5782356001600160401b03811161038f57610abc9036908501612c23565b91610ac561300c565b5f5b838110610ad057005b610adb818585612eaa565b356002541115610b4357610af0818585612eaa565b355f526003855260ff825f2054166006811015610b3057906001809214610b2b57610b25610b1f828787612eaa565b3561444f565b01610ac7565b610b25565b602187634e487b7160e01b5f525260245ffd5b610a1b906024948794612eaa565b903461038f57602036600319011261038f57813590600254821015610c0b57610b7861300c565b815f526003602052805f209283549360ff8516916006831015610bf85760018303610bcd575060025f80516020614a9c833981519152949560ff1916179055610bc382518092612ccb565b60026020820152a2005b83516327c6314f60e11b8152908101859052606490610bef6024820185612ccb565b60026044820152fd5b602190634e487b7160e01b5f525260245ffd5b5163113b162160e31b815291820152602490fd5b903461038f578060031936011261038f57602091610c3b612c89565b90355f525f80516020614b1c8339815191528352815f209060018060a01b03165f52825260ff815f20541690519015158152f35b503461038f575f36600319011261038f575f80516020614a3c8339815191525490516001600160a01b039091168152602090f35b903461038f57602091602060031936011261038f5780356001600160401b03811161038f57610cd59036908301612c23565b91610cde61300c565b5f5b838110610ce957005b610cf4818585612eaa565b356002541115610da157610d09818585612eaa565b355f52600380875260ff865f20541660068110159182610d8e578114918215610d82575b8215610d5d575b505090600191610d5857610d52610d4c828787612eaa565b356143c3565b01610ce0565b610d52565b909150610d6f57600514600188610d34565b602183634e487b7160e01b5f525260245ffd5b5083811491505f610d2d565b602185634e487b7160e01b5f525260245ffd5b610a1b919360249593612eaa565b3461038f5761012036600319011261038f57610dc961305f565b5f906002545f905b808210610eb1575050359160ff80841680940361038f576044359080821680920361038f5761ffff946084359180831680930361038f5760c4359681881680980361038f576024359482861680960361038f5760643598838a16809a0361038f5760a43584811680910361038f5760e4359285841680940361038f576101043595861680960361038f5760209b7f3cb90fbd5fd1cd47c25618d481b8a60fb5b5a9afbb1b884feca76adc82218e18998680958160809c8f82978391519e01160116011689520116011601168783015284820152846060820152a151908152f35b9092835f5260038060205260ff865f2054166006811015610d8e5703610f0157610eda8461396b565b15610ef757600191610eed839287613b79565b01935b0190610dd1565b5092600190610ef0565b92600190610ef0565b903461038f578060031936011261038f578135610f25612c89565b926002548210156107655750916020925f5260088352815f209060018060a01b03165f52825260ff815f20541690519015158152f35b503461038f575f36600319011261038f57602090515f80516020614a1c8339815191528152f35b3461038f578160031936011261038f576001600160401b0391813583811161038f573660238201121561038f57610fc29036906024818601359101612d74565b90610fcb612c89565b915f80516020614c3c8339815191529485549360ff85851c161592828616958615806113c5575b600180981490816113bb575b1590816113b2575b506113a2576001600160401b031981168717895584611387575b5084519261102d84612d1b565b600a845260209769109054d2d1551090531360b21b8986015261104e614841565b611056614841565b61105e614841565b61106784612fae565b61106f614841565b611077614841565b61107f614841565b611087614841565b875f80516020614bbc8339815191525561109f614841565b6110a7614841565b5f80516020614b9c833981519152805460ff191690556110c684613df7565b506110d084613e7b565b506110da84613f02565b508251908282116112c5576110ef5f54612dc6565b918a601f93848111611342575b5050808b8482116001146112e3575f916112d8575b505f19600383901b1c1916908a1b175f555b85519283116112c557506111378854612dc6565b818111611282575b508890821160011461120b575f80516020614afc83398151915292826111c1936111a3935f91611200575b505f19600383901b1c1916908a1b1789555b600a805461ffff60a01b1916601960a31b1790558751815190928392829084908e01612dfe565b810103902086516001600160a01b0390941694909391829182612e1f565b0390a36111ca57005b835460ff60401b191690935591519182527fc7f505b2f371ae2175ee4913f4499e1f2633a7b5936321eed1cdaeb6115181d291a1005b90508701518d61116a565b908791601f19821690835f528a5f20915f5b8c82821061126c575050925f80516020614afc83398151915295926111c19592826111a39610611254575b5050811b01895561117c565b8901515f1960f88460031b161c191690558d80611248565b838a015185558c9690940193928301920161121d565b885f52895f208280850160051c8201928c86106112bc575b0160051c019089905b8281106112b157505061113f565b5f81550189906112a3565b9250819261129a565b604190634e487b7160e01b5f525260245ffd5b90508501518d611111565b5f8080528d81208d94509190601f198416908f5b82821061132b5750508311611313575b5050811b015f55611123565b8701515f1960f88460031b161c191690558d80611307565b838b015185558f969094019392830192018f6112f7565b5f805284825f209181850160051c830193851061137e575b0160051c01908b905b82811061137357508c91506110fc565b5f8155018b90611363565b9250819261135a565b6001600160481b0319166001600160401b0117885588611020565b855163f92ee8a960e01b81528890fd5b9050158a611006565b303b159150610ffe565b5084610ff2565b3461038f57606036600319011261038f578035916113e8612c53565b9260ff6113f3612c63565b6113fb61300c565b16926001841080156115f1575b6115da575f80516020614a1c833981519152821480156115c4575b80156115ae575b8015611598575b8015611582575b801561156c575b8015611556575b156115415750611456848261462a565b925f805160206149dc8339815191526060600254958693611476856131f2565b6002555f8581526003602090815290889020805460ff64ffffffffff60481b0119164260481b64ffffffffff60481b1617905587519099909188908b906114bc85612cec565b8985528185019360010b9586855261ffff600160ff8689019316978884528a810194855260808101965f88528d5f52600b87525f20905181550195519463ff00000062ff00008854945160101b16945160181b16948260201b9151901b1694169065ffffffffffff19161717171790558651918252888201525f86820152a351908152f35b9151630d330d2760e01b815291820152602490fd5b505f80516020614b5c8339815191528214611446565b505f80516020614b7c833981519152821461143f565b505f80516020614b3c8339815191528214611438565b505f80516020614c1c8339815191528214611431565b505f80516020614a7c833981519152821461142a565b505f80516020614bfc8339815191528214611423565b825163fef0e19760e01b8152908101849052602490fd5b50808411611408565b503461038f575f36600319011261038f57602090515f805160206149bc8339815191528152f35b503461038f575f36600319011261038f57602090515f80516020614bdc8339815191528152f35b503461038f575f36600319011261038f5760209061ffff600c5460a01c169051908152f35b503461038f575f36600319011261038f5780515f915f5461168d81612dc6565b80845260209160019081811690811561068a57506001146116ba5750505061063f82610649940383612d36565b5f808052838120939650925b8284106116e257505050826106499461063f928201019461062d565b80548685018801529286019281016116c6565b3461038f575f36600319011261038f5761170d6144d9565b5f80516020614a3c83398151915280546001600160a01b031981169091555f906001600160a01b03165f80516020614adc8339815191528280a3005b903461038f57608036600319011261038f576001600160401b0391803583811161038f5761177a9036908301612c23565b92909160243585811161038f576117949036908301612c23565b94909360443587811161038f576117ae9036908501612c23565b909760643590811161038f576117c79036908601612c23565b9490956117d261300c565b88851480159061185c575b8015611852575b6105ba5750505f5b8381106117f557005b611800818585612eaa565b35906118106105a8828b8b612eaa565b9161181c82858d612eaa565b3560ff8116810361038f5761183283898b612eaa565b359061ffff8216820361038f5760019461184b936133cb565b50016117ec565b50858514156117e4565b50828514156117dd565b3461038f57602036600319011261038f5761187f612c12565b9161188861300c565b61ffff9182600a5460a01c1680848616116118f35750506118ee7fe3d341bbb0d63ef0d66c251183c4924a2e7f162ad25c49a951d8fa32ee9df47c93600c549261ffff60a01b8260a01b1661ffff60a01b19851617600c555193849360a01c1683612e95565b0390a1005b61190e90859351938493633c3b47bd60e11b85528401612e95565b0390fd5b903461038f57602090602060031936011261038f5782356001600160401b03811161038f576119449036908501612c23565b61194f9391936130d5565b611957614084565b5f5b8181106119735760015f80516020614bbc83398151915255005b61197e818387612eaa565b356002548110156119f557805f526003845260ff80865f20541660068110156119e25790886001949392036119db57815f5260088652865f20335f528652865f2054166119d5576119cf90336140c9565b01611959565b506119cf565b50506119cf565b602189634e487b7160e01b5f525260245ffd5b8660249186519163113b162160e31b8352820152fd5b903461038f57606036600319011261038f578135611a27612c89565b611a2f612cb5565b91600254811015611a6f57602094505f5260068452825f209060018060a01b03165f528352815f209060018060401b03165f528252805f20549051908152f35b8460249185519163113b162160e31b8352820152fd5b503461038f575f36600319011261038f5760209060ff5f80516020614b9c833981519152541690519015158152f35b3461038f57602036600319011261038f57803591611ad06130d5565b60025483101561070057825f52600360205260ff815f205416906006821015610d6f5760058203611b05576108d8843361311d565b90606493611b269251936327c6314f60e11b85528401526024830190612ccb565b60056044820152fd5b903461038f575f36600319011261038f577f00000000000000000000000000000000000000000000000000000000000000006001600160a01b03163003611b8657602090515f80516020614a5c8339815191528152f35b5163703e46dd60e11b8152fd5b503461038f575f36600319011261038f57600c5490516001600160a01b039091168152602090f35b3461038f575f36600319011261038f575f80516020614abc833981519152805f525f80516020614b1c833981519152602052825f20335f5260205260ff835f20541615611c4e577f62e78cea01bee320cd4e420270b5ea74000d11b0c9f74754ebdbfc544b05a258602084611c2e614084565b5f80516020614b9c833981519152805460ff1916600117905551338152a1005b604492519163e2517d3f60e01b835233908301526024820152fd5b503461038f575f36600319011261038f57602090515f80516020614a7c8339815191528152f35b8160031936011261038f57611ca3612c73565b60249283356001600160401b03811161038f573660238201121561038f57611cd390369086818701359101612d74565b6001600160a01b03927f00000000000000000000000000000000000000000000000000000000000000008416308114908115611e8b575b50611e7b575f80526020935f80516020614b1c8339815191528552835f20335f52855260ff845f20541615611e605781169383516352d1902d60e01b815281818881895afa5f9181611e31575b50611d7157505050505191634c9c8ce360e01b8352820152fd5b858588928a5f80516020614a5c83398151915291828103611e1c5750863b15611e08575080546001600160a01b0319168317905551907fbc7cd75a20ee27fd9adebab32041f755214dbc6bffa90cc0225b39da2e5c2d3b5f80a2845115611df05750505f83819261038d95519101845af4611dea6148e9565b91614918565b925092505034611dfc57005b63b398979f60e01b8152fd5b9450505191634c9c8ce360e01b8352820152fd5b8351632a87526960e21b815280870191909152fd5b9091508281813d8311611e59575b611e498183612d36565b8101031261038f57519089611d57565b503d611e3f565b835163e2517d3f60e01b815233818801525f81890152604490fd5b825163703e46dd60e11b81528590fd5b9050845f80516020614a5c8339815191525416141587611d0a565b503461038f575f36600319011261038f57600a5490516001600160a01b039091168152602090f35b903461038f578060031936011261038f5781359060249081356001600160401b0380821161038f573660238301121561038f578186013590811161038f573684828401011161038f5760025485101561202a57611f2961300c565b845f526003602052825f20805460ff8116976006891015806120185760018a1415908161200b575b81611fe8575b50611fc757508487985f8051602061499c833981519152989360055f80516020614a9c8339815191529460ff1916179055611f9482518092612ccb565b60056020820152a28083519485936020855282602086015201848401375f828201840152601f01601f19168101030190a2005b85516327c6314f60e11b8152908101889052606490611b268189018b612ccb565b9050611ff95760038914158a611f57565b60218791634e487b7160e01b5f52525ffd5b505060028914155f611f51565b87602183634e487b7160e01b5f52525ffd5b825163113b162160e31b81528087018690528490fd5b903461038f57602036600319011261038f57813561205c612ece565b506002548110156120fd575f526003602052805f2081519061207d82612cec565b805460ff811693600685101561094c5760a0955084845260018060401b03926020850190848460081c16825264ffffffffff94859260806001868a0194868960481c1686528660608c019960701c168952015498019788526120e18551809a612ccb565b5116602088015251169085015251166060830152516080820152f35b905163113b162160e31b815291820152602490fd5b903461038f578060031936011261038f57813561212d612c9f565b9260025482101561076557506020926104e591612f4a565b903461038f575f36600319011261038f5761215e61300c565b5f80516020614b9c8339815191529182549060ff8216156121ac577f5db9ee0a495bf2e6ff9c91a7834c1ba4fdd244a5e8aa4e537bd38aeae4b073aa602084868560ff1916905551338152a1005b8251638dfc202b60e01b8152fd5b3461038f57608036600319011261038f576121d3612c73565b906024918235906121e2612cb5565b92606435946121ef6130d5565b6002548410156122fc57835f52600360205260ff875f20541660068110156122e957600181036122c75750612222614084565b5f80516020614c5c833981519152805f525f80516020614b1c833981519152602052875f20335f5260205260ff885f205416156122ac5750851561229d5761271090818710612282575050506108d8945061227d838361428a565b6142d9565b87516378e030db60e01b815292830187905282015260449150fd5b50855163150a67e960e01b8152fd5b6044929188519263e2517d3f60e01b84523390840152820152fd5b87516327c6314f60e11b81529283018590526064935061094391830190612ccb565b50634e487b7160e01b5f90815260218352fd5b865163113b162160e31b815291820184905290fd5b903461038f57602036600319011261038f5781356002548110156120fd575f52600b602052805f20906003602052805f209180549254918460205260ff6001825f205493015460101c16926001840180941161239c5760a0955081519485526123806020860160ff8316612ccb565b60081c6001600160401b03169084015260608301526080820152f35b601186634e487b7160e01b5f525260245ffd5b3461038f57602036600319011261038f5780356002548110156123e05790602092915f528252805f20549051908152f35b602492519163113b162160e31b8352820152fd5b903461038f57602036600319011261038f578135612410612ece565b506002548110156120fd5760a092505f52600b6020526080815f209160ff815161243981612cec565b600185549586835201549282602083018560010b815282840190828760101c1682526060850194838860181c16865261ffff988991019760201c16875283519889525160010b60208901525116908601525116606084015251166080820152f35b503461038f575f36600319011261038f57602090515f80516020614b7c8339815191528152f35b3461038f57602036600319011261038f578035906124dd6130d5565b60025482101561076557815f52600360205260ff835f20541692600684101561254157818403612519576108d883612513614084565b336140c9565b60649361253a9151936327c6314f60e11b8552838501526024840190612ccb565b6044820152fd5b602182634e487b7160e01b5f525260245ffd5b903461038f578060031936011261038f5761256d612c89565b90336001600160a01b03831603612589575061038d9135614005565b5163334bd91960e11b81529050fd5b503461038f575f36600319011261038f57602090515f80516020614bfc8339815191528152f35b903461038f578060031936011261038f5761038d91356125e26001610494612c89565b613f95565b503461038f575f36600319011261038f5760209061ffff600a5460a01c169051908152f35b903461038f57602036600319011261038f57602091355f525f80516020614b1c83398151915282526001815f2001549051908152f35b503461038f575f36600319011261038f57602090515f80516020614b5c8339815191528152f35b903461038f578060031936011261038f578135612684612c9f565b9260025482101561076557505f908152600560209081528282206001600160401b039094168252928352819020549051908152f35b903461038f578060031936011261038f5781356126d4612c9f565b916002548210156126f15761038d83836126ec61305f565b613b79565b5163113b162160e31b81529283015250602490fd5b503461038f575f36600319011261038f5760095490516001600160a01b039091168152602090f35b3461038f57602036600319011261038f57612747612c73565b61274f61300c565b6001600160a01b031691821561279857600980546001600160a01b03191684179055827f9317e3e59b11620f482b4bb292374da6e5cb9e7ef23cf3f121cacca9a5428f785f80a2005b51639554dd1160e01b8152fd5b903461038f5761014036600319011261038f5781356001600160401b03811161038f576127d59036908401612c23565b919061012036602319011261038f57916127ed61305f565b5f925f915b808310612803576020858551908152f35b909193612811858385612eaa565b356002548110156119f557805f5260038060205260ff865f20541660068110156119e2570361287057612843816135bd565b91909115612865579161285a600193928493613b79565b01945b0191906127f2565b50509360019061285d565b509360019061285d565b3461038f578160031936011261038f578035918260010b9182840361038f576024359060ff821680920361038f576128b061300c565b6001841280156129dd575b6129b4575060ff6060939416935f805160206149dc8339815191526002549485926128e5846131f2565b6002555f8481526003602090815290879020805460ff64ffffffffff60481b0119164260481b64ffffffffff60481b16179055865190989061292681612cec565b878a5f80516020614b5c833981519152988984528184019386855261ffff6001858301928884528a810194855260808101965f88528d5f52600b87525f20905181550195519463ff00000062ff00008854945160101b16945160181b16948260201b9151901b1694169065ffffffffffff19161717171790558651918252888201525f86820152a351908152f35b604490845f80516020614b5c8339815191528551926332cc7a6b60e21b84528301526024820152fd5b5060ff84136128bb565b903461038f57608036600319011261038f57612a01612c53565b91612a0a612c63565b6064359061ffff8216820361038f576020946104e593612a2861300c565b356133cb565b903461038f57602090602060031936011261038f5782356001600160401b03811161038f57612a609036908501612c23565b612a6b9391936130d5565b5f5b818110612a875760015f80516020614bbc83398151915255005b612a92818387612eaa565b356002548110156119f557805f526003845260ff80865f20541660068110156119e257906005600194939203612af057815f5260088652865f20335f528652865f205416612aea57612ae4903361311d565b01612a6d565b50612ae4565b5050612ae4565b3461038f57602036600319011261038f57612b10612c12565b91612b1961300c565b61ffff91828416906101f4808311612ba6575083600c5460a01c16918211612b8c5750506118ee7f4791562d259a08c64fef49ff6bef502e6c8f342eb8d4c8f90da367929ab1602d93600a549261ffff60a01b8260a01b1661ffff60a01b19851617600a555193849360a01c1683612e95565b61190e858451938493633c3b47bd60e11b85528401612e95565b60449284519263673af7c160e11b84528301526024820152fd5b903461038f57602036600319011261038f57359063ffffffff60e01b821680920361038f57602091637965db0b60e01b8114908115612c01575b5015158152f35b6301ffc9a760e01b14905083612bfa565b6004359061ffff8216820361038f57565b9181601f8401121561038f578235916001600160401b03831161038f576020808501948460051b01011161038f57565b602435908160010b820361038f57565b6044359060ff8216820361038f57565b600435906001600160a01b038216820361038f57565b602435906001600160a01b038216820361038f57565b602435906001600160401b038216820361038f57565b604435906001600160401b038216820361038f57565b906006821015612cd85752565b634e487b7160e01b5f52602160045260245ffd5b60a081019081106001600160401b03821117612d0757604052565b634e487b7160e01b5f52604160045260245ffd5b604081019081106001600160401b03821117612d0757604052565b601f909101601f19168101906001600160401b03821190821017612d0757604052565b6001600160401b038111612d0757601f01601f191660200190565b929192612d8082612d59565b91612d8e6040519384612d36565b82948184528183011161038f578281602093845f960137010152565b3461038f575f36600319011261038f5760206040516127108152f35b90600182811c92168015612df4575b6020831014612de057565b634e487b7160e01b5f52602260045260245ffd5b91607f1691612dd5565b5f5b838110612e0f5750505f910152565b8181015183820152602001612e00565b60409160208252612e3f8151809281602086015260208686019101612dfe565b601f01601f1916010190565b604060031982011261038f576001600160401b039160043583811161038f5782612e7791600401612c23565b9390939260243591821161038f57612e9191600401612c23565b9091565b61ffff91821681529116602082015260400190565b9190811015612eba5760051b0190565b634e487b7160e01b5f52603260045260245ffd5b60405190612edb82612cec565b5f6080838281528260208201528260408201528260608201520152565b91908201809211612f0557565b634e487b7160e01b5f52601160045260245ffd5b81810292918115918404141715612f0557565b8115612f36570490565b634e487b7160e01b5f52601260045260245ffd5b5f52600460205260405f2054908115612f9a57600560205260405f209060018060401b03165f5260205260405f20549061271091828102928184041490151715612f0557612f9791612f2c565b90565b50505f90565b358060010b810361038f5790565b6001600160a01b03908116908115612ff4575f80516020614a3c83398151915280546001600160a01b031981168417909155165f80516020614adc8339815191525f80a3565b604051631e4fbdf760e01b81525f6004820152602490fd5b335f9081525f805160206149fc83398151915260205260409020545f80516020614bdc8339815191529060ff16156130415750565b6044906040519063e2517d3f60e01b82523360048301526024820152fd5b335f9081527f756534422b3cb82a54d88d2dca71cfb1a3297222856e6ddc952d9ca5a7fc4b8860205260409020545f805160206149bc8339815191529060ff16156130415750565b805f525f80516020614b1c83398151915260205260405f20335f5260205260ff60405f205416156130415750565b5f80516020614bbc83398151915260028154146130f25760029055565b604051633ee5aeb560e01b8152600490fd5b9081526001600160a01b03909116602082015260400190565b9190805f5260209060088252604091825f209260018060a01b039081871694855f52835260ff815f2054166131d857835f5260078352805f20855f528352805f20549182156131bd5782859697986131b6927f181dd8e5abfdd7ea94bff7529391d477a29bf85df13abe63fb4f97017bbc8ba0975f5260088752845f208a5f528752845f20600160ff19825416179055600954166145f3565b51908152a3565b8151632decd07b60e11b81528061190e8a8860048401613104565b516302a4851560e61b81528061190e888660048401613104565b5f198114612f055760010190565b9190915f80516020614a1c833981519152811480156133b5575b801561339f575b8015613389575b8015613373575b801561335d575b8015613347575b1561332f5761324c838261462a565b5f805160206149dc833981519152606060025492613269846131f2565b6002555f84815260036020526040808220805460ff64ffffffffff60481b0119164260481b64ffffffffff60481b16179055805195988996906132ab82612cec565b888252602082019060010b9485825260ff848401911692838252878101868152600160808301928884528c8952600b602052878920905181550193519261ffff63ff00000062ff00008754935160101b16935160181b16938160201b905160201b1694169065ffffffffffff191617171717905581519384526020840152820152a3565b60249060405190630d330d2760e01b82526004820152fd5b505f80516020614b5c833981519152811461323d565b505f80516020614b7c8339815191528114613236565b505f80516020614b3c833981519152811461322f565b505f80516020614c1c8339815191528114613228565b505f80516020614a7c8339815191528114613221565b505f80516020614bfc833981519152811461321a565b9193925f80516020614a1c83398151915283148015613591575b801561357b575b8015613565575b801561354f575b8015613539575b8015613523575b1561350a5760605f805160206149dc83398151915291613428848661462a565b9060025494613436866131f2565b6002555f8681526003602052604090819020805460ff64ffffffffff60481b0119164260481b64ffffffffff60481b16179055805196998a97939192909161347d85612cec565b898552602085019160010b9586835260ff85870191169384825260ff898801911681526080870191600161ffff809516988985528d5f52600b602052885f20905181550194519363ff00000062ff00008754935160101b16935160181b169361ffff60201b905160201b1694169065ffffffffffff191617171717905581519384526020840152820152a3565b604051630d330d2760e01b815260048101849052602490fd5b505f80516020614b5c8339815191528314613408565b505f80516020614b7c8339815191528314613401565b505f80516020614b3c83398151915283146133fa565b505f80516020614c1c83398151915283146133f3565b505f80516020614a7c83398151915283146133ec565b505f80516020614bfc83398151915283146133e5565b91909161ffff80809416911601918211612f0557565b5f52600b60205260405f2080545f80516020614a1c833981519152811461393f575f80516020614bfc83398151915281146138f6575f80516020614a7c8339815191528114613898575f80516020614c1c8339815191528114613848575f80516020614b3c8339815191528114613813575f80516020614b7c83398151915281146136cc575f80516020614b5c8339815191521461365c57505f905f90565b60ff6136a1600161368361ffff80613672614511565b169061367c6145a7565b1690612ef8565b93015492828460181c1680155f146136c557508260015b1690612f2c565b9160101c16808210156136be57506001600160401b031690600190565b9160019150565b839061369a565b505060243560ff9081811680910361038f5760443582811680910361038f576136f4916135a7565b9060643581811680910361038f5760843582811680910361038f57613718916135a7565b9060a43581811680910361038f5760c43582811680910361038f5761373c916135a7565b9060e4359080821680920361038f576101043590811680910361038f57613762916135a7565b91835f809161ffff8097168785168181115f146137ff5750505050506001905f905b808616848716818111156137d657505050505090600292805f935b169116818111156137c3575050505060035f5b6137bc5790600190565b505f905f90565b036137b2576137d1906131f2565b6137b2565b909192959450959295146137ec575b819061379f565b926137f782916131f2565b9390506137e5565b909192939450036137845760019150613784565b50506101243560ff811680910361038f576001811461384057600214613839575f905f90565b6001908190565b505f90600190565b50600160ff91015460181c1660018110801561388e575b6137bc5760ff61386f8192614722565b911691168082116138855711613839575f905f90565b50505f90600190565b506004811161385f565b5061ffff90816138a6614511565b16916138b06145a7565b1691828103925f811282851281169083861390151617612f0557600a8402938405600a1491141715612f05576001015460010b908181136138855712613839575f905f90565b509061390761ffff80613672614511565b600a810290808204600a1490151715612f0557600180930154830b905f82126139385711613934575f9190565b8190565b50505f9190565b5050613949614511565b61ffff806139556145a7565b169116908082116138855711613839575f905f90565b5f52600b60205260405f2080545f80516020614a1c8339815191528114613b3f575f80516020614bfc8339815191528114613b2e575f80516020614a7c8339815191528114613b16575f80516020614c1c8339815191528114613ae5575f80516020614b3c8339815191528114613abf575f80516020614b7c8339815191528114613a2a575f80516020614b5c83398151915214613a0a57505f905f90565b60ff6136a1600161368361ffff80613a2061455c565b169061367c614511565b505060043560ff9081811680910361038f5760243582811680910361038f57613a52916135a7565b9060443581811680910361038f5760643582811680910361038f57613a76916135a7565b9060843581811680910361038f5760a43582811680910361038f57613a9a916135a7565b9060c4359080821680920361038f5760e43590811680910361038f57613762916135a7565b50506101043560ff811680910361038f576001811461384057600214613839575f905f90565b50600160ff91015460181c16600181108015613b0c575b6137bc5760ff61386f81926147b2565b5060048111613afc565b5061ffff9081613b2461455c565b16916138b0614511565b509061390761ffff80613a2061455c565b5050613b4961455c565b61ffff80613955614511565b90949392606092608083019660018060401b03168352602083015260408201520152565b919091805f52602060038152604090815f2092835460ff81166006811015612cd85760038103613dca5750613bae878361428a565b815f52600496878452845f20549160058552855f2060018060401b0383165f528552855f205415613d5f575061ffff9586600c5460a01c16966127109081613bf68a87612f19565b049881600a5460a01c1603818111613d4c57613c13911685612f19565b0494613c1f8689612ef8565b9081850392858411613d4c5780544260701b64ffffffffff60701b16600169ffffffffff000000000160481b0319909116600887901b610100600160481b031617178c1781556001018390558751600381529081018b90527fdd2e3713f4f6dc5f6c91ac1cea9e1f2fb91d4f4329fa81eab52629f775228ffa949392613cc092909187905f80516020614a9c833981519152908b90a2885194859485613b55565b0390a280613d12575b5081613cd6575b50509050565b600c546001600160a01b03908116918215613d035750613cfb939450600954166145f3565b805f80613cd0565b516313a974d360e01b81528590fd5b600a546001600160a01b03908116908115613d3c5790613d369291600954166145f3565b5f613cc9565b8351635c192c5f60e01b81528790fd5b60118c634e487b7160e01b5f525260245ffd5b74766f69643a206e6f2077696e6e696e67206265747360581b9397985060609592505f8051602061499c83398151915296915060059060ff1916179055855f80516020614a9c83398151915282805160038152600587820152a26015815193808552840152820152a2565b84516327c6314f60e11b815260048101849052606491613dee906024830190612ccb565b60036044820152fd5b6001600160a01b03165f8181527fb7db2dd08fcb62d0c9e08c51941cae53c267786a0b75803fb7960902fc8ef97d60205260409020545f80516020614b1c8339815191529060ff16612f9a575f805260205260405f20815f5260205260405f20600160ff1982541617905533905f5f8051602061497c8339815191528180a4600190565b6001600160a01b03165f8181525f805160206149fc83398151915260205260409020545f80516020614bdc83398151915291905f80516020614b1c8339815191529060ff16613efb57825f5260205260405f20815f5260205260405f20600160ff1982541617905533915f8051602061497c8339815191525f80a4600190565b5050505f90565b6001600160a01b03165f8181527f75442b0a96088b5456bc4ed01394c96a4feec0f883c9494257d76b96ab1c9b6b60205260409020545f80516020614abc83398151915291905f80516020614b1c8339815191529060ff16613efb57825f5260205260405f20815f5260205260405f20600160ff1982541617905533915f8051602061497c8339815191525f80a4600190565b90815f525f80516020614b1c8339815191528060205260405f209160018060a01b031691825f5260205260ff60405f205416155f14613efb57825f5260205260405f20815f5260205260405f20600160ff1982541617905533915f8051602061497c8339815191525f80a4600190565b90815f525f80516020614b1c8339815191528060205260405f209160018060a01b031691825f5260205260ff60405f2054165f14613efb57825f5260205260405f20815f5260205260405f2060ff19815416905533917ff6391f5c32d9c69d2a47ea670b442974b53935d1edc7fd64eb21e047a839171b5f80a4600190565b60ff5f80516020614b9c833981519152541661409c57565b60405163d93c066560e01b8152600490fd5b6001600160a01b039091168152602081019190915260400190565b815f52602060088152604090815f209360018060a01b039081851695865f52835260ff845f20541661426c57805f5260038352835f209160018060401b039182845460081c169360068652865f20895f528652865f20855f528652865f2054948515614251578761417e84937f7513b6be2c9a0992975f71ef42f47c8ebedee4891864b052e46cf9247374f68d938d965f5260058b52835f20905f528a526141796001845f20549201548a612f19565b612f2c565b96835f5260088952815f20855f528952815f20600160ff198254161790556141ab888c88600954166145f3565b81519081528789820152a3600c541694856141ca575b50505050505050565b853b1561038f575f836141f19287519384928392634b163dfd60e11b8452600484016140ae565b0381838a5af19182614242575b5050614238577fc2fc5903a57992388fcd26321fd0783c1988ccb0541598ebcf73cb5364fd83bf9251908152a35b5f8080808080806141c1565b505050505061422c565b8111612d075784525f806141fe565b875163b361b5fb60e01b81528061190e8b8660048401613104565b83516302a4851560e61b815290819061190e90879060048401613104565b90815f52600b60205260ff600160405f20015460101c169060018060401b03168181116142b657505050565b60649350604051926383b689d160e01b8452600484015260248301526044820152fd5b927fcbf470e9c24fcadd6c47cc5958895187cbc7e78e537c0ee49b499b4dd65db5979192835f526143be602060068152604090815f209760018060a01b031697885f528152815f2060018060401b03851690815f528252825f2061433e878254612ef8565b9055875f5260078252825f20895f528252825f2061435d878254612ef8565b9055875f5260058252825f20815f528252825f2061437c878254612ef8565b9055875f5260048252825f20614393878254612ef8565b9055875f5260058252825f20905f5281526004825f205491885f5252815f2054915194859485613b55565b0390a3565b805f52600360205260405f2080549060ff8216916006831015612cd857600183141580614444575b6144205760ff19166003179055604080515f80516020614a9c83398151915292614416908290612ccb565b60036020820152a2565b6040516327c6314f60e11b815260048101859052606490613dee6024820186612ccb565b5060028314156143eb565b805f52600360205260405f2080549060ff8216916006831015612cd857821515806144ce575b6144aa5760ff19166001179055604080515f80516020614a9c833981519152926144a0908290612ccb565b60016020820152a2565b6040516327c6314f60e11b8152600481018590526064906109436024820186612ccb565b506002831415614475565b5f80516020614a3c833981519152546001600160a01b031633036144f957565b60405163118cdaa760e01b8152336004820152602490fd5b60243560ff811680910361038f576064359060ff821680920361038f5761ffff9160a43560ff811680910361038f5760e4359260ff841680940361038f578492839101160116011690565b60043560ff811680910361038f576044359060ff821680920361038f5761ffff9160843560ff811680910361038f5760c4359260ff841680940361038f578492839101160116011690565b60443560ff811680910361038f576084359060ff821680920361038f5761ffff9160c43560ff811680910361038f57610104359260ff841680940361038f578492839101160116011690565b6108cd614628939261461a60405194859263a9059cbb60e01b6020850152602484016140ae565b03601f198101845283612d36565b565b905f80516020614a1c833981519152821461471b575f80516020614bfc833981519152821461471b575f80516020614a7c833981519152821461471b575f80516020614c1c833981519152821461471b575f80516020614b3c833981519152821461471b575f80516020614b7c8339815191528214614714575f80516020614b5c83398151915282146146d057604051630d330d2760e01b815260048101839052602490fd5b908160010b60018112801561470a575b6146ec57505060ff1690565b60449250604051916332cc7a6b60e21b835260048301526024820152fd5b5060ff81136146e0565b5050600390565b5050600190565b9060ff8092166001811461479557600281146147785760031461475c5760e435828116810361038f5761010435928316830361038f579190565b60a435828116810361038f5760c435928316830361038f579190565b50606435828116810361038f57608435928316830361038f579190565b50602435828116810361038f57604435928316830361038f579190565b9060ff809216600181146148245760028114614807576003146147eb5760c435828116810361038f5760e435928316830361038f579190565b608435828116810361038f5760a435928316830361038f579190565b50604435828116810361038f57606435928316830361038f579190565b50600435828116810361038f57602435928316830361038f579190565b60ff5f80516020614c3c8339815191525460401c161561485d57565b604051631afcd79f60e31b8152600490fd5b5f806148979260018060a01b03169360208151910182865af16148906148e9565b9083614918565b80519081151591826148c5575b50506148ad5750565b60249060405190635274afe760e01b82526004820152fd5b819250906020918101031261038f576020015180159081150361038f575f806148a4565b3d15614913573d906148fa82612d59565b916149086040519384612d36565b82523d5f602084013e565b606090565b9061493f575080511561492d57805190602001fd5b604051630a12f52160e11b8152600490fd5b81511580614972575b614950575090565b604051639996b31560e01b81526001600160a01b039091166004820152602490fd5b50803b1561494856fe2f8788117e7eff1d82e926ec794901d17c78024a50270940304540a733656f0d4c4561c5b0048424071c1115e9f1e325486e21c21333d968f21097b7b72d12ad92a19c77d2ea87c7f81d50c74403cb2f401780f3ad919571121efe2bdb427eb1ea7cc971ba11025eb99fff8822470c08a1a30d81df27de1d47b40c3d91238934b16e88c42fd4e48df2dd6a2eabd6bc9aec654ec170056b470819f8892cc6431c97e9cffa40fd62a888d33fedb0550a0c24b2dab7e942dd2c90f3dc402fe1d9d09016d09d72d40fdae2fd8ceac6b6234c7706214fd39c1cd1e609a0528c199300360894a13ba1a3210667c828492db98dca3e2076cc3735a920a3ca505d382bbcd88b64b65dd27d7ee406fd2a617824a69990aac83ed75494fd137e43d8007cad3fda72f0a1439a9047288d6140aad7d37a71b660b5229783c8a637ebd0631c0b65d7a28e3265b37a6474929f336521b332c1681b933f6cb9f3376673440d862a8be0079c531659141344cd1fd0a4f28419497f9722a3daafe3b4186f6b6457e0b88a0148d0785022bedeff8dc0f55ccbb709825d7109265ebe5ca3325f191b4202dd7bc7dec4dceedda775e58dd541e08a116c6c53815c0bd028192f7b626800c21332dfdbce391fb79bb93cb3bdd389a3887e8ed803e48301c3b92f7095d3f10d35f5959cdbc5e97418758c59c699ea55293d7d32474b4ee39396eb770a549d62aa64c00e0b702d538c65ffc672e53ec0721fe8dd54c3223175a2051bd2e8f4cd5ed15c6e187e77e9aee88184c21f4f2182ab5827cb3b7e07fbedcd63f033009b779b17422d0df92223018b32b4d1fa46e071723d6817e2486d003becc55f00a49807205ce4d355092ef5a8a18f56e8913cf4a201fbe287825b095693c21775c48889a7f50eeb47325f8695e80998d47bc82fe412832d723b6bf2a0773c0622a73a6ddf2a0b1203f387e9ac295532c1f565ac9e2c5919248bcb5fa7c41bb627f0c57e16840df040f15088dc2f81fe391c3923bec73e23a9662efc9c229c6a00a903a5200a3509510da557615994ebd7dbb3d8b122c2190f01477c128da2cfcba2646970667358221220aac00f7ed8a75a6ab187da48301069b9e2c92afc086100d97bfe21af4d8acd3764736f6c63430008180033","linkReferences":{}},"methodIdentifiers":{"ADMIN_ROLE()":"75b238fc","BPS_DENOM()":"6637e38c","DEFAULT_ADMIN_ROLE()":"a217fddf","MARKET_FIRST_TO_SCORE()":"bdc69bd9","MARKET_HIGHEST_QUARTER()":"37c6ef85","MARKET_POINTS_EXACT()":"2045646d","MARKET_QUARTER_WINNER()":"af4a52ec","MARKET_SPREAD()":"51487dc0","MARKET_TOTAL_POINTS()":"330b82fe","MARKET_WINNER()":"8723eccf","MAX_FEE_BPS()":"d55be8c6","MIN_STAKE()":"cb1c2b5c","PAUSER_ROLE()":"e63ab1e9","RESOLVER_ROLE()":"78fab260","SWAP_ROUTER_ROLE()":"c6886db4","UPGRADE_INTERFACE_VERSION()":"ad3cb1cc","addMarketAdvanced(bytes32,int16,uint8,uint16)":"09908d87","addMarketWithLine(bytes32,int16)":"d203ce70","addMarketsBatch(bytes32[],int16[])":"c743bb73","addMarketsBatchAdvanced(bytes32[],int16[],uint8[],uint16[])":"6e60c97d","addPointsExactMarket(int16,uint8)":"0e1d6463","addQuarterMarket(bytes32,int16,uint8)":"7a3c2689","cancelMarket(uint256,string)":"456051f1","claim(uint256)":"379607f5","claimBatch(uint256[])":"62abebce","claimRefund(uint256)":"5b7baf64","claimRefundBatch(uint256[])":"0637e5df","closeMarket(uint256)":"ae418095","closeMarketsBatch(uint256[])":"8d3bf365","computeOutcome(uint256,(uint8,uint8,uint8,uint8,uint8,uint8,uint8,uint8,uint8))":"9cd1443c","emergencyPause()":"51858e27","feeBps()":"24a9d853","feeRecipient()":"46904840","getImpliedProbabilityBps(uint256,uint64)":"3fe1f002","getMarketCore(uint256)":"40b16c1e","getMarketInfo(uint256)":"3ec79193","getMarketSpec(uint256)":"396f01ba","getOutcomePool(uint256,uint64)":"1cf65cc2","getRoleAdmin(bytes32)":"248a9ca3","getTotalPool(uint256)":"3a35b9bd","getUserStake(uint256,address,uint64)":"5f779fef","getUserTotalStake(uint256,address)":"b2392cab","grantRole(bytes32,address)":"2f2ff15d","hasClaimed(uint256,address)":"873f6f9e","hasRole(bytes32,address)":"91d14854","initialize(string,address)":"7ab4339d","leaderboardFeeBps()":"74306a12","leaderboardRecipient()":"52a079be","marketCount()":"ec979082","matchName()":"71738f8c","openMarket(uint256)":"baa26757","openMarketsBatch(uint256[])":"9b05743f","owner()":"8da5cb5b","paused()":"5c975abb","placeBetUSDC(uint256,uint64,uint256)":"a4b8195c","placeBetUSDCFor(address,uint256,uint64,uint256)":"3eccfc96","proxiableUUID()":"52d1902d","renounceOwnership()":"715018a6","renounceRole(bytes32,address)":"36568abe","resolveBatchByScore(uint256[],(uint8,uint8,uint8,uint8,uint8,uint8,uint8,uint8,uint8))":"0eb47110","resolveByScore((uint8,uint8,uint8,uint8,uint8,uint8,uint8,uint8,uint8))":"8ac0be87","resolveMarket(uint256,uint64)":"1a095c6e","resolveMarketsBatch(uint256[],uint64[])":"a04286e0","revokeRole(bytes32,address)":"d547741f","setFeeBps(uint16)":"023b1fc9","setFeeRecipient(address)":"e74b981b","setLeaderboardFeeBps(uint16)":"6882870d","setLeaderboardRecipient(address)":"d1fc11a4","setUSDCToken(address)":"0f5a9d01","sportType()":"bef2a6a0","supportsInterface(bytes4)":"01ffc9a7","suspendMarket(uint256)":"931b5466","transferOwnership(address)":"f2fde38b","unpause()":"3f4ba83a","upgradeToAndCall(address,bytes)":"4f1ef286","usdcToken()":"11eac855"},"id":58}